:020000021000EC
:10000000E03F082095010100FB000100E100010034
:10001000090101001901010029010100000000008F
:10002000000000000000000000000000A1BE010070
:10003000390101000000000001BF01005901010069
:10004000E1C40100E1C40100E1C40100E1C4010018
:10005000E1C40100E1C40100E1C40100E1C4010008
:10006000E1C40100E1C40100E1C40100E1C40100F8
:10007000E1C40100E1C40100E1C40100E1C40100E8
:10008000E1C40100E1C40100E1C40100E1C40100D8
:10009000E1C40100E1C40100E1C40100E1C40100C8
:1000A000E1C40100E1C40100E1C40100E1C40100B8
:1000B000E1C40100E1C40100E1C40100E1C40100A8
:1000C000E1C40100E1C40100E1C40100709B020031
:1000D00000C00720FC02000000C30720481E0000EB
:1000E00004207146084203D0EFF309800CF016BAE1
:1000F000EFF308800CF012BA704708B5014808F019
:10010000E9FDFEE7F292020008B5024808F0E2FDC0
:10011000FEE700BFFD92020008B5024808F0DAFDD4
:10012000FEE700BF0893020008B5024808F0D2FDC0
:10013000FEE700BF1393020008B5024808F0CAFDAD
:10014000FEE700BF2093020008B5024808F0C2FD98
:10015000FEE700BF2E93020008B50BF057FE0BF030
:10016000F1FEBDE808400BF065BE0B4610B5401A25
:100170005C1AA24203D9C45843F8044BF8E710BDF7
:10018000034610B500221C1AA14202D943F8042BE1
:10019000F9E710BD16480BF077FF15480BF077FF15
:1001A000144C154DAC4201D3144D07E094E8030004
:1001B0000C3454F8042CFFF7D8FFF3E7AC4206D216
:1001C00054F8080B54F8041CFFF7DAFFF6E710F0B8
:1001D0000BF90BF073FF01F0DBFD03F041FE4FF470
:1001E00016400CF0B9FA064808F074FDFEE700BFAF
:1001F000E03F0820CC000100D8000100E000010031
:10020000429302000BF060BE0BF06EBE144B10B5B3
:100210001A68014612B94FF080521A60114C1868E2
:100220002468421894421A6007D20F4CA24204D8A4
:100230000E4A0B488C18046010460D4A1B68126861
:10024000934222BF064B00201A6039B1094A136855
:1002500001331360084B1860084B196010BD00BFD4
:1002600004C307200CC30720FFBF072048E1072075
:1002700010C3072014C3072000C3072008C30720AA
:1002800010F0EAB910F0F0B910F0EEB930B504464C
:100290008BB0684610F09CFC224B079A2360089BA9
:1002A000214DA36062602149214B52B90A68186848
:1002B00082428ABF02F1604202F17042A2F5E82256
:1002C000626062681B68B2F5803F82BF02F17042D3
:1002D000A2F5E82262600022E2600A68934206D337
:1002E000991AC5F1005303F504230B440BE0114B9D
:1002F0001B68934208D9991AC5F1005303F5F823F6
:100300000B44002B00DDE36020460B4BE2611B68D1
:10031000A3610A4B1B686361094B1B6823610BB027
:1003200030BD00BF4821000048E1072004C307207A
:100330000CC3072010C3072000C3072008C30720F1
:1003400014C3072000207047034A044B1A60044A74
:10035000044B1A60704700BF008000100CC30720D8
:100360000040082010C30720014B1860704700BFF1
:1003700020C30720014B1860704700BF18C3072037
:1003800008B5024811F0DAFBFEE700BFA0690200E1
:1003900008B5024811F0D2FBFEE700BFBA690200BF
:1003A0000020704701207047F8B5084B16461A68C0
:1003B0000F461C4642B10D46EB1B9E4204DD2368EE
:1003C00015F8010B9847F7E73046F8BD20C3072022
:1003D000F8B5094B0F46186816461C4658B10D462D
:1003E000EB1B9E4205DD23680020984705F8010BB2
:1003F000F6E726EAE670F8BD18C30720704700202C
:100400007047FFFF074B1B689A68824207D05A6803
:10041000824204D0DB681B1A5842584170470120C1
:10042000704700BF40C10720002070470020704780
:1004300030B504468DB0A8B3684609F0ADFD9DF80F
:100440000030002503F03F0303939DF8013003A81B
:1004500003F03F0304939DF802300B9503F01F0354
:1004600005939DF8043003F01F0306939DF80530B3
:1004700003F00F03013B0793BDF80630C3F30B03F2
:10048000A3F26C7308939DF8033003F007030993FC
:10049000BDF80830C3F30B03013B0A9310F026FAB2
:1004A00084E8210000200DB030BDFFFF70B50F4D76
:1004B0000F4E2C6814F0010415D128460CF0ECFC0A
:1004C00088B14FF40E70FFF7DBFE302380F8353231
:1004D0003A2380F8344280F8363280F83742306070
:1004E00028460CF0E5FC306870BD00BF3CC3072017
:1004F00040C3072070B50F4D0F4E2B6813F0010459
:1005000016D128460CF0C8FC90B14FF40E70FFF7DE
:10051000B7FE012380F83432312380F835323A2394
:1005200080F8363280F83742306028460CF0C0FC44
:10053000306870BD34C3072038C307202DE9F04F61
:10054000ADF51B7D0F4608F0E9FF041E04DD0BF03E
:1005500025FC20460BF068F90DF114094C462A4D94
:100560004FF0640B0FCD0FC42B6804AA2360102139
:1005700000240AA804940BF015FB244A824624495F
:10058000384609F099FF26460AAD4FF00008D045DD
:100590001CD06B69A34215D1AA69049B16441BB1F8
:1005A000B3FBFBF3B2FBF3F3297B039202932B8C97
:1005B00000949B00019359F821306A681549384628
:1005C00009F07AFF08F101082435E0E701340A2C2C
:1005D000DAD1049B64229E1BB3FBF2F30E49B6FBF7
:1005E000F3F30E4A0096384609F066FF0AF0F0FF72
:1005F000102804D910220A49384609F05DFF01206D
:100600000DF51B7DBDE8F08FD4690200F36902008F
:10061000F86902001F6A0200476A02003C6A020091
:10062000666A020010B50C46ADF5007D68460BF019
:10063000DDFE20464FF0FF32694609F007FF01203A
:100640000DF5007D10BDFFFF30B50C4691B02C4973
:10065000054608F06FFE002847D00CAB04930BABA7
:1006600003930AAB029309AB019308AB009306AA6C
:1006700007AB2449284608F0C5FD072801D0002013
:100680003BE09DF83930069A0DA862F303038DF81C
:100690003930079A9DF8383062F304038DF838300A
:1006A000089ABDF83A3062F30B03ADF83A30099A74
:1006B0009DF8363062F304038DF836300A9A9DF8BF
:1006C000353062F305038DF835300B9A9DF83430E0
:1006D00062F305038DF834300C9A9DF8373062F3DD
:1006E00002038DF8373009F07FFC09F019FD064947
:1006F0000246204609F0E0FE012011B030BD00BFE7
:10070000906A0200946A0200528B0200F7B50D460F
:100710004E49044608F0FEFE064640B108F072F964
:100720004FF0FF324A49284609F090FE8BE04949D4
:10073000204608F0EFFE60B308F088F9464902460B
:10074000284609F0B9FE08F08DF9444902462846CA
:1007500009F0B2FE08F080F941490246284609F046
:10076000ABFE304608F068F90446012008F064F951
:100770000646022008F060F90746032008F05CF9FD
:1007800000970190334622463649284609F094FEE8
:1007900059E03549204608F0CDFD50B12022012115
:1007A000204608F065FE204608F0B6FE08F072FA12
:1007B00049E02E49204608F0BDFD064620B92C49E7
:1007C000204608F0B7FD60B32A49204608F0A0FD96
:1007D00060B92949204608F09BFD28B920462749E1
:1007E00008F096FD044602E0032400E002243146AE
:1007F000204608F0A7F9224A224B002E18BF1A46BD
:100800003CB1012C07D01C491A4B022C18BF0B46D7
:1008100002E01D4B00E0194B1C49284609F04CFE34
:1008200011E0204608F078FE194A1A490090F32397
:10083000012008F095F9204608F06EFE16490246A0
:10084000284609F039FE012003B0F0BDCF6A02004E
:10085000D56A0200EE6A0200F56A02000A6B020025
:100860001F6B02003E6B02006E6B0200726B020097
:100870007A6B0200CA6A0200C46A0200BE7C0200EF
:10088000B56A0200AD6A0200BE6A0200836B020014
:10089000E86902009C6B0200CF6B020030B589B0A2
:1008A00004AB002400930D4603AB022218490394C5
:1008B000049408F0B5FC022827D107AB009305AAE1
:1008C00006AB0499039805940694079404F0A6FDDA
:1008D000024638B1049B0F4900932846039B09F058
:1008E000EBFD10E0059A069B002A079908BF01223C
:1008F000002B08BF0123B1FBF3F3B1FBF2F2284652
:10090000054909F0D9FD012000E0204609B030BDBD
:100910005E7C0200DD6B0200FC6B02002DE9F047FB
:100920000E46ADF5856D3949054608F08DFD38490F
:100930000746284608F0B1FD3549284608F0CDFDA8
:10094000284608F0E9FD0122014681A806F0B0FD25
:10095000044640B1284608F0DFFD2E4902463046E5
:1009600009F0AAFD4CE00DF1040A01464FF40072B3
:1009700050460FF0D6FE00940BF022FD80468946CB
:100980006B464FF40072514681A806F02BFE08B961
:10099000009B23BB81A806F0F4FFCFB10BF010FD44
:1009A0004FF47A7200230FF087FA002305464FF4C4
:1009B0007A72404649460FF07FFA281A14BF034660
:1009C0000123B4FBF3F322461349304609F074FDCA
:1009D0004FF0FF321149304609F038FD10E01C4459
:1009E000002FCDD13D46009B9D42C9D233681AF8F5
:1009F00005105B684FF0FF32304698470135F2E74B
:100A000001200DF5856DBDE8F08700BF2A6C02005E
:100A10005E7C0200336C0200476C0200D57102005C
:100A20002DE9F0470023BEB00C46534905460C9310
:100A300008F070FD20B9284608F06EFD064600E07B
:100A40004E4E314615A807F055F8054630B103461D
:100A500032464B49204609F02FFD89E0324649498C
:100A6000204609F029FD2F460DF1780880230DA9B5
:100A700015A8CDF84C80149307F080F8002861D1B8
:100A80009DF83D30002B5DD09DF83C100DF13D00F0
:100A9000CA065BBF0D9B0C9A44229B185BBF0C934C
:100AA0002D220135013711F0010F14BF52232D23E0
:100AB000BDF83AA011F0020F09900D9814BF4FF045
:100AC000480E4FF02D0E11F0040F14BF4FF0530CD1
:100AD0004FF02D0C089011F0200FCAF34510BDF80F
:100AE000381007904FEAEA20069001F01F000590A9
:100AF000C1F343104FEA612114BF4FF041094FF099
:100B00002D0901F2BC71CDF804C0CDF800E00490CD
:100B10000391CDF808901C49204609F0CDFC4FF018
:100B2000FF321A49204609F07DFC41464FF0FF3262
:100B3000204609F077FC4FF0FF320F49204609F0BC
:100B400085FC91E73A46124900950C9B204609F036
:100B5000B3FC0BAA0CA9304607F03FF840B90B9B39
:100B60000C499A780C9B20465A43520809F0A4FC81
:100B700001203EB0BDE8F087D5710200626C020032
:100B8000656C0200896C0200A46C0200D16C02004A
:100B9000D56C0200FF6C020070B50C46064608F0EA
:100BA000BBFC0546304608F0B7FC07F0D8F8064A0B
:100BB000064B0749002808BF13462A46204609F07D
:100BC0007BFC012070BD00BFB56E0200BF6E02004D
:100BD000136D020070B50C46064608F09DFC0546F4
:100BE000304608F099FC07F05DF8064A064B0749C5
:100BF000002808BF13462A46204609F05DFC012064
:100C000070BD00BFB56E0200BF6E02002F6D020006
:100C10007FB503AB002400930E4602AB02220F49BE
:100C20000294039408F0FCFA022814D1029C039D5C
:100C30002046294607F03CF9094B0A49224600287C
:100C40000CBF084618462B4600900749304609F06D
:100C500033FC012000E0204604B070BD5E7C020041
:100C6000BF6E0200B56E0200416D020030B5ADF5F9
:100C70000D7D0C46054608F04FFC0A22014603A8EC
:100C800006F016FC40B1284608F046FC1F49024613
:100C9000204609F011FC34E08DF8070002901C4951
:100CA00042F210737E22204609F006FC19492046C4
:100CB00009F002FC236842F210721B680DF1070173
:100CC0002046984718B19DF807307E2B03D103A822
:100CD00006F057FE15E002AB01220DF1070103A853
:100CE00006F038FD58B9029B012B08D123684FF05C
:100CF000FF325B689DF8071020469847DAE70649FF
:100D0000D5E701200DF50D7D30BD00BF596D020006
:100D1000806D0200B86D0200D86D02002DE9F04F21
:100D2000ADF5417D002304AC236003930D46009490
:100D300003AB0222414908F073FA022806D04FF0B3
:100D4000FF323F49284609F081FB72E0216817A86D
:100D500006F0D0FE10B122683A4906E0039917A8C0
:100D600006F0C8FE28B1039A3749284609F0A4FBCB
:100D70005FE04FF480720DEB020105A808F012FA53
:100D80004FF4807280A90AA808F00CFA20AE8027E0
:100D90000FA917A81596169706F0F0FE002842D165
:100DA0009DF84530002B3ED09DF8443003F01003F1
:100DB00003F0FF0A002BEBD10DF14503039A234901
:100DC00005A808F0F3FB0DF1450322681F490AA8A6
:100DD00008F0ECFB05A808F09FFB07460AA808F0FE
:100DE0009BFB804605A8DDF83C9008F095FB834608
:100DF0000AA808F091FB534652460146CDF800A0E0
:100E0000584604F00BFB124A124BCDF80090002814
:100E10000CBF184610461049019043463A462846F2
:100E200009F04AFBB3E70AA808F0D1F905A808F0D1
:100E3000CEF901200DF5417DBDE8F08F5E7C02000A
:100E4000FF6D0200446E0200696E0200896E0200AE
:100E5000BF6E0200B56E02008F6E0200F8B50D463F
:100E60002449064608F056FB0446074618B1FFF72A
:100E700041FB002208E02049304608F04BFB0446C5
:100E800060B1FFF713FB3A46114600F2352007F038
:100E90009FF84FF0FF32194B194922E019493046AB
:100EA00008F038FB044658B1FFF724FB012200F29A
:100EB000352106F0BFFA4FF0FF32134B134910E013
:100EC0001349304608F026FB044680B1FFF7EEFADE
:100ED000012200F2352106F0ADFA0E4B0E494FF01B
:100EE000FF32002818BF1946284609F0AFFA2046FD
:100EF000F8BD00BF166F0200206F0200B86E02003E
:100F0000AE6E02002D6F0200D56E0200C56E0200AB
:100F1000366F0200FA6E0200EC6E020008B5084659
:100F20004FF0FF32084909F091FA07F06BFD4FF4DA
:100F3000FA600AF079FC4FF08043AA221A7200226C
:100F40001A70012008BD00BF426F020010B50120D9
:100F50000C4608F01BF940B100231A46194609F067
:100F600075FF4FF0FF32054902E005494FF0FF32AF
:100F7000204609F06BFA012010BD00BF536F02003C
:100F8000696F020038B5064C236833B91C20FFF79F
:100F900077F9054608F008FF2560206838BD00BFD6
:100FA0002CC307202DE9F04F5F4C91B023680E460B
:100FB00033B92C20FFF764F9054609F089F925605B
:100FC0002768FFF773FA00240CAA0DA900F2352058
:100FD0000D9406F002FE48B90C9A0D9C9569937821
:100FE000023D5C435D4364086D0800E025464F4BBD
:100FF0001A6898467AB90C20FFF742F98146FFF744
:10100000C1FF902389F804300023C9F80000C9F813
:101010000830C8F80090D8F8000004F0EDF98146D7
:101020000EF004FF0A900EF0E7FC014648460EF071
:101030002DFC3F490EF034FD0EF0F8FE81460DA860
:101040000BF032F805F02EF968B309F0E3F805F07B
:1010500013F94FF0000A0346D346D0469A450B9346
:101060000BD0504605F06CF9804538BFD3460B9B3A
:1010700038BF80460AF1010AF0E709F0E3F864237B
:1010800003FB08F32B4ACDF80880B3FBF2F3C3F15E
:1010900064030093CDF804B02B462246264930461F
:1010A00009F00AFA05E02B4622462449304609F0A9
:1010B00003FA234C23681BB90120FFF7E1F82060F5
:1010C000206804F05DF9044609F02AF8FB8C0A9ABE
:1010D0000993BB8C1B4908939DF83430019003F0B1
:1010E0003F0307939DF83530009403F03F030693C8
:1010F0009DF83630304603F01F030593BDF83A30B3
:10110000C3F30B0304939DF8383003F01F030393DC
:101110009DF8393003F00F0302934B4609F0CCF9E8
:10112000012011B0BDE8F08F30C3072024C3072091
:1011300000002041A0860100A26F0200D66F0200CD
:1011400028C30720E46F02002DE9F04F0D46C7B019
:101150005549814608F005F954498246484608F049
:1011600000F953498346484608F0FBF800270DF183
:10117000100805AE044602970397C8F80070376060
:10118000BAF1000F45D0009603AB02AA4949484680
:1011900008F038F8012807DC28464FF0FF324649AE
:1011A00009F054F938467CE00DF118084FF48074CA
:1011B0002246394640460FF0B4FA336813B901238A
:1011C000336003E0B3F5807F88BF3460FFF7DAFE59
:1011D00033689DF80C209DF808100093434609F0F1
:1011E00031FA364A364B3749002818BF1346029A5F
:1011F000284609F061F9002433689C424ED2039AD4
:1012000018F8043022443049284609F055F90134D1
:10121000F2E7BBF1000F2CD0CDF8008003AB02AA9F
:101220002A49484607F0EEFF032807D028464FF02A
:10123000FF32274909F00AF9504632E0FFF7A2FED3
:1012400098F800309DF80C209DF8081009F00FFA6E
:1012500048B1039B1F490093D8F80020029B284601
:1012600009F02AF91AE0029A1B49284609F024F9E4
:1012700014E0A8B102230293029BFE2B10DCFFF7BF
:1012800081FE9DF8081009F0FDF920B1029A13497A
:10129000284609F011F9029B0233ECE7012000E037
:1012A000204647B0BDE8F08F7D7D02004D70020002
:1012B000537002005C7002006B700200B56E020099
:1012C000BF6E02008C700200B0700200C07002009D
:1012D000D0700200F7700200117102002E7102003E
:1012E00070B5ADF50A7D05460C4607F082FF0B2868
:1012F00002DD0C2222493CE0284608F00DF90122CB
:10130000014601A806F0D4F8064668BB01A806F01D
:1013100038FB284608F000F91A490246049B20468B
:1013200009F0CAF8236820469B6898470A200AF00B
:101330007BFA4FF0100383F31188BFF36F8FBFF375
:101340004F8F284608F0E8F802460F4B00685168B6
:1013500003C390680D4A186043F80C2C4FF080438B
:10136000AA221A721E7007E0284608F0D5F8024635
:101370000749204609F0A0F801200DF50A7D70BD4F
:10138000687102008F710200484002400DD0ADDE4E
:10139000D67102002DE9F041404CA4B02368064606
:1013A000DB070D460CD420460BF076FD40B14FF420
:1013B00080600FF051F93A4B186020460BF078FD31
:1013C0003849304607F0CDFF0746044600B3802277
:1013D000002104A80FF0A5F900230293039303ABA7
:1013E000009304AA02AB3049304607F00BFF2C49AA
:1013F000029B039A096804A813B904F0ABF801E052
:1014000004F0CAF8294B2A49002818BF194638E0C9
:101410002849304607F0A5FF074600283AD004AB1C
:10142000304603AA2449039404948DF8084007F039
:10143000E9FE039E049B3344B3F5806F02DCDFF8C2
:1014400060800CE04FF480621C4920E0D8F8003046
:101450009DF808209A559DF8083001361C44039BDE
:10146000049AF31A934210DAB6F5806F0DDA2B68FE
:101470004FF4FA621B6802A9284698470028E5D174
:101480000F49284609F018F804E022460D4928467D
:1014900009F012F8384624B0BDE8F08148C30720AF
:1014A00044C307200172020008720200EF710200BB
:1014B000EB710200187202001F7202002972020012
:1014C0004D7202005D72020038B50D4608F026F834
:1014D0000446C0B202F0E6FE054A064B0649002863
:1014E00018BF13462246284608F0E6FF012038BD03
:1014F000B56E02006E7202007572020030B50C46C5
:10150000054687B00A4908F0D7FFA18823880491CF
:10151000218962880391E18828460291E17A01914C
:10152000A17A0091034908F0C7FF07B030BD00BFA2
:101530008C720200C27202002DE9F0418CB003AB44
:10154000002600930D46904602AB022238490296CF
:10155000039607F065FEB04266DD02980EF043FE8A
:10156000C7B2039818B110F01DFEC4B200E00446E3
:10157000002104A803F036FD30B14FF0FF322D49B1
:10158000284608F063FFF3E7022318F100010093F7
:10159000039A234618BF0121384602F0C7FF0646CA
:1015A00038B94FF0FF322449284608F04FFF012692
:1015B0003AE0B8F1000F37D04FF47A7104A803F085
:1015C00019FD60B39DF81030BB4228D19DF817304B
:1015D0000C2B04D13A4606A92846FFF78FFFBCB969
:1015E0001649284608F068FF9DF817309C420ADA31
:1015F00004AB19192B684FF0FF325B68097A284653
:1016000098470134F0E70E49284608F055FF0BE0F3
:101610004FF0FF320B49284608F018FF04E0029A09
:101620000949284608F048FF30460CB0BDE8F08173
:101630005E7C0200E0720200027302002A73020064
:10164000577902003E7302005B7302001FB501A8C8
:101650000C4603F049F902F031FE01A9024620468A
:10166000FFF74CFF012004B010BDFFFF30B58BB079
:101670000AAA4FF47A730C4642F8243D174907F042
:10168000C1FD0025019902A803F0ACFCD8B19DF87A
:1016900008201349204608F00FFF00259DF80F3061
:1016A0009D420ADA02AB591923684FF0FF325B689A
:1016B000097A204698470135F0E70A49204608F0A4
:1016C000FBFE0125DEE72DB94FF0FF32064920462B
:1016D00008F0BCFE01200BB030BD00BF2672020036
:1016E00081730200D47102009873020037B50C4672
:1016F00002F05EFF05461649204608F0DDFE15495A
:101700002A46204608F0D8FE1149204608F0D4FEAB
:10171000D5B11149204608F0CFFE0D49204608F00A
:10172000CBFE0025E8B202F02DFF013540B18178F3
:101730004378027800912046084908F0BDFEF1E7A1
:101740000349204608F0B8FE012003B030BD00BFB9
:10175000A9730200C4730200DE730200F973020071
:101760002DE9F3473C4C074626688946002E62D196
:101770002420FEF785FD0423054680E848008660A6
:10178000C6602021304610F043FAAE68E8604FEAA8
:101790008608072E0ED81020FEF772FD8246102212
:1017A00000210EF0BEFFEB68013643F808A008F1F7
:1017B0000408EEE7002608236B604FF00108274B72
:1017C000274A28492846009685F82080256006F09B
:1017D0008BFE254B254A26492068009606F084FE9C
:1017E000244B254A25492068009606F07DFE244BAF
:1017F000244A25492068009606F076FE234B244AA9
:1018000024492068009606F06FFE234B234A2449A2
:101810002068CDF8008006F067FE224B224A20495E
:101820002068009606F060FE0096204B204A214971
:10183000206806F059FE2049384607F06BFE18B1C3
:101840001E49384607F020FF4A463946206802B054
:10185000BDE8F04706F028BF50C30720147402000B
:101860004E7402000D1B010055740200A9740200A1
:10187000E1180100B2740200D57402006D16010077
:10188000D8740200377A0200C91401000275020000
:101890001E750200ED160100257502008C75020010
:1018A00039150100667502008B7502009075020003
:1018B000AB7502004D160100D5710200B175020032
:1018C00038B5064C236833B95820FEF7D9FC0546D5
:1018D00008F042FB2560206838BD00BF4CC30720DC
:1018E0002DE9F04F0446ADF2DC5D802288460DA85C
:1018F00000210EF016FF802200212DA80EF011FF0E
:1019000006AE002333600DAA00962DAB7549204624
:1019100007F078FC032801D00020DFE001220DA9A8
:10192000EDA805F0C5FD05460028F5D1FFF7C8FF75
:101930003368802280F853304DA9044608A88DF8FA
:101940001750079507F02EFC2DAB009333680DAAB6
:101950006549404608F0B0FDA94607AE33464FF44E
:1019600000726DA9EDA805F03DFE002840F0AF80A3
:101970003368002B00F0AB806F1C32685B49204657
:1019800008F09AFD236820469B6898477D1E0DF558
:10199000DA7B4FF0000A6DAB3268C3EB0B039A425F
:1019A00023680CD9CDF80CB05B684FF0FF321BF800
:1019B000011B20469847039B1B789A44EBE79B68E2
:1019C0002046984708A807F0A7FD834608A807F017
:1019D00013FC4FF47A7302465946204608F044FD42
:1019E000202201210DEB020007F042FD08A807F0BC
:1019F00095FD824520D008A807F090FD5246034689
:101A00003B49404608F058FD3A49204608F054FD4D
:101A1000236820469B68984723684FF47A721B68B6
:101A20000DF11701204698470028F5D1022F07F144
:101A300001034CD81F46A0E733682DAA2E49009316
:101A400020464B4608F038FD236820469B6898479F
:101A500008A807F061FD824608A807F0CDFB5146B3
:101A600002464FF47A73204608F0FEFC234908A88A
:101A700007F04EFCD0B908A807F04EFD20490246F9
:101A8000404608F019FD1B49204608F015FD236863
:101A900020469B68984723684FF47A721B680DF1C3
:101AA0001701204698470028F5D1BFE7154908A837
:101AB00007F0EAFD3368144999444A46F09B4046D2
:101AC00008F0FAFC002D3FF448AFBD1E45E7EDA835
:101AD00005F057FF08A807F07AFB01200DF2DC5D46
:101AE000BDE8F08FB6750200C5750200DC75020016
:101AF000EE750200D4710200157602002B7602000A
:101B00002E760200D5710200667602002DE9F047BC
:101B1000074686B006AA002442F80C4D0E463D4901
:101B200007F070FB20220121384607F0A1FC039B3F
:101B3000002B65D0384607F05CFB002860D0FFF72B
:101B4000BFFE05460DF1180808F80D4D2B6805225B
:101B50001B6841462846984704460028F6D1039B57
:101B6000384685F8533007F0D7FC274601464FF03A
:101B7000FF32284608F06AFC2B6828469B68984785
:101B8000254B0DF11809186849F8044D04902B688D
:101B90004FF47A721B68414628469847D0B1032219
:101BA0000DF1150148460EF0A1FD9DF80BA0042291
:101BB00004A948468DF817A00EF07EFD50B1336899
:101BC00001225B6851463046013798470028DED134
:101BD0000134DCE71822B7FBF2F302FB137202B107
:101BE00001333A460D49304608F066FC74B1612372
:101BF000009322460A4B0B49304608F05DFC05E095
:101C00004FF0FF320849304608F020FC012006B0B2
:101C1000BDE8F087267202006A7202007276020046
:101C200099760200D57602008E77020001480FF007
:101C300085BF00BFBA77020038B504460D460AF0EA
:101C400039FD074BB0FBF3F00223B0FBF3F2AA42DD
:101C500004D9B3F5807F01D00233F6E7236138BDA4
:101C600040420F007FB500F235260C460122314676
:101C700005F0E0FB054648BB039002AA03A93046E5
:101C800005F0ABFF00BB0298039A837802FB03F1D7
:101C900082691348023A5A435208B2F5004F38BFDE
:101CA0000120104B4FEA510124BF03464FF48060DE
:101CB000B1FBF0F1B2FBF0F20091019321460A482A
:101CC0000FF0CAFE012008E0084B00E0084B2A464E
:101CD000214608480FF0C0FE002004B070BD00BFD0
:101CE000F8770200F577020002780200FE77020022
:101CF000FB7702003078020038B5074C23684BB9F7
:101D00000820FEF7BDFA0546FFF73CF9402328609E
:101D10002B712560206838BD5CC3072038B5054CA1
:101D2000256825B90120FEF7ABFA05702060206810
:101D300038BD00BF58C3072038B5084C23685BB9CD
:101D40000C20FEF79DFA0546FFF71CF990232B7136
:101D500000232860AB602560206838BD24C30720BD
:101D600010B5044C23681BB90120FEF789FA2060E6
:101D7000206810BD28C3072010B5044C23681BB988
:101D80000120FEF77DFA2060206810BD54C30720B3
:101D9000AD49AE4A4023F0B58B614FF000739361BB
:101DA0004FF480338B61AA4BADF5057D186807258C
:101DB00020F0F00018601868022440F0500018600D
:101DC000186820F440501860086840F0400008602F
:101DD000186820F47C201860186840F428201860E7
:101DE000186820F470001860186840F4200018602B
:101DF000186820F040401860186840F000401860F3
:101E0000586820F03C005860586840F0280058603E
:101E1000586820F003005860086840F4803008607B
:101E2000586820F440505860086820F4800008602A
:101E3000D96821F44031D960116841F08071116096
:101E4000596821F440215960596841F48021596052
:101E50009868804901409960116841F4897141F0A6
:101E600001011160996821F470119960996821F05D
:101E700070419960116821F446411160D96821F0E0
:101E80003001D960D96841F03001D960D96821F4B6
:101E90007011D960136843F000731360136823F066
:101EA0008063136007F04EFC01210A200AF022FA39
:101EB00001210A200AF036FA6748012105604460D2
:101EC000FFF7BAFE08F036F9012115200AF012FAE0
:101ED000012115200AF026FA6048012105604460BE
:101EE000FFF7AAFEFFF74EF8642107F029FF10B9AB
:101EF0005B480FF023FE0AF039FA03F04DF810B9F1
:101F000058480FF01BFE4FF4FA6007F0D4FBFFF7C0
:101F10008DFE0AF0CFFB0DF06BFD53490DF074FE02
:101F20000DF014F902460B4650480FF095FD0AF0EB
:101F3000B5F8052804AC14D1002363604C4B1B6832
:101F40002360FFF773FE4B4B4B48D96C1A6D5B6DEA
:101F500000940FF081FDFFF769FE41F2883007F031
:101F6000AAFBFEF7A3FA4549FFF77CFE054668BBCE
:101F700043480FF071FD04F00DFAFEF797FA294679
:101F80002A4600F2352006F023F83E4B3E4A002850
:101F90000CBF104618460FF0D1FDFEF787FA3749FF
:101FA000FFF760FE90B939480FF0C8FD04F074F9EE
:101FB000014637480FF050FD04F05EF9054604F085
:101FC0006BF900FB05F133480FF046FD324E334FFD
:101FD000336813F0010516D130460AF05DFF90B169
:101FE0004FF40E70FEF74CF9012380F834323123A0
:101FF00080F835323A2380F8363280F8375238602C
:1020000030460AF055FF26493868264DFFF72AFE6C
:1020100018211148FFF710FEFFF708FE2B684BB997
:102020000820FEF72DF90646FEF7ACFF3823306096
:1020300033712E60286803F0A1F80546B0BB1A483A
:102040000FF07CFD33E000BF00C0092020C0092054
:1020500000C00240F0FCFCFF00000340008008408C
:1020600074780200A578020000247449CA7802003E
:102070004440024000400240E27802005A790200E7
:102080006279020068780200637802009F7902009A
:10209000BE790200CD79020034C3072038C307207F
:1020A000E46E020064C30720E87902000125FFF70F
:1020B00043FE03F077F9064618B972480FF03EFD6B
:1020C0003546FFF719FE03F0DBF8064618B96E48EF
:1020D0000FF034FD35466D4E33681BB90120FEF715
:1020E000CFF83060306803F099F8FFF739FE03F05D
:1020F00045F9FFF713FE03F0FCF8FFF73DFE03F090
:1021000042F9FFF70BFE002103F0F6F88DB9FFF757
:102110008DFDFFF7F1FD2D2103F09AF8FFF7ECFD9F
:102120002D2103F0A1F8FFF7F9FDFF2103F0E4F8FA
:102130000CE0FFF7E1FD0546FFF7FEFD03F05CF95B
:102140000DF09AFEC1B2284603F0B6F81022002125
:1021500020460EF0E6FA00230F2221464C4803F0F9
:10216000D7F980B920460EF03EF8C5B2284602F0F5
:1021700099F8484A484B2946002818BF1346444A54
:1021800046480FF069FCFFF7EBFD03F0F9F8054650
:10219000002010F093FF28440FF0D8FC4FF4007299
:1021A000002120460EF0BDFA20460AF01FF9214614
:1021B0003B480FF051FCFFF739FD802200212046FB
:1021C0000EF0AFFA204604F043F82278FF2A04D03C
:1021D000214634480FF040FC29E0FFF7CDFD03F025
:1021E000D5F809281DD130480FF0A8FC21462F480A
:1021F0000FF0B8FD21462E480FF02EFC2D480FF0B1
:102200009DFC002303A92C4803930FF0ABFD9DF820
:102210000C30592B03D1204603F0F8FF07E0274884
:1022200003E027480FF08AFC26480FF087FC4FF2A6
:1022300008031D684FF20C031C684FF210031E6860
:102240004FF470431A684FF20403AD0A1968A40AE8
:102250001D480FF001FC2A4621461C480FF0FCFBEC
:1022600031461B480FF0F8FBFFF7E0FC012006F0B9
:10227000FFFB18480FF062FCFFF7D8FC0DF5057D59
:10228000F0BD00BF037A02001D7A020060C3072080
:10229000367A02006E7802006E7202003C7A02000A
:1022A000528B0200707A02008C7A0200AE7A020031
:1022B000B37A0200CE7A0200117B0200157B020085
:1022C0002D7B02005B7B02008D7B0200B97B02004C
:1022D000E67B0200037C020001207047012070476A
:1022E0000120704710B5044C23681BB90120FDF78D
:1022F000C7FF2060206810BD60C307200120704721
:1023000038B504460F4B00250360636DE06DAB42AA
:1023100005D950F82500FDF7B5FF0135F5E708B1FF
:10232000FDF7B2FF0025A36B206CAB4205D950F836
:102330002500FDF7A7FF0135F5E708B1FDF7A4FF7C
:10234000204638BD3C7C020010B50446FFF7D8FF9C
:102350002046FDF797FF204610BD2DE9F0410446C9
:102360000E46C06889000FF053FCA568E060AF001E
:102370004FF00008AE420DD90C20FDF781FFE36855
:10238000C0F80080C0F8048080F808800135D8517A
:102390000437EFE76660BDE8F081FFFFF7B504465C
:1023A00000250B464FF480520095254906F0D4FED7
:1023B000244B042623606663A563E563256402213C
:1023C00004F13400FFF7C9FF26656565A565E5657D
:1023D000284660210FF01CFCA56DE065AE00172DAE
:1023E0000CD81020FDF74CFF0746102200210EF0FC
:1023F00098F9E36D01359F510436F0E718236365C2
:10240000012384F87030104E0023A4F87430A4F82F
:102410007630A367002200230027C4E92023C4E903
:10242000226709F0CDFF4FF47A7200230DF044FDCE
:1024300080197941C4E92001204603B0F0BD00BFF6
:10244000547C02003C7C0200C0D401002DE9F04124
:102450000F7A14464D680E688FB1082A23D128469A
:1024600006F0C7FE00281CDD4FF0FF32134930464E
:1024700007F0D8FF0121284606F0BAFF08E00A2A33
:1024800019D00D2A12D02146284607F0D2F897B16C
:10249000336821463046BDE8F0415B684FF0FF32BB
:1024A00018470724F4E70A2A02D1F1E7BDE8F081D2
:1024B0000D2AEDD0E7E7BDE8F08100BF5D7C0200AA
:1024C000F8B50446142015460F46FDF7D9FE8021C5
:1024D000064607F05EF8A36BE26B9A4206D3616B87
:1024E000591803D204F13400FFF737FFE36B226C75
:1024F000591C52F82330E1631F605E601D72F8BD05
:102500002DE9FF47CF6B06460D4601AC3FB94FF4AE
:102510007A7009F089F901976760A76047E00B6C52
:102520000DF110081B6893E8070084E807000023FA
:1025300008F80D3D09F040F881460027EB6B9F42FB
:1025400063D22B6C4FEA870A53F827301868037C54
:10255000002B34D0036800221B684146984770B3B3
:10256000EB6B9F422DD22B6C53F80A3093E8070097
:1025700084E807009DF8032021462846FFF766FF00
:1025800009F01EFF4FF47A7200230DF095FCD5E997
:10259000222380185941C5E92001029806F029FE3E
:1025A0000746029806F028FE013887420CDB94E8C3
:1025B000070086E80700304604B0BDE8F087013721
:1025C000BCE705F14403D1E7D5E92223134324D026
:1025D00009F0F6FE4FF47A7200230DF06DFCD5E998
:1025E0002023994208BF904217D309F0E9FE4FF427
:1025F0007A7200230DF060FCD5E92223801859413E
:102600000023C5E920010193D1E708F0D5FF8145FA
:10261000C3D1022009F008F9BFE79DF803300A2B67
:1026200088D1C4E7F0B5054685B020480FF014FA0C
:10263000294601A8FFF764FF019C1CB91C480FF054
:102640007DFA30E0029E304606F0D3FD00282ADDF8
:1026500009F0B6FE0746F8B1B5F8743005F1500040
:102660000133A5F874302246314606F01DF8114BAF
:1026700000251868009023681DF805105B684FF06E
:10268000FF32204601359847042DF4D109F098FE19
:10269000C11B09480FF0E0F9304606F0AFFD236892
:1026A00020469B689847012005B0F0BD607C020081
:1026B000D5710200307C0200667C020038B5064C01
:1026C000236833B92C20FDF7DBFD054607F000FE3B
:1026D0002560206838BD00BF30C3072010B5044610
:1026E000FFF7ECFF03682146BDE810405B684FF040
:1026F000FF32184713B5002302AC04F8013DFFF781
:10270000DDFF03684FF0FF321B68214698479DF8B4
:10271000070002B010BDFFFF2DE9F04100F15004A9
:102720008AB000250646009520465B4B5B4A5C4913
:1027300005F0DAFE009520465A4B5B4A5B4905F0EE
:10274000D3FE009520465A4B5A4A5B4905F0CCFE11
:1027500000952046594B5A4A5A4905F0C5FE009546
:102760002046594B594A5A4905F0BEFE009520466D
:10277000584B594A594905F0B7FE00952046584B29
:10278000584A594905F0B0FE00952046574B584A23
:10279000584905F0A9FE00952046574B574A58491D
:1027A00005F0A2FE00952046564B574A574905F0C2
:1027B0009BFE00952046564B564A574905F094FE1D
:1027C00000952046554B564A564905F08DFE00951A
:1027D0002046554B554A564905F086FE0095204641
:1027E000544B554A554905F07FFE00952046544B01
:1027F000544A554905F078FE00952046534B544AFB
:10280000544905F071FE00952046534B534A5449F4
:1028100005F06AFE00952046524B534A534905F095
:1028200063FE00952046524B524A534905F05CFE28
:102830000095524B524A5349204605F055FEFFF78A
:102840003DFF4FF4807320224FF41641054607F0F8
:102850001FFD804601272F744B48FDF78BFD4B4829
:10286000FDF782FD3A4629463046FFF729FE082249
:1028700003A905A806F096FC05A8454906F004FF43
:102880002A4605A9204605F00FFF05A806F09FFC83
:1028900040460AB0BDE8F0817C7C0200BE7C0200AC
:1028A0003D050100B37C0200C37C02002506010047
:1028B000CB7C0200D97C0200A50F0100E07C020065
:1028C000217D020049060100267D0200827D020072
:1028D0001D090100867D0200147E02009D08010092
:1028E000C87D0200137E02001D0D0100177E02004C
:1028F000457E0200210A0100487E02006D7E020032
:10290000990B0100737E0200A07E0200110C0100F1
:10291000A37E0200F99702006D0C0100C87E020040
:10292000EB7E0200D50B0100EE7E0200C17F0200AB
:1029300049110100C57F0200088002005D0E010000
:1029400010800200238002001D0F01002A80020077
:10295000298102000D0701002D810200558102002E
:102960004D0F01005B810200C17802006117010078
:1029700085810200798202009513010042820200E3
:10298000276F0200E1120100F5260100DD2601009B
:10299000B175020008B500F04CFE012008BD012011
:1029A000704708B500F0DEF9BDE8084000F01CBE35
:1029B000704708B500F0D4FBBDE8084000F00ABF3E
:1029C00070477047FFF7E6BFFFF7E9BF10B5044651
:1029D000FDF758FC204610BD70B50B4E05010B4BA2
:1029E000741953F82010201D08F0F2FEE368A06867
:1029F0009847A36870590133A36000231A46BDE8C5
:102A00007040194608F022BA68C3072050830200BC
:102A100008B50020FFF7E0FFFBE708B50120FFF74E
:102A2000DBFFFBE708B50220FFF7D6FFFBE708B5A1
:102A30000320FFF7D1FFFBE7F7B507460D462D4A08
:102A400000240D2312682C49009406F085FB2B4BC3
:102A500087F831503B602A4D2A4B0322EB602A4B0A
:102A60002146EB61294B0120EB62294BEB6308F017
:102A7000CBF9032228602146012008F0C5F9032282
:102A800028612146012008F0BFF9224B28621E6808
:102A90000523C6F38F060093324623461E49019450
:102AA0001E4808F043FC06230093324623461C4987
:102AB00001941C4808F03AFC072300930194234634
:102AC00032461949194808F031FC97F8313073B192
:102AD00003222146012008F097F908232863324693
:102AE0000093019423461249124808F01FFC38460F
:102AF00003B0F0BDA0820200B4820200688302002D
:102B000068C30720A3290100B1290100B3290100EE
:102B1000C12901009C820200BB820200112A01002F
:102B2000BF8202001B2A0100C4820200252A010084
:102B3000CA8202002F2A010038B517480C46415CB2
:102B400000230131C9B2914202D00155184638BD67
:102B5000124D0355200128581A46194608F07CFAF0
:102B60000546B0B90E4B53F8244020460EF0E6FF60
:102B700020460FF017FB2B4602462146094802F07B
:102B80000BFD094A094B9A644FF08043AA221A723E
:102B90001D70012038BD00BFA8C3072068C30720EF
:102BA000A4820200D1820200EFBEADDE00400240EE
:102BB000044608B5012008F037FE94F8313023B1FF
:102BC000012203212046FFF7B7FF0A2202212046F7
:102BD000FFF7B2FF0028EDD00A2201212046FFF7BF
:102BE000ABFF0028E6D00A2200212046FFF7A4FF11
:102BF000E0E7FFFF10B50446054B0360583340F88B
:102C0000043F00F020FE204600F01CFE204610BDD0
:102C100004840200A0F10400ECE700BF7FB50C467D
:102C2000064615460021102268460DF07AFD4FF049
:102C30000003224664F30303294602A88DF80230FC
:102C400001960DF048FD00226946012006F08AFF3A
:102C500004B070BDFFFFFFFF37B5046805460021D3
:102C600020460DF0BBF870B120460CF06FFA2EA391
:102C7000D3E900230CF0E8FB00222D4B0CF006F901
:102C80000CF068FD0DE020460CF060FA26A3D3E9B5
:102C900000230CF0D9FB0022254B0CF0F9F80CF0C6
:102CA00081FD030A6C688DF800008DF80130030C7B
:102CB000000E8DF80300002120468DF802300DF043
:102CC0008DF870B120460CF041FA17A3D3E9002328
:102CD0000CF0BAFB0022164B0CF0D8F80CF03AFDC1
:102CE0000DE020460CF032FA0FA3D3E900230CF0DC
:102CF000ABFB00220E4B0CF0CBF80CF053FD030A9B
:102D00008DF804008DF80530030C000E8DF80700D7
:102D10006A460821D6208DF80630FFF77FFF03B002
:102D200030BD00BFAFF300808DEDB5A0F7C6B03E5B
:102D30000000E03F07B50023019300930A222023FF
:102D40006421012006F0F2FD06F06AFF012003B0C5
:102D50005DF804EB06F058BF014802F0AAB900BFC5
:102D600000C5072038B5012006F0EEFE80B1094C01
:102D7000256825B90120FDF783FA057020602068D9
:102D8000032102F0E7FABDE83840012006F03CBF1D
:102D900038BD00BF58C307202DE9F04F924687B0D9
:102DA0009B464FA3D3E900230CF024FA00224E4B9C
:102DB0000CF04AFB4AA3D3E9002306460F46DDE99F
:102DC00010010CF017FA0022474B0CF03DFB44A316
:102DD000D3E9002380468946DDE912010CF00AFAA6
:102DE0000022414B0CF030FB3DA3D3E90023044605
:102DF0000D46504659460CF0FDF900223A4B0CF0B6
:102E000023FB02460B46204629460CF03FF80246BB
:102E10000B46CDE904230AF0ABF8CDE900014046AA
:102E200049460AF05DF804460D46304639460AF038
:102E300057F882468B46404649460AF099F8804644
:102E40008946304639460AF093F8DDE90423CDE996
:102E50000201104619460AF043F84246CDE9040142
:102E60004B46504659460CF0C5F9DDE902230646AB
:102E70000F46204629460CF0BDF9DDE904230CF08D
:102E8000B9F902460B46304639460BF0FFFF0646BD
:102E90000F46DDE9000122462B460CF0ABF9324625
:102EA0003B460AF005F900220F4B0CF0A3F90CA3E6
:102EB000D3E900230CF0C8FA0022002304460D4693
:102EC0000CF014FC38B1204629460022074B0BF0C9
:102ED000DFFF04460D462046294607B0BDE8F08FC7
:102EE000304CA60A462509400080664000807640A6
:102EF0002DE9F7430F46DDE90A01904699460CF0AB
:102F000071FC4946054640460CF06CFC0446DDE980
:102F10000C010CF067FC00230646002120469DF8BA
:102F200038808DF807308DF806300CF057FFC0B9A7
:102F30005D4920460CF070FFA8B9002120460CF036
:102F40004DFF88B120460CF001F955A3D3E90023C9
:102F50000CF07AFA0022554B0BF098FF0CF0FAFBBC
:102F600010E0002400E0504C20460CF0EFF84CA399
:102F7000D3E900230CF068FA00224C4B0BF088FFD9
:102F80000CF010FCC0F30B008DF80000040A0021C7
:102F900028460CF023FFC0B9434928460CF03CFFFB
:102FA000A8B9002128460CF019FF88B128460CF07A
:102FB000CDF83BA3D3E900230CF046FA00223B4BAB
:102FC0000BF064FF0CF0C6FB10E0002500E0364D6E
:102FD00028460CF0BBF832A3D3E900230CF034FAF6
:102FE0000022324B0BF054FF0CF0DCFBC0F30B0063
:102FF00044EA001400098DF80200002130468DF8E3
:1030000001400CF0EBFE70B130460CF09FF824A3A9
:10301000D3E900230CF018FA0022244B0BF036FF02
:103020000CF098FB0DE030460CF090F81CA3D3E9AF
:1030300000230CF009FA00221C4B0BF029FF0CF0C6
:10304000B1FBC0F30B0540468DF803500CF06CF853
:103050000022164B0BF01CFF0CF0A4FB0446384674
:103060000CF062F80022114B0BF012FF0CF09AFBEF
:103070006301000103F4FF5300F01000184340EA1D
:1030800015208DF80400C4F3C4046A460621C32049
:103090008DF80540FFF7C2FD03B0BDE8F08300BF27
:1030A0009A9999999999B93F0000B4430000E03F7B
:1030B00007B50CF04FFB002300B28DF807308DF8F8
:1030C00006308DF805308DF804308DF803308DF81A
:1030D00002306FF0B3039842B8BF1846B428A8BFB7
:1030E000B420002808DA0CF01FF800220E4B0BF079
:1030F000CDFE0CF02FFB07E00CF016F800220A4B77
:103100000BF0C6FE0CF04EFBC0F308008DF800007B
:10311000000A8DF801006A4602210420FFF77EFDB7
:1031200003B05DF804FB00BF0000E03F07B50121DC
:1031300002AA002302F8081D25208DF807308DF81B
:1031400006308DF805308DF804308DF803308DF899
:1031500002308DF80130FFF761FD03B05DF804FB2C
:10316000F0B5394C85B01022002168460DF0D9FA2F
:10317000254600226946012006F0A0FC00285BD00D
:10318000019BD42B1BD0D52BF3D1304A00231370D5
:103190002F4AFF2111702F4A13702F4B9DF80820E2
:1031A0001A7023682BB94FF4806108200DF020F8C5
:1031B00020602A4B00221A602A68294B3AE00298C4
:1031C000002802DA0BF0B0FF01E00BF09DFF1CA31A
:1031D000D3E900230CF00EF80CF004FB064603982C
:1031E000002802DA0BF0A0FF01E00BF08DFF14A322
:1031F000D3E900230BF0FEFF0CF0F4FA18490B683A
:10320000002BB6D0144A1778002FB2D0DFF844E074
:1032100018609EF800205E600132D2B297428EF8AC
:10322000002002D908330B60A3E7094B00221A7073
:1032300022680A4B1A609CE7012005B0F0BD00BF70
:103240008DEDB5A0F7C6B03EB0C40720B0C30720CF
:1032500000C0072008C50720C8C40720CCC4072029
:10326000D0C40720FFFFFFFF2DE9F74F92469B4692
:1032700039A3D3E900230BF0BDFF00223C4B0CF037
:10328000E3F806460F4609F073FE33A3D3E90023A3
:1032900004460D46DDE90C010BF0ACFF0022344B77
:1032A0000CF0D2F88046894609F062FECDE90001B3
:1032B0003046394609F014FE06460F464046494658
:1032C00009F00EFEDDE90E23804689465046594638
:1032D0000BF0DCFD20A3D3E900230BF08BFF0022D1
:1032E000234B0CF0B1F809F0FBFD82468B464246B9
:1032F0004B46304639460BF07DFF52465B460BF09D
:1033000079FFDDE9002306460F46204629460BF0EB
:1033100071FF02460B46304639460BF0B9FD09F005
:103320006FFE0022124B0BF065FF0BA3D3E90023C5
:103330000CF08AF800220F4B0BF05CFF08A3D3E9D6
:1033400000230BF057FF08A3D3E900230BF052FF33
:1033500003B0BDE8F08F00BF304CA60A46250940F7
:10336000068195438B6CF23F4C378941602599402B
:103370000080664000004E4008B5084800F0EBFAB7
:10338000074B01281870074803D1BDE8084001F039
:1033900098BEBDE8084001F09ABE00BFB8C3072040
:1033A000B8C4072000C5072007B5114B18780023C3
:1033B0008DF807308DF806308DF805308DF8043023
:1033C0008DF803308DF802308DF801300BF0ACFE33
:1033D000084B00220BF05CFD0CF0E4F902AA02F8A5
:1033E000080D0121C420FFF719FC03B05DF804FBB0
:1033F000B8C407200000E03F1FB5044640680BF04A
:10340000A5FECDE9020120680BF0A0FECDE9000188
:10341000064B0749D3E90023D1E90001FFF724FF58
:10342000044BC3E9000104B010BD00BFC0C40720B5
:10343000F8C40720D8C40720F8B5104C236893B906
:103440000820FCF71DFF0E4D06462B6833B91C20E3
:10345000FCF716FF074606F0A7FC2F602B682660D6
:10346000336040233371074BD3E900010CF09AF924
:10347000C1B22068BDE8F84001F01EBF5CC3072060
:103480002CC30720D8C40720F8B51649164BD1E93C
:103490000001D3E900230BF0F9FC0022134B064690
:1034A0000F460CF037F9124C10B9C4E9006707E079
:1034B0000022104B304639460BF0E8FCC4E900010D
:1034C00030CC00220C4B204629460CF005F940B1C7
:1034D000084B0022204629460BF0DAFC044BC3E9D6
:1034E0000001F8BDE0C40720F0C40720008066405A
:1034F00010C5072000807640008066C01FB50446D6
:10350000A0B140680BF022FECDE9020120680BF06B
:103510001DFECDE90001064B0649D3E90023D1E9A0
:103520000001FFF739FC044BC3E9000104B010BDF2
:10353000C0C40720F8C40720E0C4072073B50F4CAF
:1035400023683BB91A460DF107010D4802F002F855
:10355000012323600B4C207870B10B4D0B4E0023E0
:103560002A683146064802F017F80023C01A337063
:103570002B60237018BF012002B070BDB4C40720B7
:103580008083020019DD0720BCC4072019C507206D
:103590000F4908B5D1E900014FF0804300220CF03B
:1035A0009BF80C4B90B10C490C4801221A70007822
:1035B00091F90030834217BF09480A4B0268013372
:1035C0001BBF08320B701A70026008BD187008BD6E
:1035D000D8C4072018C5072000C00720C8C407208A
:1035E000CCC40720B0C3072008B5FFF79FFDFFF745
:1035F000DBFEBDE80840FFF7A1BFFFFF38B5064C72
:10360000236833B92C20FCF73BFE054606F0E8FEA4
:103610002560206838BD00BFACC3072010B5FFF798
:10362000EDFFBDE81040012332224FF4E13106F0F6
:10363000B7BE08B5FFF77EFBFFF7F0FFBDE8084017
:10364000FFF78ABB2DE9F04F524DA9B00024FFF7D8
:10365000D5FF036800221B684F499847002800F0F7
:1036600094804D4B4D48197800F0EEF9102804F184
:10367000010408D02028EAD1484800F03DF9484B21
:10368000C3E90001E3E7454800F021F9C5E900017D
:10369000424800F017F9434BC3E90001424B1E6852
:1036A0004EB13046FFF72AFFFFF7EEFE3046FFF738
:1036B000A3FEFFF76DFF3D4BDFF8108119783C4BFF
:1036C000DFF8DC9018783B4BDFF804B11B78DFF8AB
:1036D000D4A001335BB20493374BD3E90023CDE987
:1036E0000223D8E90023CDE90023D9E90023FFF71D
:1036F000FFFBDBE90001FFF7DBFCD5E90001DAE9BC
:1037000000670CF06FF839460F9030460CF06AF8FD
:1037100010900FA8FFF7A0FADAE90023D9E90067B3
:10372000DBE900AB98E800030021CDE90A23D5E9E5
:1037300000230FA8CDE90C2364220CF0F2FF07F060
:103740003BFFDDE90C23CDE90667CDE90223DDE986
:103750000A23CDE90889CDE90023CDE904AB03466E
:10376000164A64210FA80EF009FC154F3E68064466
:10377000B6F5C05F05DC0FA912480EF0E4FC3E6010
:1037800065E7114B01221A7061E7204629B0BDE8B8
:10379000F08F00BFC0C40720E8C40720B8C30720CB
:1037A000F0C40720F8C40720CCC40720B0C307200A
:1037B00018C5072000C00720D8C407208E83020048
:1037C000BCC4072019C5072019DD0720E0C4072065
:1037D00010C5072008B5FFF7CFFDFFF733FFBDE8A1
:1037E0000840FFF729BE10B50446FFF703FA20464C
:1037F000FCF748FD204610BDA0F10400F3E7FFFFF1
:1038000038B50B4C0B4D204600F0A8F820460A4C6A
:103810002A460A49FCF796FD0121204601F018FCD2
:103820002A462046BDE838400549FCF78BBD00BF5D
:10383000B8C307201CC3072000C50720F52B0100D3
:103840002D5101007047704770B510460E460BF0C1
:103850006BFC04460D4630460BF066FC22462B46B8
:1038600009F026FC14A3D3E9002301F10045294601
:103870000BF0C0FC0022002304460D460BF02CFF89
:1038800038B12046294600220D4B0BF001FB0446BF
:103890000D4600220A4B204629460BF03BFF38B16B
:1038A000204629460022064B0BF0F0FA04460D464E
:1038B0002046294670BD00BFF8C1631ADCA54C4004
:1038C0000080764000F19801D1E90001704700F1D5
:1038D0009001D1E90001704700F1A001D1E9000198
:1038E000704700F1A801D1E90001704790F8B000DD
:1038F000704790F8B100704700F1B801D1E90001BC
:103900007047A0F10400FFF7F7BF00F1C001D1E953
:103910000001704700F1C801D1E90001704700F1D2
:10392000D001D1E90001704700F1D801D1E90001CF
:10393000704790F8E000704790F8E100704790F809
:10394000E200704790F8E300704790F8E400704799
:1039500090F8E500704790F8F200704730B5224AC1
:10396000002402F10801603200254260002201605B
:10397000A0F87C20A0F87E20A0F88020A0F882206B
:1039800080F8842080F88520A0F88620A0F8882080
:10399000A0F88A20A0F88C20C0E92445C0E926457B
:1039A000C0E92845C0E92A4580F8B02080F8B12058
:1039B000C0E92E45C0E93045C0E93245C0E934458B
:1039C000C0E9364580F8E02080F8E12080F8E22068
:1039D00080F8E32080F8E42080F8E520A0F8F020CB
:1039E00080F8F22030BD00BFFC83020090F88430E4
:1039F000194490F88530C9B280F88410194480F8D1
:103A00008510704713B500EB41010631002331F8F2
:103A1000020F01AC504018550133042BF7D1019827
:103A200002B010BD00EB41014FF0000010B50C7A60
:103A300052B2897A544064F307004A4062F30F207F
:103A400000B210BDFFFFFFFF2DE9F74FB0F97C205A
:103A500004460B461AB9552951D1012350E0012AD9
:103A600008D1AA294BD1002380F8843080F8853012
:103A7000022345E0022A02D1A4F8801016E0032AAE
:103A800017D1B0F98020102A01D13A2906E0202A66
:103A900001D1062902E0302A31D10C292FD1194653
:103AA00020460022A4F88230A4F87E20FFF79EFF73
:103AB00011E0042A13D1B0F97E20551C0432A0F87D
:103AC0007E5024F81210FFF791FFB0F97E20B0F974
:103AD00082309A4216DBB4F87C30013310E0052ABC
:103AE00005D190F88420914209D1062308E0062AE6
:103AF00005D190F88520914201D1072300E00023F1
:103B0000A4F87C30B4F97C300026072B40F0868185
:103B1000B4F98030A4F87C60102B40F01B81B4F91C
:103B2000765031465FFA85F842462046FFF76AFF35
:103B300000F03F03C0F3033284F8E530C0F385138F
:103B4000072A84F8E430C0F3044388BF0133400DF2
:103B500084F8E23000F00F03000984F8E13084F8C3
:103B6000E32084F8E000424604212046FFF74AFFA4
:103B70000BF0DAFAACA3D3E900230BF065FC424664
:103B8000C4E9240108212046FFF73CFF0BF0CCFAE2
:103B9000A5A3D3E900230BF057FC4246C4E9260154
:103BA0000C212046FFF72EFF0BF0BEFAA24B00229D
:103BB0000BF04AFC4246C4E928011C212046FFF7CD
:103BC00021FF0BF0B1FA9D4B00220BF03DFC424669
:103BD00082468B4620462021FFF714FF0BF0A4FA03
:103BE0000022964B0BF030FC524606460F465B46D1
:103BF000504659460BF0FEFA3246CDE900013B46ED
:103C0000304639460BF0F6FA02460B46DDE9000174
:103C10000BF03EF909F04EFA5246C4E92A015B4620
:103C20003046394609F044FA0022854B0BF0E2FA9F
:103C30007FA3D3E900230BF007FC002200230646F4
:103C40000F460BF049FD10B9C4E9306707E00022C8
:103C50007C4B304639460BF01BF9C4E93001424633
:103C600024212046FFF7CEFE0BF05EFA01F100475B
:103C7000724B002239460BF0E7FB4246C4E93201A1
:103C80002A212046FFF7CEFE0BF04EFA6B4B0022A6
:103C90000BF0DAFB4246C4E936012C212046FFF73F
:103CA000C1FE0BF041FA654B00220BF0CDFB424602
:103CB00006460F4620462E21FFF7B4FE0BF034FADD
:103CC00000225E4B0BF0C0FB3246804689463B46E5
:103CD000304639460BF08EFA424606460F464B46B2
:103CE000404649460BF086FA02460B4630463946B6
:103CF0000BF0CEF809F0DEF9B4F868306DB284F854
:103D0000B13094F86C30C4E934016B405BB2022BE3
:103D1000B4F9702002D0032B18BF002384F8B03010
:103D200094F8B0302BB15540A90744BF042384F860
:103D3000B030002238212046FFF774FEB4F8F0308E
:103D400080B201331A1A5342534184F8F230A4F876
:103D5000F00060E0202B4ED1B4F91000C5B2E900AC
:103D60004AB280EA151022F00F0300F00F0002F0B3
:103D7000080242EAC512184380EA0203DBB21A467F
:103D800031462046FFF74EFE05461A4602212046E0
:103D9000FFF748FEB4F988300226AB42B4F986300A
:103DA000B8BFA4F88850AB42B4F98C30C8BFA4F8AF
:103DB00086508342B4F98A30B8BFA4F88C00B4F9B5
:103DC00088208342B4F98630C8BFA4F88A001A4418
:103DD000B4F98C10B4F98A3092FBF6F2194491FBD5
:103DE000F6F1AA1A411A12B209B2201DFFF72CFDF2
:103DF000C4E92E010FE0302B0DD1324604212046BC
:103E0000FFF700FE3246C4F8E80008212046FFF71D
:103E1000F9FDC4F8EC0094F8800000E0304603B0EF
:103E2000BDE8F08FAFF3008000000000D0126341C6
:103E3000182D4454FB21094000408F400000594098
:103E40000080664000807640704708B501F0DAF8DF
:103E5000012008BD10B50446FCF714FA204610BD39
:103E600037B59020FCF70CFA04460321FEF796FACA
:103E7000204605F043F93420FCF702FA05460024F9
:103E80004FF400720D490094042305F065F90C4BC2
:103E900028462B6005F032F93420FCF7F1F905468D
:103EA0002146FEF7C9FD284605F028F9204621469F
:103EB00005F032F94FF0FF3003B030BDC178020099
:103EC0008C84020010B54FF6FF74242303FB01011C
:103ED000884209D043782BB1038C1344A34228BFF6
:103EE000234603842430F3E710BDFFFF37B50023DA
:103EF00002A840F8043D0C4B04215B6898470B4B2B
:103F0000019A1C680546141B1A60042122460848C1
:103F1000FFF7D8FF224602210648FFF7D3FF281CEF
:103F200018BF012003B030BD1CDD0720ECDD0720E9
:103F300030DD072009DE072008B50B4B1978037820
:103F40008B420A4B0BBF1A889A880132013214BF88
:103F50009A801A80064B8170DB68202198470030D8
:103F600018BF012008BD00BF09C00720C1DD072020
:103F70001CDD07200A4B02781B789A42094B0BBFC5
:103F8000DA881A89013201320CBFDA801A8103798A
:103F9000C3F3C202073262F3C5030371FFF7CCBF5C
:103FA00009C00720C1DD072010B50749002311F81B
:103FB00023409A00844202D10348104410BD0133CB
:103FC000042BF4D1002010BDDBDD072070B1C378D5
:103FD0000133DBB2FF2BC37008D105480023C118A1
:103FE000CA7804335208102BCA70F8D1704700BF4A
:103FF000DBDD0720242202FB01010346024630B527
:10400000914206D01446243212F8235C002DF7D1D9
:104010000FE00446002599420BD01A79C2F3C20082
:104020001A8C42EA0042AA4284BF1C461546243339
:10403000F1E7204630BDFFFF38B50546C90001F164
:104040000804FFF753FF1C4B2A781B789A4204D1CF
:1040500002211A48FFF7CEFF0CE004211848FFF7B1
:10406000C9FFEB7833B990F82330042443F0800380
:1040700080F82330002380F8203080F82130024679
:104080002B4690F8231080F8224021F07F01C4F3E2
:1040900006240C4380F8234005F1200153F8044B1B
:1040A0008B4242F8044BF9D1064A0379127862F345
:1040B000C503037138BD00BF09C0072009DE072012
:1040C00030DD072008C0072008B5FFF76DFF034665
:1040D000D8B9FFF769FF0346B8B90D4AD378D1794B
:1040E000D07A8B4296BF1946131D1346814294BF66
:1040F0000846084BD17B084A814238BF134607491E
:1041000000221A60CA7A0132CA72184608BD00BF7E
:10411000DBDD0720E3DD0720E7DD0720C1DD072029
:104120002DE9F84F05460C464FF0240909FB02190A
:10413000DFF868A1DFF868B14E1C4FF000084C456D
:1041400000F09A8094F823301A0624D5B5B12A7865
:1041500061788A4205D16F7816F8010C874200F029
:104160008D80E87850B16878884207D116F8011C34
:10417000914203D1A979A27991427FD094F822206B
:10418000218C03F07F0342EA0323994271DB20462E
:10419000FFF7D2FE72E06278002A6AD06DB3297907
:1041A00001F0C001C02917D116F8010C69788842C6
:1041B00002D12878904261D0E778A87887420CD164
:1041C00091420AD116F8010C2978884205D1A079CC
:1041D000A979884201D151E079B1A878E178884283
:1041E0000BD16978914208D116F8010C29788842E0
:1041F00003D1A079A979884246D094F82210208C66
:1042000003F07F0341EA0323984232DB237984F8E9
:104210002080C3F3C201CFB284F821801FB12046B1
:10422000FFF7A8FE25E003F0C003C02B19D016F855
:10423000010C9AF80030984213D1E3789A4210D0DA
:104240007BB16379032262F307136371E170204647
:10425000FFF790FE23799BF8002062F3C5032371DA
:1042600000E001276078FFF79FFE08B1C0F80080EA
:1042700027B92434243662E7BDE8F88F24220021D0
:1042800020460CF04EFAF4E7237984F820806FF38F
:10429000C50384F821802371EBE700BF09C0072024
:1042A00008C00720431EDBB2FD2B9DBF024B1870D8
:1042B00001200020704700BF09C00720014B18787B
:1042C000704700BF09C0072007289CBF014B18702A
:1042D000704700BF08C007202DE9F7430446914608
:1042E0001E469DF828500F46002966D0364B93F89D
:1042F0000080414563D00F2E61D8002861D0202274
:1043000000210CF00EFAFF2F237914BF09F00302ED
:10431000002262F38713032262F302032B4A6770C1
:10432000127884F8008062F3C503294A2371137858
:1043300084F802800133DBB21370A3710BAB0193DD
:1043400015B94FF001081BE004F10809019AE07962
:104350001346526853F8081B00EB02085FFA88F80E
:10436000013DB8F1180F0193EDB207D848440CF0A5
:10437000B2F984F80780002DE8D1E2E74FF0000899
:10438000DFF850900123384689F80030FFF70CFE23
:104390000546FFF71BFE002389F80030637925B935
:1043A00066F307136371E57005E0AA7862F30713FB
:1043B00063716B78E370404603E0084601E000203B
:1043C000FFE703B0BDE8F08309C0072008C007205D
:1043D000C0DD0720CDDD0720124B012270B51A7019
:1043E00004461E4608B9002518E0FFF7A5FD05465E
:1043F0000028F8D0237903F0C003402B06D0C02B4F
:104400000AD1E37853B162789A4207D061792046A5
:104410000909FFF711FE01E0802BF7D0002333706C
:10442000284670BDCDDD072082B02DE9F0439146CE
:10443000421ED2B28DB0FD2A05460E4615939DF858
:10444000688001D9002057E0002BFBD0179F002F78
:10445000F8D0199B002BF5D0189B002BF2D0169B9F
:10446000002BEFD04822002126480CF05AF9902268
:10447000002125480CF055F91022002123480CF0AA
:1044800050F9234B00241C605C609C60214B1C6035
:104490005C609C60204B1D70204B214D1E7015AE42
:1044A0000FCE0FC53368182221461E482B600CF032
:1044B00038F9494617221B480DF0BAFE214620461E
:1044C000B8470028BED0B8F1000F02D1FFF70EFDAB
:1044D00012E006230293144B22460193012300931A
:1044E000FF2104A8FFF7F8FE0028ABD004A8FFF7CF
:1044F00073FF0028A6D0E9E70DB0BDE8F04302B095
:10450000704700BF09DE072030DD0720DBDD072014
:10451000CFDD0720C1DD072009C00720CEDD072041
:104520001CDD0720F0DD0720A484020030B5182B25
:104530008DB016D8B2FA82F41D1C18BF012564098B
:10454000AC420ED00293019200950A469DF840308D
:10455000014604A8FFF7C0FE18B104A8FFF73CFF0E
:1045600000E000200DB030BD13B5537914781B095D
:10457000009302460B4620460321FFF7D7FF02B007
:1045800010BDFFFF00231A4630B5084C14F8235025
:10459000990035B1904202D10448084430BD01323F
:1045A000D2B20133042BF1D1002030BDDBDD072076
:1045B00000231846044A12F8231009B10130C0B292
:1045C0000133042BF7D17047DBDD07202DE9F041E3
:1045D00088B02022002168460CF0A3F8A14B1B787C
:1045E00003F0FF04002B40F039819F4F20213B69ED
:1045F00068469847002800F084809C4D6B88013302
:104600006B80FFF7D5FF9DF80420A87202F0070326
:10461000032B04D0964A137843F0010309E0954B2D
:104620001D789DF80230AB4205D1914A137843F0D2
:1046300002031370E4E0C2F3C2029DF800E09DF8AB
:1046400006008D49D6B204EB440313F801C0F445CB
:104650000BD10B4493F801C0844506D1997801240D
:104660008E1B18BF01269A7018E00134042CEAD181
:1046700082490B689A70804A587002F1090083429F
:1046800083F800E040F0C9800A609DF800009DF8C2
:104690000230834240F0C480002426469DF8020088
:1046A000FFF712FD9DF8022002709DF80220427073
:1046B00000228270FFF78AFC04B116B39DF8003027
:1046C000AB4200F09C809DF80160FF2E1BD13B683F
:1046D00020216846984720B9654A137843F00403BF
:1046E00013709DF8053003F00F02511C61F30303B2
:1046F0008DF80530C3F303139A4202DA6846FFF7D8
:104700001BFC00247CE0B5422BD164B99DF8073036
:104710004BB13B6820216846984720B9544A13782A
:1047200043F0040313709DF8043003F0C003402BE2
:1047300012D19DF807306A4613B91821504808E095
:104740000C214A48FFF710FF002858D100216A4683
:104750000846FFF709FF52E09DF80330002B4ED1C9
:10476000F4E7484B1B78002BCBD09DF8054004F0B4
:104770000F074FEA14184745C3DA013767F30304FC
:104780003046FFF711FC8DF805409DF80340A54227
:1047900021D19DF8041001F0C001402906D0A1F1FB
:1047A00080035A425A41144610B90CE0012260B10C
:1047B000C029437805D19E4203D0003318BF01239E
:1047C00004E0002302E0C0290ED10346134303F0A6
:1047D000010420B908E094B908B941460CE04378D7
:1047E0008DF80330857802E000258DF80350684687
:1047F000FFF7A2FB1CB129466846FFF71DFC6C467B
:10480000FFF774FB204604221F49FFF789FC0222B0
:104810001E492046FFF784FC20E003330B6034E799
:1048200085423FF439AFFFF74FFC0446FFF7CEFB5C
:1048300023783BB19DF80530A27803F00F03934233
:104840003FF72AAF9DF8003023709DF80230637067
:104850009DF80530C3F30303A3701DE708B0BDE85E
:10486000F08100BFCDDD07201CDD0720C1DD072062
:1048700008DE072009C00720CFDD072004C007207D
:10488000F0DD0720CEDD072030DD072009DE072020
:1048900000231846094AD118497809B10130C0B23D
:1048A0002433902BF7D1064B5A780AB10130C0B2AD
:1048B00093F825300BB10130C0B2704730DD0720CE
:1048C00009DE072008B5FFF76FFB064B28B1827899
:1048D000187802FB0000C00008BD18781823584360
:1048E00008BD00BF08C0072003490B6803604B6880
:1048F00043608B6883607047C1DD072070B53E4C14
:104900004FF48035E5613D4CA0602046C5683B4CC6
:10491000ED06FBD4A0680D46C0B20BB923465FE09C
:104920002346002A63D0072A0E782DDD9E604E783C
:10493000083A9E608E789E60CE789E600E799E606A
:104940004E799E608E799E6001F10806C979996062
:1049500099694907FCD5A1682970A1686970A168A7
:10496000A970A168E970D968C906FCD4A1680835A6
:1049700005F8041CA16805F8031CA16805F8021CD1
:10498000A16805F8011C1AE0032A1ADD9E604E7822
:10499000043A9E608E789E600E1DC9789960D96831
:1049A000C906FCD4A168043505F8041CA16805F803
:1049B000031CA16805F8021CA16805F8011C31461A
:1049C000AFE701319E60013ADE68F606FCD4A668C6
:1049D000013505F8016CA4E7E668F606FCD4A66884
:1049E0006E1AB24203DD15F8016B9E60F4E7024BCC
:1049F0004FF480329A6170BD00C0092000800840E9
:104A000007B5002302A901F8013D01231A4600F071
:104A10001F00FFF773FF9DF8070003B05DF804FB6C
:104A200013B502AC04F8011D00F01F0000230122A1
:104A3000214640F02000FFF761FF02B010BD08B52D
:104A40001720FFF7DDFFC0F3001008BD702107201D
:104A5000FFF7E6BF0A4600230146A020FFF74EBF3E
:104A600008B50020FFF7CCFFBDE8084000F0FE01CC
:104A70000020FFF7D5BFFFFF024B4FF08072DA61D5
:104A8000704700BF20C0092008B50020FFF7B8FF1D
:104A900040F00101C9B20020FFF7C2FF024B4FF006
:104AA00080729A6108BD00BF20C009202021072024
:104AB000FFF7B6BF00231A461946E120FFF71EBFD5
:104AC00037B504460D46FFF7F5FF20462946FFF7A8
:104AD000C1FF0D4B4FF080721C469A610022ADF869
:104AE0000620BDF8063001339BB2ADF8063033B96D
:104AF0004FF08073E361FFF7DDFF03B030BDFFF7D8
:104B00009EFF0028EDD0F3E720C0092008B517204C
:104B1000FFF776FF00F0010080F0010008BD4021A2
:104B20000720FFF77DBF08B50A4601230146612033
:104B3000FFF7E4FEC0F3420008BD00231A46194601
:104B4000E220FFF7DBBE70B5064600200D46144696
:104B5000FFF756FF16B100F0BF0002E040F0400042
:104B6000C0B215B100F0DF0101E040F0200114B146
:104B700001F0EF0101E041F010010020BDE87040BC
:104B8000FFF74EBF10B504460020FFF739FF14B9F8
:104B900000F0F7010DE0012C04D100F0FB0141F021
:104BA000080106E0022C14BF40F0080140F00C019F
:104BB000C9B20020BDE81040FFF732BF08B50020A1
:104BC000FFF71EFFBDE8084040F00201C9B2002017
:104BD000FFF726BF08B50020FFF712FFBDE8084029
:104BE00000F0FD010020FFF71BBF40F6DD139842E7
:104BF00006D840F66213B0F5166F38BF184600E0CD
:104C00001846A0F51661C9B20520FFF709BF10B517
:104C100004460620FFF7F4FEFA2C00F0D70102D17B
:104C200041F0200104E0B4F5FA6F08BF41F008013B
:104C30000620BDE81040FFF7F3BE10B5044606207D
:104C4000FFF7DEFE032C28BF032420F0060040EA15
:104C50004401C9B20620BDE81040FFF7E1BEF928C3
:104C60004FF0FA0305D9B0F57A6F88BF4FF47A6038
:104C700000E01846B0FBF3F00F2900F1FF30C0B29E
:104C800028BF0F2141EA0011C9B20420FFF7C8BEB6
:104C90001130C0B2162804D8202928BF2021FFF7E0
:104CA000BFBE7047032804D0042814BF032102218B
:104CB00000E001210320FFF7B3BE0A4600230146AE
:104CC0003020FFF71BBE0A46002301462A20FFF7CB
:104CD00015BEFFFF73B50E4615460446FFF72DFFC0
:104CE000FFF7E8FE2B4B4FF08072DA61FFF772FF9F
:104CF000002211460120FFF726FFFFF7A7FE022042
:104D0000FFF740FF3046FFF770FF2846FFF77FFFB1
:104D10000320FFF792FF03210220FFF781FE00210D
:104D20000120FFF77DFE03214FF4FA70FFF797FF94
:104D300021460020FFF7ACFF00211220FFF770FE94
:104D400000211320FFF76CFE00211420FFF768FEFE
:104D500000211520FFF764FE00211620FFF760FEFA
:104D60000D4B18681B79009005208DF80430FFF773
:104D700099FF68460521FFF7A0FF05216846FFF768
:104D8000A2FFFFF71BFF4FF4FA6004F07FFC02B0B4
:104D900070BD00BF20C00920AB84020070B5174E63
:104DA000326822B92021032006F02EF83060144D1D
:104DB0002A6822B92021012006F026F82860114C2B
:104DC000216821B90322012006F01EF820604FF46B
:104DD000FA6240F6C3112020FFF77CFFFFF754FE74
:104DE0001620094A012104F093FF306828B1286891
:104DF00018B12068003018BF012070BD58DE0720B0
:104E000054DE07205CDE0720B54E010070B5037943
:104E1000014603F0C003C02B0CBF0E4B0E4B88B0F5
:104E20001D68002306461A46284606F00FF8044679
:104E300060B9034602466946284606F00DF9234646
:104E400022463146284606F001F80446204608B0BE
:104E500070BD00BF54DE072058DE072038B5044679
:104E60000D46FFF72BFA237883420AD0E37843B943
:104E70000CF094FEBD2300F0030000FB033004F0AF
:104E800005FCFFF7F9FDFFF7EBFDA9B22046FFF7A0
:104E900017FEFFF70BFEFFF7F7FD06F0E1FE022815
:104EA00004D1034B0021186806F0A4F8012038BD96
:104EB0005CDE072007B5002302A941F8043D084B3A
:104EC000186806F097F8019B3BB1064B4FF08052F3
:104ED0001A60BFF34F8FBFF36F8F03B05DF804FB11
:104EE0005CDE072004ED00E038B504460D46FFF710
:104EF0000DFE48B1A9B22046FFF715FEFFF706FEEA
:104F000008B9FFF70CFE012038BD2DE970430546B6
:104F10000E46144606F0A4FE022807D122460023BE
:104F20003146284606F098F8C4B21DE007F048FA6A
:104F30004FF47A7200230AF0BFFF10EB040841F12E
:104F4000000900231A463146284606F085F8C4B207
:104F500054B907F035FA4FF47A7200230AF0ACFF27
:104F6000894508BF8045ECD22046BDE870830429FE
:104F700038B5054603D1041C18BF012400E0002405
:104F800007F01EFA2CB14FF47A7200230AF094FF56
:104F90002860204638BDFFFF00B50C4B8DB009934B
:104FA0000B4B0C4A0B930C4B0A930CAB43F8102D94
:104FB000002204920FCB8DE80F00084B084A012114
:104FC0006A20FFF731FA0DB05DF804FB9D4D01003A
:104FD000E94E01006F4F01005D4E01000D4E0100D2
:104FE000B0840200024B0A4601461868FFF78DBFE5
:104FF00058DE0720024B0A4601461868FFF785BFB6
:1050000054DE072008B506F02BFE0F4B02285B6923
:1050100013D15A020DD5FFF73BFC00280B484FF087
:10502000000314BF01224FF0FF321946006806F05A
:1050300013F8BDE80840FFF7C9BA5B02F9D5FFF7DE
:1050400027FC0028F5D108BD00C009205CDE072040
:10505000F0B5864687B0114F4C1101F01F0501AE27
:10506000457004700FCF0FC670463B680321336054
:1050700006AB03EB840353F8143C6D00CEF8043008
:10508000E30003F1804303F530331A6801FA05F5B4
:1050900022EA05051D6007B0F0BD00BFB88402001C
:1050A000416840780A680123834022EA03030B60C9
:1050B0007047416840780A680123834013430B60BE
:1050C00070474178426801238B4093617047417873
:1050D000426801238B40D3617047FFFF30B54378AE
:1050E0000578064C5B0054F83520032101FA03F3E0
:1050F00022EA030344F8353030BD00BF40C002400F
:1051000010B5094A04780123407821B152F82410DF
:1051100083400B4304E052F82410834021EA030348
:1051200042F8243010BD00BF68C0024010B50446EC
:10513000FFF7B6FF00212046FFF7E2FF2046FFF70A
:10514000CDFF204610BD13460A460179006805F0E0
:105150008EBA1FB5002204AB047923F8042D022275
:10516000009200680A46214605F06CFA9DF80C0092
:105170009DF80D3043EA002004B010BD10B5044680
:1051800019222A21FFF7DFFF0D222179206805F07F
:105190005DFAA0F12A035842584110BD044A138811
:1051A0001F2B9FBF581C1080024A42F823107047E3
:1051B00064DE072068DE0720154AF0B5138816461E
:1051C000012B21D9134A00201546013B984206DAEB
:1051D000516814680130091B42F8041BF6E70021EE
:1051E0000C466A684FF0010E02EB52008AB29342FD
:1051F00008DD55F822700131B8423CBF0EFA02F2C8
:105200001443F3E7044B1C6000233380F0BD00BF60
:1052100064DE072068DE072060DE072008B5012174
:10522000022007F067F8084B01209A6A22F0070273
:105230009A629A6A42F006029A62044AD36843F07C
:105240003003D36008BD00BF0080004000C00240B2
:1052500008B5044B417101F07F015A5C0321FFF74F
:1052600072FF08BDCC84020008B5044B817101F0C7
:105270007F015A5C0221FFF766FF08BDCC84020063
:1052800038B504460179006805F0FCF9054688B197
:10529000002206212046FFF756FF00220721204664
:1052A000FFF751FF2E212046FFF7D2FF2E21204687
:1052B000FFF7DAFF284638BD642370B5B1FBF3F47D
:1052C00004FB1311CCB20A21B4FBF1F501FB15412B
:1052D0003031C9B20646FFF7C7FF092C88BF05F178
:1052E00030013046BDE8704094BF2021C9B2FFF7BD
:1052F000AFBF01207047FFFF38B50D46044606F0EA
:10530000E3FD05F00F032370114B15F0010F4FF073
:10531000010214BFDA619A61227812F0020F4FF095
:10532000020214BFDA619A61227812F0040F4FF082
:10533000100214BFDA619A61227812F0080F4FF45C
:10534000807214BFDA619A61BDE8384006F0CCBDC6
:1053500020C0092038B50D46044606F0B5FD691E8B
:10536000012303FA01F1237820465940C9B2217084
:10537000FFF7C2FFBDE8384006F0B6BD0120704718
:10538000022004F019BA01207047FFFF044B5B694B
:10539000180B00F00C00C3F341231843704700BF03
:1053A00020C0092010B5044681220121FFF7CBFE61
:1053B00001222179206805F049F910F0600F14BF2F
:1053C0000120002010BD38B500210446FFF7C1FEC2
:1053D000812205B201212046FFF7B5FE102095FB82
:1053E000F0F00AF009FB4FF076510AF059FBA16882
:1053F0000AF04EFA38BDFFFF08B5FFF7E4FF054994
:105400000AF04EFB04490AF0FFFB4FF084410AF01A
:105410003FFA08BD000010410000A0402DE9F04F08
:10542000ADF2546D0C4690460146012282A8994681
:1054300002F03EF8002867D121460A220DF22C40E6
:1054400002F036F8044620B182A802F09AFA20460B
:105450005AE06D46064607462860019006F0B0FF08
:105460004FF47A7200230AF027FD2B4683464FF44F
:10547000007202A982A802F0B5F88246E0B92A6853
:10548000D2B106F09DFF4FF47A7200230AF014FDAA
:10549000B0EB0B00074406F093FF4FF47A72002341
:1054A0000AF00AFD01AB83462A6802A90DF22C40DE
:1054B00002F050F98246B0B1B8F1000F01D0C8F83F
:1054C0000070B9F1000F01D0C9F80060DDF878363E
:1054D00003B11C6082A802F054FA0DF22C4002F0D5
:1054E00050FA504610E001992A689142E4D106F042
:1054F00067FF00234FF47A720AF0DEFC2B68B0EBF2
:105500000B0006441C44A9E70DF2546DBDE8F08F72
:10551000F0B5ADF50B7D0E46174601461D4601223E
:10552000002301A8009301F0C3FF044670B91DB128
:10553000294601A802F037FA6B463A46314601A8DF
:1055400002F050F8044601A802F01BFA20460DF5BF
:105550000B7DF0BDF0B5ADF50B7D0E46174601464F
:105560001D460A22002301A8009301F0A1FF044672
:1055700070B91DB1294601A802F015FA6B463A46EA
:10558000314601A802F0E6F8044601A802F0F9F954
:1055900020460DF50B7DF0BDF0B5ADF50B7D0E464B
:1055A000174601461D461222002301A8009301F070
:1055B0007FFF044680B90DB1294600E0049901A897
:1055C00002F0F1F96B463A46314601A802F0C2F802
:1055D000044601A802F0D5F920460DF50B7DF0BD7B
:1055E0007F2810B516D931B1FF2812D80A4B803860
:1055F00033F8100010BD084A32F811408BB28442D3
:1056000003D001318029F7D10B4603F18000C0B2ED
:1056100010BD002010BD00BF4C85020006490023CC
:1056200031F8132032B1824201D00133F8E7034A46
:1056300032F81300704700BF4C8602002C8802002D
:1056400010B501200C4605F085FC2060003018BF25
:10565000012010BD0120704710B5044606F000FB84
:1056600002280AD1002319464FF0FF32204605F0E8
:10567000F3FC431E5842584110BD012010BD10B527
:10568000044606F0EDFA022807D100232046BDE8C3
:1056900010401A46194605F0D9BB10BD10B5044696
:1056A00004F0B8FD24B1012C06D100F081F901E02D
:1056B00000F002FD044600E0042404F0C3FD20468F
:1056C00010BD28B1012801D00420704700F028BA8D
:1056D0007047F8B507460C4615461E4604F09AFD7D
:1056E0003FB1012F0CD132462946204600F020FA66
:1056F00004E032462946204600F02AFD044600E038
:10570000042404F09FFD2046F8BDF8B507460C467A
:1057100015461E4604F07EFD3FB1012F0CD13246E6
:105720002946204600F050FA04E032462946204639
:1057300000F030FD044600E0042404F083FD204620
:10574000F8BD70B506460C46154604F063FD36B14B
:10575000012E0AD12946204600F090FA03E029469E
:10576000204600F037FD044600E0042404F06AFD02
:10577000204670BD08B506F023FE4FF47A72002370
:105780000AF09AFB08BDFFFF10B5044606F092FF31
:10579000074BB0FBF3F00223B0FBF3F2944202D3C9
:1057A000044A136110BDB3F5807FF9D00233F3E7EB
:1057B00040420F0000000340044B9860DA68D206B4
:1057C000FCD4024B9868C0B2704700BF0000034091
:1057D00070B5FFF7CFFF00F5FA74FF20FFF7ECFF7D
:1057E0000025FF20FFF7E8FFFF28064605D0FFF75A
:1057F000C1FFA94208BFA042F3D3304670BDFFFFEE
:1058000038B5064C4FF00075E561FFF7E1FF044A3B
:10581000A561137843F00103137038BD20C009203F
:105820000AC007202DE9704306460D46FFF7A2FF88
:10583000643080464FF00009FF20FFF7BDFFFF28CE
:1058400008D1FFF797FF494508BF4045F4D3002032
:10585000BDE87083FE28FAD1102D06D900224FF43E
:105860000071304604F074FC19E0341D0435FF204B
:10587000FFF7A2FF04F8040CFF20FFF79DFF04F8D8
:10588000030CFF20FFF798FF04F8020CFF20FFF73E
:1058900093FF043404F8050C2B1BDE42E7D1FF20F4
:1058A000FFF78AFFFF20FFF787FF0120BDE8708325
:1058B00070B506460D46FFF78BFFFF28044619D149
:1058C0002846FFF779FFFD2D16D022464FF40071D0
:1058D000304604F03DFC2046FFF76EFF2046FFF700
:1058E0006BFF2046FFF768FF00F01F00431F584280
:1058F000584170BD002070BD012070BD020638B552
:1059000004460D4607D500217720FFF7F7FF012851
:1059100038D804F07F041C4B4FF000729A61DA61B2
:10592000FFF756FFFF28014628D12046FFF744FF26
:10593000280EFFF741FFC5F30740FFF73DFFC5F312
:105940000720FFF739FFE8B2FFF736FF402C17D0EA
:10595000482C14BF01208720FFF72EFF4C2C02D1CA
:105960000846FFF729FF0A21FF20FFF725FF03065E
:1059700008D5013911F0FF01F6D138BDFF2038BD3F
:105980009520EEE738BD00BF20C00920064A074930
:1059900013784969DBB2490154BF03F0FD0343F0BA
:1059A00003031370704700BF0AC0072020C00920FE
:1059B0002DE9F743FFF7EAFF564B1A781E4612F01F
:1059C000020F01D01878A1E00120FFF7DDFE0A24C4
:1059D000FF20013CFFF7F0FE14F0FF04F8D14E4F1A
:1059E0004FF00073FB6121464020FFF787FF01283D
:1059F00002D04FF0000875E0FFF7BCFE4FF4D57100
:105A000000F57A754820FFF779FF012841D10DF1A3
:105A10000408FF20FFF7D0FE08F804000134042C2E
:105A2000F7D19DF80630012BE3D19DF80730AA2B62
:105A3000DFD12C460025FFF79DFEA94208BFA042FA
:105A400006D3FFF797FEA94208BFA042D1D207E0D4
:105A50004FF08041E920FFF751FF0028EBD1F0E73C
:105A600000217A20FFF74AFF0028C2D10146FF201B
:105A7000FFF7A2FE08F8010001310429F7D19DF8D3
:105A8000043013F0400F14BF4FF00C084FF004081F
:105A900028E02146E920FFF731FF02282C4635BFD8
:105AA0004FF002084FF001084FF0E9094FF04109AB
:105AB0000025FFF75FFEA94208BFA0420BD3FFF706
:105AC00059FEA94208BFA0420CD34FF400715020E8
:105AD000FFF714FF06E000214846FFF70FFF0028FC
