:020000021000EC
:10000000E03F082095010100FB000100E100010034
:10001000090101001901010029010100000000008F
:1000200000000000000000000000000001B8010016
:10003000390101000000000061B801005901010010
:1000400041BE010041BE010041BE010041BE0100B0
:1000500041BE010041BE010041BE010041BE0100A0
:1000600041BE010041BE010041BE010041BE010090
:1000700041BE010041BE010041BE010041BE010080
:1000800041BE010041BE010041BE010041BE010070
:1000900041BE010041BE010041BE010041BE010060
:1000A00041BE010041BE010041BE010041BE010050
:1000B00041BE010041BE010041BE010041BE010040
:1000C00041BE010041BE010041BE0100E8710200D5
:1000D00000C00720F4020000F8C20720E804000076
:1000E00004207146084203D0EFF309800BF0C6BE2E
:1000F000EFF308800BF0C2BE704708B5014808F066
:10010000B5FAFEE7966B020008B5024808F0AEFAB1
:10011000FEE700BFA16B020008B5024808F0A6FA8E
:10012000FEE700BFAC6B020008B5024808F09EFA7B
:10013000FEE700BFB76B020008B5024808F096FA68
:10014000FEE700BFC46B020008B5024808F08EFA53
:10015000FEE700BFD26B020008B50BF003FB0BF00B
:10016000A1FBBDE808400BF011BB0B4610B5401ACF
:100170005C1AA24203D9C45843F8044BF8E710BDF7
:10018000034610B500221C1AA14202D943F8042BE1
:10019000F9E710BD16480BF027FC15480BF027FCBB
:1001A000144C154DAC4201D3144D07E094E8030004
:1001B0000C3454F8042CFFF7D8FFF3E7AC4206D216
:1001C00054F8080B54F8041CFFF7DAFFF6E70DF0BB
:1001D00097FA0BF023FC01F0DBFD03F0D5FA4FF4A6
:1001E00016400BF069FF064808F040FAFEE700BF32
:1001F000E03F0820CC000100D8000100E000010031
:10020000E66B02000BF010BB0BF01EBB144B10B5DD
:100210001A68014612B94FF080521A60114C1868E2
:100220002468421894421A6007D20F4CA24204D8A4
:100230000E4A0B488C18046010460D4A1B68126861
:10024000934222BF064B00201A6039B1094A136855
:1002500001331360084B1860084B196010BD00BFD4
:10026000FCC2072004C30720FFBF0720E0C7072008
:1002700008C307200CC30720F8C2072000C30720CB
:100280000DF076BB0DF07CBB0DF07ABB30B50446AB
:100290008BB068460DF028FE224B079A2360089B1E
:1002A000214DA36062602149214B52B90A68186848
:1002B00082428ABF02F1604202F17042A2F5E82256
:1002C000626062681B68B2F5803F82BF02F17042D3
:1002D000A2F5E82262600022E2600A68934206D337
:1002E000991AC5F1005303F504230B440BE0114B9D
:1002F0001B68934208D9991AC5F1005303F5F823F6
:100300000B44002B00DDE36020460B4BE2611B68D1
:10031000A3610A4B1B686361094B1B6823610BB027
:1003200030BD00BFE0070000E0C70720FCC2072087
:1003300004C3072008C30720F8C2072000C3072012
:100340000CC3072000207047034A044B1A60044A7C
:10035000044B1A60704700BF0080001004C30720E0
:100360000040082008C30720014B1860704700BFF9
:1003700018C30720014B1860704700BF10C3072047
:1003800008B502480EF058FDFEE700BF0442020027
:1003900008B502480EF050FDFEE700BF1E42020005
:1003A0000020704701207047F8B5084B16461A68C0
:1003B0000F461C4642B10D46EB1B9E4204DD2368EE
:1003C00015F8010B9847F7E73046F8BD18C307202A
:1003D000F8B5094B0F46186816461C4658B10D462D
:1003E000EB1B9E4205DD23680020984705F8010BB2
:1003F000F6E726EAE670F8BD10C307207047002034
:100400007047FFFF074B1B689A68824207D05A6803
:10041000824204D0DB681B1A5842584170470120C1
:10042000704700BF38C10720002070470020704788
:1004300030B504468DB0A8B3684609F079FA9DF846
:100440000030002503F03F0303939DF8013003A81B
:1004500003F03F0304939DF802300B9503F01F0354
:1004600005939DF8043003F01F0306939DF80530B3
:1004700003F00F03013B0793BDF80630C3F30B03F2
:10048000A3F26C7308939DF8033003F007030993FC
:10049000BDF80830C3F30B03013B0A930DF0B2FB28
:1004A00084E8210000200DB030BDFFFF70B50F4D76
:1004B0000F4E2C6814F0010415D128460CF09CF95D
:1004C00088B14FF40E70FFF7DBFE302380F8353231
:1004D0003A2380F8344280F8363280F83742306070
:1004E00028460CF095F9306870BD00BF34C3072072
:1004F00038C3072070B50F4D0F4E2B6813F0010461
:1005000016D128460CF078F990B14FF40E70FFF731
:10051000B7FE012380F83432312380F835323A2394
:1005200080F8363280F83742306028460CF070F997
:10053000306870BD2CC3072030C307202DE9F04F71
:10054000ADF51B7D0F4608F0B5FC041E04DD0BF075
:10055000D1F820460AF014FE0DF114094C462A4D3C
:100560004FF0640B0FCD0FC42B6804AA2360102139
:1005700000240AA804940AF0C1FF244A82462449B0
:10058000384609F045FC26460AAD4FF00008D04534
:100590001CD06B69A34215D1AA69049B16441BB1F8
:1005A000B3FBFBF3B2FBF3F3297B039202932B8C97
:1005B00000949B00019359F821306A681549384628
:1005C00009F026FC08F101082435E0E701340A2C83
:1005D000DAD1049B64229E1BB3FBF2F30E49B6FBF7
:1005E000F3F30E4A0096384609F012FC0AF09CFC20
:1005F000102804D910220A49384609F009FC0120C4
:100600000DF51B7DBDE8F08F384202005742020015
:100610005C42020083420200AB420200A0420200A0
:10062000CA42020010B50C46ADF5007D68460BF0DD
:100630008DFB20464FF0FF32694609F0B3FB0120E5
:100640000DF5007D10BDFFFF30B50C4691B02C4973
:10065000054608F03BFB002847D00CAB04930BABDE
:1006600003930AAB029309AB019308AB009306AA6C
:1006700007AB2449284608F091FA072801D000204A
:100680003BE09DF83930069A0DA862F303038DF81C
:100690003930079A9DF8383062F304038DF838300A
:1006A000089ABDF83A3062F30B03ADF83A30099A74
:1006B0009DF8363062F304038DF836300A9A9DF8BF
:1006C000353062F305038DF835300B9A9DF83430E0
:1006D00062F305038DF834300C9A9DF8373062F3DD
:1006E00002038DF8373009F04BF909F0E5F90649B6
:1006F0000246204609F08CFB012011B030BD00BF3E
:10070000F4420200F8420200F6630200F7B50D461B
:100710004E49044608F0CAFB064640B107F03EFECB
:100720004FF0FF324A49284609F03CFB8BE049492B
:10073000204608F0BBFB60B307F054FE4649024672
:10074000284609F065FB07F059FE44490246284651
:1007500009F05EFB07F04CFE41490246284609F0CD
:1007600057FB304607F034FE0446012007F030FE08
:100770000646022007F02CFE0746032007F028FE5D
:1007800000970190334622463649284609F040FB3F
:1007900059E03549204608F099FA50B1202201214C
:1007A000204608F031FB204608F082FB07F03EFFB0
:1007B00049E02E49204608F089FA064620B92C491E
:1007C000204608F083FA60B32A49204608F06CFA04
:1007D00060B92949204608F067FA28B92046274918
:1007E00008F062FA044602E0032400E002243146E5
:1007F000204607F073FE224A224B002E18BF1A46ED
:100800003CB1012C07D01C491A4B022C18BF0B46D7
:1008100002E01D4B00E0194B1C49284609F0F8FA8C
:1008200011E0204608F044FB194A1A490090F323CE
:10083000012007F061FE204608F03AFB1649024607
:10084000284609F0E5FA012003B0F0BD3343020069
:100850003943020052430200594302006E43020032
:1008600083430200A2430200D2430200D6430200A7
:10087000DE4302002E430200284302002C560200F1
:10088000194302001143020022430200E743020021
:100890004C420200004402003344020030B589B0EB
:1008A00004AB002400930D4603AB022218490394C5
:1008B000049408F081F9022827D107AB009305AA18
:1008C00006AB0499039805940694079404F072FA11
:1008D000024638B1049B0F4900932846039B09F058
:1008E00097FA10E0059A069B002A079908BF012293
:1008F000002B08BF0123B1FBF3F3B1FBF2F2284652
:10090000054909F085FA012000E0204609B030BD14
:10091000C254020041440200604402002DE9F04745
:100920000E46ADF5856D3949054608F059FA384946
:100930000746284608F07DFA3549284608F099FA16
:10094000284608F0B5FA0122014681A806F07CFA93
:10095000044640B1284608F0ABFA2E49024630461C
:1009600009F056FA4CE00DF1040A01464FF400720A
:1009700050460DF062F800940BF0D2F9804689469B
:100980006B464FF40072514681A806F0F7FA08B999
:10099000009B23BB81A806F0C0FCCFB10BF0C0F9CF
:1009A0004FF47A7200230CF023FC002305464FF429
:1009B0007A72404649460CF01BFC281A14BF0346C5
:1009C0000123B4FBF3F322461349304609F020FA21
:1009D0004FF0FF321149304609F0E4F910E01C44B1
:1009E000002FCDD13D46009B9D42C9D233681AF8F5
:1009F00005105B684FF0FF32304698470135F2E74B
:100A000001200DF5856DBDE8F08700BF8E44020022
:100A1000C254020097440200AB440200394A02006B
:100A20002DE9F0470023BEB00C46534905460C9310
:100A300008F03CFA20B9284608F03AFA064600E0E9
:100A40004E4E314615A806F021FD054630B103464D
:100A500032464B49204609F0DBF989E032464949E4
:100A6000204609F0D5F92F460DF1780880230DA90D
:100A700015A8CDF84C80149306F04CFD002861D1E8
:100A80009DF83D30002B5DD09DF83C100DF13D00F0
:100A9000CA065BBF0D9B0C9A44229B185BBF0C934C
:100AA0002D220135013711F0010F14BF52232D23E0
:100AB000BDF83AA011F0020F09900D9814BF4FF045
:100AC000480E4FF02D0E11F0040F14BF4FF0530CD1
:100AD0004FF02D0C089011F0200FCAF34510BDF80F
:100AE000381007904FEAEA20069001F01F000590A9
:100AF000C1F343104FEA612114BF4FF041094FF099
:100B00002D0901F2BC71CDF804C0CDF800E00490CD
:100B10000391CDF808901C49204609F079F94FF06F
:100B2000FF321A49204609F029F941464FF0FF32B9
:100B3000204609F023F94FF0FF320F49204609F013
:100B400031F991E73A46124900950C9B204609F08D
:100B50005FF90BAA0CA9304606F00BFD40B90B9BC0
:100B60000C499A780C9B20465A43520809F050F9D8
:100B700001203EB0BDE8F087394A0200C6440200B9
:100B8000C9440200ED440200084502003545020058
:100B9000394502006345020070B50C46064608F070
:100BA00087F90546304608F083F906F0A4FD064AA9
:100BB000064B0749002808BF13462A46204609F07D
:100BC00027F9012070BD00BF19470200234702002A
:100BD0007745020070B50C46064608F069F90546EF
:100BE000304608F065F906F029FD064A064B07492C
:100BF000002808BF13462A46204609F009F90120BB
:100C000070BD00BF19470200234702009345020050
:100C10007FB503AB002400930E4602AB02220F49BE
:100C20000294039407F0C8FF022814D1029C039D8C
:100C30002046294606F008FE094B0A4922460028AC
:100C40000CBF084618462B4600900749304609F06D
:100C5000DFF8012000E0204604B070BDC25402005D
:100C60002347020019470200A545020030B5ADF543
:100C70000D7D0C46054608F01BF90A22014603A823
:100C800006F0E2F840B1284608F012F91F49024682
:100C9000204609F0BDF834E08DF8070002901C49A9
:100CA00042F210737E22204609F0B2F8194920461C
:100CB00009F0AEF8236842F210721B680DF10701CB
:100CC0002046984718B19DF807307E2B03D103A822
:100CD00006F023FB15E002AB01220DF1070103A88A
:100CE00006F004FA58B9029B012B08D123684FF093
:100CF000FF325B689DF8071020469847DAE70649FF
:100D0000D5E701200DF50D7D30BD00BFBD450200CA
:100D1000E44502001C4602003C4602002DE9F04F6B
:100D2000ADF5417D002304AC236003930D46009490
:100D300003AB0222414907F03FFF022806D04FF0E3
:100D4000FF323F49284609F02DF872E0216817A8C4
:100D500006F09CFB10B122683A4906E0039917A8F7
:100D600006F094FB28B1039A3749284609F050F859
:100D70005FE04FF480720DEB020105A807F0DEFE84
:100D80004FF4807280A90AA807F0D8FE20AE802711
:100D90000FA917A81596169706F0BCFB002842D19C
:100DA0009DF84530002B3ED09DF8443003F01003F1
:100DB00003F0FF0A002BEBD10DF14503039A234901
:100DC00005A808F0BFF80DF1450322681F490AA8DD
:100DD00008F0B8F805A808F06BF807460AA808F06C
:100DE00067F8804605A8DDF83C9008F061F8834676
:100DF0000AA808F05DF8534652460146CDF800A017
:100E0000584603F0D7FF124A124BCDF80090002845
:100E10000CBF184610461049019043463A462846F2
:100E200008F0F6FFB3E70AA807F09DFE05A807F053
:100E30009AFE01200DF5417DBDE8F08FC2540200FD
:100E400063460200A8460200CD460200ED460200BD
:100E50002347020019470200F3460200F8B50D4689
:100E60002449064608F022F80446074618B1FFF761
:100E700041FB002208E02049304608F017F80446FC
:100E800060B1FFF713FB3A46114600F2352006F039
:100E90006BFD4FF0FF32194B194922E019493046DA
:100EA00008F004F8044658B1FFF724FB012200F2D1
:100EB000352105F08BFF4FF0FF32134B134910E043
:100EC0001349304607F0F2FF044680B1FFF7EEFA0F
:100ED000012200F2352105F079FF0E4B0E494FF04B
:100EE000FF32002818BF1946284608F05BFF20464D
:100EF000F8BD00BF7A470200844702001C47020089
:100F000012470200914702003947020029470200B8
:100F10009A4702005E4702005047020008B50846A3
:100F20004FF0FF32084908F03DFF07F037FA4FF461
:100F3000FA600AF025F94FF08043AA221A720022C3
:100F40001A70012008BD00BFA647020010B501209D
:100F50000C4607F0E7FD40B100231A46194609F098
:100F600021FC4FF0FF32054902E005494FF0FF3206
:100F7000204608F017FF012010BD00BFB747020050
:100F8000CD47020038B5064C236833B91C20FFF763
:100F900077F9054608F0D4FB2560206838BD00BF0E
:100FA00024C307202DE9F04F5F4C91B023680E4613
:100FB00033B92C20FFF764F9054608F055FE25608B
:100FC0002768FFF773FA00240CAA0DA900F2352058
:100FD0000D9406F0CEFA48B90C9A0D9C9569937859
:100FE000023D5C435D4364086D0800E025464F4BBD
:100FF0001A6898467AB90C20FFF742F98146FFF744
:10100000C1FF902389F804300023C9F80000C9F813
:101010000830C8F80090D8F8000003F0B9FE814607
:101020000CF0A0F80A900BF0F9FE014648460BF0D0
:101030003FFE3F490BF046FF0CF094F881460DA8A7
:101040000AF0E2FC04F0FAFD68B308F0AFFD04F02A
:10105000DFFD4FF0000A0346D346D0469A450B9376
:101060000BD0504604F038FE804538BFD3460B9B6A
:1010700038BF80460AF1010AF0E708F0AFFD6423AB
:1010800003FB08F32B4ACDF80880B3FBF2F3C3F15E
:1010900064030093CDF804B02B462246264930461F
:1010A00008F0B6FE05E02B4622462449304608F0FB
:1010B000AFFE234C23681BB90120FFF7E1F8206045
:1010C000206803F01EFE044608F0F6FCFB8C0A9A2A
:1010D0000993BB8C1B4908939DF83430019003F0B1
:1010E0003F0307939DF83530009403F03F030693C8
:1010F0009DF83630304603F01F030593BDF83A30B3
:10110000C3F30B0304939DF8383003F01F030393DC
:101110009DF8393003F00F0302934B4608F078FE38
:10112000012011B0BDE8F08F28C307201CC30720A1
:1011300000002041A0860100064802003A48020053
:1011400020C30720484802002DE9F04F0D46C7B0E4
:101150005549814607F0D1FD54498246484607F07B
:10116000CCFD53498346484607F0C7FD00270DF1E3
:10117000100805AE044602970397C8F80070376060
:10118000BAF1000F45D0009603AB02AA4949484680
:1011900007F004FD012807DC28464FF0FF324649DE
:1011A00008F000FE38467CE00DF118084FF480741A
:1011B0002246394640460CF040FC336813B90123FF
:1011C000336003E0B3F5807F88BF3460FFF7DAFE59
:1011D00033689DF80C209DF808100093434608F0F2
:1011E000DDFE364A364B3749002818BF1346029AAF
:1011F000284608F00DFE002433689C424ED2039A24
:1012000018F8043022443049284608F001FE013421
:10121000F2E7BBF1000F2CD0CDF8008003AB02AA9F
:101220002A49484607F0BAFC032807D028464FF061
:10123000FF32274908F0B6FD504632E0FFF7A2FE24
:1012400098F800309DF80C209DF8081008F0BBFEBF
:1012500048B1039B1F490093D8F80020029B284601
:1012600008F0D6FD1AE0029A1B49284608F0D0FD86
:1012700014E0A8B102230293029BFE2B10DCFFF7BF
:1012800081FE9DF8081008F0A9FE20B1029A1349CA
:10129000284608F0BDFD029B0233ECE7012000E088
:1012A000204647B0BDE8F08FEB560200B14802007F
:1012B000B7480200C0480200CF48020019470200A8
:1012C00023470200F04802001449020024490200AA
:1012D000344902005B49020075490200924902004C
:1012E00070B5ADF50A7D05460C4607F04EFC0B289F
:1012F00002DD0C2222493CE0284607F0D9FD0122FC
:10130000014601A805F0A0FD064668BB01A806F04D
:1013100004F8284607F0CCFD1A490246049B2046F3
:1013200008F076FD236820469B6898470A2009F05C
:1013300027FF4FF0100383F31188BFF36F8FBFF3C4
:101340004F8F284607F0B4FD02460F4B00685168E6
:1013500003C390680D4A186043F80C2C4FF080438B
:10136000AA221A721E7007E0284607F0A1FD024665
:101370000749204608F04CFD01200DF50A7D70BD9F
:10138000CC490200F3490200484002400DD0ADDED6
:101390003A4A02002DE9F041404CA4B023680646C9
:1013A000DB070D460CD420460BF026FA40B14FF473
:1013B00080600CF0DDFA3A4B186020460BF028FAFA
:1013C0003849304607F099FC0746044600B38022AE
:1013D000002104A80CF031FB00230293039303AB1C
:1013E000009304AA02AB3049304607F0D7FB2C49E2
:1013F000029B039A096804A813B903F077FD01E082
:1014000003F096FD294B2A49002818BF194638E0F9
:101410002849304607F071FC074600283AD004AB53
:10142000304603AA2449039404948DF8084007F039
:10143000B5FB039E049B3344B3F5806F02DCDFF8F9
:1014400060800CE04FF480621C4920E0D8F8003046
:101450009DF808209A559DF8083001361C44039BDE
:10146000049AF31A934210DAB6F5806F0DDA2B68FE
:101470004FF4FA621B6802A9284698470028E5D174
:101480000F49284608F0C4FC04E022460D492846CE
:1014900008F0BEFC384624B0BDE8F08140C3072008
:1014A0003CC30720654A02006C4A0200534A02000E
:1014B0004F4A02007C4A0200834A02008D4A020021
:1014C000B14A0200C14A020038B50D4607F0F2FCED
:1014D0000446C0B202F07AFB054A064B06490028D2
:1014E00018BF13462246284608F092FC012038BD5A
:1014F00019470200D24A0200D94A020030B50C4610
:10150000054687B00A4908F083FCA1882388049126
:10151000218962880391E18828460291E17A01914C
:10152000A17A0091034908F073FC07B030BD00BFF9
:10153000F04A0200264B02002DE9F0418CB003ABCB
:10154000002600930D46904602AB022238490296CF
:10155000039607F031FBB04266DD02980BF0DFFF27
:10156000C7B2039818B10DF069FFC4B200E0044699
:10157000002104A803F0CAF930B14FF0FF322D4921
:10158000284608F00FFCF3E7022318F1000100934E
:10159000039A234618BF0121384602F05BFC064639
:1015A00038B94FF0FF322449284608F0FBFB0126EA
:1015B0003AE0B8F1000F37D04FF47A7104A803F085
:1015C000ADF960B39DF81030BB4228D19DF81730BB
:1015D0000C2B04D13A4606A92846FFF78FFFBCB969
:1015E0001649284608F014FC9DF817309C420ADA88
:1015F00004AB19192B684FF0FF325B68097A284653
:1016000098470134F0E70E49284608F001FC0BE04A
:101610004FF0FF320B49284608F0C4FB04E0029A61
:101620000949284608F0F4FB30460CB0BDE8F081CB
:10163000C2540200444B0200664B02008E4B020073
:10164000BB510200A24B0200BF4B02001FB501A814
:101650000C4602F0DDFD02F0C5FA01A90246204663
:10166000FFF74CFF012004B010BDFFFF30B58BB079
:101670000AAA4FF47A730C4642F8243D174907F042
:101680008DFA0025019902A803F040F9D8B19DF820
:1016900008201349204608F0BBFB00259DF80F30B9
:1016A0009D420ADA02AB591923684FF0FF325B689A
:1016B000097A204698470135F0E70A49204608F0A4
:1016C000A7FB0125DEE72DB94FF0FF320649204682
:1016D00008F068FB01200BB030BD00BF8A4A020051
:1016E000E54B0200384A0200FC4B020037B50C46BD
:1016F00002F0F2FB05461649204608F089FB154921
:101700002A46204608F084FB1149204608F080FB59
:10171000D5B11149204608F07BFB0D49204608F061
:1017200077FB0025E8B202F0C1FB013540B18178BA
:101730004378027800912046084908F069FBF1E7F8
:101740000349204608F064FB012003B030BD00BF10
:101750000D4C0200284C0200424C02005D4C02007D
:101760002DE9F3473C4C074626688946002E62D196
:101770002420FEF785FD0423054680E848008660A6
:10178000C660202130460DF0C1FBAE68E8604FEA2C
:101790008608072E0ED81020FEF772FD8246102212
:1017A00000210CF04AF9EB68013643F808A008F173
:1017B0000408EEE7002608236B604FF00108274B72
:1017C000274A28492846009685F82080256006F09B
:1017D00057FB254B254A26492068009606F050FB0A
:1017E000244B254A25492068009606F049FB244BE6
:1017F000244A25492068009606F042FB234B244AE0
:1018000024492068009606F03BFB234B234A2449D9
:101810002068CDF8008006F033FB224B224A204995
:101820002068009606F02CFB0096204B204A2149A8
:10183000206806F025FB2049384607F037FB18B131
:101840001E49384607F0ECFB4A463946206802B08C
:10185000BDE8F04706F0F4BB48C30720784C02000F
:10186000B24C02000D1B0100B94C02000D4D0200EC
:10187000E1180100164D0200394D02006D160100FD
:101880003C4D02009B520200C9140100664D02004B
:10189000824D0200ED160100894D0200F04D02005C
:1018A00039150100CA4D0200EF4D0200F44D02004F
:1018B0000F4E02004D160100394A0200154E02007B
:1018C00038B5064C236833B95820FEF7D9FC0546D5
:1018D00008F00EF82560206838BD00BF44C307201B
:1018E0002DE9F04F0446ADF2DC5D802288460DA85C
:1018F00000210CF0A2F8802200212DA80CF09DF808
:1019000006AE002333600DAA00962DAB7549204624
:1019100007F044F9032801D00020DFE001220DA9DF
:10192000EDA805F091FA05460028F5D1FFF7C8FFAC
:101930003368802280F853304DA9044608A88DF8FA
:101940001750079507F0FAF82DAB009333680DAAEE
:101950006549404608F05CFAA94607AE33464FF4A5
:1019600000726DA9EDA805F009FB002840F0AF80DA
:101970003368002B00F0AB806F1C32685B49204657
:1019800008F046FA236820469B6898477D1E0DF5AF
:10199000DA7B4FF0000A6DAB3268C3EB0B039A425F
:1019A00023680CD9CDF80CB05B684FF0FF321BF800
:1019B000011B20469847039B1B789A44EBE79B68E2
:1019C0002046984708A807F073FA834608A807F04E
:1019D000DFF84FF47A7302465946204608F0F0F9D2
:1019E000202201210DEB020007F00EFA08A807F0F3
:1019F00061FA824520D008A807F05CFA52460346F7
:101A00003B49404608F004FA3A49204608F000FAFB
:101A1000236820469B68984723684FF47A721B68B6
:101A20000DF11701204698470028F5D1022F07F144
:101A300001034CD81F46A0E733682DAA2E49009316
:101A400020464B4608F0E4F9236820469B689847F7
:101A500008A807F02DFA824608A807F099F8514621
:101A600002464FF47A73204608F0AAF9234908A8E1
:101A700007F01AF9D0B908A807F01AFA2049024667
:101A8000404608F0C5F91B49204608F0C1F9236813
:101A900020469B68984723684FF47A721B680DF1C3
:101AA0001701204698470028F5D1BFE7154908A837
:101AB00007F0B6FA3368144999444A46F09B404609
:101AC00008F0A6F9002D3FF448AFBD1E45E7EDA88C
:101AD00005F023FC08A807F046F801200DF2DC5DB4
:101AE000BDE8F08F1A4E0200294E0200404E02005F
:101AF000524E0200384A0200794E02008F4E020018
:101B0000924E0200394A0200CA4E02002DE9F04707
:101B1000074686B006AA002442F80C4D0E463D4901
:101B200007F03CF820220121384607F06DF9039BAD
:101B3000002B65D0384607F028F8002860D0FFF762
:101B4000BFFE05460DF1180808F80D4D2B6805225B
:101B50001B6841462846984704460028F6D1039B57
:101B6000384685F8533007F0A3F9274601464FF071
:101B7000FF32284608F016F92B6828469B689847DC
:101B8000254B0DF11809186849F8044D04902B688D
:101B90004FF47A721B68414628469847D0B1032219
:101BA0000DF1150148460BF02DFF9DF80BA0042206
:101BB00004A948468DF817A00BF00AFF50B133680E
:101BC00001225B6851463046013798470028DED134
:101BD0000134DCE71822B7FBF2F302FB137202B107
:101BE00001333A460D49304608F012F974B16123C9
:101BF000009322460A4B0B49304608F009F905E0EC
:101C00004FF0FF320849304608F0CCF8012006B00A
:101C1000BDE8F0878A4A0200CE4A0200D64E020092
:101C2000FD4E0200394F0200F24F020001480DF054
:101C300003B900BF1E50020038B504460D460AF035
:101C4000E9F9074BB0FBF3F00223B0FBF3F2AA4231
:101C500004D9B3F5807F01D00233F6E7236138BDA4
:101C600040420F007FB500F235260C460122314676
:101C700005F0ACF8054648BB039002AA03A930461C
:101C800005F077FC00BB0298039A837802FB03F10E
:101C900082691348023A5A435208B2F5004F38BFDE
:101CA0000120104B4FEA510124BF03464FF48060DE
:101CB000B1FBF0F1B2FBF0F20091019321460A482A
:101CC0000DF048F8012008E0084B00E0084B2A46D8
:101CD000214608480DF03EF8002004B070BD00BF5A
:101CE0005C5002005950020066500200625002002F
:101CF0005F5002009450020038B5074C23684BB97E
:101D00000820FEF7BDFA0546FFF73CF9402328609E
:101D10002B712560206838BD54C3072038B5054CA9
:101D2000256825B90120FEF7ABFA05702060206810
:101D300038BD00BF50C3072038B5084C23685BB9D5
:101D40000C20FEF79DFA0546FFF71CF990232B7136
:101D500000232860AB602560206838BD1CC30720C5
:101D600010B5044C23681BB90120FEF789FA2060E6
:101D7000206810BD20C3072010B5044C23681BB990
:101D80000120FEF77DFA2060206810BD4CC30720BB
:101D9000AD49AE4A4023F0B58B614FF000739361BB
:101DA0004FF480338B61AA4BADF5057D186807258C
:101DB00020F0F00018601868022440F0500018600D
:101DC000186820F440501860086840F0400008602F
:101DD000186820F47C201860186840F428201860E7
:101DE000186820F470001860186840F4200018602B
:101DF000186820F040401860186840F000401860F3
:101E0000586820F03C005860586840F0280058603E
:101E1000586820F003005860086840F4803008607B
:101E2000586820F440505860086820F4800008602A
:101E3000D96821F44031D960116841F08071116096
:101E4000596821F440215960596841F48021596052
:101E50009868804901409960116841F4897141F0A6
:101E600001011160996821F470119960996821F05D
:101E700070419960116821F446411160D96821F0E0
:101E80003001D960D96841F03001D960D96821F4B6
:101E90007011D960136843F000731360136823F066
:101EA0008063136007F01AF901210A2009F0D2FEBD
:101EB00001210A2009F0E6FE67480121056044601F
:101EC000FFF7BAFE07F002FE0121152009F0C2FE5D
:101ED0000121152009F0D6FE60480121056044600B
:101EE000FFF7AAFEFFF74EF8642107F0F5FB10B9E3
:101EF0005B480CF0A1FF09F0E9FE02F0E1FC10B92B
:101F000058480CF099FF4FF4FA6007F0A0F8FFF77B
:101F10008DFE0AF07FF80AF07DFF53490BF086F83A
:101F20000AF0FEFD02460B4650480CF013FF09F084
:101F300065FD052804AC14D1002363604C4B1B687D
:101F40002360FFF773FE4B4B4B48D96C1A6D5B6DEA
:101F500000940CF0FFFEFFF769FE41F2883007F0B5
:101F600076F8FEF7A3FA4549FFF77CFE054668BB05
:101F700043480CF0EFFE03F0D9FEFEF797FA29462E
:101F80002A4600F2352005F0EFFC3E4B3E4A002881
:101F90000CBF104618460CF04FFFFEF787FA374982
:101FA000FFF760FE90B939480CF046FF03F040FEA1
:101FB000014637480CF0CEFE03F02AFE054603F03A
:101FC00037FE00FB05F133480CF0C4FE324E334FB0
:101FD000336813F0010516D130460AF00DFC90B1BC
:101FE0004FF40E70FEF74CF9012380F834323123A0
:101FF00080F835323A2380F8363280F8375238602C
:1020000030460AF005FC26493868264DFFF72AFEBF
:1020100018211148FFF710FEFFF708FE2B684BB997
:102020000820FEF72DF90646FEF7ACFF3823306096
:1020300033712E60286802F035FD0546B0BB1A48A2
:102040000CF0FAFE33E000BF00C0092020C00920D8
:1020500000C00240F0FCFCFF00000340008008408C
:10206000D850020009510200002474492E51020088
:10207000444002400040024046510200BE5102006E
:10208000C6510200CC500200C750020003520200A9
:1020900022520200315202002CC3072030C3072015
:1020A000484702005CC307204C5202000125FFF79D
:1020B00043FE02F043FE064618B972480CF0BCFE1F
:1020C0003546FFF719FE02F06FFD064618B96E4857
:1020D0000CF0B2FE35466D4E33681BB90120FEF799
:1020E000CFF83060306802F02DFDFFF739FE02F0C6
:1020F00006FEFFF713FE02F090FDFFF73DFE02F033
:1021000003FEFFF70BFE002102F08AFD8DB9FFF7F9
:102110008DFDFFF7F1FD2D2102F02EFDFFF7ECFD07
:102120002D2102F035FDFFF7F9FDFF2102F078FDCA
:102130000CE0FFF7E1FD0546FFF7FEFD02F028FE8B
:102140000BF036F8C1B2284602F04AFD10220021F9
:1021500020460BF072FC00230F2221464C4802F06F
:10216000A3FE80B920460BF0DAF9C5B2284601F08B
:102170002DFD484A484B2946002818BF1346444ABB
:1021800046480CF0E7FDFFF7EBFD02F0BAFD05460F
:1021900000200EF0DFF828440CF056FE4FF40072D9
:1021A000002120460BF049FC204609F0CFFD2146D6
:1021B0003B480CF0CFFDFFF739FD8022002120467F
:1021C0000BF03BFC204603F00FFD2278FF2A04D0E1
:1021D000214634480CF0BEFD29E0FFF7CDFD02F0AA
:1021E00095FD09281DD130480CF026FE21462F48C8
:1021F0000CF036FF21462E480CF0ACFD2D480CF0BB
:102200001BFE002303A92C4803930CF029FF9DF823
:102210000C30592B03D1204603F0C4FC07E02748BB
:1022200003E027480CF008FE26480CF005FE4FF2AC
:1022300008031D684FF20C031C684FF210031E6860
:102240004FF470431A684FF20403AD0A1968A40AE8
:102250001D480CF07FFD2A4621461C480CF07AFDF3
:1022600031461B480CF076FDFFF7E0FC012006F03C
:10227000CBF818480CF0E0FDFFF7D8FC0DF5057D14
:10228000F0BD00BF675202008152020058C3072010
:102290009A520200D2500200D24A0200A05202001A
:1022A000F6630200D4520200F05202001253020000
:1022B0001753020032530200755302007953020093
:1022C00091530200BF530200F15302001D5402005B
:1022D0004A540200675402000120704701207047F1
:1022E0000120704710B5044C23681BB90120FDF78D
:1022F000C7FF2060206810BD58C307200120704729
:1023000038B504460F4B00250360636DE06DAB42AA
:1023100005D950F82500FDF7B5FF0135F5E708B1FF
:10232000FDF7B2FF0025A36B206CAB4205D950F836
:102330002500FDF7A7FF0135F5E708B1FDF7A4FF7C
:10234000204638BDA054020010B50446FFF7D8FF60
:102350002046FDF797FF204610BD2DE9F0410446C9
:102360000E46C06889000CF0D1FDA568E060AF00A2
:102370004FF00008AE420DD90C20FDF781FFE36855
:10238000C0F80080C0F8048080F808800135D8517A
:102390000437EFE76660BDE8F081FFFFF7B504465C
:1023A00000250B464FF480520095254906F0A0FB0E
:1023B000244B042623606663A563E563256402213C
:1023C00004F13400FFF7C9FF26656565A565E5657D
:1023D000284660210CF09AFDA56DE065AE00172D32
:1023E0000CD81020FDF74CFF0746102200210BF0FF
:1023F00024FBE36D01359F510436F0E71823636534
:10240000012384F87030104E0023A4F87430A4F82F
:102410007630A367002200230027C4E92023C4E903
:10242000226709F07DFC4FF47A7200230AF0E0FE87
:1024300080197941C4E92001204603B0F0BD00BFF6
:10244000B8540200A0540200C0D401002DE9F041AC
:102450000F7A14464D680E688FB1082A23D128469A
:1024600006F093FB00281CDD4FF0FF321349304685
:1024700007F084FC0121284606F086FC08E00A2AC1
:1024800019D00D2A12D02146284606F09EFD97B19C
:10249000336821463046BDE8F0415B684FF0FF32BB
:1024A00018470724F4E70A2A02D1F1E7BDE8F081D2
:1024B0000D2AEDD0E7E7BDE8F08100BFC15402006E
:1024C000F8B50446142015460F46FDF7D9FE8021C5
:1024D000064606F02AFDA36BE26B9A4206D3616BB7
:1024E000591803D204F13400FFF737FFE36B226C75
:1024F000591C52F82330E1631F605E601D72F8BD05
:102500002DE9FF47CF6B06460D4601AC3FB94FF4AE
:102510007A7008F035FE01976760A76047E00B6CA2
:102520000DF110081B6893E8070084E807000023FA
:1025300008F80D3D08F0ECFC81460027EB6B9F424C
:1025400063D22B6C4FEA870A53F827301868037C54
:10255000002B34D0036800221B684146984770B3B3
:10256000EB6B9F422DD22B6C53F80A3093E8070097
:1025700084E807009DF8032021462846FFF766FF00
:1025800009F0CEFB4FF47A7200230AF031FED5E950
:10259000222380185941C5E92001029806F0F5FA76
:1025A0000746029806F0F4FA013887420CDB94E8FB
:1025B000070086E80700304604B0BDE8F087013721
:1025C000BCE705F14403D1E7D5E92223134324D026
:1025D00009F0A6FB4FF47A7200230AF009FED5E950
:1025E0002023994208BF904217D309F099FB4FF47A
:1025F0007A7200230AF0FCFDD5E9222380185941A4
:102600000023C5E920010193D1E708F081FC814551
:10261000C3D1022008F0B4FDBFE79DF803300A2BB8
:1026200088D1C4E7F0B5054685B020480CF092FB90
:10263000294601A8FFF764FF019C1CB91C480CF057
:10264000FBFB30E0029E304606F09FFA00282ADDB0
:1026500009F066FB0746F8B1B5F8743005F1500093
:102660000133A5F874302246314605F0E9FC114BE0
:1026700000251868009023681DF805105B684FF06E
:10268000FF32204601359847042DF4D109F048FB6C
:10269000C11B09480CF05EFB304606F07BFA23684C
:1026A00020469B689847012005B0F0BDC454020045
:1026B000394A020094540200CA54020038B5064C4C
:1026C000236833B92C20FDF7DBFD054607F0CCFA73
:1026D0002560206838BD00BF28C3072010B5044618
:1026E000FFF7ECFF03682146BDE810405B684FF040
:1026F000FF32184713B5002302AC04F8013DFFF781
:10270000DDFF03684FF0FF321B68214698479DF8B4
:10271000070002B010BDFFFF2DE9F04100F15004A9
:102720008AB00025064600952046694B694A6A49E9
:1027300005F0A6FB00952046684B694A694905F0FB
:102740009FFB00952046684B684A694905F098FB55
:1027500000952046674B684A684905F091FB009553
:102760002046674B674A684905F08AFB009520467A
:10277000664B674A674905F083FB00952046664B28
:10278000664A674905F07CFB00952046654B664A22
:10279000664905F075FB00952046654B654A66491C
:1027A00005F06EFB00952046644B654A654905F0CF
:1027B00067FB00952046644B644A654905F060FB61
:1027C00000952046634B644A644905F059FB009527
:1027D0002046634B634A644905F052FB009520464E
:1027E000624B634A634905F04BFB00952046624B00
:1027F000624A634905F044FB00952046614B624AFA
:10280000624905F03DFB00952046614B614A6249F3
:1028100005F036FB00952046604B614A614905F0A2
:102820002FFB00952046604B604A614905F028FB6C
:10283000009520465F4B604A604905F021FB0095FA
:1028400020465F4B5F4A604905F01AFB0095204621
:102850005E4B5F4A5F4905F013FB009520465E4BD7
:102860005E4A5F4905F00CFB00955E4B5E4A5F498E
:10287000204605F005FBFFF721FF4FF4807320226F
:102880004FF41641054607F0CFF9804601272F7413
:102890005748FDF76FFD5748FDF766FD3A46294654
:1028A0003046FFF70DFE082203A905A806F046F9F9
:1028B00005A8514906F0B4FB2A4605A9204605F0B3
:1028C000BFFB05A806F04FF940460AB0BDE8F0810D
:1028D000E054020014550200692B01001B55020050
:1028E00063550200F52A0100675502009955020060
:1028F000292B01009D550200E45502008D2A01009C
:10290000EA5502002C5602003D0501002156020046
:1029100031560200250601003956020047560200D2
:10292000A50F01004E5602008F5602004906010015
:1029300094560200F05602001D090100F4560200F0
:10294000825702009D08010036570200815702009D
:102950001D0D010085570200B3570200210A010036
:10296000B6570200DB570200990B0100E157020045
:102970000E580200110C010011580200756E020081
:102980006D0C01003658020059580200D50B0100A9
:102990005C5802002F59020049110100335902000E
:1029A000765902005D0E01007E5902009159020025
:1029B0001D0F010098590200975A02000D070100EF
:1029C0009B5A0200C35A02004D0F0100C95A02006F
:1029D0002551020061170100F35A0200E75B020073
:1029E00095130100B05B02008B470200E112010069
:1029F000F5260100DD260100154E020010B5482025
:102A0000FDF73EFC044600F062FA034B20461C60D2
:102A100000F07CFA012010BD64C30720012070473C
:102A20007047FFFF10B50F4C0A21206800F0A6FC8C
:102A30002068303000F00BFA50B12068BDE810403B
:102A400090F83A3043F0C00380F83A3000F01FBCF1
:102A50002368012193F83A2061F3871283F83A2022
:102A600010BD00BF64C3072038B5074C256825B9E1
:102A70000120FDF705FC0570206020680421BDE8F9
:102A8000384002F028B900BF50C3072010B50446F3
:102A900086B01022002102A80AF0CFFF05AB0193F7
:102AA00004AB009302AA03AB0F49204606F076F868
:102AB0000E4B1B78ABB10E4B02991B681A7C61F36D
:102AC00003021A7403995A7C61F307125A74049929
:102AD000DA7C61F30302DA7405991A7D61F3071257
:102AE0001A75012006B010BD0C5C020060C30720FF
:102AF00064C3072007B5002302AA42F8043D074932
:102B000006F04CF8064B1B781BB1064B019A1B686C
:102B10009A84012003B05DF804FB00BF1C5C020036
:102B200060C3072064C3072007B5002302AA42F848
:102B3000043D0A4906F032F8094B1B7853B1094BA2
:102B4000019A186890F8303062F3030380F830304F
:102B500000F0E5FB012003B05DF804FB235C0200FC
:102B600060C3072064C3072007B5002302AA42F808
:102B7000043D064906F012F8019A054B02B1012204
:102B800001201A7003B05DF804FB00BF235C020053
:102B900060C3072010B5164C206800F0F1FC2068D7
:102BA00000F006FD206800F0B7FC206800F0CEF9C8
:102BB000206800F0D1F9FFF7DFF8042102F0B2F845
:102BC00020B120680121303000F043F9FFF7D4F83C
:102BD000032102F0A7F850B1206800F03DFA80F020
:102BE0000101C9B22068BDE8104000F032BA10BD42
:102BF00064C307207047FFF701BFFFF70FBF10B591
:102C00000446FDF73FFB204610BDFFFF70B50B4E9D
:102C100005010B4B741953F82010201D08F084FA9D
:102C2000E368A0689847A36870590133A360002344
:102C30001A46BDE87040194607F0B4BD68C30720C6
:102C4000DC5C020008B50020FFF7E0FFFBE708B5F9
:102C50000120FFF7DBFFFBE708B50220FFF7D6FFF7
:102C6000FBE708B50320FFF7D1FFFBE7F7B5074601
:102C70000D462D4A00240D2312682C49009405F0BE
:102C800037FF2B4B87F831503B602A4D2A4B0322EC
:102C9000EB602A4B2146EB61294B0120EB62294B6B
:102CA000EB6307F05DFD032228602146012007F059
:102CB00057FD032228612146012007F051FD224BD8
:102CC00028621E680523C6F38F060093324623460A
:102CD0001E4901941E4807F0D5FF06230093324693
:102CE00023461C4901941C4807F0CCFF072300939E
:102CF0000194234632461949194807F0C3FF97F853
:102D0000313073B103222146012007F029FD082349
:102D1000286332460093019423461249124807F073
:102D2000B1FF384603B0F0BD2C5C0200405C0200ED
:102D3000F45C020068C30720952B0100212A0100E2
:102D4000252A0100692A0100085C0200475C020094
:102D5000452C01004B5C02004F2C0100505C02002E
:102D6000592C0100565C0200632C010038B517484D
:102D70000C46415C00230131C9B2914202D0015599
:102D8000184638BD124D0355200128581A461946D9
:102D900007F00EFE0546B0B90E4B53F8244020460E
:102DA0000CF04AF820460CF049FB2B46024621461F
:102DB000094802F0BDF8094A094B9A644FF0804374
:102DC000AA221A721D70012038BD00BFA8C30720B7
:102DD00068C30720305C02005D5C0200EFBEADDE20
:102DE00000400240044608B5012008F0C9F994F8F3
:102DF000313023B1012203212046FFF7B7FF0A2219
:102E000002212046FFF7B2FF0028EDD00A2201215F
:102E10002046FFF7ABFF0028E6D00A22002120461B
:102E2000FFF7A4FFE0E70022027270470378027AFE
:102E300003F00F0102F00F02914206D013F00F03CE
:102E400018BF012303720120704700207047007AE9
:102E50007047017270470D218171012100220172BA
:102E60000C2102714271C271C16002607047C07969
:102E70007047817102727047C1717047007A704764
:102E8000037A82790BB113B203E0C36813445B4247
:102E90001BB20380C379022B02D14FF6BA7102E054
:102EA000012B02D14621418001E003B943804371E7
:102EB00002717047002202814281026042607047C5
:102EC000B0F908007047018170477047704710B52E
:102ED0000446FFF7C0FF04F1100000F0A5FB04F169
:102EE0002400FFF7E7FF04F13000FFF79CFF002309
:102EF0000122642184F83B3084F8453084F83C207A
:102F0000216484F84420204610BDFFFF13B5044619
:102F10000B4B90F83C0001930A4B0F22216C00935D
:102F20000A2306F0CFF906F047FB94F83C0006F0C0
:102F300037FB054801F051FD012002B010BD00BF74
:102F4000CB2E0100CD2E0100ACC30720002380F85A
:102F50003B3080F84530704790F83A3003F0040376
:102F60006FF3820380F83A3070470346806A70B589
:102F7000C0F35E02B2F57A7F93F8284034BF002593
:102F8000012565F30004E50783F8284005D4986A15
:102F90000A4462F35F00986216E010F0010013D15A
:102FA00002464FF47A7464F35F029A6202F0D1022F
:102FB00042F0010283F8282093F83A20586242F048
:102FC000010283F83A2000E001209A691C7EC2F3D6
:102FD0005E05B5F57A7F34BF0026012666F300044E
:102FE0001C76E40705D49A69294461F35F029A616B
:102FF00070BD12F001012BD10122104662F30710BF
:103000001874104662F307105874104662F30710E4
:103010009874104662F30710D874104662F30710D4
:1030200059611875104662F307100A4658754FF437
:103030007A7060F35F0208469A6102F0D10242F0B2
:1030400001021A7693F83A2042F0020283F83A20FD
:1030500070BD80F84410704790F844007047FFFF3F
:103060002DE9F04F85B004AB03E906009DF80B3065
:10307000044600939DF80E309DF8089001939DF84A
:1030800009A09DF80A809DF80C509DF80D70FFF77F
:10309000EEFE06462046FFF7F1FE8346484801F063
:1030A000AAFC019B002B40F08480012E03D057D353
:1030B000022E26D07DE0BBF1000F0DD0BAF1000F3B
:1030C00001D1002F75D03E4801F08FFC002F3FD07A
:1030D000B9F1000F29D161E0B8F1000F69D038488B
:1030E00001F083FC009B002B58D00DB9294615E058
:1030F0002FB939462046FFF7BFFE324652E032462E
:103100002CE0BBF1000F19D0B9F1000F01D1002F55
:103110004FD02B4801F069FC27B939462046FFF70C
:10312000ABFE46E0BAF1000F34D025B9294620465F
:10313000FFF7A2FE22E00122002137E0009B002BD6
:1031400037D01F4801F051FCB8F1000F22D027B949
:1031500039462046FFF790FE23E00122594625E03C
:10316000BBF1000F0FD027B3154801F03EFCBAF1B8
:10317000000F0FD0B9F1000F10D00DB92A4611E0A1
:103180000122019912E0A5B10D4801F02EFCB8F121
:10319000000F01D10121C1E7009B0BB90221BDE75E
:1031A00017B901220D2101E05A4659462046FFF782
:1031B00060FE204605B0BDE8F04FFFF758BE00BFE7
:1031C000ACC307202DE9F0410E4C0F4623689BB994
:1031D0000820FDF755F80C4D06462B683BB91C201E
:1031E000FDF74EF8804606F0ABFAC5F800802B6874
:1031F000266033604023337139462068BDE8F041D2
:1032000001F0EEBC54C3072024C307201FB50446B9
:103210001022002168460AF010FCB4F90030204664
:103220006433BCBF4FF69C732380B4F90030642B29
:10323000C4BF6423238023888DF80830B4F902309A
:103240006433BCBF4FF69C736380B4F90230642BC7
:10325000C4BF64236380A1788DF80910FFF7B2FF23
:10326000112301939DF8033002226FF3C7138DF8E9
:1032700003309DF80230694662F3030394F83C0082
:1032800000228DF8023006F039F904B010BD37B5D0
:1032900004462430FFF714FE0A2801DD012103E073
:1032A0000A30B4BF022100212046FFF7E5FD0122CC
:1032B0000D212046FFF7DDFD04F11001684600F006
:1032C000B9F994F8443023B19DE806002046FFF791
:1032D000C7FE2046FFF7D4FD204603B0BDE83040CE
:1032E000FFF794BF1FB504461022002168460AF07C
:1032F000A4FB012384F83930022204F130000021BC
:103300008DF8083001928DF80230FFF7A2FD0022FF
:10331000694694F83C0006F0F1F804B010BD38B5E9
:1033200000F1300504462846FFF780FD28B3284603
:10333000FFF78DFD94F83A30A8B1022262F38713AB
:1033400084F83A30012220460D21FFF792FD2046F5
:103350000021FFF791FD2046FFF792FD2046BDE8D2
:103360003840FFF753BF012262F3871384F83A30E5
:103370002046BDE83840FFF7B5BF38BD2DE9F04322
:1033800085B0044688461022002168460AF055FBA5
:10339000002504F12409002600270022694694F83C
:1033A0003C0006F057F8002800F0AF8094F8453054
:1033B000013384F84530019B232B2BD01AD8032BE3
:1033C0004BD0042B00F08480012B40F095809DF8B9
:1033D000082094F83030204662F30303120962F3A8
:1033E000071384F83030636B6FF35F036363FFF799
:1033F00096FF81E0252B25D017D3262B7CD194F87E
:103400003B3043F0080384F83B3094F83A3043F003
:10341000080314E094F83B3043F0100384F83B3089
:1034200094F83A3043F0100309E094F83B3043F04D
:10343000020384F83B3094F83A3043F0040384F8F4
:103440003A3059E094F83B3043F0040384F83B30C1
:1034500094F83A3043F02003F1E79DF80820237CEC
:1034600062F30303120962F3071323749DF8092022
:10347000637C62F30303120962F3071363749DF81C
:103480000A20A37C62F30303120962F30713A374F7
:103490009DF80B20E37C62F30303120962F3071328
:1034A000E3749DF80C20237D62F30303120962F399
:1034B000071323759DF80D20637D62F30303120942
:1034C00062F307136375A3696FF35F03A36113E0EE
:1034D0009DF809209DF80830120202F4807213430F
:1034E0000AB163F0FF03A384A36AA18C6FF35F03A7
:1034F000A3624846FFF7E7FC4FF000030095CDE9D3
:10350000026701958DF8023047E741462046FFF7F4
:103510002CFD05B0BDE8F0831FB504461022002144
:1035200068460AF08AFA94F83A3000228DF808309A
:10353000C22301936946032394F83C008DF80230BE
:1035400005F0DCFF04B010BDF8B501F00F06002552
:10355000012416F0010705D00135FEF7DFFBEDB2BF
:10356000012202E0FEF7DAFB3A4621460134E4B2DA
:1035700001F0ACFB052C4FEA5606EAD12846F8BD0F
:1035800010B5044690F83C0005F0AAFF014650B182
:10359000FEF7C4FB032101F09EFB94F83C00BDE85C
:1035A000104005F0FDBF2046BDE81040FFF7CCBF3E
:1035B00038B590F83B30054603F00F030F2B19D0B8
:1035C000012495F83B30DB0703D4FEF7A7FB01226B
:1035D00002E0FEF7A3FB0022214601F077FB013455
:1035E00095F83B30E4B25B10052C85F83B30E8D110
:1035F000002038BD0021FFF7A7FF012038BDFFFFE5
:1036000010B5064C4021204601F0B6F92046BDE831
:103610001040034A0349FCF795BE00BFACC3072026
:1036200014C30720554A01000022C0F80D20027380
:103630000261704700230360C0F8033001238371E7
:103640000B7870B503F00F0404F10F0606F00F06B7
:10365000042E4A7906D9C2F303150F3505F00F057C
:10366000042D03D8002585710125457102F10F0550
:1036700005F00F05042D0ED90D79C5F303150F358F
:1036800005F00F05032D0AD8C2F303150F3505F019
:103690000F05042D03D80125057000258571C3F39E
:1036A00003130F3303F00F03042B4B7807D903F1F7
:1036B0000F0505F00F05032D05D8042E03D80125AD
:1036C000457000258571C3F303130F3303F00F0317
:1036D000032B8B7805D903F10F0505F00F05032D9A
:1036E00003D80125857000258571C3F303130F33BB
:1036F00003F00F03032BCB7805D903F10F0505F079
:103700000F05032D03D80125057100258571C3F32D
:1037100003130F3303F00F03032B05D90B790F337A
:1037200003F00F03032B03D80123C370002383711D
:1037300043798BB1032C01DD3F2A06D8437813B9B6
:10374000012545708371032C01DD3F2A04D80378DD
:1037500013B901220270837145788278C478837925
:1037600006788D734E730C74CA73CB7470BD70473A
:1037700008B501F0DBF8012008BD10B50446FCF7E0
:1037800081FD204610BDFFFF37B59020FCF778FD86
:1037900004460321FEF702FE204605F07BF93420A3
:1037A000FCF76EFD054600244FF400720D490094AD
:1037B000042305F09DF90C4B28462B6005F06AF9AF
:1037C0003420FCF75DFD05462146FFF74FFA2846F9
:1037D00005F060F92046214605F06AF94FF0FF3008
:1037E00003B030BD25510200305D020010B54FF628
:1037F000FF74242303FB0101884209D043782BB1D5
:10380000038C1344A34228BF234603842430F3E7E8
:1038100010BDFFFF37B5002302A840F8043D0C4B54
:1038200004215B6898470B4B019A1C680546141BE2
:103830001A60042122460848FFF7D8FF22460221D9
:103840000648FFF7D3FF281C18BF012003B030BD86
:10385000B4C3072084C40720C8C30720A1C407201D
:1038600008B50B4B197803788B420A4B0BBF1A88AB
:103870009A880132013214BF9A801A80064B8170F7
:10388000DB6820219847003018BF012008BD00BF29
:1038900005C0072059C40720B4C307200A4B02788B
:1038A0001B789A42094B0BBFDA881A890132013220
:1038B0000CBFDA801A810379C3F3C202073262F3C4
:1038C000C5030371FFF7CCBF05C0072059C407200B
:1038D00010B50749002311F823409A00844202D111
:1038E0000348104410BD0133042BF4D1002010BD57
:1038F00073C4072070B1C3780133DBB2FF2BC370F0
:1039000008D105480023C118CA7804335208102B87
:10391000CA70F8D1704700BF73C40720242202FB8D
:1039200001010346024630B5914206D014462432C6
:1039300012F8235C002DF7D10FE0044600259942D0
:103940000BD01A79C2F3C2001A8C42EA0042AA4292
:1039500084BF1C4615462433F1E7204630BDFFFFE7
:1039600038B50546C90001F10804FFF753FF1C4BA9
:103970002A781B789A4204D102211A48FFF7CEFF19
:103980000CE004211848FFF7C9FFEB7833B990F831
:103990002330042443F0800380F82330002380F890
:1039A000203080F8213002462B4690F8231080F812
:1039B000224021F07F01C4F306240C4380F8234009
:1039C00005F1200153F8044B8B4242F8044BF9D126
:1039D000064A0379127862F3C503037138BD00BF4C
:1039E00005C00720A1C40720C8C3072004C00720C2
:1039F00008B5FFF76DFF0346D8B9FFF769FF034627
:103A0000B8B90D4AD378D179D07A8B4296BF19468E
:103A1000131D1346814294BF0846084BD17B084AC8
:103A2000814238BF1346074900221A60CA7A013220
:103A3000CA72184608BD00BF73C407207BC40720A4
:103A40007FC4072059C407202DE9F84F05460C46CE
:103A50004FF0240909FB0219DFF868A1DFF868B10B
:103A60004E1C4FF000084C4500F09A8094F823302B
:103A70001A0624D5B5B12A7861788A4205D16F78C3
:103A800016F8010C874200F08D80E87850B1687814
:103A9000884207D116F8011C914203D1A979A27975
:103AA00091427FD094F82220218C03F07F0342EAD8
:103AB0000323994271DB2046FFF7D2FE72E0627861
:103AC000002A6AD06DB3297901F0C001C02917D14D
:103AD00016F8010C6978884202D12878904261D0AA
:103AE000E778A87887420CD191420AD116F8010CE8
:103AF0002978884205D1A079A979884201D151E07D
:103B000079B1A878E17888420BD16978914208D1DF
:103B100016F8010C2978884203D1A079A979884246
:103B200046D094F82210208C03F07F0341EA03234F
:103B3000984232DB237984F82080C3F3C201CFB2EC
:103B400084F821801FB12046FFF7A8FE25E003F08E
:103B5000C003C02B19D016F8010C9AF80030984217
:103B600013D1E3789A4210D07BB16379032262F3D8
:103B700007136371E1702046FFF790FE23799BF8ED
:103B8000002062F3C503237100E001276078FFF78E
:103B90009FFE08B1C0F8008027B92434243662E7BC
:103BA000BDE8F88F24220021204609F046FFF4E703
:103BB000237984F820806FF3C50384F82180237172
:103BC000EBE700BF05C0072004C00720431EDBB29F
:103BD000FD2B9DBF024B187001200020704700BFD5
:103BE00005C00720014B1878704700BF05C00720AB
:103BF00007289CBF014B1870704700BF04C0072006
:103C00002DE9F743044691461E469DF828500F467D
:103C1000002966D0364B93F80080414563D00F2EC3
:103C200061D8002861D02022002109F006FFFF2F73
:103C3000237914BF09F00302002262F387130322E1
:103C400062F302032B4A6770127884F8008062F3F3
:103C5000C503294A2371137884F802800133DBB24B
:103C60001370A3710BAB019315B94FF001081BE062
:103C700004F10809019AE0791346526853F8081BC9
:103C800000EB02085FFA88F8013DB8F1180F0193C4
:103C9000EDB207D8484409F0AAFE84F80780002D49
:103CA000E8D1E2E74FF00008DFF8509001233846F2
:103CB00089F80030FFF70CFE0546FFF71BFE0023D6
:103CC00089F80030637925B966F307136371E570ED
:103CD00005E0AA7862F3071363716B78E3704046DE
:103CE00003E0084601E00020FFE703B0BDE8F083F1
:103CF00005C0072004C0072058C4072065C407205A
:103D0000124B012270B51A7004461E4608B90025F0
:103D100018E0FFF7A5FD05460028F8D0237903F049
:103D2000C003402B06D0C02B0AD1E37853B1627890
:103D30009A4207D0617920460909FFF711FE01E098
:103D4000802BF7D000233370284670BD65C4072050
:103D500082B02DE9F0439146421ED2B28DB0FD2AC9
:103D600005460E4615939DF8688001D9002057E05E
:103D7000002BFBD0179F002FF8D0199B002BF5D0FC
:103D8000189B002BF2D0169B002BEFD0482200216D
:103D9000264809F052FE90220021254809F04DFEE8
:103DA00010220021234809F048FE234B00241C6008
:103DB0005C609C60214B1C605C609C60204B1D70B3
:103DC000204B214D1E7015AE0FCE0FC53368182243
:103DD00021461E482B6009F030FE494617221B4839
:103DE0000BF072FB21462046B8470028BED0B8F140
:103DF000000F02D1FFF70EFD12E006230293144BD1
:103E00002246019301230093FF2104A8FFF7F8FE47
:103E10000028ABD004A8FFF773FF0028A6D0E9E77D
:103E20000DB0BDE8F04302B0704700BFA1C4072049
:103E3000C8C3072073C4072067C4072059C40720DC
:103E400005C0072066C40720B4C3072088C4072024
:103E5000485D020030B5182B8DB016D8B2FA82F446
:103E60001D1C18BF01256409AC420ED002930192BB
:103E700000950A469DF84030014604A8FFF7C0FEB1
:103E800018B104A8FFF73CFF00E000200DB030BDE2
:103E900013B5537914781B09009302460B4620464C
:103EA0000321FFF7D7FF02B010BDFFFF00231A4622
:103EB00030B5084C14F82350990035B1904202D126
:103EC0000448084430BD0132D2B20133042BF1D191
:103ED000002030BD73C4072000231846044A12F89E
:103EE000231009B10130C0B20133042BF7D1704760
:103EF00073C407202DE9F04188B0202200216846D4
:103F000009F09BFDA14B1B7803F0FF04002B40F050
:103F100039819F4F20213B6968469847002800F06F
:103F200084809C4D6B8801336B80FFF7D5FF9DF833
:103F30000420A87202F00703032B04D0964A1378DA
:103F400043F0010309E0954B1D789DF80230AB4228
:103F500005D1914A137843F002031370E4E0C2F3F1
:103F6000C2029DF800E09DF806008D49D6B204EB30
:103F7000440313F801C0F4450BD10B4493F801C07E
:103F8000844506D1997801248E1B18BF01269A70AA
:103F900018E00134042CEAD182490B689A70804AF7
:103FA000587002F10900834283F800E040F0C980B4
:103FB0000A609DF800009DF80230834240F0C48002
:103FC000002426469DF80200FFF712FD9DF802200E
:103FD00002709DF80220427000228270FFF78AFC76
:103FE00004B116B39DF80030AB4200F09C809DF800
:103FF0000160FF2E1BD13B6820216846984720B9FD
:10400000654A137843F0040313709DF8053003F0FC
:104010000F02511C61F303038DF80530C3F3031342
:104020009A4202DA6846FFF71BFC00247CE0B542A6
:104030002BD164B99DF807304BB13B68202168460D
:10404000984720B9544A137843F0040313709DF83D
:10405000043003F0C003402B12D19DF807306A46AC
:1040600013B91821504808E00C214A48FFF710FF07
:10407000002858D100216A460846FFF709FF52E0A0
:104080009DF80330002B4ED1F4E7484B1B78002BF2
:10409000CBD09DF8054004F00F074FEA14184745B0
:1040A000C3DA013767F303043046FFF711FC8DF8DC
:1040B00005409DF80340A54221D19DF8041001F070
:1040C000C001402906D0A1F180035A425A4114464A
:1040D00010B90CE0012260B1C029437805D19E429D
:1040E00003D0003318BF012304E0002302E0C029FD
:1040F0000ED10346134303F0010420B908E094B93C
:1041000008B941460CE043788DF80330857802E029
:1041100000258DF803506846FFF7A2FB1CB1294625
:104120006846FFF71DFC6C46FFF774FB204604222F
:104130001F49FFF789FC02221E492046FFF784FC35
:1041400020E003330B6034E785423FF439AFFFF7DB
:104150004FFC0446FFF7CEFB23783BB19DF80530BA
:10416000A27803F00F0393423FF72AAF9DF8003087
:1041700023709DF8023063709DF80530C3F303038C
:10418000A3701DE708B0BDE8F08100BF65C407203B
:10419000B4C3072059C40720A0C4072005C00720C6
:1041A00067C4072000C0072088C4072066C4072012
:1041B000C8C30720A1C4072000231846094AD11804
:1041C000497809B10130C0B22433902BF7D1064BA6
:1041D0005A780AB10130C0B293F825300BB10130E2
:1041E000C0B27047C8C30720A1C4072008B5FFF7B5
:1041F0006FFB064B28B18278187802FB0000C000E4
:1042000008BD18781823584308BD00BF04C0072014
:1042100003490B6803604B6843608B688360704799
:1042200059C4072070B53E4C4FF48035E5613D4CD4
:10423000A0602046C5683B4CED06FBD4A0680D4647
:10424000C0B20BB923465FE02346002A63D0072A99
:104250000E782DDD9E604E78083A9E608E789E60C6
:10426000CE789E600E799E604E799E608E799E60BB
:1042700001F10806C979996099694907FCD5A168D7
:104280002970A1686970A168A970A168E970D968EE
:10429000C906FCD4A168083505F8041CA16805F816
:1042A000031CA16805F8021CA16805F8011C1AE0AE
:1042B000032A1ADD9E604E78043A9E608E789E60D6
:1042C0000E1DC9789960D968C906FCD4A168043567
:1042D00005F8041CA16805F8031CA16805F8021C78
:1042E000A16805F8011C3146AFE701319E60013A33
:1042F000DE68F606FCD4A668013505F8016CA4E773
:10430000E668F606FCD4A6686E1AB24203DD15F81C
:10431000016B9E60F4E7024B4FF480329A6170BDEE
:1043200000C009200080084007B5002302A901F859
:10433000013D01231A4600F01F00FFF773FF9DF8AF
:10434000070003B05DF804FB13B502AC04F8011DCF
:1043500000F01F0000230122214640F02000FFF75B
:1043600061FF02B010BD08B51720FFF7DDFFC0F3F5
:10437000001008BD70210720FFF7E6BF0A460023A2
:104380000146A020FFF74EBF08B50020FFF7CCFF85
:10439000BDE8084000F0FE010020FFF7D5BFFFFF99
:1043A000024B4FF08072DA61704700BF20C00920D5
:1043B00008B50020FFF7B8FF40F00101C9B20020A6
:1043C000FFF7C2FF024B4FF080729A6108BD00BF39
:1043D00020C0092020210720FFF7B6BF00231A467E
:1043E0001946E120FFF71EBF37B504460D46FFF71B
:1043F000F5FF20462946FFF7C1FF0D4B4FF08072B5
:104400001C469A610022ADF80620BDF80630013343
:104410009BB2ADF8063033B94FF08073E361FFF71C
:10442000DDFF03B030BDFFF79EFF0028EDD0F3E7BE
:1044300020C0092008B51720FFF776FF00F0010023
:1044400080F0010008BD40210720FFF77DBF08B5BF
:104450000A46012301466120FFF7E4FEC0F3420053
:1044600008BD00231A461946E220FFF7DBBE70B5EF
:10447000064600200D461446FFF756FF16B100F021
:10448000BF0002E040F04000C0B215B100F0DF0113
:1044900001E040F0200114B101F0EF0101E041F032
:1044A00010010020BDE87040FFF74EBF10B5044674
:1044B0000020FFF739FF14B900F0F7010DE0012CDF
:1044C00004D100F0FB0141F0080106E0022C14BF0A
:1044D00040F0080140F00C01C9B20020BDE81040D6
:1044E000FFF732BF08B50020FFF71EFFBDE8084008
:1044F00040F00201C9B20020FFF726BF08B5002036
:10450000FFF712FFBDE8084000F0FD010020FFF7B3
:104510001BBF40F6DD13984206D840F66213B0F593
:10452000166F38BF184600E01846A0F51661C9B2EC
:104530000520FFF709BF10B504460620FFF7F4FE7B
:10454000FA2C00F0D70102D141F0200104E0B4F5CB
:10455000FA6F08BF41F008010620BDE81040FFF7E0
:10456000F3BE10B504460620FFF7DEFE032C28BF7D
:10457000032420F0060040EA4401C9B20620BDE849
:104580001040FFF7E1BEF9284FF0FA0305D9B0F566
:104590007A6F88BF4FF47A6000E01846B0FBF3F002
:1045A0000F2900F1FF30C0B228BF0F2141EA0011EE
:1045B000C9B20420FFF7C8BE1130C0B2162804D813
:1045C000202928BF2021FFF7BFBE7047032804D051
:1045D000042814BF0321022100E001210320FFF77A
:1045E000B3BE0A46002301463020FFF71BBE0A4631
:1045F000002301462A20FFF715BEFFFF73B50E46C4
:1046000015460446FFF72DFFFFF7E8FE2B4B4FF052
:104610008072DA61FFF772FF002211460120FFF776
:1046200026FFFFF7A7FE0220FFF740FF3046FFF707
:1046300070FF2846FFF77FFF0320FFF792FF03215B
:104640000220FFF781FE00210120FFF77DFE0321FC
:104650004FF4FA70FFF797FF21460020FFF7ACFFF9
:1046600000211220FFF770FE00211320FFF76CFEDF
:1046700000211420FFF768FE00211520FFF764FEDB
:1046800000211620FFF760FE0D4B18681B79009083
:1046900005208DF80430FFF799FF68460521FFF7E4
:1046A000A0FF05216846FFF7A2FFFFF71BFF4FF4AD
:1046B000FA6004F0B7FC02B070BD00BF20C0092052
:1046C0004F5D020070B5174E326822B920210320D9
:1046D00006F046F83060144D2A6822B920210120E6
:1046E00006F03EF82860114C216821B90322012010
:1046F00006F036F820604FF4FA6240F6C31120202D
:10470000FFF77CFFFFF754FE1620094A012104F051
:10471000CBFF306828B1286818B12068003018BF76
:10472000012070BDF0C40720ECC40720F4C40720AA
:10473000DD47010070B50379014603F0C003C02BCB
:104740000CBF0E4B0E4B88B01D68002306461A4660
:10475000284606F027F8044660B903460246694633
:10476000284606F025F9234622463146284606F01B
:1047700019F80446204608B070BD00BFECC40720FD
:10478000F0C4072038B504460D46FFF72BFA23780E
:1047900083420AD0E37843B90AF07EFBBD2300F0E0
:1047A000030000FB033004F03DFCFFF7F9FDFFF7C9
:1047B000EBFDA9B22046FFF717FEFFF70BFEFFF750
:1047C000F7FD06F0F9FE022804D1034B002118681A
:1047D00006F0BCF8012038BDF4C4072007B500235B
:1047E00002A941F8043D084B186806F0AFF8019B98
:1047F0003BB1064B4FF080521A60BFF34F8FBFF3AF
:104800006F8F03B05DF804FBF4C4072004ED00E0F3
:1048100038B504460D46FFF70DFE48B1A9B2204653
:10482000FFF715FEFFF706FE08B9FFF70CFE0120A3
:1048300038BD2DE9704305460E46144606F0BCFE11
:10484000022807D1224600233146284606F0B0F858
:10485000C4B21DE007F064FA4FF47A72002308F046
:10486000C7FC10EB040841F1000900231A46314649
:10487000284606F09DF8C4B254B907F051FA4FF437
:104880007A72002308F0B4FC894508BF8045ECD259
:104890002046BDE87083042938B5054603D1041CC1
:1048A00018BF012400E0002407F03AFA2CB14FF4BD
:1048B0007A72002308F09CFC2860204638BDFFFF78
:1048C00000B50C4B8DB009930B4B0C4A0B930C4B62
:1048D0000A930CAB43F8102D002204920FCB8DE805
:1048E0000F00084B084A01216A20FFF731FA0DB08A
:1048F0005DF804FBC546010011480100974801001E
:104900008547010035470100545D0200024B0A460D
:1049100001461868FFF78DBFF0C40720024B0A4616
:1049200001461868FFF785BFECC4072008B506F0FC
:1049300043FE0F4B02285B6913D15A020DD5FFF7D6
:104940003BFC00280B484FF0000314BF01224FF03E
:10495000FF321946006806F02BF8BDE80840FFF763
:10496000C9BA5B02F9D5FFF727FC0028F5D108BDCD
:1049700000C00920F4C40720F0B5864687B0114F67
:104980004C1101F01F0501AE457004700FCF0FC62A
:1049900070463B680321336006AB03EB840353F896
:1049A000143C6D00CEF80430E30003F1804303F5BE
:1049B00030331A6801FA05F522EA05051D6007B0D3
:1049C000F0BD00BF5C5D0200416840780A680123C9
:1049D000834022EA03030B607047416840780A680D
:1049E0000123834013430B607047417842680123E1
:1049F0008B40936170474178426801238B40D361BB
:104A00007047FFFF30B543780578064C5B0054F8DB
:104A10003520032101FA03F322EA030344F8353079
:104A200030BD00BF40C0024010B5094A04780123E0
:104A3000407821B152F8241083400B4304E052F82F
:104A40002410834021EA030342F8243010BD00BF44
:104A500068C0024010B50446FFF7B6FF00212046AB
:104A6000FFF7E2FF2046FFF7CDFF204610BD1346BB
:104A70000A460179006805F0A6BA1FB5002204AB0A
:104A8000047923F8042D0222009200680A46214688
:104A900005F084FA9DF80C009DF80D3043EA0020E3
:104AA00004B010BD10B5044619222A21FFF7DFFF1C
:104AB0000D222179206805F075FAA0F12A035842E9
:104AC000584110BD044A13881F2B9FBF581C1080EB
:104AD000024A42F823107047FCC4072000C5072093
:104AE000154AF0B513881646012B21D9134A002028
:104AF0001546013B984206DA516814680130091BDB
:104B000042F8041BF6E700210C466A684FF0010EDC
:104B100002EB52008AB2934208DD55F8227001314F
:104B2000B8423CBF0EFA02F21443F3E7044B1C6098
:104B300000233380F0BD00BFFCC4072000C5072060
:104B4000F8C4072008B50121022007F083F8084BBC
:104B500001209A6A22F007029A629A6A42F00602DB
:104B60009A62044AD36843F03003D36008BD00BFA3
:104B70000080004000C0024008B5044B417101F0C4
:104B80007F015A5C0321FFF772FF08BD705D0200D0
:104B900008B5044B817101F07F015A5C0221FFF7D7
:104BA00066FF08BD705D020038B5044601790068F3
:104BB00005F014FA054688B1002206212046FFF7C9
:104BC00056FF002207212046FFF751FF2E212046E5
:104BD000FFF7D2FF2E212046FFF7DAFF284638BD27
:104BE000642370B5B1FBF3F404FB1311CCB20A21BA
:104BF000B4FBF1F501FB15413031C9B20646FFF7B0
:104C0000C7FF092C88BF05F130013046BDE8704070
:104C100094BF2021C9B2FFF7AFBF01207047FFFF4B
:104C200038B50D46044606F0FFFD05F00F0323706E
:104C3000114B15F0010F4FF0010214BFDA619A61B8
:104C4000227812F0020F4FF0020214BFDA619A616B
:104C5000227812F0040F4FF0100214BFDA619A614B
:104C6000227812F0080F4FF4807214BFDA619A6153
:104C7000BDE8384006F0E8BD20C0092038B50D4633
:104C8000044606F0D1FD691E012303FA01F12378E1
:104C900020461943C9B22170FFF7C2FFBDE8384072
:104CA00006F0D2BD38B50D46044606F0BDFD691EBE
:104CB000012303FA01F12378204623EA0101217040
:104CC000FFF7AEFFBDE8384006F0BEBD0AB1FFF702
:104CD000D5BFFFF7E7BF38B50D46044606F0A4FD83
:104CE000691E012303FA01F1237820465940C9B215
:104CF0002170FFF795FFBDE8384006F0A5BD012003
:104D00007047022004F024BA01207047044B5B690D
:104D1000180B00F00C00C3F341231843704700BF89
:104D200020C009200139032908B505D8FFF7EEFF97
:104D3000084100F0010008BD002008BD10B5044680
:104D400081220121FFF793FE01222179206805F0DD
:104D500029F910F0600F14BF0120002010BD38B5F4
:104D600000210446FFF789FE812205B20121204679
:104D7000FFF77DFE102095FBF0F008F04FF84FF0A4
:104D8000765108F09FF8A16807F094FF38BDFFFF47
:104D900008B5FFF7E4FF054908F094F8044908F066
:104DA00045F94FF0844107F085FF08BD0000104130
:104DB0000000A0402DE9F04FADF2546D0C46904636
:104DC0000146012282A8994602F03EF8002867D1E8
:104DD00021460A220DF22C4002F036F8044620B19A
:104DE00082A802F09AFA20465AE06D460646074627
:104DF0002860019006F094FF4FF47A72002308F0C7
:104E0000F7F92B4683464FF4007202A982A802F0FC
:104E1000B5F88246E0B92A68D2B106F081FF4FF4B6
:104E20007A72002308F0E4F9B0EB0B00074406F0B7
:104E300077FF4FF47A72002308F0DAF901AB83466A
:104E40002A6802A90DF22C4002F050F98246B0B156
:104E5000B8F1000F01D0C8F80070B9F1000F01D00F
:104E6000C9F80060DDF8783603B11C6082A802F052
:104E700054FA0DF22C4002F050FA504610E001991D
:104E80002A689142E4D106F04BFF00234FF47A7276
:104E900008F0AEF92B68B0EB0B0006441C44A9E700
:104EA0000DF2546DBDE8F08FF0B5ADF50B7D0E46FB
:104EB000174601461D460122002301A8009301F078
:104EC000C3FF044670B91DB1294601A802F037FAA4
:104ED0006B463A46314601A802F050F8044601A854
:104EE00002F01BFA20460DF50B7DF0BDF0B5ADF5D7
:104EF0000B7D0E46174601461D460A22002301A8D7
:104F0000009301F0A1FF044670B91DB1294601A824
:104F100002F015FA6B463A46314601A802F0E6F86F
:104F2000044601A802F0F9F920460DF50B7DF0BD0D
:104F3000F0B5ADF50B7D0E46174601461D46122213
:104F4000002301A8009301F07FFF044680B90DB152
:104F5000294600E0049901A802F0F1F96B463A46AF
:104F6000314601A802F0C2F8044601A802F0D5F9C2
:104F700020460DF50B7DF0BD7F2810B516D931B157
:104F8000FF2812D80A4B803833F8100010BD084AA9
:104F900032F811408BB2844203D001318029F7D11D
:104FA0000B4603F18000C0B210BD002010BD00BF51
:104FB000F05D02000649002331F8132032B182422D
:104FC00001D00133F8E7034A32F81300704700BFFD
:104FD000F05E0200D060020010B501200C4605F022
:104FE00065FC2060003018BF012010BD0120704713
:104FF00010B5044606F0E0FA02280AD1002319464B
:105000004FF0FF32204605F0D3FC431E5842584172
:1050100010BD012010BD10B5044606F0CDFA0228DF
:1050200007D100232046BDE810401A46194605F076
:10503000B9BB10BD10B5044604F0B8FD24B1012C75
:1050400006D100F081F901E000F002FD044600E025
:10505000042404F0C3FD204610BD28B1012801D06E
:105060000420704700F028BA7047F8B507460C4690
:1050700015461E4604F09AFD3FB1012F0CD1324671
:105080002946204600F020FA04E032462946204610
:1050900000F02AFD044600E0042404F09FFD2046B1
:1050A000F8BDF8B507460C4615461E4604F07EFDD1
:1050B0003FB1012F0CD132462946204600F050FA6C
:1050C00004E032462946204600F030FD044600E068
:1050D000042404F083FD2046F8BD70B506460C4656
:1050E000154604F063FD36B1012E0AD1294620464B
:1050F00000F090FA03E02946204600F037FD044610
:1051000000E0042404F06AFD204670BD08B506F0F6
:1051100007FE4FF47A72002308F06AF808BDFFFF1B
:1051200010B5044606F076FF074BB0FBF3F0022300
:10513000B0FBF3F2944202D3044A136110BDB3F5FD
:10514000807FF9D00233F3E740420F0000000340B4
:10515000044B9860DA68D206FCD4024B9868C0B25F
:10516000704700BF0000034070B5FFF7CFFF00F5A8
:10517000FA74FF20FFF7ECFF0025FF20FFF7E8FFA0
:10518000FF28064605D0FFF7C1FFA94208BFA0428D
:10519000F3D3304670BDFFFF38B5064C4FF00075B5
:1051A000E561FFF7E1FF044AA561137843F00103CD
:1051B000137038BD20C0092006C007202DE97043B8
:1051C00006460D46FFF7A2FF643080464FF0000907
:1051D000FF20FFF7BDFFFF2808D1FFF797FF4945E4
:1051E00008BF4045F4D30020BDE87083FE28FAD103
:1051F000102D06D900224FF40071304604F074FCE3
:1052000019E0341D0435FF20FFF7A2FF04F8040C59
:10521000FF20FFF79DFF04F8030CFF20FFF798FF26
:1052200004F8020CFF20FFF793FF043404F8050C88
:105230002B1BDE42E7D1FF20FFF78AFFFF20FFF79D
:1052400087FF0120BDE8708370B506460D46FFF765
:105250008BFFFF28044619D12846FFF779FFFD2D63
:1052600016D022464FF40071304604F03DFC204633
:10527000FFF76EFF2046FFF76BFF2046FFF768FF42
:1052800000F01F00431F5842584170BD002070BD00
:10529000012070BD020638B504460D4607D5002131
:1052A0007720FFF7F7FF012838D804F07F041C4B64
:1052B0004FF000729A61DA61FFF756FFFF2801464E
:1052C00028D12046FFF744FF280EFFF741FFC5F322
:1052D0000740FFF73DFFC5F30720FFF739FFE8B2AE
:1052E000FFF736FF402C17D0482C14BF0120872031
:1052F000FFF72EFF4C2C02D10846FFF729FF0A21A9
:10530000FF20FFF725FF030608D5013911F0FF0143
:10531000F6D138BDFF2038BD9520EEE738BD00BF7F
:1053200020C00920064A074913784969DBB24901C0
:1053300054BF03F0FD0343F003031370704700BF35
:1053400006C0072020C009202DE9F743FFF7EAFF38
:10535000564B1A781E4612F0020F01D01878A1E0C1
:105360000120FFF7DDFE0A24FF20013CFFF7F0FEDD
:1053700014F0FF04F8D14E4F4FF00073FB6121464B
:105380004020FFF787FF012802D04FF0000875E0AA
:10539000FFF7BCFE4FF4D57100F57A754820FFF792
:1053A00079FF012841D10DF10408FF20FFF7D0FE5D
:1053B00008F804000134042CF7D19DF80630012BC5
:1053C000E3D19DF80730AA2BDFD12C460025FFF74B
:1053D0009DFEA94208BFA04206D3FFF797FEA9424F
:1053E00008BFA042D1D207E04FF08041E920FFF78B
:1053F00051FF0028EBD1F0E700217A20FFF74AFFA8
:105400000028C2D10146FF20FFF7A2FE08F80100E4
:1054100001310429F7D19DF8043013F0400F14BF77
:105420004FF00C084FF0040828E02146E920FFF770
:1054300031FF02282C4635BF4FF002084FF001081B
:105440004FF0E9094FF041090025FFF75FFEA9423F
:1054500008BFA0420BD3FFF759FEA94208BFA042E4
:105460000CD34FF400715020FFF714FF06E0002129
:105470004846FFF70FFF0028E7D1ECE70D4B83F814
:1054800000804FF00073BB61B8F1000F07D0337894
:10549000182003F0FE033370FFF742FE01E0FFF730
:1054A0007BFE3078C0B203B0BDE8F08306C00720B1
:1054B00020C0092080C5072008B5FFF733FF014B46
:1054C000187808BD06C0072070B514460646084681
:1054D000FFF728FF002C39D01E4B1B78DB0737D491
:1054E0001D4B4FF00072DA611C4A1D46127812F013
:1054F000080F08BF4002012C01460CD15120FFF7D4
:10550000C9FEE0B94FF400713046FFF757FEB0FA1C
:1055100080F4640913E05220FFF7BCFE78B94FF421
:1055200000713046FFF74AFE28B1013C14F0FF0439
:1055300006F50076F3D100214C20FFF7ABFE4FF0CB
:105540000073201CAB6118BF012070BD042070BD2A
:10555000032070BD06C0072020C0092080C5072099
:10556000F8B5144606460F46FFF7DCFE002C44D083
:10557000254B1A78D20742D41B785B0741D4234BC2
:105580004FF00072DA61224A1D46127812F0080FBD
:1055900008BF7F02012C0CD139465820FFF77AFE54
:1055A00018BBFE213046FFF74FFEB0FA80F46409C5
:1055B0001CE012F0060F03D02146D720FFF76AFE49
:1055C00039465920FFF766FE80B9FC213046FFF7C7
:1055D0003BFE28B1013C14F0FF0406F50076F4D13F
:1055E000FD210020FFF730FE00B901244FF00073C9
:1055F000201CAB6118BF0120F8BD0420F8BD0320BA
:10560000F8BD0220F8BD00BF06C0072020C0092059
:1056100080C507207FB50D46FFF784FE05281AD107
:105620002B78012B00F0048103D3022B0BD0042034
:1056300001E1824B586910F0806440F0F980FFF777
:10564000ABFD2046F7E07D4B5B6983F08063C3F3DD
:1056500080636B70ECE07A4B1B78DB0700F1EA802B
:105660000E2800F2DF80DFE800F008124F53DDDD86
:10567000DDDDDDDDAAAFB2BBCB00704B4FF00072B9
:10568000DA61FFF771FDFF3818BF0120CBE0002180
:105690004920FFF7FFFD044608B10120C3E01021B7
:1056A0006846FFF78BFD0028F7D09DF800309DF885
:1056B00008109B09012B9DF8093006D1013303EB3B
:1056C000012189B2890229606BE09DF807209DF8CD
:1056D0000500920002EB91119DF806200131920223
:1056E00002F4406211449DF80A2000F00F0000EB24
:1056F000D2105A00023002F006028318DBB289B2DF
:10570000093B01FA03F34BE04FF400732B8059E09F
:105710004C4E337803F0040303F0FF01F3B1002192
:10572000CD20FFF7B7FD0028B7D1FF20FFF710FD10
:1057300010216846FFF742FD0028AED03021FF203F
:10574000FFF706FD481E10F0FF01F8D19DF80A3062
:1057500008461A09102393402B6064E04920FFF7A4
:1057600099FD0446002898D110216846FFF726FDD0
:10577000002892D036789DF80A2006F0020606F03E
:10578000FF009DF80B3076B1520002F07E0202EB72
:10579000D3135A1C9DF80D309B09013B02FA03F309
:1057A0002B6020463FE0D90001F01801C2F38402CB
:1057B00001EB5311531C01FB03332B6033E0214BEE
:1057C0001B782B7000202EE00021492001E00021F1
:1057D0004A20FFF75FFD00287FF45FAF10211AE039
:1057E00000217A20FFF756FD00287FF456AF291DCF
:1057F000FF20FFF7ADFC05F8010B8D42F8D1E1E782
:105800000021CD20FFF746FD00287FF446AFFF20A2
:10581000FFF79EFC40212846FFF7D0FCB0FA80F04D
:10582000400900E00420054B4FF000729A6102E04D
:10583000002000E0032004B070BD00BF20C009209C
:1058400006C0072080C50720054B1B78253BDBB22F
:10585000032B9ABF034A52F823000020704700BF71
:1058600084C50720B86202001B4B2DE9F0411D885A
:105870000646B5F5007F0F46144602D12A4621465A
:1058800013E0B5F5807F09D12A4621463846B04756
:105890002A4604F5807107F5807016E0B5F5047F9F
:1058A00005D1510A89024FF4007238460DE0B5F572
:1058B000847F0ED1140A61024FF480723846B047DB
:1058C000611C4FF480724902B8183346BDE8F041BC
:1058D0001847BDE8F08100BF82C5072030B52F4CC6
:1058E00003462546002958DD07291A782DDDA260D8
:1058F0005A780839A2609A78A260DA78A2601A7998
:10590000A2605A79A2609A79A26003F10802DB7959
:10591000A360A3695B07FCD5AB680370AB684370F9
:10592000AB688370AB68C370E368DB06FCD4AB681C
:10593000083000F8043CAB6800F8033CAB6800F8A2
:10594000023CAB6800F8013C1AE003291ADDA260B2
:105950005A780439A2609A78A2601A1DDB78A36095
:10596000E368DB06FCD4AB68043000F8043CAB68A9
:1059700000F8033CAB6800F8023CAB6800F8013C5F
:105980001346AFE70133A2600139E268D206FCD4C6
:10599000AA68013000F8012CA4E730BD00000340E4
:1059A00007B50B0C8DF805308DF807100B0A042194
:1059B0008DF804000DEB01008DF80630FFF78EFF27
:1059C00003B05DF804FBFFFFF7B5174606460E4C23
:1059D00040250323E5618DF804300B0C8DF805306C
:1059E0008DF807100B0A04210DEB01008DF806302D
:1059F000FFF774FF00223946304604F075F8A561C0
:105A0000A561A56103B0F0BD00C009200E4B402286
:105A1000DA610E4BD7229A601A46D1680B4BC90641
:105A2000FBD49A681A46FF219960D068C006FCD45E
:105A3000906810F0800FF7D0034B40229A61C0B2FB
:105A40009A619A61704700BF00C0092000000340BE
:105A5000F7B5FFF7DBFF1F4C002323801E4B1F4EC3
:105A600040271A889B78F7610321054601A8ADF805
:105A700004208DF80630FFF731FF9DF805209DF8D2
:105A800006301F2AB7612146B761B7611CD1A3F167
:105A90002502032A18D8124A252B137005F001009D
:105AA00006D1002814BF4FF480734FF4847305E0CF
:105AB000002814BF4FF400734FF404730B80FFF7FA
:105AC000C3FE084B400A18600888B0FA80F040090D
:105AD00003B0F0BD82C50720B062020000C00920FB
