:020000021000EC
:10000000E03F082095010100FB000100E100010034
:10001000090101001901010029010100000000008F
:1000200000000000000000000000000091B7010087
:100030003901010000000000F1B701005901010081
:10004000D1BD0100D1BD0100D1BD0100D1BD010074
:10005000D1BD0100D1BD0100D1BD0100D1BD010064
:10006000D1BD0100D1BD0100D1BD0100D1BD010054
:10007000D1BD0100D1BD0100D1BD0100D1BD010044
:10008000D1BD0100D1BD0100D1BD0100D1BD010034
:10009000D1BD0100D1BD0100D1BD0100D1BD010024
:1000A000D1BD0100D1BD0100D1BD0100D1BD010014
:1000B000D1BD0100D1BD0100D1BD0100D1BD010004
:1000C000D1BD0100D1BD0100D1BD01008071020090
:1000D00000C007202C03000030C3072010160000CA
:1000E00004207146084203D0EFF309800BF08EBE66
:1000F000EFF308800BF08ABE704708B5014808F09E
:100100000BFAFEE72E6B020008B5024808F004FA6D
:10011000FEE700BF396B020008B5024808F0FCF9A1
:10012000FEE700BF446B020008B5024808F0F4F98E
:10013000FEE700BF4F6B020008B5024808F0ECF97B
:10014000FEE700BF5C6B020008B5024808F0E4F966
:10015000FEE700BF6A6B020008B50BF0CDFA0BF0AA
:1001600069FBBDE808400BF0DBBA0B4610B5401A3E
:100170005C1AA24203D9C45843F8044BF8E710BDF7
:10018000034610B500221C1AA14202D943F8042BE1
:10019000F9E710BD16480BF0EFFB15480BF0EFFB2D
:1001A000144C154DAC4201D3144D07E094E8030004
:1001B0000C3454F8042CFFF7D8FFF3E7AC4206D216
:1001C00054F8080B54F8041CFFF7DAFFF6E70DF0BB
:1001D000D5FA0BF0EBFB01F0DBFD03F0A7FA4FF4CF
:1001E00016400BF031FF064808F096F9FEE700BF15
:1001F000E03F0820CC000100D8000100E000010031
:100200007E6B02000BF0D8BA0BF0E6BA144B10B5B7
:100210001A68014612B94FF080521A60114C1868E2
:100220002468421894421A6007D20F4CA24204D8A4
:100230000E4A0B488C18046010460D4A1B68126861
:10024000934222BF064B00201A6039B1094A136855
:1002500001331360084B1860084B196010BD00BFD4
:1002600034C307203CC30720FFBF072040D9072025
:1002700040C3072044C3072030C3072038C30720EA
:100280000DF0B4BB0DF0BABB0DF0B8BB30B50446F1
:100290008BB068460DF066FE224B079A2360089BE0
:1002A000214DA36062602149214B52B90A68186848
:1002B00082428ABF02F1604202F17042A2F5E82256
:1002C000626062681B68B2F5803F82BF02F17042D3
:1002D000A2F5E82262600022E2600A68934206D337
:1002E000991AC5F1005303F504230B440BE0114B9D
:1002F0001B68934208D9991AC5F1005303F5F823F6
:100300000B44002B00DDE36020460B4BE2611B68D1
:10031000A3610A4B1B686361094B1B6823610BB027
:1003200030BD00BF4019000040D9072034C307206A
:100330003CC3072040C3072030C3072038C3072031
:1003400044C3072000207047034A044B1A60044A44
:10035000044B1A60704700BF008000103CC30720A8
:100360000040082040C30720014B1860704700BFC1
:1003700050C30720014B1860704700BF48C30720D7
:1003800008B502480EF096FDFEE700BF7C42020071
:1003900008B502480EF08EFDFEE700BF964202004F
:1003A0000020704701207047F8B5084B16461A68C0
:1003B0000F461C4642B10D46EB1B9E4204DD2368EE
:1003C00015F8010B9847F7E73046F8BD50C30720F2
:1003D000F8B5094B0F46186816461C4658B10D462D
:1003E000EB1B9E4205DD23680020984705F8010BB2
:1003F000F6E726EAE670F8BD48C3072070470020FC
:100400007047FFFF074B1B689A68824207D05A6803
:10041000824204D0DB681B1A5842584170470120C1
:10042000704700BF70C10720002070470020704750
:1004300030B504468DB0A8B3684609F023FA9DF89C
:100440000030002503F03F0303939DF8013003A81B
:1004500003F03F0304939DF802300B9503F01F0354
:1004600005939DF8043003F01F0306939DF80530B3
:1004700003F00F03013B0793BDF80630C3F30B03F2
:10048000A3F26C7308939DF8033003F007030993FC
:10049000BDF80830C3F30B03013B0A930DF0F0FBEA
:1004A00084E8210000200DB030BDFFFF70B50F4D76
:1004B0000F4E2C6814F0010415D128460CF064F995
:1004C00088B14FF40E70FFF7DBFE302380F8353231
:1004D0003A2380F8344280F8363280F83742306070
:1004E00028460CF05DF9306870BD00BF6CC3072072
:1004F00070C3072070B50F4D0F4E2B6813F0010429
:1005000016D128460CF040F990B14FF40E70FFF769
:10051000B7FE012380F83432312380F835323A2394
:1005200080F8363280F83742306028460CF038F9CF
:10053000306870BD64C3072068C307202DE9F04F01
:10054000ADF51B7D0F4608F00BFC041E04DD0BF01F
:100550009BF820460AF0DEFD0DF114094C462A4DA9
:100560004FF0640B0FCD0FC42B6804AA2360102139
:1005700000240AA804940AF08BFF244A82462449E6
:10058000384609F00FFC26460AAD4FF00008D0456A
:100590001CD06B69A34215D1AA69049B16441BB1F8
:1005A000B3FBFBF3B2FBF3F3297B039202932B8C97
:1005B00000949B00019359F821306A681549384628
:1005C00009F0F0FB08F101082435E0E701340A2CBA
:1005D000DAD1049B64229E1BB3FBF2F30E49B6FBF7
:1005E000F3F30E4A0096384609F0DCFB0AF066FC8D
:1005F000102804D910220A49384609F0D3FB0120FB
:100600000DF51B7DBDE8F08FB0420200CF42020025
:10061000D4420200FB4202002343020018430200BE
:100620004243020010B50C46ADF5007D68460BF064
:1006300055FB20464FF0FF32694609F07DFB012053
:100640000DF5007D10BDFFFF30B50C4691B02C4973
:10065000054608F091FA002847D00CAB04930BAB89
:1006600003930AAB029309AB019308AB009306AA6C
:1006700007AB2449284608F0E7F9072801D00020F5
:100680003BE09DF83930069A0DA862F303038DF81C
:100690003930079A9DF8383062F304038DF838300A
:1006A000089ABDF83A3062F30B03ADF83A30099A74
:1006B0009DF8363062F304038DF836300A9A9DF8BF
:1006C000353062F305038DF835300B9A9DF83430E0
:1006D00062F305038DF834300C9A9DF8373062F3DD
:1006E00002038DF8373009F0F5F809F08FF9064963
:1006F0000246204609F056FB012011B030BD00BF74
:100700006C430200704302008E630200F7B50D4691
:100710004E49044608F020FB064640B107F094FD20
:100720004FF0FF324A49284609F006FB8BE0494961
:10073000204608F011FB60B307F0AAFD46490246C7
:10074000284609F02FFB07F0AFFD44490246284632
:1007500009F028FB07F0A2FD41490246284609F0AE
:1007600021FB304607F08AFD0446012007F086FD94
:100770000646022007F082FD0746032007F07EFDB3
:1007800000970190334622463649284609F00AFB75
:1007900059E03549204608F0EFF950B120220121F7
:1007A000204608F087FA204608F0D8FA07F094FEB1
:1007B00049E02E49204608F0DFF9064620B92C49C9
:1007C000204608F0D9F960B32A49204608F0C2F95A
:1007D00060B92949204608F0BDF928B920462749C3
:1007E00008F0B8F9044602E0032400E00224314690
:1007F000204607F0C9FD224A224B002E18BF1A4698
:100800003CB1012C07D01C491A4B022C18BF0B46D7
:1008100002E01D4B00E0194B1C49284609F0C2FAC2
:1008200011E0204608F09AFA194A1A490090F32379
:10083000012007F0B7FD204608F090FA164902465D
:10084000284609F0AFFA012003B0F0BDAB43020027
:10085000B1430200CA430200D1430200E643020052
:10086000FB4302001A4402004A4402004E440200C4
:1008700056440200A6430200A04302009A5502001B
:1008800091430200894302009A4302005F44020040
:10089000C442020078440200AB44020030B589B083
:1008A00004AB002400930D4603AB022218490394C5
:1008B000049408F0D7F8022827D107AB009305AAC3
:1008C00006AB0499039805940694079404F0C8F9BC
:1008D000024638B1049B0F4900932846039B09F058
:1008E00061FA10E0059A069B002A079908BF0122C9
:1008F000002B08BF0123B1FBF3F3B1FBF2F2284652
:10090000054909F04FFA012000E0204609B030BD4A
:100910003A550200B9440200D84402002DE9F047DC
:100920000E46ADF5856D3949054608F0AFF93849F1
:100930000746284608F0D3F93549284608F0EFF96C
:10094000284608F00BFA0122014681A806F0D2F9E8
:10095000044640B1284608F001FA2E4902463046C6
:1009600009F020FA4CE00DF1040A01464FF4007240
:1009700050460DF0A0F800940BF09AF98046894695
:100980006B464FF40072514681A806F04DFA08B943
:10099000009B23BB81A806F016FCCFB10BF088F9B1
:1009A0004FF47A7200230CF061FC002305464FF4EB
:1009B0007A72404649460CF059FC281A14BF034687
:1009C0000123B4FBF3F322461349304609F0EAF958
:1009D0004FF0FF321149304609F0AEF910E01C44E7
:1009E000002FCDD13D46009B9D42C9D233681AF8F5
:1009F00005105B684FF0FF32304698470135F2E74B
:100A000001200DF5856DBDE8F08700BF06450200A9
:100A10003A5502000F45020023450200B14A020088
:100A20002DE9F0470023BEB00C46534905460C9310
:100A300008F092F920B9284608F090F9064600E03F
:100A40004E4E314615A806F077FC054630B10346F8
:100A500032464B49204609F0A5F989E0324649491A
:100A6000204609F09FF92F460DF1780880230DA943
:100A700015A8CDF84C80149306F0A2FC002861D193
:100A80009DF83D30002B5DD09DF83C100DF13D00F0
:100A9000CA065BBF0D9B0C9A44229B185BBF0C934C
:100AA0002D220135013711F0010F14BF52232D23E0
:100AB000BDF83AA011F0020F09900D9814BF4FF045
:100AC000480E4FF02D0E11F0040F14BF4FF0530CD1
:100AD0004FF02D0C089011F0200FCAF34510BDF80F
:100AE000381007904FEAEA20069001F01F000590A9
:100AF000C1F343104FEA612114BF4FF041094FF099
:100B00002D0901F2BC71CDF804C0CDF800E00490CD
:100B10000391CDF808901C49204609F043F94FF0A5
:100B2000FF321A49204609F0F3F841464FF0FF32F0
:100B3000204609F0EDF84FF0FF320F49204609F04A
:100B4000FBF891E73A46124900950C9B204609F0C4
:100B500029F90BAA0CA9304606F061FC40B90B9BA1
:100B60000C499A780C9B20465A43520809F01AF90E
:100B700001203EB0BDE8F087B14A02003E450200C8
:100B8000414502006545020080450200AD45020076
:100B9000B1450200DB45020070B50C46064608F080
:100BA000DDF80546304608F0D9F806F0FAFC064AAA
:100BB000064B0749002808BF13462A46204609F07D
:100BC000F1F8012070BD00BF914702009B47020071
:100BD000EF45020070B50C46064608F0BFF8054622
:100BE000304608F0BBF806F07FFC064A064B074982
:100BF000002808BF13462A46204609F0D3F80120F2
:100C000070BD00BF914702009B4702000B460200E7
:100C10007FB503AB002400930E4602AB02220F49BE
:100C20000294039407F01EFF022814D1029C039D36
:100C30002046294606F05EFD094B0A492246002857
:100C40000CBF084618462B4600900749304609F06D
:100C5000A9F8012000E0204604B070BD3A5502001A
:100C60009B470200914702001D46020030B5ADF5DA
:100C70000D7D0C46054608F071F80A22014603A8CE
:100C800006F038F840B1284608F068F81F490246D7
:100C9000204609F087F834E08DF8070002901C49DF
:100CA00042F210737E22204609F07CF81949204652
:100CB00009F078F8236842F210721B680DF1070101
:100CC0002046984718B19DF807307E2B03D103A822
:100CD00006F079FA15E002AB01220DF1070103A835
:100CE00006F05AF958B9029B012B08D123684FF03E
:100CF000FF325B689DF8071020469847DAE70649FF
:100D0000D5E701200DF50D7D30BD00BF3546020051
:100D10005C46020094460200B44602002DE9F04F02
:100D2000ADF5417D002304AC236003930D46009490
:100D300003AB0222414907F095FE022806D04FF08E
:100D4000FF323F49284608F0F7FF72E0216817A8F4
:100D500006F0F2FA10B122683A4906E0039917A8A2
:100D600006F0EAFA28B1039A3749284609F01AF83A
:100D70005FE04FF480720DEB020105A807F034FE2E
:100D80004FF4807280A90AA807F02EFE20AE8027BB
:100D90000FA917A81596169706F012FB002842D146
:100DA0009DF84530002B3ED09DF8443003F01003F1
:100DB00003F0FF0A002BEBD10DF14503039A234901
:100DC00005A808F015F80DF1450322681F490AA887
:100DD00008F00EF805A807F0C1FF07460AA807F0BB
:100DE000BDFF804605A8DDF83C9007F0B7FF8346BD
:100DF0000AA807F0B3FF534652460146CDF800A0BB
:100E0000584603F02DFF124A124BCDF800900028EF
:100E10000CBF184610461049019043463A462846F2
:100E200008F0C0FFB3E70AA807F0F3FD05A807F034
:100E3000F0FD01200DF5417DBDE8F08F3A5502002F
:100E4000DB460200204702004547020065470200DA
:100E50009B470200914702006B470200F8B50D4620
:100E60002449064607F078FF0446074618B1FFF705
:100E700041FB002208E02049304607F06DFF0446A0
:100E800060B1FFF713FB3A46114600F2352006F039
:100E9000C1FC4FF0FF32194B194922E01949304685
:100EA00007F05AFF044658B1FFF724FB012200F275
:100EB000352105F0E1FE4FF0FF32134B134910E0EE
:100EC0001349304607F048FF044680B1FFF7EEFAB9
:100ED000012200F2352105F0CFFE0E4B0E494FF0F6
:100EE000FF32002818BF1946284608F025FF204683
:100EF000F8BD00BFF2470200FC4702009447020021
:100F00008A47020009480200B1470200A1470200D7
:100F100012480200D6470200C847020008B508463A
:100F20004FF0FF32084908F007FF07F08DF94FF442
:100F3000FA600AF0EFF84FF08043AA221A720022FA
:100F40001A70012008BD00BF1E48020010B5012024
:100F50000C4607F03DFD40B100231A46194609F042
:100F6000EBFB4FF0FF32054902E005494FF0FF323D
:100F7000204608F0E1FE012010BD00BF2F4802000E
:100F80004548020038B5064C236833B91C20FFF7EA
:100F900077F9054608F0E4FA2560206838BD00BFFF
:100FA0005CC307202DE9F04F5F4C91B023680E46DB
:100FB00033B92C20FFF764F9054608F0FFFD2560E2
:100FC0002768FFF773FA00240CAA0DA900F2352058
:100FD0000D9406F024FA48B90C9A0D9C9569937803
:100FE000023D5C435D4364086D0800E025464F4BBD
:100FF0001A6898467AB90C20FFF742F98146FFF744
:10100000C1FF902389F804300023C9F80000C9F813
:101010000830C8F80090D8F8000003F00FFE8146B1
:101020000CF0DEF80A900BF0C1FE014648460BF0CA
:1010300007FE3F490BF00EFF0CF0D2F881460DA8D9
:101040000AF0AAFC04F050FD68B308F059FD04F062
:1010500035FD4FF0000A0346D346D0469A450B9320
:101060000BD0504604F08EFD804538BFD3460B9B15
:1010700038BF80460AF1010AF0E708F059FD642301
:1010800003FB08F32B4ACDF80880B3FBF2F3C3F15E
:1010900064030093CDF804B02B462246264930461F
:1010A00008F080FE05E02B4622462449304608F031
:1010B00079FE234C23681BB90120FFF7E1F820607B
:1010C000206803F080FD044608F0A0FCFB8C0A9A1F
:1010D0000993BB8C1B4908939DF83430019003F0B1
:1010E0003F0307939DF83530009403F03F030693C8
:1010F0009DF83630304603F01F030593BDF83A30B3
:10110000C3F30B0304939DF8383003F01F030393DC
:101110009DF8393003F00F0302934B4608F042FE6E
:10112000012011B0BDE8F08F60C3072054C3072031
:1011300000002041A08601007E480200B248020063
:1011400058C30720C04802002DE9F04F0D46C7B034
:101150005549814607F027FD54498246484607F025
:1011600022FD53498346484607F01DFD00270DF137
:10117000100805AE044602970397C8F80070376060
:10118000BAF1000F45D0009603AB02AA4949484680
:1011900007F05AFC012807DC28464FF0FF32464989
:1011A00008F0CAFD38467CE00DF118084FF4807451
:1011B0002246394640460CF07EFC336813B90123C1
:1011C000336003E0B3F5807F88BF3460FFF7DAFE59
:1011D00033689DF80C209DF808100093434608F0F2
:1011E000A7FE364A364B3749002818BF1346029AE5
:1011F000284608F0D7FD002433689C424ED2039A5B
:1012000018F8043022443049284608F0CBFD013458
:10121000F2E7BBF1000F2CD0CDF8008003AB02AA9F
:101220002A49484607F010FC032807D028464FF00B
:10123000FF32274908F080FD504632E0FFF7A2FE5A
:1012400098F800309DF80C209DF8081008F085FEF5
:1012500048B1039B1F490093D8F80020029B284601
:1012600008F0A0FD1AE0029A1B49284608F09AFDF2
:1012700014E0A8B102230293029BFE2B10DCFFF7BF
:1012800081FE9DF8081008F073FE20B1029A134900
:10129000284608F087FD029B0233ECE7012000E0BE
:1012A000204647B0BDE8F08F595602002949020098
:1012B0002F490200384902004749020091470200C5
:1012C0009B470200684902008C4902009C490200C9
:1012D000AC490200D3490200ED4902000A4A02006B
:1012E00070B5ADF50A7D05460C4607F0A4FB0B284A
:1012F00002DD0C2222493CE0284607F02FFD0122A6
:10130000014601A805F0F6FC064668BB01A805F0F9
:101310005AFF284607F022FD1A490246049B204640
:1013200008F040FD236820469B6898470A2009F092
:10133000F1FE4FF0100383F31188BFF36F8FBFF3FB
:101340004F8F284607F00AFD02460F4B0068516890
:1013500003C390680D4A186043F80C2C4FF080438B
:10136000AA221A721E7007E0284607F0F7FC024610
:101370000749204608F016FD01200DF50A7D70BDD5
:10138000444A02006B4A0200484002400DD0ADDEE4
:10139000B24A02002DE9F041404CA4B02368064651
:1013A000DB070D460CD420460BF0EEF940B14FF4AC
:1013B00080600CF01BFB3A4B186020460BF0F0F9F4
:1013C0003849304607F0EFFB0746044600B3802259
:1013D000002104A80CF06FFB00230293039303ABDE
:1013E000009304AA02AB3049304607F02DFB2C498C
:1013F000029B039A096804A813B903F0CDFC01E02D
:1014000003F0ECFC294B2A49002818BF194638E0A4
:101410002849304607F0C7FB074600283AD004ABFE
:10142000304603AA2449039404948DF8084007F039
:101430000BFB039E049B3344B3F5806F02DCDFF8A3
:1014400060800CE04FF480621C4920E0D8F8003046
:101450009DF808209A559DF8083001361C44039BDE
:10146000049AF31A934210DAB6F5806F0DDA2B68FE
:101470004FF4FA621B6802A9284698470028E5D174
:101480000F49284608F08EFC04E022460D49284604
:1014900008F088FC384624B0BDE8F08178C3072006
:1014A00074C30720DD4A0200E44A0200CB4A02006E
:1014B000C74A0200F44A0200FB4A0200054B020040
:1014C000294B0200394B020038B50D4607F048FCA5
:1014D0000446C0B202F056FB054A064B06490028F6
:1014E00018BF13462246284608F05CFC012038BD90
:1014F000914702004A4B0200514B020030B50C46A6
:10150000054687B00A4908F04DFCA188238804915C
:10151000218962880391E18828460291E17A01914C
:10152000A17A0091034908F03DFC07B030BD00BF2F
:10153000684B02009E4B02002DE9F0418CB003ABDA
:10154000002600930D46904602AB022238490296CF
:10155000039607F087FAB04266DD02980CF01DF89A
:10156000C7B2039818B10DF0A7FFC4B200E004465B
:10157000002104A803F0A6F930B14FF0FF322D4945
:10158000284608F0D9FBF3E7022318F10001009385
:10159000039A234618BF0121384602F037FC06465D
:1015A00038B94FF0FF322449284608F0C5FB012620
:1015B0003AE0B8F1000F37D04FF47A7104A803F085
:1015C00089F960B39DF81030BB4228D19DF81730DF
:1015D0000C2B04D13A4606A92846FFF78FFFBCB969
:1015E0001649284608F0DEFB9DF817309C420ADABF
:1015F00004AB19192B684FF0FF325B68097A284653
:1016000098470134F0E70E49284608F0CBFB0BE081
:101610004FF0FF320B49284608F08EFB04E0029A97
:101620000949284608F0BEFB30460CB0BDE8F08101
:101630003A550200BC4B0200DE4B0200064C020091
:10164000335202001A4C0200374C02001FB501A8A9
:101650000C4602F0B9FD02F0A1FA01A902462046AB
:10166000FFF74CFF012004B010BDFFFF30B58BB079
:101670000AAA4FF47A730C4642F8243D174907F042
:10168000E3F90025019902A803F01CF9D8B19DF8EF
:1016900008201349204608F085FB00259DF80F30EF
:1016A0009D420ADA02AB591923684FF0FF325B689A
:1016B000097A204698470135F0E70A49204608F0A4
:1016C00071FB0125DEE72DB94FF0FF3206492046B8
:1016D00008F032FB01200BB030BD00BF024B02000E
:1016E0005D4C0200B04A0200744C020037B50C4653
:1016F00002F0CEFB05461649204608F053FB15497B
:101700002A46204608F04EFB1149204608F04AFBC5
:10171000D5B11149204608F045FB0D49204608F097
:1017200041FB0025E8B202F09DFB013540B1817814
:101730004378027800912046084908F033FBF1E72E
:101740000349204608F02EFB012003B030BD00BF46
:10175000854C0200A04C0200BA4C0200D54C02009D
:101760002DE9F3473C4C074626688946002E62D196
:101770002420FEF785FD0423054680E848008660A6
:10178000C660202130460DF0FFFBAE68E8604FEAEE
:101790008608072E0ED81020FEF772FD8246102212
:1017A00000210CF088F9EB68013643F808A008F135
:1017B0000408EEE7002608236B604FF00108274B72
:1017C000274A28492846009685F82080256006F09B
:1017D000ADFA254B254A26492068009606F0A6FA60
:1017E000244B254A25492068009606F09FFA244B91
:1017F000244A25492068009606F098FA234B244A8B
:1018000024492068009606F091FA234B234A244984
:101810002068CDF8008006F089FA224B224A204940
:101820002068009606F082FA0096204B204A214953
:10183000206806F07BFA2049384607F08DFA18B187
:101840001E49384607F042FB4A463946206802B036
:10185000BDE8F04706F04ABB80C30720F04C020009
:101860002A4D02000D1B0100314D0200854D020082
:10187000E11801008E4D0200B14D02006D1601000D
:10188000B44D020013530200C9140100DE4D0200E2
:10189000FA4D0200ED160100014E0200684E0200F2
:1018A00039150100424E0200674E02006C4E0200E4
:1018B000874E02004D160100B14A02008D4E020013
:1018C00038B5064C236833B95820FEF7D9FC0546D5
:1018D00007F0B8FF2560206838BD00BF7CC3072033
:1018E0002DE9F04F0446ADF2DC5D802288460DA85C
:1018F00000210CF0E0F8802200212DA80CF0DBF88C
:1019000006AE002333600DAA00962DAB7549204624
:1019100007F09AF8032801D00020DFE001220DA98A
:10192000EDA805F0E7F905460028F5D1FFF7C8FF57
:101930003368802280F853304DA9044608A88DF8FA
:101940001750079507F050F82DAB009333680DAA98
:101950006549404608F026FAA94607AE33464FF4DB
:1019600000726DA9EDA805F05FFA002840F0AF8085
:101970003368002B00F0AB806F1C32685B49204657
:1019800008F010FA236820469B6898477D1E0DF5E5
:10199000DA7B4FF0000A6DAB3268C3EB0B039A425F
:1019A00023680CD9CDF80CB05B684FF0FF321BF800
:1019B000011B20469847039B1B789A44EBE79B68E2
:1019C0002046984708A807F0C9F9834608A807F0F9
:1019D00035F84FF47A7302465946204608F0BAF9B2
:1019E000202201210DEB020007F064F908A807F09E
:1019F000B7F9824520D008A807F0B2F9524603464D
:101A00003B49404608F0CEF93A49204608F0CAF969
:101A1000236820469B68984723684FF47A721B68B6
:101A20000DF11701204698470028F5D1022F07F144
:101A300001034CD81F46A0E733682DAA2E49009316
:101A400020464B4608F0AEF9236820469B6898472D
:101A500008A807F083F9824608A806F0EFFF514670
:101A600002464FF47A73204608F074F9234908A817
:101A700007F070F8D0B908A807F070F920490246BD
:101A8000404608F08FF91B49204608F08BF923687F
:101A900020469B68984723684FF47A721B680DF1C3
:101AA0001701204698470028F5D1BFE7154908A837
:101AB00007F00CFA3368144999444A46F09B4046B3
:101AC00008F070F9002D3FF448AFBD1E45E7EDA8C2
:101AD00005F079FB08A806F09CFF01200DF2DC5D03
:101AE000BDE8F08F924E0200A14E0200B84E0200F7
:101AF000CA4E0200B04A0200F14E0200074F020037
:101B00000A4F0200B14A0200424F02002DE9F0479D
:101B1000074686B006AA002442F80C4D0E463D4901
:101B200006F092FF20220121384607F0C3F8039BFC
:101B3000002B65D0384606F07EFF002860D0FFF706
:101B4000BFFE05460DF1180808F80D4D2B6805225B
:101B50001B6841462846984704460028F6D1039B57
:101B6000384685F8533007F0F9F8274601464FF01C
:101B7000FF32284608F0E0F82B6828469B68984713
:101B8000254B0DF11809186849F8044D04902B688D
:101B90004FF47A721B68414628469847D0B1032219
:101BA0000DF1150148460BF06BFF9DF80BA00422C8
:101BB00004A948468DF817A00BF048FF50B13368D0
:101BC00001225B6851463046013798470028DED134
:101BD0000134DCE71822B7FBF2F302FB137202B107
:101BE00001333A460D49304608F0DCF874B1612300
:101BF000009322460A4B0B49304608F0D3F805E023
:101C00004FF0FF320849304608F096F8012006B040
:101C1000BDE8F087024B0200464B02004E4F020027
:101C2000754F0200B14F02006A50020001480DF0EA
:101C300041B900BF9650020038B504460D460AF07F
:101C4000B1F9074BB0FBF3F00223B0FBF3F2AA4269
:101C500004D9B3F5807F01D00233F6E7236138BDA4
:101C600040420F007FB500F235260C460122314676
:101C700005F002F8054648BB039002AA03A93046C6
:101C800005F0CDFB00BB0298039A837802FB03F1B9
:101C900082691348023A5A435208B2F5004F38BFDE
:101CA0000120104B4FEA510124BF03464FF48060DE
:101CB000B1FBF0F1B2FBF0F20091019321460A482A
:101CC0000DF086F8012008E0084B00E0084B2A469A
:101CD000214608480DF07CF8002004B070BD00BF1C
:101CE000D4500200D1500200DE500200DA5002004F
:101CF000D75002000C51020038B5074C23684BB98D
:101D00000820FEF7BDFA0546FFF73CF9402328609E
:101D10002B712560206838BD8CC3072038B5054C71
:101D2000256825B90120FEF7ABFA05702060206810
:101D300038BD00BF88C3072038B5084C23685BB99D
:101D40000C20FEF79DFA0546FFF71CF990232B7136
:101D500000232860AB602560206838BD54C307208D
:101D600010B5044C23681BB90120FEF789FA2060E6
:101D7000206810BD58C3072010B5044C23681BB958
:101D80000120FEF77DFA2060206810BD84C3072083
:101D9000AD49AE4A4023F0B58B614FF000739361BB
:101DA0004FF480338B61AA4BADF5057D186807258C
:101DB00020F0F00018601868022440F0500018600D
:101DC000186820F440501860086840F0400008602F
:101DD000186820F47C201860186840F428201860E7
:101DE000186820F470001860186840F4200018602B
:101DF000186820F040401860186840F000401860F3
:101E0000586820F03C005860586840F0280058603E
:101E1000586820F003005860086840F4803008607B
:101E2000586820F440505860086820F4800008602A
:101E3000D96821F44031D960116841F08071116096
:101E4000596821F440215960596841F48021596052
:101E50009868804901409960116841F4897141F0A6
:101E600001011160996821F470119960996821F05D
:101E700070419960116821F446411160D96821F0E0
:101E80003001D960D96841F03001D960D96821F4B6
:101E90007011D960136843F000731360136823F066
:101EA0008063136007F070F801210A2009F09AFEA0
:101EB00001210A2009F0AEFE674801210560446057
:101EC000FFF7BAFE07F0ACFD0121152009F08AFEEC
:101ED0000121152009F09EFE604801210560446043
:101EE000FFF7AAFEFFF74EF8642107F005FB10B9D3
:101EF0005B480CF0DFFF09F0B1FE02F0BDFC10B949
:101F000058480CF0D7FF4FF4FA6006F0F6FFFFF7E1
:101F10008DFE0AF047F80AF045FF53490BF04EF8E2
:101F20000AF0C6FD02460B4650480CF051FF09F07E
:101F30002DFD052804AC14D1002363604C4B1B68B5
:101F40002360FFF773FE4B4B4B48D96C1A6D5B6DEA
:101F500000940CF03DFFFFF769FE41F2883006F077
:101F6000CCFFFEF7A3FA4549FFF77CFE054668BBA8
:101F700043480CF02DFF03F02FFEFEF797FA294699
:101F80002A4600F2352005F045FC3E4B3E4A00282B
:101F90000CBF104618460CF08DFFFEF787FA374944
:101FA000FFF760FE90B939480CF084FF03F096FD0E
:101FB000014637480CF00CFF03F080FD054603F0A6
:101FC0008DFD00FB05F133480CF002FF324E334F1C
:101FD000336813F0010516D130460AF0D5FB90B1F5
:101FE0004FF40E70FEF74CF9012380F834323123A0
:101FF00080F835323A2380F8363280F8375238602C
:1020000030460AF0CDFB26493868264DFFF72AFEF8
:1020100018211148FFF710FEFFF708FE2B684BB997
:102020000820FEF72DF90646FEF7ACFF3823306096
:1020300033712E60286802F096FC0546B0BB1A4842
:102040000CF038FF33E000BF00C0092020C0092099
:1020500000C00240F0FCFCFF00000340008008408C
:10206000505102008151020000247449A65102001F
:102070004440024000400240BE510200365202007D
:102080003E520200445102003F5102007B520200C6
:102090009A520200A952020064C3072068C30720B5
:1020A000C047020094C30720C45202000125FFF775
:1020B00043FE02F099FD064618B972480CF0FAFE8C
:1020C0003546FFF719FE02F0D1FC064618B96E48F6
:1020D0000CF0F0FE35466D4E33681BB90120FEF75B
:1020E000CFF83060306802F08FFCFFF739FE02F065
:1020F00068FDFFF713FE02F0F2FCFFF73DFE02F071
:1021000065FDFFF70BFE002102F0ECFC8DB9FFF737
:102110008DFDFFF7F1FD2D2102F090FCFFF7ECFDA6
:102120002D2102F097FCFFF7F9FDFF2102F0DAFC08
:102130000CE0FFF7E1FD0546FFF7FEFD02F07EFD36
:102140000BF074F8C1B2284602F0ACFC102200215A
:1021500020460BF0B0FC00230F2221464C4802F031
:10216000F9FD80B920460BF018FAC5B2284601F0F7
:1021700009FD484A484B2946002818BF1346444ADF
:1021800046480CF025FEFFF7EBFD02F01CFD05466E
:1021900000200EF01BF928440CF094FE4FF400725E
:1021A000002120460BF087FC204609F097FD2146D0
:1021B0003B480CF00DFEFFF739FD80220021204640
:1021C0000BF079FC204603F065FC2278FF2A04D04E
:1021D000214634480CF0FCFD29E0FFF7CDFD02F06C
:1021E000F7FC09281DD130480CF064FE21462F4829
:1021F0000CF074FF21462E480CF0EAFD2D480CF03F
:1022000059FE002303A92C4803930CF067FF9DF8A7
:102210000C30592B03D1204603F01AFC07E0274865
:1022200003E027480CF046FE26480CF043FE4FF230
:1022300008031D684FF20C031C684FF210031E6860
:102240004FF470431A684FF20403AD0A1968A40AE8
:102250001D480CF0BDFD2A4621461C480CF0B8FD77
:1022600031461B480CF0B4FDFFF7E0FC012006F0FE
:1022700021F818480CF01EFEFFF7D8FC0DF5057D7F
:10228000F0BD00BFDF520200F952020090C30720E8
:10229000125302004A5102004A4B02001853020036
:1022A0008E6302004C530200685302008A530200FE
:1022B0008F530200AA530200ED530200F1530200B3
:1022C0000954020037540200695402009554020078
:1022D000C2540200DF540200012070470120704701
:1022E0000120704710B5044C23681BB90120FDF78D
:1022F000C7FF2060206810BD90C3072001207047F1
:1023000038B504460F4B00250360636DE06DAB42AA
:1023100005D950F82500FDF7B5FF0135F5E708B1FF
:10232000FDF7B2FF0025A36B206CAB4205D950F836
:102330002500FDF7A7FF0135F5E708B1FDF7A4FF7C
:10234000204638BD1855020010B50446FFF7D8FFE7
:102350002046FDF797FF204610BD2DE9F0410446C9
:102360000E46C06889000CF00FFEA568E060AF0063
:102370004FF00008AE420DD90C20FDF781FFE36855
:10238000C0F80080C0F8048080F808800135D8517A
:102390000437EFE76660BDE8F081FFFFF7B504465C
:1023A00000250B464FF480520095254906F0F6FAB9
:1023B000244B042623606663A563E563256402213C
:1023C00004F13400FFF7C9FF26656565A565E5657D
:1023D000284660210CF0D8FDA56DE065AE00172DF4
:1023E0000CD81020FDF74CFF0746102200210BF0FF
:1023F00062FBE36D01359F510436F0E718236365F6
:10240000012384F87030104E0023A4F87430A4F82F
:102410007630A367002200230027C4E92023C4E903
:10242000226709F045FC4FF47A7200230AF01EFF80
:1024300080197941C4E92001204603B0F0BD00BFF6
:102440003055020018550200C0D401002DE9F041BA
:102450000F7A14464D680E688FB1082A23D128469A
:1024600006F0E9FA00281CDD4FF0FF321349304630
:1024700007F04EFC0121284606F0DCFB08E00A2AA2
:1024800019D00D2A12D02146284606F0F4FC97B147
:10249000336821463046BDE8F0415B684FF0FF32BB
:1024A00018470724F4E70A2A02D1F1E7BDE8F081D2
:1024B0000D2AEDD0E7E7BDE8F08100BF39550200F5
:1024C000F8B50446142015460F46FDF7D9FE8021C5
:1024D000064606F080FCA36BE26B9A4206D3616B62
:1024E000591803D204F13400FFF737FFE36B226C75
:1024F000591C52F82330E1631F605E601D72F8BD05
:102500002DE9FF47CF6B06460D4601AC3FB94FF4AE
:102510007A7008F0FFFD01976760A76047E00B6CD9
:102520000DF110081B6893E8070084E807000023FA
:1025300008F80D3D08F0B6FC81460027EB6B9F4282
:1025400063D22B6C4FEA870A53F827301868037C54
:10255000002B34D0036800221B684146984770B3B3
:10256000EB6B9F422DD22B6C53F80A3093E8070097
:1025700084E807009DF8032021462846FFF766FF00
:1025800009F096FB4FF47A7200230AF06FFED5E94A
:10259000222380185941C5E92001029806F04BFA20
:1025A0000746029806F04AFA013887420CDB94E8A5
:1025B000070086E80700304604B0BDE8F087013721
:1025C000BCE705F14403D1E7D5E92223134324D026
:1025D00009F06EFB4FF47A7200230AF047FED5E94A
:1025E0002023994208BF904217D309F061FB4FF4B2
:1025F0007A7200230AF03AFED5E922238018594165
:102600000023C5E920010193D1E708F04BFC814587
:10261000C3D1022008F07EFDBFE79DF803300A2BEE
:1026200088D1C4E7F0B5054685B020480CF0D0FB52
:10263000294601A8FFF764FF019C1CB91C480CF057
:1026400039FC30E0029E304606F0F5F900282ADD1C
:1026500009F02EFB0746F8B1B5F8743005F15000CB
:102660000133A5F874302246314605F03FFC114B8A
:1026700000251868009023681DF805105B684FF06E
:10268000FF32204601359847042DF4D109F010FBA4
:10269000C11B09480CF09CFB304606F0D1F92368B9
:1026A00020469B689847012005B0F0BD3C550200CC
:1026B000B14A02000C5502004255020038B5064CE2
:1026C000236833B92C20FDF7DBFD054607F076FAC9
:1026D0002560206838BD00BF60C3072010B50446E0
:1026E000FFF7ECFF03682146BDE810405B684FF040
:1026F000FF32184713B5002302AC04F8013DFFF781
:10270000DDFF03684FF0FF321B68214698479DF8B4
:10271000070002B010BDFFFF2DE9F04100F15004A9
:102720008AB000250646009520465B4B5B4A5C4913
:1027300005F0FCFA009520465A4B5B4A5B4905F0D0
:10274000F5FA009520465A4B5A4A5B4905F0EEFAD5
:1027500000952046594B5A4A5A4905F0E7FA009528
:102760002046594B594A5A4905F0E0FA009520464F
:10277000584B594A594905F0D9FA00952046584B0B
:10278000584A594905F0D2FA00952046574B584A05
:10279000584905F0CBFA00952046574B574A5849FF
:1027A00005F0C4FA00952046564B574A574905F0A4
:1027B000BDFA00952046564B564A574905F0B6FAE1
:1027C00000952046554B564A564905F0AFFA0095FC
:1027D0002046554B554A564905F0A8FA0095204623
:1027E000544B554A554905F0A1FA00952046544BE3
:1027F000544A554905F09AFA00952046534B544ADD
:10280000544905F093FA00952046534B534A5449D6
:1028100005F08CFA00952046524B534A534905F077
:1028200085FA00952046524B524A534905F07EFAEC
:102830000095524B524A5349204605F077FAFFF76C
:102840003DFF4FF4807320224FF41641054607F0F8
:1028500095F9804601272F744B48FDF78BFD4B48B7
:10286000FDF782FD3A4629463046FFF729FE082249
:1028700003A905A806F0B8F805A8454906F026FB07
:102880002A4605A9204605F031FB05A806F0C1F847
:1028900040460AB0BDE8F081585502009A55020042
:1028A0003D0501008F5502009F55020025060100DD
:1028B000A7550200B5550200A50F0100BC55020046
:1028C000FD55020049060100025602005E56020054
:1028D0001D09010062560200F05602009D08010029
:1028E000A4560200EF5602001D0D0100F35602002F
:1028F00021570200210A0100245702004957020013
:10290000990B01004F5702007C570200110C010087
:102910007F5702000D6E02006D0C0100A4570200EB
:10292000C7570200D50B0100CA5702009D5802008C
:1029300049110100A1580200E45802005D0E010097
:10294000EC580200FF5802001D0F0100065902005A
:10295000055A02000D070100095A0200315A02000F
:102960004D0F0100375A02009D510200611701000E
:10297000615A0200555B0200951301001E5B0200C4
:1029800003480200E1120100F5260100DD260100E6
:102990008D4E020008B5024800F0F2FD012008BD8E
:1029A00000C007200120704710B5044C204600F0FD
:1029B00097FE2046BDE8104000F0F5BD00C007209E
:1029C0007047704770477047FFF7E4BFFFF7EABFF3
:1029D00010B50446FDF756FC204610BD70B50B4EF1
:1029E00005010B4B741953F82010201D08F066FBED
:1029F000E368A0689847A36870590133A360002377
:102A00001A46BDE87040194607F096BE98C30720E5
:102A10002C5C020008B50020FFF7E0FFFBE708B5DB
:102A20000120FFF7DBFFFBE708B50220FFF7D6FF29
:102A3000FBE708B50320FFF7D1FFFBE7F7B5074633
:102A40000D462D4A00240D2312682C49009405F0F0
:102A5000A5FF2B4B87F831503B602A4D2A4B0322B0
:102A6000EB602A4B2146EB61294B0120EB62294B9D
:102A7000EB6307F03FFE032228602146012007F0A8
:102A800039FE032228612146012007F033FE224B44
:102A900028621E680523C6F38F060093324623463C
:102AA0001E4901941E4808F0B7F8062300933246E9
:102AB00023461C4901941C4808F0AEF807230093F4
:102AC0000194234632461949194808F0A5F897F8A9
:102AD000313073B103222146012007F00BFE082399
:102AE000286332460093019423461249124808F0A5
:102AF00093F8384603B0F0BD7C5B0200905B0200A7
:102B0000445C020098C30720A9290100C1290100E3
:102B1000C3290100C5290100785B0200975B020010
:102B2000152A01009B5B02001F2A0100A05B020026
:102B3000292A0100A65B0200332A010038B5174894
:102B40000C46415C00230131C9B2914202D00155CB
:102B5000184638BD124D0355200128581A4619460B
:102B600007F0F0FE0546B0B90E4B53F8244020465E
:102B70000CF0A0F920460CF09FFC2B4602462146A3
:102B8000094802F02BF9094A094B9A644FF0804337
:102B9000AA221A721D70012038BD00BFD8C30720B9
:102BA00098C30720805B0200AD5B0200EFBEADDE84
:102BB00000400240044608B5012008F0ABFA94F842
:102BC000313023B1012203212046FFF7B7FF0A224B
:102BD00002212046FFF7B2FF0028EDD00A22012192
:102BE0002046FFF7ABFF0028E6D00A22002120464E
:102BF000FFF7A4FFE0E708B509F05AF84FF47A723E
:102C000000230AF033FB08BD38B505460C4613B166
:102C10000AB141F0800428684FF0FF320368A52113
:102C20005B68984728684FF0FF32036821465B686D
:102C30009847002038BDFFFF2DE9F34106460F46B7
:102C40009046FFF7D8FF05460024FFF7D4FF401B4E
:102C500040451BD830684FF0FF3203680DF1070183
:102C60001B6898479DF807201CB1012C03D15A2AF4
:102C700000E0A52A08D1631CDBB2072B3A5501D02E
:102C80001C46E2E7002002E00023F9E7014802B019
:102C9000BDE8F081028000802DE9FF41064617461D
:102CA0000C46FFF7A8FF002380461A465221304603
:102CB000FFF7AAFF002830DB3A4602A93046FFF7AB
:102CC000BBFF002829DB9DF80E30062B21D1BDF873
:102CD0000C30BDF80A20C3F30D0342EA0343022B74
:102CE00017D9651E0234FFF786FFC8EB0000874244
:102CF00012D330684FF0FF3203680DF107011B68F3
:102D000098479DF8073005F8013FA542EBD1002018
:102D100003E04FF0802000E0014804B0BDE8F081FE
:102D20000280008000231A462521FFF76DBF002393
:102D30001A464021FFF768BF73B50E460446154694
:102D4000FFF7F0FF002E4FF0000314BF21212021D8
:102D50001A462046FFF758FF00281ADB2A46694624
:102D60002046FFF769FF002813DB9DF80630812B12
:102D70000DD1BDF80430BDF80220C3F30D0342EAC3
:102D80000343052B34BF4FF08020002001E04FF0BB
:102D9000802002B070BDFFFF10B50C460021204618
:102DA0000AF00AFA28B14C4920460AF0FBF900283B
:102DB00079D1494920460AF009FA28B14749204605
:102DC0000AF0F0F9002870D1444920460AF0FEF9D3
:102DD00028B1434920460AF0E5F9002867D1404967
:102DE00020460AF0F3F928B13E4920460AF0DAF904
:102DF00000285ED13B4920460AF0E8F928B13A495B
:102E000020460AF0CFF9002855D1374920460AF06C
:102E1000DDF928B1354920460AF0C4F900284CD123
:102E2000324920460AF0D2F928B1314920460AF049
:102E3000B9F9002843D12E4920460AF0C7F928B134
:102E40002C4920460AF0AEF900283AD129492046FB
:102E50000AF0BCF928B1284920460AF0A3F9002855
:102E600031D1254920460AF0B1F920B12349204645
:102E70000AF098F948BB214920460AF0A7F920B189
:102E80001F4920460AF08EF908BB1D4920460AF06A
:102E90009DF9F0B11B4920460AF084F9002814BFBF
:102EA0000C200D2010BD012010BD022010BD0320FC
:102EB00010BD042010BD052010BD062010BD072048
:102EC00010BD082010BD092010BD0A2010BD0B2028
:102ED00010BD0D2010BD00BF00007A430000FA4372
:102EE00000803B4400007A4400409C440080BB4486
:102EF00000C0DA440000FA4400A00C4500401C4524
:102F000000E02B4500803B452DE9F04F984697B0F7
:102F100007469F4815920D24002240F822400132B6
:102F20000C2A9B4BF9D10026B3461A68D3F814A09B
:102F300008925A68D3F82C9005929A6814960492D5
:102F4000DA680B9607921A690C9603929A690D96A5
:102F50000292DA69129606921A6A0E9601925A6ADB
:102F60000F9600929A6A139609921096119601F1A3
:102F700008050A96159B9B4580F259812B78002BFA
:102F800000F0518155F8044C002120460AF014F954
:102F9000A0B1804920460AF005F978B155F8081C1F
:102FA0003846FFF7F9FE089B08908342D4BFC8F863
:102FB0000030C8F800000123109334E17549204621
:102FC0000AF004F9A0B1744920460AF0EBF878B190
:102FD00055F8081C3846FFF7DFFE059B0590834235
:102FE000D4BFC8F80430C8F80400012313931AE1D1
:102FF000694920460AF0EAF8A0B1684920460AF07B
:10300000D1F878B155F8081C3846FFF7C5FE049B87
:1030100004908342D4BFC8F80830C8F808000123E0
:103020000F9300E15E4920460AF0D0F8A0B15D4957
:1030300020460AF0B7F878B155F8081C3846FFF773
:10304000ABFE079B07908342D4BFC8F80C30C8F88A
:103050000C0001230E93E6E0524920460AF0B6F830
:10306000A0B1514920460AF09DF878B155F8081CE6
:103070003846FFF791FE039B03908342D4BFC8F804
:103080001030C8F8100001231293CCE046492046C6
:103090000AF09CF898B1454920460AF083F870B1CF
:1030A00055F8081C3846FFF777FE01238245D4BF48
:1030B000C8F814A0C8F814000A938246B3E03B494C
:1030C00020460AF083F8A0B1394920460AF06AF890
:1030D00078B155F8081C3846FFF75EFE029B029057
:1030E0008342D4BFC8F81830C8F8180001230D93E4
:1030F00099E02F4920460AF069F8A0B12D492046F1
:103100000AF050F878B155F8081C3846FFF744FE2D
:10311000069B06908342D4BFC8F81C30C8F81C0038
:1031200001230C937FE0234920460AF04FF8A0B119
:10313000214920460AF036F878B155F8081C38467F
:10314000FFF72AFE019B01908342D4BFC8F82030CC
:10315000C8F8200001230B9365E0184920460AF0C7
:1031600035F878B3164920460AF01CF850B355F8E4
:10317000081C3846FFF710FE009B00908342D4BF26
:10318000C8F82430C8F82400012314934BE000BF92
:1031900004C007200000C8410000484200009642D9
:1031A0000000B4420000F042000016430000344327
:1031B00000005243000070430000874300808E43AC
:1031C00000009B43394920460AF000F898B138497D
:1031D000204609F0E7FF70B155F8081C3846FFF7A4
:1031E000DBFD099B01268342D4BFC8F82830C8F80C
:1031F0002800099017E02E49204609F0E7FF90B11A
:103200002C49204609F0CEFF68B155F8081C384615
:10321000FFF7C2FD8145D4BFC8F82C90C8F82C0038
:103220008146012311930BF1010B0C35A2E60A9B99
:1032300013B1214BC3F814A0119B13B11E4BC3F85B
:103240002C90109B13B11C4B089A1A60139B13B15E
:10325000194B059A5A600F9B13B1174B049A9A6049
:103260000E9B13B1144B079ADA60129B13B1124BE9
:10327000039A1A610D9B13B10F4B029A9A610C9B32
:1032800013B10D4B069ADA610B9B13B10A4B019AED
:103290001A62149B13B1084B009A5A6216B1064B7E
:1032A000099A9A6217B0BDE8F08F00BF00009B43F7
:1032B0000080A7430000B44304C007202DE9F74372
:1032C00080460D4691461E46FFF795FC07460024B2
:1032D000FFF791FCC01B484542D8D8F800004FF0DA
:1032E000FF3203680DF107011B68984738B19DF85C
:1032F00007002CB980EA600313F0010F04E06CB3FF
:10330000012C02D110F0010F28D0631CDBB2052B79
:10331000285501D01C46DBE7B5F8030009F046FD4F
:103320004FF07A5109F096FD3060B5F80100400881
:1033300009F03CFD4FF0725109F08CFD70602B7864
:103340009B1033722B7803F001037372FEF7E6FCD7
:103350000022022101F01CFC002007E00023D9E735
:10336000FEF7DCFC022101F018FC024803B0BDE8C6
:10337000F08300BF028000807047FFFF08B502485D
:1033800000F086F8012008BDDCC3072010B5064C0C
:10339000204600F025F8204600F05CF8204600F0BA
:1033A0006FF8012010BD00BFDCC3072010B5044634
:1033B000FCF768FF204610BD13B5044600230093B8
:1033C0004FF4FA620B46044905F0E8FA2046034B35
:1033D000236002B010BD00BF945C02007C5C020060
:1033E000F8B5174B174F1D461A68002401321A60B2
:1033F00000233E193B514FF4FA727360B3601249D7
:10340000124B1348FFF75AFF002805DB0F4B03CB85
:103410001B883851716033810C34B4F5875FE7D174
:103420002C680A2294FBF2F302FB13443CB9084BCC
:1034300021461B68986907F027F9014B1C60F8BD0D
:103440001CC4072020C4072014C4072000D507206F
:1034500010D50720074A00230D2142F8231001331D
:103460000D2BFAD1034B4FF4B47203490348FFF715
:103470004BBD00BFE4C3072020C4072010D50720A0
:103480000149024800F0A5B8E4C3072034C0072072
:1034900013B525484FF434531A464FF4E131006810
:1034A00006F0F4FB08F004FC4FF47A72002309F0F4
:1034B000DDFE04464FF4FA7201A91B48FFF7ECFB4E
:1034C000002816DA08F0F4FB4FF47A72002309F0B2
:1034D000CDFE001BB0F5FA6F0BDDFEF71FFC0421DB
:1034E00001F05BFB1048FFF722FCC82007F012FE3A
:1034F000E0E700210D4806F0A9F80D490B4806F059
:10350000A5F84FF4FA7200210748FFF715FC0028D0
:1035100008DBFEF703FC0022042101F039FB05481B
:1035200005F009F802B010BD10D507200CD5072012
:103530000000C8429E5C020038B546F29C32012170
:103540000A480B4C06F028F80A4A0B490748FCF7D2
:10355000F9FE236833B92C20FCF792FE054606F0ED
:10356000B5FB25602268054B1A6038BD0CD50720D5
:10357000E0C307204CC307201D96010010D507208B
:1035800013B50023044600780193009310231A46D4
:10359000642105F0EDFD05F01FFF207802B0BDE8C5
:1035A000104005F00DBF1FB50446102200216846EB
:1035B0000AF081FA61238DF8083024230193002258
:1035C0000123694620788DF8023005F0A7FE04B08B
:1035D00010BD4A682DE9F04F02F00F0BCA688BB09E
:1035E00002F00F0A4A690F6802F00F09CA690590D4
:1035F00002F00F080A6A8E6802F00F034A6A01930C
:1036000002F00F038A6A029302F00F03CA6A0D697F
:103610008C690393002102F00F0306A8102207F023
:103620000F0704930AF047FABBF10C0F28BF4FF0C5
:103630000C0B0C2F06F00F0628BF0C27BAF10C0F4D
:1036400028BF4FF00C0A0C2E05F00F0528BF0C26E2
:10365000B9F10C0F28BF4FF00C090C2D029904F0A2
:103660000F0428BF0C25B8F10C0F019A28BF4FF0AA
:103670000C080C2C28BF0C240C2928BF0C210C2A68
:1036800028BF0C2242EA011204998DF82420039AE3
:103690000C2928BF0C210C2A28BF0C2242EA011257
:1036A0008DF82520059B0322079206228DF81A200B
:1036B00047EA0B1746EA0A1645EA091544EA0814D0
:1036C000022206A918788DF820708DF821608DF8F7
:1036D00022508DF8234005F021FE0BB0BDE8F08F9D
:1036E00038B50546007805F00BFE044648B1FEF7F4
:1036F00015FB032101F051FA2878BDE8384005F0A8
:103700005FBEFEF70BFB2246BDE83840032101F007
:103710003FBA704708B501F0E5F8012008BD10B5C3
:103720000446FCF7AFFD204610BDFFFF37B534203F
:10373000FCF7A6FD04460421FFF73EFE204605F0F7
:10374000FFF89020FCF79CFD04460321FEF726FEBF
:10375000204605F0F5F83420FCF792FD05460024DC
:103760004FF400720D490094042305F017F90C4B37
:1037700028462B6005F0E4F83420FCF781FD05466F
:103780002146FFF75BF9284605F0DAF82046214686
:1037900005F0E4F84FF0FF3003B030BD9D5102005A
:1037A000DC5C020010B54FF6FF74242303FB01011B
:1037B000884209D043782BB1038C1344A34228BF1D
:1037C000234603842430F3E710BDFFFF37B5002301
:1037D00002A840F8043D0C4B04215B6898470B4B52
:1037E000019A1C680546141B1A60042122460848E9
:1037F000FFF7D8FF224602210648FFF7D3FF281C17
:1038000018BF012003B030BD14D50720E4D5072030
:1038100028D5072001D6072008B50B4B1978037867
:103820008B420A4B0BBF1A889A880132013214BFAF
:103830009A801A80064B8170DB68202198470030FF
:1038400018BF012008BD00BF3DC00720B9D5072023
:1038500014D507200A4B02781B789A42094B0BBFFC
:10386000DA881A89013201320CBFDA801A810379B1
:10387000C3F3C202073262F3C5030371FFF7CCBF83
:103880003DC00720B9D5072010B50749002311F81E
:1038900023409A00844202D10348104410BD0133F2
:1038A000042BF4D1002010BDD3D5072070B1C3780C
:1038B0000133DBB2FF2BC37008D105480023C118C8
:1038C000CA7804335208102BCA70F8D1704700BF71
:1038D000D3D50720242202FB01010346024630B55E
:1038E000914206D01446243212F8235C002DF7D101
:1038F0000FE00446002599420BD01A79C2F3C200AA
:103900001A8C42EA0042AA4284BF1C461546243360
:10391000F1E7204630BDFFFF38B50546C90001F18B
:103920000804FFF753FF1C4B2A781B789A4204D1F6
:1039300002211A48FFF7CEFF0CE004211848FFF7D8
:10394000C9FFEB7833B990F82330042443F08003A7
:1039500080F82330002380F8203080F821300246A0
:103960002B4690F8231080F8224021F07F01C4F309
:1039700006240C4380F8234005F1200153F8044B42
:103980008B4242F8044BF9D1064A0379127862F36C
:10399000C503037138BD00BF3DC0072001D6072015
:1039A00028D507203CC0072008B5FFF76DFF034668
:1039B000D8B9FFF769FF0346B8B90D4AD378D17972
:1039C000D07A8B4296BF1946131D1346814294BF8D
:1039D0000846084BD17B084A814238BF1346074945
:1039E00000221A60CA7A0132CA72184608BD00BFA6
:1039F000D3D50720DBD50720DFD50720B9D5072091
:103A00002DE9F84F05460C464FF0240909FB021931
:103A1000DFF868A1DFF868B14E1C4FF000084C4594
:103A200000F09A8094F823301A0624D5B5B12A788C
:103A300061788A4205D16F7816F8010C874200F050
:103A40008D80E87850B16878884207D116F8011C5B
:103A5000914203D1A979A27991427FD094F8222092
:103A6000218C03F07F0342EA0323994271DB204655
:103A7000FFF7D2FE72E06278002A6AD06DB329792E
:103A800001F0C001C02917D116F8010C69788842ED
:103A900002D12878904261D0E778A87887420CD18B
:103AA00091420AD116F8010C2978884205D1A079F3
:103AB000A979884201D151E079B1A878E1788842AA
:103AC0000BD16978914208D116F8010C2978884207
:103AD00003D1A079A979884246D094F82210208C8D
:103AE00003F07F0341EA0323984232DB237984F811
:103AF0002080C3F3C201CFB284F821801FB12046D9
:103B0000FFF7A8FE25E003F0C003C02B19D016F87C
:103B1000010C9AF80030984213D1E3789A4210D001
:103B20007BB16379032262F307136371E17020466E
:103B3000FFF790FE23799BF8002062F3C503237101
:103B400000E001276078FFF79FFE08B1C0F8008011
:103B500027B92434243662E7BDE8F88F24220021F7
:103B6000204609F0A8FFF4E7237984F820806FF35A
:103B7000C50384F821802371EBE700BF3DC0072017
:103B80003CC00720431EDBB2FD2B9DBF024B1870CB
:103B900001200020704700BF3DC00720014B18786E
:103BA000704700BF3DC0072007289CBF014B18701D
:103BB000704700BF3CC007202DE9F74304469146FB
:103BC0001E469DF828500F46002966D0364B93F8C4
:103BD0000080414563D00F2E61D8002861D020229B
:103BE000002109F068FFFF2F237914BF09F00302B9
:103BF000002262F38713032262F302032B4A6770E9
:103C0000127884F8008062F3C503294A237113787F
:103C100084F802800133DBB21370A3710BAB019304
:103C200015B94FF001081BE004F10809019AE07989
:103C30001346526853F8081B00EB02085FFA88F835
:103C4000013DB8F1180F0193EDB207D8484409F0CF
:103C50000CFF84F80780002DE8D1E2E74FF0000860
:103C6000DFF850900123384689F80030FFF70CFE4A
:103C70000546FFF71BFE002389F80030637925B95C
:103C800066F307136371E57005E0AA7862F3071322
:103C900063716B78E370404603E0084601E0002062
:103CA000FFE703B0BDE8F0833DC007203CC007201C
:103CB000B8D50720C5D50720124B012270B51A7060
:103CC00004461E4608B9002518E0FFF7A5FD054685
:103CD0000028F8D0237903F0C003402B06D0C02B76
:103CE0000AD1E37853B162789A4207D061792046CD
:103CF0000909FFF711FE01E0802BF7D00023337094
:103D0000284670BDC5D5072082B02DE9F043914605
:103D1000421ED2B28DB0FD2A05460E4615939DF87F
:103D2000688001D9002057E0002BFBD0179F002F9F
:103D3000F8D0199B002BF5D0189B002BF2D0169BC6
:103D4000002BEFD048220021264809F0B4FE902233
:103D50000021254809F0AFFE10220021234809F078
:103D6000AAFE234B00241C605C609C60214B1C60FD
:103D70005C609C60204B1D70204B214D1E7015AE69
:103D80000FCE0FC53368182221461E482B6009F05C
:103D900092FE494617221B480BF0D4FB21462046D1
:103DA000B8470028BED0B8F1000F02D1FFF70EFDD2
:103DB00012E006230293144B224601930123009341
:103DC000FF2104A8FFF7F8FE0028ABD004A8FFF7F6
:103DD00073FF0028A6D0E9E70DB0BDE8F04302B0BC
:103DE000704700BF01D6072028D50720D3D507206C
:103DF000C7D50720B9D507203DC00720C6D5072065
:103E000014D50720E8D50720F45C020030B5182B44
:103E10008DB016D8B2FA82F41D1C18BF01256409B2
:103E2000AC420ED00293019200950A469DF84030B4
:103E3000014604A8FFF7C0FE18B104A8FFF73CFF35
:103E400000E000200DB030BD13B5537914781B0984
:103E5000009302460B4620460321FFF7D7FF02B02E
:103E600010BDFFFF00231A4630B5084C14F823504C
:103E7000990035B1904202D10448084430BD013266
:103E8000D2B20133042BF1D1002030BDD3D50720AD
:103E900000231846044A12F8231009B10130C0B2B9
:103EA0000133042BF7D17047D3D507202DE9F0411A
:103EB00088B020220021684609F0FDFDA14B1B7847
:103EC00003F0FF04002B40F039819F4F20213B6914
:103ED00068469847002800F084809C4D6B88013329
:103EE0006B80FFF7D5FF9DF80420A87202F007034E
:103EF000032B04D0964A137843F0010309E0954B55
:103F00001D789DF80230AB4205D1914A137843F0F9
:103F100002031370E4E0C2F3C2029DF800E09DF8D2
:103F200006008D49D6B204EB440313F801C0F445F2
:103F30000BD10B4493F801C0844506D19978012434
:103F40008E1B18BF01269A7018E00134042CEAD1A8
:103F500082490B689A70804A587002F109008342C6
:103F600083F800E040F0C9800A609DF800009DF8E9
:103F70000230834240F0C480002426469DF80200AF
:103F8000FFF712FD9DF8022002709DF8022042709A
:103F900000228270FFF78AFC04B116B39DF800304E
:103FA000AB4200F09C809DF80160FF2E1BD13B6866
:103FB00020216846984720B9654A137843F00403E6
:103FC00013709DF8053003F00F02511C61F30303D9
:103FD0008DF80530C3F303139A4202DA6846FFF7FF
:103FE0001BFC00247CE0B5422BD164B99DF807305E
:103FF0004BB13B6820216846984720B9544A137852
:1040000043F0040313709DF8043003F0C003402B09
:1040100012D19DF807306A4613B91821504808E0BC
:104020000C214A48FFF710FF002858D100216A46AA
:104030000846FFF709FF52E09DF80330002B4ED1F0
:10404000F4E7484B1B78002BCBD09DF8054004F0DB
:104050000F074FEA14184745C3DA013767F3030423
:104060003046FFF711FC8DF805409DF80340A5424E
:1040700021D19DF8041001F0C001402906D0A1F122
:1040800080035A425A41144610B90CE0012260B133
:10409000C029437805D19E4203D0003318BF0123C5
:1040A00004E0002302E0C0290ED10346134303F0CD
:1040B000010420B908E094B908B941460CE04378FE
:1040C0008DF80330857802E000258DF803506846AE
:1040D000FFF7A2FB1CB129466846FFF71DFC6C46A2
:1040E000FFF774FB204604221F49FFF789FC0222D8
:1040F0001E492046FFF784FC20E003330B6034E7C1
:1041000085423FF439AFFFF74FFC0446FFF7CEFB83
:1041100023783BB19DF80530A27803F00F0393425A
:104120003FF72AAF9DF8003023709DF8023063708E
:104130009DF80530C3F30303A3701DE708B0BDE885
:10414000F08100BFC5D5072014D50720B9D50720B9
:1041500000D607203DC00720C7D5072038C007205C
:10416000E8D50720C6D5072028D5072001D6072087
:1041700000231846094AD118497809B10130C0B264
:104180002433902BF7D1064B5A780AB10130C0B2D4
:1041900093F825300BB10130C0B2704728D5072005
:1041A00001D6072008B5FFF76FFB064B28B18278D0
:1041B000187802FB0000C00008BD18781823584387
:1041C00008BD00BF3CC0072003490B6803604B6873
:1041D00043608B6883607047B9D5072070B53E4C4B
:1041E0004FF48035E5613D4CA0602046C5683B4CEE
:1041F000ED06FBD4A0680D46C0B20BB923465FE0C4
:104200002346002A63D0072A0E782DDD9E604E7863
:10421000083A9E608E789E60CE789E600E799E6091
:104220004E799E608E799E6001F10806C979996089
:1042300099694907FCD5A1682970A1686970A168CE
:10424000A970A168E970D968C906FCD4A1680835CD
:1042500005F8041CA16805F8031CA16805F8021CF8
:10426000A16805F8011C1AE0032A1ADD9E604E7849
:10427000043A9E608E789E600E1DC9789960D96858
:10428000C906FCD4A168043505F8041CA16805F82A
:10429000031CA16805F8021CA16805F8011C314641
:1042A000AFE701319E60013ADE68F606FCD4A668ED
:1042B000013505F8016CA4E7E668F606FCD4A668AB
:1042C0006E1AB24203DD15F8016B9E60F4E7024BF3
:1042D0004FF480329A6170BD00C009200080084010
:1042E00007B5002302A901F8013D01231A4600F099
:1042F0001F00FFF773FF9DF8070003B05DF804FB94
:1043000013B502AC04F8011D00F01F0000230122C8
:10431000214640F02000FFF761FF02B010BD08B554
:104320001720FFF7DDFFC0F3001008BD7021072044
:10433000FFF7E6BF0A4600230146A020FFF74EBF65
:1043400008B50020FFF7CCFFBDE8084000F0FE01F3
:104350000020FFF7D5BFFFFF024B4FF08072DA61FC
:10436000704700BF20C0092008B50020FFF7B8FF44
:1043700040F00101C9B20020FFF7C2FF024B4FF02D
:1043800080729A6108BD00BF20C00920202107204B
:10439000FFF7B6BF00231A461946E120FFF71EBFFC
:1043A00037B504460D46FFF7F5FF20462946FFF7CF
:1043B000C1FF0D4B4FF080721C469A610022ADF890
:1043C0000620BDF8063001339BB2ADF8063033B994
:1043D0004FF08073E361FFF7DDFF03B030BDFFF7FF
:1043E0009EFF0028EDD0F3E720C0092008B5172074
:1043F000FFF776FF00F0010080F0010008BD4021CA
:104400000720FFF77DBF08B50A460123014661205A
:10441000FFF7E4FEC0F3420008BD00231A46194628
:10442000E220FFF7DBBE70B5064600200D461446BD
:10443000FFF756FF16B100F0BF0002E040F0400069
:10444000C0B215B100F0DF0101E040F0200114B16D
:1044500001F0EF0101E041F010010020BDE87040E3
:10446000FFF74EBF10B504460020FFF739FF14B91F
:1044700000F0F7010DE0012C04D100F0FB0141F048
:10448000080106E0022C14BF40F0080140F00C01C6
:10449000C9B20020BDE81040FFF732BF08B50020C8
:1044A000FFF71EFFBDE8084040F00201C9B200203E
:1044B000FFF726BF08B50020FFF712FFBDE8084050
:1044C00000F0FD010020FFF71BBF40F6DD1398420E
:1044D00006D840F66213B0F5166F38BF184600E0F4
:1044E0001846A0F51661C9B20520FFF709BF10B53F
:1044F00004460620FFF7F4FEFA2C00F0D70102D1A3
:1045000041F0200104E0B4F5FA6F08BF41F0080162
:104510000620BDE81040FFF7F3BE10B504460620A4
:10452000FFF7DEFE032C28BF032420F0060040EA3C
:104530004401C9B20620BDE81040FFF7E1BEF928EA
:104540004FF0FA0305D9B0F57A6F88BF4FF47A605F
:1045500000E01846B0FBF3F00F2900F1FF30C0B2C5
:1045600028BF0F2141EA0011C9B20420FFF7C8BEDD
:104570001130C0B2162804D8202928BF2021FFF707
:10458000BFBE7047032804D0042814BF03210221B2
:1045900000E001210320FFF7B3BE0A4600230146D5
:1045A0003020FFF71BBE0A46002301462A20FFF7F2
:1045B00015BEFFFF73B50E4615460446FFF72DFFE7
:1045C000FFF7E8FE2B4B4FF08072DA61FFF772FFC6
:1045D000002211460120FFF726FFFFF7A7FE022069
:1045E000FFF740FF3046FFF770FF2846FFF77FFFD9
:1045F0000320FFF792FF03210220FFF781FE002135
:104600000120FFF77DFE03214FF4FA70FFF797FFBB
:1046100021460020FFF7ACFF00211220FFF770FEBB
:1046200000211320FFF76CFE00211420FFF768FE25
:1046300000211520FFF764FE00211620FFF760FE21
:104640000D4B18681B79009005208DF80430FFF79A
:1046500099FF68460521FFF7A0FF05216846FFF78F
:10466000A2FFFFF71BFF4FF4FA6004F031FC02B029
:1046700070BD00BF20C00920FB5C020070B5174E62
:10468000326822B92021032006F034F83060144D3E
:104690002A6822B92021012006F02CF82860114C4C
:1046A000216821B90322012006F024F820604FF48C
:1046B000FA6240F6C3112020FFF77CFFFFF754FE9B
:1046C0001620094A012104F0FFFE306828B128684D
:1046D00018B12068003018BF012070BD50D60720E7
:1046E0004CD6072054D607209547010070B50379B2
:1046F000014603F0C003C02B0CBF0E4B0E4B88B01D
:104700001D68002306461A46284606F015F804469A
:1047100060B9034602466946284606F013F9234667
:1047200022463146284606F007F80446204608B0DF
:1047300070BD00BF4CD6072050D6072038B50446C0
:104740000D46FFF72BFA237883420AD0E37843B96A
:104750000AF0E0FBBD2300F0030000FB033004F08F
:10476000B7FBFFF7F9FDFFF7EBFDA9B22046FFF716
:1047700017FEFFF70BFEFFF7F7FD06F0E7FE022836
:1047800004D1034B0021186806F0AAF8012038BDB7
:1047900054D6072007B5002302A941F8043D084B71
:1047A000186806F09DF8019B3BB1064B4FF0805214
:1047B0001A60BFF34F8FBFF36F8F03B05DF804FB38
:1047C00054D6072004ED00E038B504460D46FFF747
:1047D0000DFE48B1A9B22046FFF715FEFFF706FE11
:1047E00008B9FFF70CFE012038BD2DE970430546DE
:1047F0000E46144606F0AAFE022807D122460023E0
:104800003146284606F09EF8C4B21DE007F050FA83
:104810004FF47A72002308F029FD10EB040841F1EF
:10482000000900231A463146284606F08BF8C4B228
:1048300054B907F03DFA4FF47A72002308F016FDE0
:10484000894508BF8045ECD22046BDE87083042925
:1048500038B5054603D1041C18BF012400E000242C
:1048600007F026FA2CB14FF47A72002308F0FEFC10
:104870002860204638BDFFFF00B50C4B8DB0099372
:104880000B4B0C4A0B930C4B0A930CAB43F8102DBB
:10489000002204920FCB8DE80F00084B084A01213B
:1048A0006A20FFF731FA0DB05DF804FB7D46010088
:1048B000C94701004F4801003D470100ED46010096
:1048C000005D0200024B0A4601461868FFF78DBFE3
:1048D00050D60720024B0A4601461868FFF785BFED
:1048E0004CD6072008B506F031FE0F4B02285B6955
:1048F00013D15A020DD5FFF73BFC00280B484FF0AF
:10490000000314BF01224FF0FF321946006806F081
:1049100019F8BDE80840FFF7C9BA5B02F9D5FFF7FF
:1049200027FC0028F5D108BD00C0092054D6072077
:1049300013460A460179006805F00FBB1FB5002237
:1049400004AB047923F8042D0222009200680A4681
:10495000214605F0EDFA9DF80C009DF80D3043EA74
:10496000002004B010BD10B5044619222A21FFF71B
:10497000DFFF0D222179206805F0DEFAA0F12A037D
:104980005842584110BDFFFF044A13881F2B9FBF98
:10499000581C1080024A42F8231070475CD607204A
:1049A00060D60720154AF0B513881646012B21D989
:1049B000134A00201546013B984206DA51681468F4
:1049C0000130091B42F8041BF6E700210C466A6817
:1049D0004FF0010E02EB52008AB2934208DD55F807
:1049E00022700131B8423CBF0EFA02F21443F3E7E1
:1049F000044B1C6000233380F0BD00BF5CD6072051
:104A000060D6072058D6072008B50121022007F0FC
:104A1000E9F8084B01209A6A22F007029A629A6A22
:104A200042F006029A62044AD36843F03003D3602E
:104A300008BD00BF0080004000C0024008B5044B24
:104A4000417101F07F015A5C0321FFF771FF08BD3E
:104A5000055D020008B5044B817101F07F015A5CCD
:104A60000221FFF765FF08BD055D020038B5044669
:104A70000179006805F07CFA054688B1002206211C
:104A80002046FFF755FF002207212046FFF750FF81
:104A90002E212046FFF7D2FF2E212046FFF7DAFF16
:104AA000284638BD642370B5B1FBF3F404FB131141
:104AB000CCB20A21B4FBF1F501FB15413031C9B28A
:104AC0000646FFF7C7FF092C88BF05F130013046C5
:104AD000BDE8704094BF2021C9B2FFF7AFBF0120ED
:104AE0007047FFFF38B50D46044606F065FE05F039
:104AF0000F032370114B15F0010F4FF0010214BF8B
:104B0000DA619A61227812F0020F4FF0020214BFAC
:104B1000DA619A61227812F0040F4FF0100214BF8C
:104B2000DA619A61227812F0080F4FF4807214BF94
:104B3000DA619A61BDE8384006F04EBE20C0092017
:104B400038B50D46044606F037FE691E012303FA08
:104B500001F1237820461943C9B22170FFF7C2FF43
:104B6000BDE8384006F038BE38B50D46044606F0BC
:104B700023FE691E012303FA01F12378204623EA6C
:104B800001012170FFF7AEFFBDE8384006F024BEFA
:104B90000AB1FFF7D5BFFFF7E7BF38B50D460446AA
:104BA00006F00AFE691E012303FA01F1237820466C
:104BB0005940C9B22170FFF795FFBDE8384006F0B3
:104BC0000BBE01207047022004F018BA0120704784
:104BD000044B5B69180B00F00C00C3F3412318432E
:104BE000704700BF20C0092010B504468122012172
:104BF000FFF79EFE01222179206805F09DF910F053
:104C0000600F14BF0120002010BD38B500210446FC
:104C1000FFF794FE812205B201212046FFF788FEAE
:104C2000102095FBF0F008F0C1F84FF0765108F035
:104C300011F9A16808F006F838BDFFFF08B5FFF7C5
:104C4000E4FF054908F006F9044908F0B7F94FF008
:104C5000844107F0F7FF08BD000010410000A040AC
:104C60002DE9F04FADF2546D0C46904601460122FD
:104C700082A8994602F03EF8002867D121460A2210
:104C80000DF22C4002F036F8044620B182A802F062
:104C90009AFA20465AE06D4606460746286001907B
:104CA00007F006F84FF47A72002308F0DFFA2B467B
:104CB00083464FF4007202A982A802F0B5F882463A
:104CC000E0B92A68D2B106F0F3FF4FF47A720023FC
:104CD00008F0CCFAB0EB0B00074406F0E9FF4FF404
:104CE0007A72002308F0C2FA01AB83462A6802A94F
:104CF0000DF22C4002F050F98246B0B1B8F1000F2D
:104D000001D0C8F80070B9F1000F01D0C9F80060F7
:104D1000DDF8783603B11C6082A802F054FA0DF277
:104D20002C4002F050FA504610E001992A68914256
:104D3000E4D106F0BDFF00234FF47A7208F096FA32
:104D40002B68B0EB0B0006441C44A9E70DF2546D30
:104D5000BDE8F08FF0B5ADF50B7D0E461746014668
:104D60001D460122002301A8009301F0C3FF044661
:104D700070B91DB1294601A802F037FA6B463A46D0
:104D8000314601A802F050F8044601A802F01BFACF
:104D900020460DF50B7DF0BDF0B5ADF50B7D0E4653
:104DA000174601461D460A22002301A8009301F080
:104DB000A1FF044670B91DB1294601A802F015FAF9
:104DC0006B463A46314601A802F0E6F8044601A8CF
:104DD00002F0F9F920460DF50B7DF0BDF0B5ADF50B
:104DE0000B7D0E46174601461D461222002301A8E0
:104DF000009301F07FFF044680B90DB1294600E021
:104E0000049901A802F0F1F96B463A46314601A82F
:104E100002F0C2F8044601A802F0D5F920460DF5CB
:104E20000B7DF0BD7F2810B516D931B1FF2812D8FF
:104E30000A4B803833F8100010BD084A32F8114090
:104E40008BB2844203D001318029F7D10B4603F1A4
:104E50008000C0B210BD002010BD00BF865D020002
:104E60000649002331F8132032B1824201D00133C8
:104E7000F8E7034A32F81300704700BF865E02006D
:104E80006660020010B501200C4605F0D9FC2060D8
:104E9000003018BF012010BD0120704710B5044636
:104EA00006F054FB02280AD1002319464FF0FF32C6
:104EB000204605F047FD431E5842584110BD0120D1
:104EC00010BD10B5044606F041FB022807D10023AF
:104ED0002046BDE810401A46194605F02DBC10BD0D
:104EE00010B5044604F00CFE24B1012C06D100F0EC
:104EF00081F901E000F002FD044600E0042404F022
:104F000017FE204610BD28B1012801D004207047AB
:104F100000F028BA7047F8B507460C4615461E46FD
:104F200004F0EEFD3FB1012F0CD132462946204658
:104F300000F020FA04E032462946204600F02AFD1F
:104F4000044600E0042404F0F3FD2046F8BDF8B563
:104F500007460C4615461E4604F0D2FD3FB1012F10
:104F60000CD132462946204600F050FA04E0324681
:104F70002946204600F030FD044600E0042404F0F9
:104F8000D7FD2046F8BD70B506460C46154604F020
:104F9000B7FD36B1012E0AD12946204600F090FA1D
:104FA00003E02946204600F037FD044600E00424D3
:104FB00004F0BEFD204670BD08B506F079FE4FF442
:104FC0007A72002308F052F908BDFFFF10B50446BD
:104FD00006F0E8FF074BB0FBF3F00223B0FBF3F25F
:104FE000944202D3044A136110BDB3F5807FF9D017
:104FF0000233F3E740420F0000000340044B986087
:10500000DA68D206FCD4024B9868C0B2704700BF81
:105010000000034070B5FFF7CFFF00F5FA74FF20E2
:10502000FFF7ECFF0025FF20FFF7E8FFFF2806460B
:1050300005D0FFF7C1FFA94208BFA042F3D3304615
:1050400070BDFFFF38B5064C4FF00075E561FFF706
:10505000E1FF044AA561137843F00103137038BDE2
:1050600020C009203EC007202DE9704306460D46AA
:10507000FFF7A2FF643080464FF00009FF20FFF7E2
:10508000BDFFFF2808D1FFF797FF494508BF4045FE
:10509000F4D30020BDE87083FE28FAD1102D06D984
:1050A00000224FF40071304604F0C8FC19E0341DB2
:1050B0000435FF20FFF7A2FF04F8040CFF20FFF7E0
:1050C0009DFF04F8030CFF20FFF798FF04F8020C83
:1050D000FF20FFF793FF043404F8050C2B1BDE427E
:1050E000E7D1FF20FFF78AFFFF20FFF787FF0120AE
:1050F000BDE8708370B506460D46FFF78BFFFF28AD
:10510000044619D12846FFF779FFFD2D16D0224617
:105110004FF40071304604F091FC2046FFF76EFF1B
:105120002046FFF76BFF2046FFF768FF00F01F00E7
:10513000431F5842584170BD002070BD012070BD12
:10514000020638B504460D4607D500217720FFF743
:10515000F7FF012838D804F07F041C4B4FF0007291
:105160009A61DA61FFF756FFFF28014628D12046F1
:10517000FFF744FF280EFFF741FFC5F30740FFF795
:105180003DFFC5F30720FFF739FFE8B2FFF736FF11
:10519000402C17D0482C14BF01208720FFF72EFF8A
:1051A0004C2C02D10846FFF729FF0A21FF20FFF708
:1051B00025FF030608D5013911F0FF01F6D138BDEE
:1051C000FF2038BD9520EEE738BD00BF20C0092084
:1051D000064A074913784969DBB2490154BF03F015
:1051E000FD0343F003031370704700BF3EC0072068
:1051F00020C009202DE9F743FFF7EAFF564B1A7844
:105200001E4612F0020F01D01878A1E00120FFF72E
:10521000DDFE0A24FF20013CFFF7F0FE14F0FF043E
:10522000F8D14E4F4FF00073FB6121464020FFF74D
:1052300087FF012802D04FF0000875E0FFF7BCFEA1
:105240004FF4D57100F57A754820FFF779FF0128F2
:1052500041D10DF10408FF20FFF7D0FE08F804004B
:105260000134042CF7D19DF80630012BE3D19DF8D1
:105270000730AA2BDFD12C460025FFF79DFEA9425F
:1052800008BFA04206D3FFF797FEA94208BFA0427D
:10529000D1D207E04FF08041E920FFF751FF00280D
:1052A000EBD1F0E700217A20FFF74AFF0028C2D1B6
:1052B0000146FF20FFF7A2FE08F801000131042992
:1052C000F7D19DF8043013F0400F14BF4FF00C08D5
:1052D0004FF0040828E02146E920FFF731FF0228BB
:1052E0002C4635BF4FF002084FF001084FF0E90996
:1052F0004FF041090025FFF75FFEA94208BFA04219
:105300000BD3FFF759FEA94208BFA0420CD34FF4BC
:1053100000715020FFF714FF06E000214846FFF718
:105320000FFF0028E7D1ECE70D4B83F800804FF02A
:105330000073BB61B8F1000F07D03378182003F079
:10534000FE033370FFF742FE01E0FFF77BFE30788B
:10535000C0B203B0BDE8F0833EC0072020C00920E2
:10536000E0D6072008B5FFF733FF014B187808BDDA
:105370003EC0072070B5144606460846FFF728FFD2
:10538000002C39D01E4B1B78DB0737D41D4B4FF058
:105390000072DA611C4A1D46127812F0080F08BF2D
:1053A0004002012C01460CD15120FFF7C9FEE0B9A3
:1053B0004FF400713046FFF757FEB0FA80F46409ED
:1053C00013E05220FFF7BCFE78B94FF4007130466D
:1053D000FFF74AFE28B1013C14F0FF0406F5007601
:1053E000F3D100214C20FFF7ABFE4FF00073201CDF
:1053F000AB6118BF012070BD042070BD032070BDDB
:105400003EC0072020C00920E0D60720F8B514468A
:1054100006460F46FFF7DCFE002C44D0254B1A78D9
:10542000D20742D41B785B0741D4234B4FF0007264
:10543000DA61224A1D46127812F0080F08BF7F0277
:10544000012C0CD139465820FFF77AFE18BBFE21FB
:105450003046FFF74FFEB0FA80F464091CE012F00A
:10546000060F03D02146D720FFF76AFE39465920A0
:10547000FFF766FE80B9FC213046FFF73BFE28B1FE
:10548000013C14F0FF0406F50076F4D1FD21002064
:10549000FFF730FE00B901244FF00073201CAB6110
:1054A00018BF0120F8BD0420F8BD0320F8BD02207C
:1054B000F8BD00BF3EC0072020C00920E0D607206D
:1054C0007FB50D46FFF784FE05281AD12B78012BF6
:1054D00000F0048103D3022B0BD0042001E1824BA6
:1054E000586910F0806440F0F980FFF7ABFD20466A
:1054F000F7E07D4B5B6983F08063C3F380636B707F
:10550000ECE07A4B1B78DB0700F1EA800E2800F212
:10551000DF80DFE800F008124F53DDDDDDDDDDDD8B
:10552000AAAFB2BBCB00704B4FF00072DA61FFF74D
:1055300071FDFF3818BF0120CBE000214920FFF7A3
:10554000FFFD044608B10120C3E010216846FFF7C3
:105550008BFD0028F7D09DF800309DF808109B09BE
:10556000012B9DF8093006D1013303EB012189B2EB
:10557000890229606BE09DF807209DF805009200E4
:1055800002EB91119DF806200131920202F4406273
:1055900011449DF80A2000F00F0000EBD2105A00D1
:1055A000023002F006028318DBB289B2093B01FA2D
:1055B00003F34BE04FF400732B8059E04C4E3378EB
:1055C00003F0040303F0FF01F3B10021CD20FFF746
:1055D000B7FD0028B7D1FF20FFF710FD1021684666
:1055E000FFF742FD0028AED03021FF20FFF706FD77
:1055F000481E10F0FF01F8D19DF80A3008461A093C
:10560000102393402B6064E04920FFF799FD044686
:10561000002898D110216846FFF726FD002892D077
:1056200036789DF80A2006F0020606F0FF009DF885
:105630000B3076B1520002F07E0202EBD3135A1CFB
:105640009DF80D309B09013B02FA03F32B602046C5
:105650003FE0D90001F01801C2F3840201EB5311BD
:10566000531C01FB03332B6033E0214B1B782B7061
:1056700000202EE00021492001E000214A20FFF710
:105680005FFD00287FF45FAF10211AE000217A202F
:10569000FFF756FD00287FF456AF291DFF20FFF7C6
:1056A000ADFC05F8010B8D42F8D1E1E70021CD20DA
:1056B000FFF746FD00287FF446AFFF20FFF79EFC72
:1056C00040212846FFF7D0FCB0FA80F0400900E006
:1056D0000420054B4FF000729A6102E0002000E0C8
:1056E000032004B070BD00BF20C009203EC00720C9
:1056F000E0D60720054B1B78253BDBB2032B9ABF76
:10570000034A52F823000020704700BFE4D6072068
:10571000506202001B4B2DE9F0411D880646B5F58D
:10572000007F0F46144602D12A46214613E0B5F504
:10573000807F09D12A4621463846B0472A4604F5DB
:10574000807107F5807016E0B5F5047F05D1510A28
:1057500089024FF4007238460DE0B5F5847F0ED112
:10576000140A61024FF480723846B047611C4FF44E
:1057700080724902B8183346BDE8F0411847BDE8C9
:10578000F08100BFE2D6072030B52F4C03462546F6
:10579000002958DD07291A782DDDA2605A780839CA
:1057A000A2609A78A260DA78A2601A79A2605A7927
:1057B000A2609A79A26003F10802DB79A360A36971
:1057C0005B07FCD5AB680370AB684370AB68837054
:1057D000AB68C370E368DB06FCD4AB68083000F844
:1057E000043CAB6800F8033CAB6800F8023CAB68D3
:1057F00000F8013C1AE003291ADDA2605A78043946
:10580000A2609A78A2601A1DDB78A360E368DB06C9
:10581000FCD4AB68043000F8043CAB6800F8033CEF
:10582000AB6800F8023CAB6800F8013C1346AFE7F8
:105830000133A2600139E268D206FCD4AA680130C3
:1058400000F8012CA4E730BD0000034007B50B0CA5
:105850008DF805308DF807100B0A04218DF804002F
:105860000DEB01008DF80630FFF78EFF03B05DF8F9
:1058700004FBFFFFF7B5174606460E4C40250323F1
:10588000E5618DF804300B0C8DF805308DF80710AC
:105890000B0A04210DEB01008DF80630FFF774FFB1
:1058A00000223946304604F0C9F8A561A561A5611A
:1058B00003B0F0BD00C009200E4B4022DA610E4B50
:1058C000D7229A601A46D1680B4BC906FBD49A6856
:1058D0001A46FF219960D068C006FCD4906810F089
:1058E000800FF7D0034B40229A61C0B29A619A614F
:1058F000704700BF00C0092000000340F7B5FFF764
:10590000DBFF1F4C002323801E4B1F4E40271A88AD
:105910009B78F7610321054601A8ADF804208DF8B6
:105920000630FFF731FF9DF805209DF806301F2A4D
:10593000B7612146B761B7611CD1A3F12502032AE3
:1059400018D8124A252B137005F0010006D1002843
:1059500014BF4FF480734FF4847305E0002814BF24
:105960004FF400734FF404730B80FFF7C3FE084B32
:10597000400A18600888B0FA80F0400903B0F0BD12
:10598000E2D607204662020000C00920E4D60720C4
:10599000E8D60720F8B58B1817460D4A013B126868
:1059A0000446934210D84D02FFF786FF00262D1BB8
:1059B000BE4204EB050209DA21460648FFF7AAFEBB
:1059C00004F500740136F3E70120F8BD0020F8BDAE
:1059D000E8D6072075580100F8B58B1817460C4A11
:1059E000013B126893420FD804460026C0EB4125C4
:1059F000BE4204EB050209DA21460648FFF78AFE9B
:105A000004F500740136F3E70120F8BD0020F8BD6D
:105A1000E8D60720F95A010008B5072805D8DFE8BD
:105A200000F006090E1214141414042008BDFFF728
:105A300043FF0AE0FFF75EFE400A086005E04FF40E
:105A400000730B8001E001230B60002008BDFFFF05
:105A500070B590B003466A466E4600F140051446A4
:105A600018685968083303C4AB422246F7D1084D81
:105A70004024EC6100219B20FFF7E8FE21463046E0
:105A8000FFF782FEAC61AC61AC6110B070BD00BFCD
:105A900000C0092070B50646074D4024002177203C
:105AA000EC61FFF7D3FE21463046FFF76DFEAC6197
:105AB000AC61AC6170BD00BF00C0092008B5064BE9
:105AC000198831F01F0104D0FFF714FEB0FBF1F08C
:105AD00008BD084608BD00BFE2D60720014B188864
