:020000021000EC
:10000000E03F082095010100FB000100E100010034
:10001000090101001901010029010100000000008F
:10002000000000000000000000000000A1B201007C
:10003000390101000000000001B301005901010075
:10004000E1B80100E1B80100E1B80100E1B8010048
:10005000E1B80100E1B80100E1B80100E1B8010038
:10006000E1B80100E1B80100E1B80100E1B8010028
:10007000E1B80100E1B80100E1B80100E1B8010018
:10008000E1B80100E1B80100E1B80100E1B8010008
:10009000E1B80100E1B80100E1B80100E1B80100F8
:1000A000E1B80100E1B80100E1B80100E1B80100E8
:1000B000E1B80100E1B80100E1B80100E1B80100D8
:1000C000E1B80100E1B80100E1B80100846F02006D
:1000D00000C007207803000078C30720E014000068
:1000E00004207146084203D0EFF309800BF016BCE0
:1000F000EFF308800BF012BC704708B5014807F019
:10010000E7FFFEE73669020008B5024807F0E0FFA6
:10011000FEE700BF4169020008B5024807F0D8FFBA
:10012000FEE700BF4C69020008B5024807F0D0FFA7
:10013000FEE700BF5769020008B5024807F0C8FF94
:10014000FEE700BF6469020008B5024807F0C0FF7F
:10015000FEE700BF7269020008B50BF055F80BF01E
:10016000F1F8BDE808400BF063B80B4610B5401A33
:100170005C1AA24203D9C45843F8044BF8E710BDF7
:10018000034610B500221C1AA14202D943F8042BE1
:10019000F9E710BD16480BF077F915480BF077F921
:1001A000144C154DAC4201D3144D07E094E8030004
:1001B0000C3454F8042CFFF7D8FFF3E7AC4206D216
:1001C00054F8080B54F8041CFFF7DAFFF6E70DF0BB
:1001D000A3FA0BF073F901F0D9FD03F0D7F84FF44F
:1001E00016400BF0B9FC064807F072FFFEE700BFAF
:1001F000E03F0820CC000100D8000100E000010031
:10020000866902000BF060B80BF06EB8144B10B5A5
:100210001A68014612B94FF080521A60114C1868E2
:100220002468421894421A6007D20F4CA24204D8A4
:100230000E4A0B488C18046010460D4A1B68126861
:10024000934222BF064B00201A6039B1094A136855
:1002500001331360084B1860084B196010BD00BFD4
:100260007CC3072084C30720FFBF072058D807207E
:1002700088C307208CC3072078C3072080C30720CA
:100280000DF082BB0DF088BB0DF086BB30B5044687
:100290008BB068460DF034FE224B079A2360089B12
:1002A000214DA36062602149214B52B90A68186848
:1002B00082428ABF02F1604202F17042A2F5E82256
:1002C000626062681B68B2F5803F82BF02F17042D3
:1002D000A2F5E82262600022E2600A68934206D337
:1002E000991AC5F1005303F504230B440BE0114B9D
:1002F0001B68934208D9991AC5F1005303F5F823F6
:100300000B44002B00DDE36020460B4BE2611B68D1
:10031000A3610A4B1B686361094B1B6823610BB027
:1003200030BD00BF5818000058D807207CC30720F4
:1003300084C3072088C3072078C3072080C3072011
:100340008CC30720034A044B1A60044A044B1A600A
:10035000704700BF0080001084C3072000400820C1
:1003600088C30720014B1860704700BF94C3072063
:10037000014B1860704700BF90C3072008B50248C2
:100380000EF074FDFEE700BF943E020008B502487F
:100390000EF06CFDFEE700BFAE3E0200002070478D
:1003A00001207047F8B5084B16461A680F461C46E0
:1003B00042B10D46EB1B9E4204DD236815F8010B8C
:1003C0009847F7E73046F8BD94C30720F8B5094BC6
:1003D0000F46186816461C4658B10D46EB1B9E4248
:1003E00005DD23680020984705F8010BF6E726EAAB
:1003F000E670F8BD90C30720704700207047FFFFEC
:10040000074B1B689A68824207D05A68824204D020
:10041000DB681B1A5842584170470120704700BFE3
:10042000BCC10720002070470020704730B504464B
:100430008DB0A8B3684608F0ADFF9DF800300025E8
:1004400003F03F0303939DF8013003A803F03F033B
:1004500004939DF802300B9503F01F0305939DF85C
:10046000043003F01F0306939DF8053003F00F03DB
:10047000013B0793BDF80630C3F30B03A3F26C7383
:1004800008939DF8033003F007030993BDF8083083
:10049000C3F30B03013B0A930DF0C0FB84E821007A
:1004A00000200DB030BDFFFF70B50F4D0F4E2C6812
:1004B00014F0010415D128460BF0EEFE88B14FF47C
:1004C0000E70FFF7DDFE302380F835323A2380F8D6
:1004D000344280F8363280F83742306028460BF0DC
:1004E000E7FE306870BD00BFB0C30720B4C307206B
:1004F00070B50F4D0F4E2B6813F0010416D128462E
:100500000BF0CAFE90B14FF40E70FFF7B9FE012355
:1005100080F83432312380F835323A2380F836328D
:1005200080F83742306028460BF0C2FE306870BD5C
:10053000A8C30720ACC307202DE9F04FADF51B7D04
:100540000F4608F0E9F9041E04DD0AF025FE2046F6
:100550000AF068FB0DF114094C462A4D4FF0640B6C
:100560000FCD0FC42B6804AA2360102100240AA811
:1005700004940AF015FD244A82462449384609F0BD
:1005800099F926460AAD4FF00008D0451CD06B699A
:10059000A34215D1AA69049B16441BB1B3FBFBF31C
:1005A000B2FBF3F3297B039202932B8C00949B0004
:1005B000019359F821306A681549384609F07AF9EB
:1005C00008F101082435E0E701340A2CDAD1049B54
:1005D00064229E1BB3FBF2F30E49B6FBF3F30E4A03
:1005E0000096384609F066F90AF0F0F9102804D9A7
:1005F00010220A49384609F05DF901200DF51B7DEE
:10060000BDE8F08FC83E0200E73E0200EC3E02006B
:10061000133F02003B3F0200303F02005A3F0200FE
:1006200010B50C46ADF5007D68460BF0DFF82046AE
:100630004FF0FF32694609F007F901200DF5007D02
:1006400010BDFFFF30B50C4691B02C49054608F0AF
:100650006FF8002847D00CAB04930BAB03930AABA5
:10066000029309AB019308AB009306AA07AB244998
:10067000284607F0C5FF072801D000203BE09DF881
:100680003930069A0DA862F303038DF83930079AC2
:100690009DF8383062F304038DF83830089ABDF8BD
:1006A0003A3062F30B03ADF83A30099A9DF83630D0
:1006B00062F304038DF836300A9A9DF8353062F300
:1006C00005038DF835300B9A9DF8343062F305033D
:1006D0008DF834300C9A9DF8373062F302038DF8B0
:1006E000373008F07FFE08F019FF06490246204621
:1006F00009F0E0F8012011B030BD00BF843F0200D6
:10070000883F020096610200F7B50D464E49044647
:1007100008F0FEF8064640B107F072FB4FF0FF32DA
:100720004A49284609F090F88BE04949204608F0EC
:10073000EFF860B307F088FB46490246284609F007
:10074000B9F807F08DFB44490246284609F0B2F893
:1007500007F080FB41490246284609F0ABF83046D5
:1007600007F068FB0446012007F064FB0646022000
:1007700007F060FB0746032007F05CFB0097019041
:10078000334622463649284609F094F859E035495F
:10079000204607F0CDFF50B120220121204608F06D
:1007A00065F8204608F0B6F807F072FC49E02E49DB
:1007B000204607F0BDFF064620B92C49204607F029
:1007C000B7FF60B32A49204607F0A0FF60B9294966
:1007D000204607F09BFF28B92046274907F096FFDF
:1007E000044602E0032400E002243146204607F0DC
:1007F000A7FB224A224B002E18BF1A463CB1012CFF
:1008000007D01C491A4B022C18BF0B4602E01D4BA7
:1008100000E0194B1C49284609F04CF811E020462D
:1008200008F078F8194A1A490090F323012007F0DC
:1008300095FB204608F06EF816490246284609F056
:1008400039F8012003B0F0BDC33F0200C93F0200E8
:10085000E23F0200E93F0200FE3F020013400200B7
:100860003240020062400200664002006E40020018
:10087000BE3F0200B83F0200B2510200A93F020091
:10088000A13F0200B23F020077400200DC3E0200BE
:1008900090400200C340020030B589B004AB002490
:1008A00000930D4603AB022218490394049407F009
:1008B000B5FE022827D107AB009305AA06AB049921
:1008C000039805940694079403F0A6FF024638B1F6
:1008D000049B0F4900932846039B08F0EBFF10E0B0
:1008E000059A069B002A079908BF0122002B08BF22
:1008F0000123B1FBF3F3B1FBF2F22846054908F0FE
:10090000D9FF012000E0204609B030BD525102005D
:10091000D1400200F04002002DE9F0470E46ADF54F
:10092000856D3949054607F08DFF38490746284649
:1009300007F0B1FF3549284607F0CDFF284607F0FC
:10094000E9FF0122014681A805F0B0FF044640B14D
:10095000284607F0DFFF2E490246304608F0AAFF7E
:100960004CE00DF1040A01464FF4007250460DF0C0
:1009700070F800940AF024FF804689466B464FF4D5
:100980000072514681A806F02BF808B9009B23BBE2
:1009900081A806F0F4F9CFB10AF012FF4FF47A7291
:1009A00000230CF025FC002305464FF47A724046E4
:1009B00049460CF01DFC281A14BF03460123B4FB62
:1009C000F3F322461349304608F074FF4FF0FF322C
:1009D0001149304608F038FF10E01C44002FCDD1FB
:1009E0003D46009B9D42C9D233681AF805105B68EA
:1009F0004FF0FF32304698470135F2E701200DF500
:100A0000856DBDE8F08700BF1E4102005251020013
:100A1000274102003B410200C94602002DE9F04790
:100A20000023BEB00C46534905460C9307F070FFF7
:100A300020B9284607F06EFF064600E04E4E3146CC
:100A400015A806F055FA054630B1034632464B4923
:100A5000204608F02FFF89E032464949204608F039
:100A600029FF2F460DF1780880230DA915A8CDF890
:100A70004C80149306F080FA002861D19DF83D3037
:100A8000002B5DD09DF83C100DF13D00CA065BBF08
:100A90000D9B0C9A44229B185BBF0C932D220135B1
:100AA000013711F0010F14BF52232D23BDF83AA0D6
:100AB00011F0020F09900D9814BF4FF0480E4FF03F
:100AC0002D0E11F0040F14BF4FF0530C4FF02D0CEE
:100AD000089011F0200FCAF34510BDF838100790A8
:100AE0004FEAEA20069001F01F000590C1F3431081
:100AF0004FEA612114BF4FF041094FF02D0901F277
:100B0000BC71CDF804C0CDF800E004900391CDF89D
:100B100008901C49204608F0CDFE4FF0FF321A49DC
:100B2000204608F07DFE41464FF0FF32204608F097
:100B300077FE4FF0FF320F49204608F085FE91E71F
:100B40003A46124900950C9B204608F0B3FE0BAACA
:100B50000CA9304606F03FFA40B90B9B0C499A7835
:100B60000C9B20465A43520808F0A4FE01203EB0D8
:100B7000BDE8F087C9460200564102005941020013
:100B80007D41020098410200C5410200C9410200B6
:100B9000F341020070B50C46064607F0BBFE054661
:100BA000304607F0B7FE06F0D8FA064A064B07496A
:100BB000002808BF13462A46204608F07BFE012085
:100BC00070BD00BFA9430200B34302000742020008
:100BD00070B50C46064607F09DFE0546304607F008
:100BE00099FE06F05DFA064A064B0749002808BF41
:100BF00013462A46204608F05DFE012070BD00BF66
:100C0000A9430200B3430200234202007FB503ABB5
:100C1000002400930E4602AB02220F490294039473
:100C200007F0FCFC022814D1029C039D20462946B3
:100C300006F03CFB094B0A49224600280CBF084637
:100C400018462B4600900749304608F033FE012035
:100C500000E0204604B070BD52510200B3430200D0
:100C6000A94302003542020030B5ADF50D7D0C46BA
:100C7000054607F04FFE0A22014603A805F016FEBE
:100C800040B1284607F046FE1F490246204608F0BC
:100C900011FE34E08DF8070002901C4942F21073F7
:100CA0007E22204608F006FE1949204608F002FE82
:100CB000236842F210721B680DF107012046984725
:100CC00018B19DF807307E2B03D103A806F057F822
:100CD00015E002AB01220DF1070103A805F038FF72
:100CE00058B9029B012B08D123684FF0FF325B6893
:100CF0009DF8071020469847DAE70649D5E7012016
:100D00000DF50D7D30BD00BF4D4202007442020062
:100D1000AC420200CC4202002DE9F04FADF5417D1E
:100D2000002304AC236003930D46009403AB02221E
:100D3000414907F073FC022806D04FF0FF323F49CB
:100D4000284608F081FD72E0216817A806F0D0F867
:100D500010B122683A4906E0039917A806F0C8F8CE
:100D600028B1039A3749284608F0A4FD5FE04FF404
:100D700080720DEB020105A807F012FC4FF480729F
:100D800080A90AA807F00CFC20AE80270FA917A89D
:100D90001596169706F0F0F8002842D19DF84530D8
:100DA000002B3ED09DF8443003F0100303F0FF0AFF
:100DB000002BEBD10DF14503039A234905A807F059
:100DC000F3FD0DF1450322681F490AA807F0ECFD69
:100DD00005A807F09FFD07460AA807F09BFD80467F
:100DE00005A8DDF83C9007F095FD83460AA807F0BA
:100DF00091FD534652460146CDF800A0584603F0F7
:100E00000BFD124A124BCDF8009000280CBF18467B
:100E100010461049019043463A46284608F04AFDDC
:100E2000B3E70AA807F0D1FB05A807F0CEFB012025
:100E30000DF5417DBDE8F08F52510200F3420200F2
:100E4000384302005D4302007D430200B3430200C9
:100E5000A943020083430200F8B50D462449064623
:100E600007F056FD0446074618B1FFF741FB002284
:100E700008E02049304607F04BFD044660B1FFF71B
:100E800013FB3A46114600F2352006F09FFA4FF068
:100E9000FF32194B194922E01949304607F038FD55
:100EA000044658B1FFF724FB012200F2352105F07A
:100EB000BFFC4FF0FF32134B134910E0134930468B
:100EC00007F026FD044680B1FFF7EEFA012200F29A
:100ED000352105F0ADFC0E4B0E494FF0FF320028D6
:100EE00018BF1946284608F0AFFC2046F8BD00BFE1
:100EF0000A44020014440200AC430200A243020070
:100F000021440200C9430200B94302002A440200FE
:100F1000EE430200E043020008B508464FF0FF32FE
:100F2000084908F091FC06F06BFF4FF4FA6009F0F5
:100F300079FE4FF08043AA221A7200221A70012013
:100F400008BD00BF3644020010B501200C4607F072
:100F50001BFB40B100231A46194609F075F94FF002
:100F6000FF32054902E005494FF0FF32204608F004
:100F70006BFC012010BD00BF474402005D4402002D
:100F800038B5064C236833B91C20FFF779F90546BC
:100F900008F008F92560206838BD00BFA0C307200D
:100FA0002DE9F04F5F4C91B023680E4633B92C20E9
:100FB000FFF766F9054608F089FB25602768FFF70B
:100FC00073FA00240CAA0DA900F235200D9406F046
:100FD00002F848B90C9A0D9C95699378023D5C43E0
:100FE0005D4364086D0800E025464F4B1A6898463B
:100FF0007AB90C20FFF744F98146FFF7C1FF90232F
:1010000089F804300023C9F80000C9F80830C8F88E
:101010000090D8F8000003F0EDFB81460CF0A2F838
:101020000A900BF085FE014648460BF0CBFD3F4988
:101030000BF0D2FE0CF096F881460DA80AF034FAB7
:1010400004F02EFB68B308F0E3FA04F013FB4FF052
:10105000000A0346D346D0469A450B930BD0504620
:1010600004F06CFB804538BFD3460B9B38BF8046ED
:101070000AF1010AF0E708F0E3FA642303FB08F33E
:101080002B4ACDF80880B3FBF2F3C3F1640300935D
:10109000CDF804B02B4622462649304608F00AFC1B
:1010A00005E02B4622462449304608F003FC234C39
:1010B00023681BB90120FFF7E3F82060206803F0E4
:1010C00051FB044608F02AFAFB8C0A9A0993BB8C60
:1010D0001B4908939DF83430019003F03F030793B8
:1010E0009DF83530009403F03F0306939DF83630A9
:1010F000304603F01F030593BDF83A30C3F30B03EA
:1011000004939DF8383003F01F0303939DF83930A2
:1011100003F00F0302934B4608F0CCFB012011B003
:10112000BDE8F08FA4C3072098C30720000020412A
:10113000A086010096440200CA4402009CC3072016
:10114000D84402002DE9F04F0D46C7B055498146FD
:1011500007F005FB54498246484607F000FB534917
:101160008346484607F0FBFA00270DF1100805AE4C
:10117000044602970397C8F800703760BAF1000F71
:1011800045D0009603AB02AA4949484607F038FA11
:10119000012807DC28464FF0FF32464908F054FB8F
:1011A00038467CE00DF118084FF480742246394629
:1011B00040460CF04EFC336813B90123336003E062
:1011C000B3F5807F88BF3460FFF7DAFE33689DF89F
:1011D0000C209DF808100093434608F031FC364A75
:1011E000364B3749002818BF1346029A284608F0A4
:1011F00061FB002433689C424ED2039A18F80430F5
:1012000022443049284608F055FB0134F2E7BBF18F
:10121000000F2CD0CDF8008003AB02AA2A49484623
:1012200007F0EEF9032807D028464FF0FF32274990
:1012300008F00AFB504632E0FFF7A2FE98F80030B3
:101240009DF80C209DF8081008F00FFC48B1039B96
:101250001F490093D8F80020029B284608F02AFB7B
:101260001AE0029A1B49284608F024FB14E0A8B1B2
:1012700002230293029BFE2B10DCFFF781FE9DF8F8
:10128000081008F0FDFB20B1029A1349284608F027
:1012900011FB029B0233ECE7012000E0204647B03F
:1012A000BDE8F08F7152020041450200474502003F
:1012B000504502005F450200A9430200B34302000B
:1012C00080450200A4450200B4450200C445020066
:1012D000EB450200054602002246020070B5ADF55E
:1012E0000A7D05460C4607F082F90B2802DD0C2228
:1012F00022493CE0284607F00DFB0122014601A8E7
:1013000005F0D4FA064668BB01A805F038FD28466A
:1013100007F000FB1A490246049B204608F0CAFA6F
:10132000236820469B6898470A2009F07BFC4FF011
:10133000100383F31188BFF36F8FBFF34F8F2846DD
:1013400007F0E8FA02460F4B0068516803C3906843
:101350000D4A186043F80C2C4FF08043AA221A72F1
:101360001E7007E0284607F0D5FA024607492046D6
:1013700008F0A0FA01200DF50A7D70BD5C46020060
:1013800083460200484002400DD0ADDECA4602004E
:101390002DE9F041404CA4B023680646DB070D461A
:1013A0000CD420460AF078FF40B14FF480600CF076
:1013B000EBFA3A4B186020460AF07AFF384930467B
:1013C00007F0CDF90746044600B38022002104A8A7
:1013D0000CF03FFB00230293039303AB009304AA9A
:1013E00002AB3049304607F00BF92C49029B039AB7
:1013F000096804A813B903F0ABFA01E003F0CAFAD4
:10140000294B2A49002818BF194638E02849304698
:1014100007F0A5F9074600283AD004AB304603AAE6
:101420002449039404948DF8084007F0E9F8039EDA
:10143000049B3344B3F5806F02DCDFF860800CE07E
:101440004FF480621C4920E0D8F800309DF8082055
:101450009A559DF8083001361C44039B049AF31AF0
:10146000934210DAB6F5806F0DDA2B684FF4FA620A
:101470001B6802A9284698470028E5D10F4928464D
:1014800008F018FA04E022460D49284608F012FA3E
:10149000384624B0BDE8F081BCC30720B8C307209C
:1014A000F5460200FC460200E3460200DF46020069
:1014B0000C470200134702001D470200414702008B
:1014C0005147020038B50D4607F026FA0446C0B26F
:1014D00002F068F9054A064B0649002818BF134672
:1014E0002246284608F0E6F9012038BDA94302004B
:1014F000624702006947020030B50C46054687B0D6
:101500000A4908F0D7F9A1882388049121896288C3
:101510000391E18828460291E17A0191A17A009134
:10152000034908F0C7F907B030BD00BF804702008B
:10153000B64702002DE9F0418CB003AB00260093C2
:101540000D46904602AB022238490296039607F0F8
:1015500065F8B04266DD02980BF0E4FFC7B203986D
:1015600018B10DF0B7FFC4B200E00446002104A892
:1015700002F0B8FF30B14FF0FF322D49284608F095
:1015800063F9F3E7022318F100010093039A23465D
:1015900018BF0121384602F049FA064638B94FF023
:1015A000FF322449284608F04FF901263AE0B8F105
:1015B000000F37D04FF47A7104A802F09BFF60B39C
:1015C0009DF81030BB4228D19DF817300C2B04D168
:1015D0003A4606A92846FFF78FFFBCB916492846A8
:1015E00008F068F99DF817309C420ADA04AB191923
:1015F0002B684FF0FF325B68097A28469847013420
:10160000F0E70E49284608F055F90BE04FF0FF329D
:101610000B49284608F018F904E0029A09492846BF
:1016200008F048F930460CB0BDE8F0815251020094
:10163000D4470200F64702001E4802004B4E02004B
:10164000324802004F4802001FB501A80C4602F0C4
:10165000CBFB02F0B3F801A902462046FFF74CFF8E
:10166000012004B010BDFFFF30B58BB00AAA4FF4C3
:101670007A730C4642F8243D174906F0C1FF002555
:10168000019902A802F02EFFD8B19DF80820134955
:10169000204608F00FF900259DF80F309D420ADA28
:1016A00002AB591923684FF0FF325B68097A204674
:1016B00098470135F0E70A49204608F0FBF8012574
:1016C000DEE72DB94FF0FF320649204608F0BCF89E
:1016D00001200BB030BD00BF1A4702007548020060
:1016E000C84602008C48020037B50C4602F0E0F90B
:1016F00005461649204608F0DDF815492A462046D9
:1017000008F0D8F81149204608F0D4F8D5B11149AD
:10171000204608F0CFF80D49204608F0CBF8002508
:10172000E8B202F0AFF9013540B181784378027830
:1017300000912046084908F0BDF8F1E7034920462A
:1017400008F0B8F8012003B030BD00BF9D4802008A
:10175000B8480200D2480200ED4802002DE9F347E4
:101760003C4C074626688946002E62D12420FEF7AD
:1017700087FD0423054680E848008660C660202176
:1017800030460DF0DDFBAE68E8604FEA8608072EB4
:101790000ED81020FEF774FD8246102200210CF0B6
:1017A00058F9EB68013643F808A008F10408EEE7A1
:1017B000002608236B604FF00108274B274A284971
:1017C0002846009685F82080256006F08BF8254B8A
:1017D000254A26492068009606F084F8244B254ABD
:1017E00025492068009606F07DF8244B244A2549B7
:1017F0002068009606F076F8234B244A2449206896
:10180000009606F06FF8234B234A24492068CDF850
:10181000008006F067F8224B224A20492068009693
:1018200006F060F80096204B204A2149206806F017
:1018300059F82049384607F06BF818B11E49384668
:1018400007F020F94A463946206802B0BDE8F04763
:1018500006F028B9C4C30720084902004249020023
:10186000091B0100494902009D490200DD180100E1
:10187000A6490200C949020069160100CC490200CC
:101880002B4F0200C5140100F6490200124A020063
:10189000E9160100194A0200804A020035150100CC
:1018A0005A4A02007F4A0200844A02009F4A02000C
:1018B00049160100C9460200A54A020038B5064C87
:1018C000236833B95820FEF7DBFC054607F042FDDC
:1018D0002560206838BD00BFC0C307202DE9F04F48
:1018E0000446ADF2DC5D802288460DA800210CF094
:1018F000B0F8802200212DA80CF0ABF806AE002332
:1019000033600DAA00962DAB7549204606F078FE8F
:10191000032801D00020DFE001220DA9EDA804F08A
:10192000C5FF05460028F5D1FFF7C8FF33688022C0
:1019300080F853304DA9044608A88DF81750079534
:1019400006F02EFE2DAB009333680DAA6549404684
:1019500007F0B0FFA94607AE33464FF400726DA9F9
:10196000EDA805F03DF8002840F0AF803368002B6B
:1019700000F0AB806F1C32685B49204607F09AFF8D
:10198000236820469B6898477D1E0DF5DA7B4FF053
:10199000000A6DAB3268C3EB0B039A4223680CD983
:1019A000CDF80CB05B684FF0FF321BF8011B2046EE
:1019B0009847039B1B789A44EBE79B68204698471F
:1019C00008A806F0A7FF834608A806F013FE4FF408
:1019D0007A7302465946204607F044FF202201212F
:1019E0000DEB020006F042FF08A806F095FF8245C5
:1019F00020D008A806F090FF524603463B494046D7
:101A000007F058FF3A49204607F054FF2368204664
:101A10009B68984723684FF47A721B680DF1170191
:101A2000204698470028F5D1022F07F101034CD832
:101A30001F46A0E733682DAA2E49009320464B4647
:101A400007F038FF236820469B68984708A806F0EF
:101A500061FF824608A806F0CDFD514602464FF4CC
:101A60007A73204607F0FEFE234908A806F04EFED2
:101A7000D0B908A806F04EFF20490246404607F0BC
:101A800019FF1B49204607F015FF236820469B6875
:101A9000984723684FF47A721B680DF117012046AE
:101AA00098470028F5D1BFE7154908A806F0EAFFD6
:101AB0003368144999444A46F09B404607F0FAFEC1
:101AC000002D3FF448AFBD1E45E7EDA805F057F9DE
:101AD00008A806F07AFD01200DF2DC5DBDE8F08F6C
:101AE000AA4A0200B94A0200D04A0200E24A0200B1
:101AF000C8460200094B02001F4B0200224B0200A5
:101B0000C94602005A4B02002DE9F047074686B04D
:101B100006AA002442F80C4D0E463D4906F070FD21
:101B200020220121384606F0A1FE039B002B65D040
:101B3000384606F05CFD002860D0FFF7BFFE054682
:101B40000DF1180808F80D4D2B6805221B68414659
:101B50002846984704460028F6D1039B384685F866
:101B6000533006F0D7FE274601464FF0FF32284695
:101B700007F06AFE2B6828469B689847254B0DF1B5
:101B80001809186849F8044D04902B684FF47A72CC
:101B90001B68414628469847D0B103220DF1150134
:101BA00048460BF03BFF9DF80BA0042204A94846D1
:101BB0008DF817A00BF018FF50B1336801225B6855
:101BC00051463046013798470028DED10134DCE722
:101BD0001822B7FBF2F302FB137202B101333A464B
:101BE0000D49304607F066FE74B16123009322462A
:101BF0000A4B0B49304607F05DFE05E04FF0FF321F
:101C00000849304607F020FE012006B0BDE8F08705
:101C10001A4702005E470200664B02008D4B02002D
:101C2000C94B0200824C020001480DF01FB900BFF1
:101C3000AE4C020038B504460D4609F03BFF074B99
:101C4000B0FBF3F00223B0FBF3F2AA4204D9B3F5E0
:101C5000807F01D00233F6E7236138BD40420F0098
:101C60007FB500F235260C460122314604F0E0FD36
:101C7000054648BB039002AA03A9304605F0ABF91C
:101C800000BB0298039A837802FB03F18269134830
:101C9000023A5A435208B2F5004F38BF0120104BA8
:101CA0004FEA510124BF03464FF48060B1FBF0F1CD
:101CB000B2FBF0F20091019321460A480DF064F85E
:101CC000012008E0084B00E0084B2A46214608485E
:101CD0000DF05AF8002004B070BD00BFEC4C0200BB
:101CE000E94C0200F64C0200F24C0200EF4C0200FC
:101CF000244D020038B5074C23684BB90820FEF785
:101D0000BFFA0546FFF73CF9402328602B71256098
:101D1000206838BDD0C3072038B5054C256825B9E3
:101D20000120FEF7ADFA05702060206838BD00BFC5
:101D3000CCC3072038B5084C23685BB90C20FEF7EC
:101D40009FFA0546FFF71CF990232B7100232860AA
:101D5000AB602560206838BD98C3072010B5044CDF
:101D600023681BB90120FEF78BFA2060206810BDA4
:101D70009CC3072010B5044C23681BB90120FEF753
:101D80007FFA2060206810BDC8C30720AD49AE4A65
:101D90004023F0B58B614FF0007393614FF48033B3
:101DA0008B61AA4BADF5057D1868072520F0F00082
:101DB00018601868022440F050001860186820F479
:101DC00040501860086840F040000860186820F42F
:101DD0007C201860186840F428201860186820F4E7
:101DE00070001860186840F420001860186820F02F
:101DF00040401860186840F000401860586820F0B3
:101E00003C005860586840F028005860586820F03E
:101E100003005860086840F480300860586820F477
:101E200040505860086820F480000860D96821F4A8
:101E30004031D960116841F080711160596821F416
:101E400040215960596841F480215960986880495F
:101E500001409960116841F4897141F001011160FC
:101E6000996821F470119960996821F07041996026
:101E7000116821F446411160D96821F03001D96020
:101E8000D96841F03001D960D96821F47011D96066
:101E9000136843F000731360136823F080631360CA
:101EA00006F04EFE01210A2009F024FC01210A203F
:101EB00009F038FC6748012105604460FFF7BAFE6D
:101EC00007F036FB0121152009F014FC0121152033
:101ED00009F028FC6048012105604460FFF7AAFE74
:101EE000FFF74EF8642107F029F910B95B480CF0B0
:101EF000BDFF09F03BFC02F0CFFA10B958480CF0D6
:101F0000B5FF4FF4FA6006F0D4FDFFF78DFE09F03F
:101F1000D1FD0AF009FF53490BF012F80AF050FB0B
:101F200002460B4650480CF02FFF09F0B7FA05287F
:101F300004AC14D1002363604C4B1B682360FFF793
:101F400073FE4B4B4B48D96C1A6D5B6D00940CF0D3
:101F50001BFFFFF769FE41F2883006F0AAFDFEF78D
:101F6000A3FA4549FFF77CFE054668BB43480CF0E1
:101F70000BFF03F00DFCFEF797FA29462A4600F204
:101F8000352005F023FA3E4B3E4A00280CBF104690
:101F900018460CF06BFFFEF787FA3749FFF760FE33
:101FA00090B939480CF062FF03F074FB01463748E2
:101FB0000CF0EAFE03F05EFB054603F06BFB00FB52
:101FC00005F133480CF0E0FE324E334F336813F026
:101FD000010516D130460AF05FF990B14FF40E704A
:101FE000FEF74EF9012380F83432312380F8353280
:101FF0003A2380F8363280F83752386030460AF09B
:1020000057F926493868264DFFF72AFE182111484E
:10201000FFF710FEFFF708FE2B684BB90820FEF70C
:102020002FF90646FEF7ACFF3823306033712E607F
:10203000286802F0A8FA0546B0BB1A480CF016FF53
:1020400033E000BF00C0092020C0092000C00240CA
:10205000F0FCFCFF0000034000800840684D0200D7
:10206000994D020000247449BE4D020044400240D4
:1020700000400240D64D02004E4E0200564E020075
:102080005C4D0200574D0200934E0200B24E02001A
:10209000C14E0200A8C30720ACC30720D8430200EA
:1020A000D8C30720DC4E02000125FFF743FE02F0F3
:1020B00077FB064618B972480CF0D8FE3546FFF794
:1020C00019FE02F0E3FA064618B96E480CF0CEFE8F
:1020D00035466D4E33681BB90120FEF7D1F83060EC
:1020E000306802F0A1FAFFF739FE02F039FBFFF782
:1020F00013FE02F004FBFFF73DFE02F036FBFFF794
:102100000BFE002102F0FEFA8DB9FFF78DFDFFF7FF
:10211000F1FD2D2102F0A2FAFFF7ECFD2D2102F0D6
:10212000A9FAFFF7F9FDFF2102F0ECFA0CE0FFF746
:10213000E1FD0546FFF7FEFD02F05CFB0BF038F811
:10214000C1B2284602F0BEFA1022002120460BF050
:1021500080FC00230F2221464C4802F0D7FB80B9B7
:1021600020460BF0DFF9C5B2284601F01BFB484AB8
:10217000484B2946002818BF1346444A46480CF0ED
:1021800003FEFFF7EBFD02F0EDFA054600200EF02E
:1021900071F928440CF072FE4FF4007200212046C1
:1021A0000BF057FC204609F021FB21463B480CF080
:1021B000EBFDFFF739FD8022002120460BF049FCA2
:1021C000204603F043FA2278FF2A04D021463448FF
:1021D0000CF0DAFD29E0FFF7CDFD02F0C9FA09287D
:1021E0001DD130480CF042FE21462F480CF052FF22
:1021F00021462E480CF0C8FD2D480CF037FE002378
:1022000003A92C4803930CF045FF9DF80C30592B83
:1022100003D1204603F0F8F907E0274803E02748F8
:102220000CF024FE26480CF021FE4FF208031D6836
:102230004FF20C031C684FF210031E684FF47043FA
:102240001A684FF20403AD0A1968A40A1D480CF07D
:102250009BFD2A4621461C480CF096FD31461B4842
:102260000CF092FDFFF7E0FC012005F0FFFD18489F
:102270000CF0FCFDFFF7D8FC0DF5057DF0BD00BFAF
:10228000F74E0200114F0200D4C307202A4F02006C
:10229000624D020062470200304F02009661020068
:1022A000644F0200804F0200A24F0200A74F0200BD
:1022B000C24F0200055002000950020021500200E6
:1022C0004F50020081500200AD500200DA5002006F
:1022D000F75002000120704701207047012070472D
:1022E00010B5044C23681BB90120FDF7C9FF20601D
:1022F000206810BDD4C307200120704738B50446BC
:102300000F4B00250360636DE06DAB4205D950F8BB
:102310002500FDF7B7FF0135F5E708B1FDF7B4FF7C
:102320000025A36B206CAB4205D950F82500FDF7C2
:10233000A9FF0135F5E708B1FDF7A6FF204638BD36
:102340003051020010B50446FFF7D8FF2046FDF7D4
:1023500099FF204610BD2DE9F04104460E46C068A5
:1023600089000CF0EDFDA568E060AF004FF00008BB
:10237000AE420DD90C20FDF783FFE368C0F8008062
:10238000C0F8048080F808800135D8510437EFE7A1
:102390006660BDE8F081FFFFF7B5044600250B46F7
:1023A0004FF480520095254906F0D4F8244B0426BA
:1023B00023606663A563E5632564022104F13400AC
:1023C000FFF7C9FF26656565A565E56528466021B7
:1023D0000CF0B6FDA56DE065AE00172D0CD81020F1
:1023E000FDF74EFF0746102200210BF032FBE36D94
:1023F00001359F510436F0E718236365012384F803
:102400007030104E0023A4F87430A4F87630A3671F
:10241000002200230027C4E92023C4E9226709F031
:10242000CFF94FF47A7200230AF0E2FE8019794165
:10243000C4E92001204603B0F0BD00BF48510200AE
:1024400030510200C0D401002DE9F0410F7A14464A
:102450004D680E688FB1082A23D1284606F0C7F8C8
:1024600000281CDD4FF0FF321349304607F0D8F941
:102470000121284606F0BAF908E00A2A19D00D2AE7
:1024800012D02146284606F0D2FA97B13368214689
:102490003046BDE8F0415B684FF0FF321847072433
:1024A000F4E70A2A02D1F1E7BDE8F0810D2AEDD068
:1024B000E7E7BDE8F08100BF51510200F8B50446DE
:1024C000142015460F46FDF7DBFE8021064606F078
:1024D0005EFAA36BE26B9A4206D3616B591803D282
:1024E00004F13400FFF737FFE36B226C591C52F8FC
:1024F0002330E1631F605E601D72F8BD2DE9FF4768
:10250000CF6B06460D4601AC3FB94FF47A7008F028
:1025100089FB01976760A76047E00B6C0DF110081D
:102520001B6893E8070084E80700002308F80D3DC6
:1025300008F040FA81460027EB6B9F4263D22B6C78
:102540004FEA870A53F827301868037C002B34D0F1
:10255000036800221B684146984770B3EB6B9F42AB
:102560002DD22B6C53F80A3093E8070084E807005B
:102570009DF8032021462846FFF766FF09F020F961
:102580004FF47A7200230AF033FED5E92223801833
:102590005941C5E92001029806F029F8074602983A
:1025A00006F028F8013887420CDB94E8070086E83B
:1025B0000700304604B0BDE8F0870137BCE705F1FD
:1025C0004403D1E7D5E92223134324D009F0F8F8D6
:1025D0004FF47A7200230AF00BFED5E920239942CA
:1025E00008BF904217D309F0EBF84FF47A7200233A
:1025F0000AF0FEFDD5E92223801859410023C5E9E0
:1026000020010193D1E708F0D5F98145C3D102201B
:1026100008F008FBBFE79DF803300A2B88D1C4E718
:10262000F0B5054685B020480CF0AEFB294601A860
:10263000FFF764FF019C1CB91C480CF017FC30E04C
:10264000029E304605F0D3FF00282ADD09F0B8F8D5
:102650000746F8B1B5F8743005F150000133A5F81C
:1026600074302246314605F01DFA114B00251868DA
:10267000009023681DF805105B684FF0FF3220467C
:1026800001359847042DF4D109F09AF8C11B094887
:102690000CF07AFB304605F0AFFF236820469B68BC
:1026A0009847012005B0F0BD54510200C946020010
:1026B000245102005A51020038B5064C236833B940
:1026C0002C20FDF7DDFD054607F000F825602068A9
:1026D00038BD00BFA4C3072010B50446FFF7ECFFC8
:1026E00003682146BDE810405B684FF0FF32184791
:1026F00013B5002302AC04F8013DFFF7DDFF0368CA
:102700004FF0FF321B68214698479DF8070002B042
:1027100010BDFFFF2DE9F04100F150048AB0002503
:102720000646009520465B4B5B4A5C4905F0DAF8AB
:10273000009520465A4B5B4A5B4905F0D3F800955B
:1027400020465A4B5A4A5B4905F0CCF80095204682
:10275000594B5A4A5A4905F0C5F800952046594B3D
:10276000594A5A4905F0BEF800952046584B594A37
:10277000594905F0B7F800952046584B584A594931
:1027800005F0B0F800952046574B584A584905F0D7
:10279000A9F800952046574B574A584905F0A2F82A
:1027A00000952046564B574A574905F09BF800952F
:1027B0002046564B564A574905F094F80095204656
:1027C000554B564A564905F08DF800952046554B15
:1027D000554A564905F086F800952046544B554A0F
:1027E000554905F07FF800952046544B544A554909
:1027F00005F078F800952046534B544A544905F0AB
:1028000071F800952046534B534A544905F06AF835
:1028100000952046524B534A534905F063F8009502
:102820002046524B524A534905F05CF80095524BF2
:10283000524A5349204605F055F8FFF73DFF4FF443
:10284000807320224FF41641054606F01FFF804694
:1028500001272F744B48FDF78BFD4B48FDF782FD98
:102860003A4629463046FFF729FE082203A905A863
:1028700005F096FE05A8454906F004F92A4605A983
:10288000204605F00FF905A805F09FFE40460AB066
:10289000BDE8F08170510200B2510200390501001B
:1028A000A7510200B751020021060100BF510200EA
:1028B000CD510200A10F0100D451020015520200B7
:1028C000450601001A520200765202001909010061
:1028D0007A5202000853020099080100BC5202001B
:1028E00007530200190D01000B5302003953020077
:1028F0001D0A01003C53020061530200950B0100C8
:1029000067530200945302000D0C0100975302001C
:10291000156C0200690C0100BC530200DF53020079
:10292000D10B0100E2530200B55402004511010031
:10293000B9540200FC540200590E01000455020073
:1029400017550200190F01001E5502001D56020006
:10295000090701002156020049560200490F0100F3
:102960004F560200B54D02005D1701007956020076
:102970006D57020091130100365702001B440200FC
:10298000DD120100F1260100D9260100A54A02004E
:1029900008B500F0FBFB034B186000F04BFA012078
:1029A00008BD00BFDCC30720012070477047FFFF50
:1029B00008B5044B186800F0AFFABDE8084000F015
:1029C000C3BB00BFDCC307207047FFFF10B50E4C30
:1029D00000F046FA00F0EAFB206800F065FCFFF723
:1029E000C9F9042101F0D0FE08B1002106E0FFF78B
:1029F000C1F9032101F0C8FE28B101212068BDE81A
:102A0000104000F05FBB10BDDCC307207047FFF72C
:102A1000BFBFFFF7C9BF10B50446FDF733FC204622
:102A200010BDFFFF70B50B4E05010B4B741953F829
:102A30002010201D08F0CAF8E368A0689847A36832
:102A400070590133A36000231A46BDE8704019464F
:102A500007F0FABBE0C307204458020008B5002085
:102A6000FFF7E0FFFBE708B50120FFF7DBFFFBE71F
:102A700008B50220FFF7D6FFFBE708B50320FFF7F4
:102A8000D1FFFBE7F7B507460D462D4A00240D237D
:102A900012682C49009405F05DFD2B4B87F83150EE
:102AA0003B602A4D2A4B0322EB602A4B2146EB6107
:102AB000294B0120EB62294BEB6307F0A3FB0322B8
:102AC00028602146012007F09DFB03222861214652
:102AD000012007F097FB224B28621E680523C6F3EE
:102AE0008F060093324623461E4901941E4807F084
:102AF0001BFE06230093324623461C4901941C48C2
:102B000007F012FE07230093019423463246194929
:102B1000194807F009FE97F8313073B103222146B6
:102B2000012007F06FFB08232863324600930194CD
:102B300023461249124807F0F7FD384603B0F0BDAE
:102B400094570200A85702005C580200E0C3072017
:102B5000CD290100AD290100B1290100C9290100D9
:102B600090570200AF5702005D2A0100B3570200E0
:102B7000672A0100B8570200712A0100BE570200FF
:102B80007B2A010038B517480C46415C002301310F
:102B9000C9B2914202D00155184638BD124D0355B5
:102BA000200128581A46194607F054FC0546B0B9CA
:102BB0000E4B53F8244020460CF058F920460CF0F8
:102BC00089FC2B4602462146094801F0E3FE094AEA
:102BD000094B9A644FF08043AA221A721D7001209B
:102BE00038BD00BF20C40720E0C30720985702006B
:102BF000C5570200EFBEADDE00400240044608B5F6
:102C0000012008F00FF894F8313023B1012203219C
:102C10002046FFF7B7FF0A2202212046FFF7B2FF46
:102C20000028EDD00A2201212046FFF7ABFF002843
:102C3000E6D00A2200212046FFF7A4FFE0E7FFFFCD
:102C40007FB50C46064615460021102268460AF05C
:102C500000FF4FF00003224664F30303294602A855
:102C60008DF8023001960AF0CEFE044B0022694630
:102C7000187806F075F904B070BD00BF00C00720D9
:102C800073B500238DF807308DF806308DF80530C8
:102C90008DF804308DF803308DF802308DF8013056
:102CA0000378054603F00F02012AC2BF012262F336
:102CB00003030370047804F00F0009F06FFC114B5C
:102CC000002209F01FFB09F009FF1F2C82BF01231E
:102CD00063F307142C7000F00F062878000909F040
:102CE0005DFC084B002209F00DFB09F0F7FE02AA7B
:102CF00046EA0010012102F8080D0846FFF7A0FF80
:102D000002B070BD0000E03F07B5002300788DF8E9
:102D100007308DF806308DF805308DF804308DF8C9
:102D200003308DF802308DF8013009F037FC084B84
:102D3000002209F0E7FA09F0D1FE02AA02F8080D14
:102D40000121D520FFF77CFF03B05DF804FB00BF35
:102D50000000E03FFFFFFFFF37B504680546002194
:102D600020460AF0D7F970B1204609F029FC2EA3BD
:102D7000D3E9002309F0A2FD00222D4B09F0C0FA8F
:102D800009F084FE0DE0204609F01AFC26A3D3E9E1
:102D9000002309F093FD0022254B09F0B3FA09F056
:102DA0009DFE030A6C688DF800008DF80130030C5D
:102DB000000E8DF80300002120468DF802300AF045
:102DC000A9F970B1204609F0FBFB17A3D3E9002352
:102DD00009F074FD0022164B09F092FA09F056FE34
:102DE0000DE0204609F0ECFB0FA3D3E9002309F026
:102DF00065FD00220E4B09F085FA09F06FFE030A0B
:102E00008DF804008DF80530030C000E8DF80700D6
:102E10006A460821D4208DF80630FFF711FF03B071
:102E200030BD00BFAFF300808DEDB5A0F7C6B03E5A
:102E30000000E03F13B50023084C019300930A23E0
:102E40001A466421207805F06FFF06F0E7F8207835
:102E500002B0BDE8104006F0D5B800BF00C00720A2
:102E600007B5012102AA002302F8081D26208DF8CB
:102E700007308DF806308DF805308DF804308DF868
:102E800003308DF802308DF80130FFF7D9FE03B022
:102E90005DF804FB07B5002302A800F8043DFFF726
:102EA000EFFE03B05DF804FB07B5012302A800F8AC
:102EB000043DFFF7E5FE03B05DF804FB07B502AB88
:102EC00003F8040D1846FFF71FFF03B05DF804FB7D
:102ED000DFB506460F461046194609F01FFE394673
:102EE00004460290304609F019FE039009F068FB91
:102EF000064620460F4609F063FB3246CDE9000145
:102F00003B46044805F0F3F802A8FFF725FF04B09C
:102F1000D0BD00BFA65A02002DE9F04F8BB0044689
:102F20001022002101A80AF094FD654E002201A99B
:102F3000307805F0C1FF002800F0BA80029B042B16
:102F400000F0A78041D8032BF0D10023069307930C
:102F50009DF80C301A0903F00F0362F307138DF884
:102F600014309DF80D301A0903F00F0362F30713B4
:102F70008DF815309DF80E301A0903F00F0362F337
:102F800007138DF816309DF80F301A0903F00F0360
:102F900062F307138DF817309DF810301A0903F00B
:102FA0000F0362F307138DF818309DF811301A09DA
:102FB00003F00F0362F307138DF8193005AB03CB51
:102FC000206318686163A063B0E7C32B08D0C42BEB
:102FD000ACD19DF80C30003318BF01232370A5E756
:102FE00014220DEB020000210AF033FD9DF80E00C3
:102FF0009DF80D70000140EA171009F0BFFA2EA3EA
:10300000D3E9002309F030FB09F088FD9DF80CB0EE
:103010008246380200F4706040EA0B0009F0AEFA14
:1030200025A3D3E9002309F01FFB09F077FD09F080
:10303000C7FAC4E90201504609F0C2FA9DF81080AF
:10304000C4E904019DF80F904FEA082000F4706075
:1030500040EA090009F092FA17A3D3E9002309F026
:1030600003FB09F05BFD09F0ABFA4FF000039DF89C
:103070001150C4E90801ED00EDB245EA58154FEAD8
:10308000281868F300038DF8203084F82830E562B2
:103090004CE79DF80D209DF80C30120202F480726E
:1030A000134312B163F0FF0300E01BB2A3613DE7DD
:1030B0000BB0BDE8F08F00BF9A9999999999B93FE3
:1030C00000C007202DE9F0430D4687B009B905235C
:1030D00003E0012914BF00230B238DF80C3006AC4C
:1030E00014F80C1D15480BF04FFE2046FFF70CFEA0
:1030F000134F00249DF80C309C421BDA57F8253002
:1031000003EBC40253F8340056680590049609F0A6
:1031100057FA80463046894609F052FA4246CDE9D0
:1031200000014B4607480BF02FFE04A8FFF714FEE2
:103130000134DFE707B0BDE8F08300BFCA5A0200E0
:10314000F45A0200D45A02001FB51022002168462A
:103150000AF07FFC044C00226946207805F0ACFEA2
:103160000028F8D104B010BD00C0072038B5064CC7
:10317000236833B92C20FDF783F8054606F02EFBB3
:103180002560206838BD00BF24C4072008B5FFF7BC
:10319000EDFF4FF470731A464FF4165106F0FEFA25
:1031A000BDE80840012140200AF0C0B92DE9F043F4
:1031B000ADF25C6DC8220021684632AD0AF049FCD0
:1031C0004FF4C872002128460AF043FC4FF4806295
:1031D000002196A80AF03DFCFFF7C8FF00234FF43A
:1031E000806296A906F03EFB9DF85832002B4BD02A
:1031F000274996A80CF05CF910B9FFF755FE43E09B
:10320000244996A80CF054F910B9FFF743FE3BE0AF
:10321000214996A80DF01EF8204A21490CF09CF88F
:103220001E4E002430681D4F844207D21A490020E8
:103230000DF010F84DF824000134F3E7FFF73EFEDF
:1032400000243B689C421FD216495DF824000DF013
:1032500001F8144945F8340000200CF0FBFF05EBA1
:10326000C4035860064655F834000AF058F9804601
:10327000304689460AF053F902460B464046494615
:10328000FFF726FE0134DCE70DF25C6DBDE8F0834C
:10329000DF5A0200E45A0200EA5A020028D407204A
:1032A000EC5A0200EE620200F0B5044699B0FFF756
:1032B0005DFF334B21781B68324D169394F83530FF
:1032C00006461B09159394F83530284603F00F0382
:1032D000149394F834301B09139394F8343003F0AA
:1032E0000F03129394F833301B09119394F8333081
:1032F00003F00F03109394F832301B090F9394F8E6
:10330000323003F00F030E9394F831301B090D9304
:1033100094F8313003F00F030C9394F83020120925
:103320000B9294F8302002F00F020A92E36A09939C
:1033300094F828300893D4E90823CDE90623A3693B
:103340000493D4E90423CDE90223D4E90223CDE98F
:1033500000230B460C4A4FF480510BF0A7FF0024CA
:10336000471C2C54BC4208DA336800225B68295D94
:103370003046984708B10134F4E719B0F0BD00BFFA
:1033800028D4072028C407207458020010B59020C4
:10339000FCF776FF04460321FEF7FEFF204605F00A
:1033A000ABF83420FCF76CFF04460021FFF76AFB02
:1033B000204605F0A1F80021084605F0ABF84FF0D3
:1033C000FF3010BD10B54FF6FF74242303FB01013D
:1033D000884209D043782BB1038C1344A34228BF01
:1033E000234603842430F3E710BDFFFF37B50023E5
:1033F00002A840F8043D0C4B04215B6898470B4B36
:10340000019A1C680546141B1A60042122460848CC
:10341000FFF7D8FF224602210648FFF7D3FF281CFA
:1034200018BF012003B030BD2CD40720FCD40720E6
:1034300040D4072019D5072008B50B4B197803781D
:103440008B420A4B0BBF1A889A880132013214BF93
:103450009A801A80064B8170DB68202198470030E3
:1034600018BF012008BD00BF89C00720D1D40720A4
:103470002CD407200A4B02781B789A42094B0BBFC9
:10348000DA881A89013201320CBFDA801A81037995
:10349000C3F3C202073262F3C5030371FFF7CCBF67
:1034A00089C00720D1D4072010B50749002311F89F
:1034B00023409A00844202D10348104410BD0133D6
:1034C000042BF4D1002010BDEBD4072070B1C378D9
:1034D0000133DBB2FF2BC37008D105480023C118AC
:1034E000CA7804335208102BCA70F8D1704700BF55
:1034F000EBD40720242202FB01010346024630B52B
:10350000914206D01446243212F8235C002DF7D1E4
:103510000FE00446002599420BD01A79C2F3C2008D
:103520001A8C42EA0042AA4284BF1C461546243344
:10353000F1E7204630BDFFFF38B50546C90001F16F
:103540000804FFF753FF1C4B2A781B789A4204D1DA
:1035500002211A48FFF7CEFF0CE004211848FFF7BC
:10356000C9FFEB7833B990F82330042443F080038B
:1035700080F82330002380F8203080F82130024684
:103580002B4690F8231080F8224021F07F01C4F3ED
:1035900006240C4380F8234005F1200153F8044B26
:1035A0008B4242F8044BF9D1064A0379127862F350
:1035B000C503037138BD00BF89C0072019D5072096
:1035C00040D4072088C0072008B5FFF76DFF0346E9
:1035D000D8B9FFF769FF0346B8B90D4AD378D17956
:1035E000D07A8B4296BF1946131D1346814294BF71
:1035F0000846084BD17B084A814238BF1346074929
:1036000000221A60CA7A0132CA72184608BD00BF89
:10361000EBD40720F3D40720F7D40720D1D4072018
:103620002DE9F84F05460C464FF0240909FB021915
:10363000DFF868A1DFF868B14E1C4FF000084C4578
:1036400000F09A8094F823301A0624D5B5B12A7870
:1036500061788A4205D16F7816F8010C874200F034
:103660008D80E87850B16878884207D116F8011C3F
:10367000914203D1A979A27991427FD094F8222076
:10368000218C03F07F0342EA0323994271DB204639
:10369000FFF7D2FE72E06278002A6AD06DB3297912
:1036A00001F0C001C02917D116F8010C69788842D1
:1036B00002D12878904261D0E778A87887420CD16F
:1036C00091420AD116F8010C2978884205D1A079D7
:1036D000A979884201D151E079B1A878E17888428E
:1036E0000BD16978914208D116F8010C29788842EB
:1036F00003D1A079A979884246D094F82210208C71
:1037000003F07F0341EA0323984232DB237984F8F4
:103710002080C3F3C201CFB284F821801FB12046BC
:10372000FFF7A8FE25E003F0C003C02B19D016F860
:10373000010C9AF80030984213D1E3789A4210D0E5
:103740007BB16379032262F307136371E170204652
:10375000FFF790FE23799BF8002062F3C5032371E5
:1037600000E001276078FFF79FFE08B1C0F80080F5
:1037700027B92434243662E7BDE8F88F24220021DB
:1037800020460AF066F9F4E7237984F820806FF385
:10379000C50384F821802371EBE700BF89C00720AF
:1037A00088C00720431EDBB2FD2B9DBF024B187063
:1037B00001200020704700BF89C00720014B187806
:1037C000704700BF89C0072007289CBF014B1870B5
:1037D000704700BF88C007202DE9F7430446914693
:1037E0001E469DF828500F46002966D0364B93F8A8
:1037F0000080414563D00F2E61D8002861D020227F
:1038000000210AF026F9FF2F237914BF09F00302E3
:10381000002262F38713032262F302032B4A6770CC
:10382000127884F8008062F3C503294A2371137863
:1038300084F802800133DBB21370A3710BAB0193E8
:1038400015B94FF001081BE004F10809019AE0796D
:103850001346526853F8081B00EB02085FFA88F819
:10386000013DB8F1180F0193EDB207D848440AF0B2
:10387000CAF884F80780002DE8D1E2E74FF000088D
:10388000DFF850900123384689F80030FFF70CFE2E
:103890000546FFF71BFE002389F80030637925B940
:1038A00066F307136371E57005E0AA7862F3071306
:1038B00063716B78E370404603E0084601E0002046
:1038C000FFE703B0BDE8F08389C0072088C0072068
:1038D000D0D40720DDD40720124B012270B51A7016
:1038E00004461E4608B9002518E0FFF7A5FD054669
:1038F0000028F8D0237903F0C003402B06D0C02B5A
:103900000AD1E37853B162789A4207D061792046B0
:103910000909FFF711FE01E0802BF7D00023337077
:10392000284670BDDDD4072082B02DE9F0439146D2
:10393000421ED2B28DB0FD2A05460E4615939DF863
:10394000688001D9002057E0002BFBD0179F002F83
:10395000F8D0199B002BF5D0189B002BF2D0169BAA
:10396000002BEFD04822002126480AF072F890225E
:10397000002125480AF06DF81022002123480AF0A2
:1039800068F8234B00241C605C609C60214B1C6029
:103990005C609C60204B1D70204B214D1E7015AE4D
:1039A0000FCE0FC53368182221461E482B600AF03F
:1039B00050F8494617221B480BF0D2FD21462046FD
:1039C000B8470028BED0B8F1000F02D1FFF70EFDB6
:1039D00012E006230293144B224601930123009325
:1039E000FF2104A8FFF7F8FE0028ABD004A8FFF7DA
:1039F00073FF0028A6D0E9E70DB0BDE8F04302B0A0
:103A0000704700BF19D5072040D40720EBD407200A
:103A1000DFD40720D1D4072089C00720DED40720B7
:103A20002CD4072000D50720FC5A020030B5182BF3
:103A30008DB016D8B2FA82F41D1C18BF0125640996
:103A4000AC420ED00293019200950A469DF8403098
:103A5000014604A8FFF7C0FE18B104A8FFF73CFF19
:103A600000E000200DB030BD13B5537914781B0968
:103A7000009302460B4620460321FFF7D7FF02B012
:103A800010BDFFFF00231A4630B5084C14F8235030
:103A9000990035B1904202D10448084430BD01324A
:103AA000D2B20133042BF1D1002030BDEBD407207A
:103AB00000231846044A12F8231009B10130C0B29D
:103AC0000133042BF7D17047EBD407202DE9F041E7
:103AD00088B020220021684609F0BBFFA14B1B786B
:103AE00003F0FF04002B40F039819F4F20213B69F8
:103AF00068469847002800F084809C4D6B8801330D
:103B00006B80FFF7D5FF9DF80420A87202F0070331
:103B1000032B04D0964A137843F0010309E0954B38
:103B20001D789DF80230AB4205D1914A137843F0DD
:103B300002031370E4E0C2F3C2029DF800E09DF8B6
:103B400006008D49D6B204EB440313F801C0F445D6
:103B50000BD10B4493F801C0844506D19978012418
:103B60008E1B18BF01269A7018E00134042CEAD18C
:103B700082490B689A70804A587002F109008342AA
:103B800083F800E040F0C9800A609DF800009DF8CD
:103B90000230834240F0C480002426469DF8020093
:103BA000FFF712FD9DF8022002709DF8022042707E
:103BB00000228270FFF78AFC04B116B39DF8003032
:103BC000AB4200F09C809DF80160FF2E1BD13B684A
:103BD00020216846984720B9654A137843F00403CA
:103BE00013709DF8053003F00F02511C61F30303BD
:103BF0008DF80530C3F303139A4202DA6846FFF7E3
:103C00001BFC00247CE0B5422BD164B99DF8073041
:103C10004BB13B6820216846984720B9544A137835
:103C200043F0040313709DF8043003F0C003402BED
:103C300012D19DF807306A4613B91821504808E0A0
:103C40000C214A48FFF710FF002858D100216A468E
:103C50000846FFF709FF52E09DF80330002B4ED1D4
:103C6000F4E7484B1B78002BCBD09DF8054004F0BF
:103C70000F074FEA14184745C3DA013767F3030407
:103C80003046FFF711FC8DF805409DF80340A54232
:103C900021D19DF8041001F0C001402906D0A1F106
:103CA00080035A425A41144610B90CE0012260B117
:103CB000C029437805D19E4203D0003318BF0123A9
:103CC00004E0002302E0C0290ED10346134303F0B1
:103CD000010420B908E094B908B941460CE04378E2
:103CE0008DF80330857802E000258DF80350684692
:103CF000FFF7A2FB1CB129466846FFF71DFC6C4686
:103D0000FFF774FB204604221F49FFF789FC0222BB
:103D10001E492046FFF784FC20E003330B6034E7A4
:103D200085423FF439AFFFF74FFC0446FFF7CEFB67
:103D300023783BB19DF80530A27803F00F0393423E
:103D40003FF72AAF9DF8003023709DF80230637072
:103D50009DF80530C3F30303A3701DE708B0BDE869
:103D6000F08100BFDDD407202CD40720D1D4072058
:103D700018D5072089C00720DFD4072084C007207A
:103D800000D50720DED4072040D4072019D507200E
:103D900000231846094AD118497809B10130C0B248
:103DA0002433902BF7D1064B5A780AB10130C0B2B8
:103DB00093F825300BB10130C0B2704740D40720D2
:103DC00019D5072008B5FFF76FFB064B28B182789D
:103DD000187802FB0000C00008BD1878182358436B
:103DE00008BD00BF88C0072003490B6803604B680B
:103DF00043608B6883607047D1D4072070B53E4C18
:103E00004FF48035E5613D4CA0602046C5683B4CD1
:103E1000ED06FBD4A0680D46C0B20BB923465FE0A7
:103E20002346002A63D0072A0E782DDD9E604E7847
:103E3000083A9E608E789E60CE789E600E799E6075
:103E40004E799E608E799E6001F10806C97999606D
:103E500099694907FCD5A1682970A1686970A168B2
:103E6000A970A168E970D968C906FCD4A1680835B1
:103E700005F8041CA16805F8031CA16805F8021CDC
:103E8000A16805F8011C1AE0032A1ADD9E604E782D
:103E9000043A9E608E789E600E1DC9789960D9683C
:103EA000C906FCD4A168043505F8041CA16805F80E
:103EB000031CA16805F8021CA16805F8011C314625
:103EC000AFE701319E60013ADE68F606FCD4A668D1
:103ED000013505F8016CA4E7E668F606FCD4A6688F
:103EE0006E1AB24203DD15F8016B9E60F4E7024BD7
:103EF0004FF480329A6170BD00C0092000800840F4
:103F000007B5002302A901F8013D01231A4600F07C
:103F10001F00FFF773FF9DF8070003B05DF804FB77
:103F200013B502AC04F8011D00F01F0000230122AC
:103F3000214640F02000FFF761FF02B010BD08B538
:103F40001720FFF7DDFFC0F3001008BD7021072028
:103F5000FFF7E6BF0A4600230146A020FFF74EBF49
:103F600008B50020FFF7CCFFBDE8084000F0FE01D7
:103F70000020FFF7D5BFFFFF024B4FF08072DA61E0
:103F8000704700BF20C0092008B50020FFF7B8FF28
:103F900040F00101C9B20020FFF7C2FF024B4FF011
:103FA00080729A6108BD00BF20C00920202107202F
:103FB000FFF7B6BF00231A461946E120FFF71EBFE0
:103FC00037B504460D46FFF7F5FF20462946FFF7B3
:103FD000C1FF0D4B4FF080721C469A610022ADF874
:103FE0000620BDF8063001339BB2ADF8063033B978
:103FF0004FF08073E361FFF7DDFF03B030BDFFF7E3
:104000009EFF0028EDD0F3E720C0092008B5172057
:10401000FFF776FF00F0010080F0010008BD4021AD
:104020000720FFF77DBF08B50A460123014661203E
:10403000FFF7E4FEC0F3420008BD00231A4619460C
:10404000E220FFF7DBBE70B5064600200D461446A1
:10405000FFF756FF16B100F0BF0002E040F040004D
:10406000C0B215B100F0DF0101E040F0200114B151
:1040700001F0EF0101E041F010010020BDE87040C7
:10408000FFF74EBF10B504460020FFF739FF14B903
:1040900000F0F7010DE0012C04D100F0FB0141F02C
:1040A000080106E0022C14BF40F0080140F00C01AA
:1040B000C9B20020BDE81040FFF732BF08B50020AC
:1040C000FFF71EFFBDE8084040F00201C9B2002022
:1040D000FFF726BF08B50020FFF712FFBDE8084034
:1040E00000F0FD010020FFF71BBF40F6DD139842F2
:1040F00006D840F66213B0F5166F38BF184600E0D8
:104100001846A0F51661C9B20520FFF709BF10B522
:1041100004460620FFF7F4FEFA2C00F0D70102D186
:1041200041F0200104E0B4F5FA6F08BF41F0080146
:104130000620BDE81040FFF7F3BE10B50446062088
:10414000FFF7DEFE032C28BF032420F0060040EA20
:104150004401C9B20620BDE81040FFF7E1BEF928CE
:104160004FF0FA0305D9B0F57A6F88BF4FF47A6043
:1041700000E01846B0FBF3F00F2900F1FF30C0B2A9
:1041800028BF0F2141EA0011C9B20420FFF7C8BEC1
:104190001130C0B2162804D8202928BF2021FFF7EB
:1041A000BFBE7047032804D0042814BF0321022196
:1041B00000E001210320FFF7B3BE0A4600230146B9
:1041C0003020FFF71BBE0A46002301462A20FFF7D6
:1041D00015BEFFFF73B50E4615460446FFF72DFFCB
:1041E000FFF7E8FE2B4B4FF08072DA61FFF772FFAA
:1041F000002211460120FFF726FFFFF7A7FE02204D
:10420000FFF740FF3046FFF770FF2846FFF77FFFBC
:104210000320FFF792FF03210220FFF781FE002118
:104220000120FFF77DFE03214FF4FA70FFF797FF9F
:1042300021460020FFF7ACFF00211220FFF770FE9F
:1042400000211320FFF76CFE00211420FFF768FE09
:1042500000211520FFF764FE00211620FFF760FE05
:104260000D4B18681B79009005208DF80430FFF77E
:1042700099FF68460521FFF7A0FF05216846FFF773
:10428000A2FFFFF71BFF4FF4FA6004F0FDFB02B042
:1042900070BD00BF20C00920035B020070B5174E3F
:1042A000326822B92021032005F0ACFF3060144DA4
:1042B0002A6822B92021012005F0A4FF2860114CB2
:1042C000216821B90322012005F09CFF20604FF4F2
:1042D000FA6240F6C3112020FFF77CFFFFF754FE7F
:1042E0001620094A012104F011FF306828B128681E
:1042F00018B12068003018BF012070BD68D50720B4
:1043000064D507206CD50720B543010070B503794B
:10431000014603F0C003C02B0CBF0E4B0E4B88B000
:104320001D68002306461A46284605F08DFF044600
:1043300060B9034602466946284606F08BF82346D4
:1043400022463146284605F07FFF0446204608B045
:1043500070BD00BF64D5072068D5072038B5044676
:104360000D46FFF72BFA237883420AD0E37843B94E
:104370000AF0ACFDBD2300F0030000FB033004F0A5
:1043800083FBFFF7F9FDFFF7EBFDA9B22046FFF72E
:1043900017FEFFF70BFEFFF7F7FD06F05FFE0228A2
:1043A00004D1034B0021186806F022F8012038BD23
:1043B0006CD5072007B5002302A941F8043D084B3E
:1043C000186806F015F8019B3BB1064B4FF0805280
:1043D0001A60BFF34F8FBFF36F8F03B05DF804FB1C
:1043E0006CD5072004ED00E038B504460D46FFF714
:1043F0000DFE48B1A9B22046FFF715FEFFF706FEF5
:1044000008B9FFF70CFE012038BD2DE970430546C1
:104410000E46144606F022FE022807D1224600234B
:104420003146284606F016F8C4B21DE007F0C8F978
:104430004FF47A72002308F0DBFE10EB040841F120
:10444000000900231A463146284606F003F8C4B294
:1044500054B907F0B5F94FF47A72002308F0C8FE9A
:10446000894508BF8045ECD22046BDE87083042909
:1044700038B5054603D1041C18BF012400E0002410
:1044800007F09EF92CB14FF47A72002308F0B0FEC9
:104490002860204638BDFFFF00B50C4B8DB0099356
:1044A0000B4B0C4A0B930C4B0A930CAB43F8102D9F
:1044B000002204920FCB8DE80F00084B084A01211F
:1044C0006A20FFF731FA0DB05DF804FB9D42010050
:1044D000E94301006F4401005D4301000D43010009
:1044E000085B0200024B0A4601461868FFF78DBFC1
:1044F00068D50720024B0A4601461868FFF785BFBA
:1045000064D5072008B506F0A9FD0F4B02285B69AA
:1045100013D15A020DD5FFF73BFC00280B484FF092
:10452000000314BF01224FF0FF321946006805F066
:1045300091FFBDE80840FFF7C9BA5B02F9D5FFF764
:1045400027FC0028F5D108BD00C009206CD5072044
:1045500013460A460179006805F087BA1FB50022A4
:1045600004AB047923F8042D0222009200680A4665
:10457000214605F065FA9DF80C009DF80D3043EAE0
:10458000002004B010BD10B5044619222A21FFF7FF
:10459000DFFF0D222179206805F056FAA0F12A03E9
:1045A0005842584110BDFFFF044A13881F2B9FBF7C
:1045B000581C1080024A42F82310704774D5072017
:1045C00078D50720154AF0B513881646012B21D956
:1045D000134A00201546013B984206DA51681468D8
:1045E0000130091B42F8041BF6E700210C466A68FB
:1045F0004FF0010E02EB52008AB2934208DD55F8EB
:1046000022700131B8423CBF0EFA02F21443F3E7C4
:10461000044B1C6000233380F0BD00BF74D507201D
:1046200078D5072070D5072008B50121022007F0B2
:1046300061F8084B01209A6A22F007029A629A6A8E
:1046400042F006029A62044AD36843F03003D36012
:1046500008BD00BF0080004000C0024008B5044B08
:10466000417101F07F015A5C0321FFF771FF08BD22
:104670000D5B020008B5044B817101F07F015A5CAB
:104680000221FFF765FF08BD0D5B020038B5044647
:104690000179006805F0F4F9054688B10022062189
:1046A0002046FFF755FF002207212046FFF750FF65
:1046B0002E212046FFF7D2FF2E212046FFF7DAFFFA
:1046C000284638BD642370B5B1FBF3F404FB131125
:1046D000CCB20A21B4FBF1F501FB15413031C9B26E
:1046E0000646FFF7C7FF092C88BF05F130013046A9
:1046F000BDE8704094BF2021C9B2FFF7AFBF0120D1
:104700007047FFFF38B50D46044606F0DDFD05F0A5
:104710000F032370114B15F0010F4FF0010214BF6E
:10472000DA619A61227812F0020F4FF0020214BF90
:10473000DA619A61227812F0040F4FF0100214BF70
:10474000DA619A61227812F0080F4FF4807214BF78
:10475000DA619A61BDE8384006F0C6BD20C0092084
:1047600001207047022004F025BA01207047FFFFA6
:10477000044B5B69180B00F00C00C3F34123184392
:10478000704700BF20C009200139032908B505D8AA
:10479000FFF7EEFF084100F0010008BD002008BD52
:1047A00010B5044681220121FFF7D2FE01222179B2
:1047B000206805F049F910F0600F14BF01200020B7
:1047C00010BD38B500210446FFF7C8FE812205B2AE
:1047D00001212046FFF7BCFE102095FBF0F008F009
:1047E000A7FA4FF0765108F0F7FAA16808F0ECF953
:1047F00038BDFFFF08B5FFF7E4FF054908F0ECFA04
:10480000044908F09DFB4FF0844108F0DDF908BD34
:10481000000010410000A0402DE9F04FADF2546DB2
:104820000C4690460146012282A8994602F03EF8C5
:10483000002867D121460A220DF22C4002F036F8FA
:10484000044620B182A802F09AFA20465AE06D464A
:10485000064607462860019006F0B2FF4FF47A72D0
:10486000002308F0C5FC2B4683464FF4007202A9D2
:1048700082A802F0B5F88246E0B92A68D2B106F003
:104880009FFF4FF47A72002308F0B2FCB0EB0B00EC
:10489000074406F095FF4FF47A72002308F0A8FC55
:1048A00001AB83462A6802A90DF22C4002F050F9B0
:1048B0008246B0B1B8F1000F01D0C8F80070B9F16C
:1048C000000F01D0C9F80060DDF8783603B11C6034
:1048D00082A802F054FA0DF22C4002F050FA504631
:1048E00010E001992A689142E4D106F069FF0023A3
:1048F0004FF47A7208F07CFC2B68B0EB0B00064496
:104900001C44A9E70DF2546DBDE8F08FF0B5ADF58C
:104910000B7D0E46174601461D460122002301A8C5
:10492000009301F0C3FF044670B91DB1294601A8E8
:1049300002F037FA6B463A46314601A802F050F8C9
:10494000044601A802F01BFA20460DF50B7DF0BDD0
:10495000F0B5ADF50B7D0E46174601461D460A2201
:10496000002301A8009301F0A1FF044670B91DB116
:10497000294601A802F015FA6B463A46314601A8CD
:1049800002F0E6F8044601A802F0F9F920460DF518
:104990000B7DF0BDF0B5ADF50B7D0E46174601461B
:1049A0001D461222002301A8009301F07FFF044658
:1049B00080B90DB1294600E0049901A802F0F1F98F
:1049C0006B463A46314601A802F0C2F8044601A8F7
:1049D00002F0D5F920460DF50B7DF0BD7F2810B50E
:1049E00016D931B1FF2812D80A4B803833F810009D
:1049F00010BD084A32F811408BB2844203D0013115
:104A00008029F7D10B4603F18000C0B210BD002011
:104A100010BD00BF8E5B02000649002331F8132051
:104A200032B1824201D00133F8E7034A32F8130071
:104A3000704700BF8E5C02006E5E020010B5012060
:104A40000C4605F085FC2060003018BF012010BD29
:104A50000120704710B5044606F000FB02280AD179
:104A6000002319464FF0FF32204605F0F3FC431EA9
:104A70005842584110BD012010BD10B5044606F043
:104A8000EDFA022807D100232046BDE810401A465F
:104A9000194605F0D9BB10BD10B5044604F0B8FDA9
:104AA00024B1012C06D100F081F901E000F002FDF3
:104AB000044600E0042404F0C3FD204610BD28B1E4
:104AC000012801D00420704700F028BA7047F8B5DB
:104AD00007460C4615461E4604F09AFD3FB1012FCD
:104AE0000CD132462946204600F020FA04E0324636
:104AF0002946204600F02AFD044600E0042404F084
:104B00009FFD2046F8BDF8B507460C4615461E46E3
:104B100004F07EFD3FB1012F0CD1324629462046DC
:104B200000F050FA04E032462946204600F030FDFD
:104B3000044600E0042404F083FD2046F8BD70B56F
:104B400006460C46154604F063FD36B1012E0AD127
:104B50002946204600F090FA03E02946204600F05E
:104B600037FD044600E0042404F06AFD204670BDD1
:104B700008B506F025FE4FF47A72002308F038FBE2
:104B800008BDFFFF10B5044606F094FF074BB0FBCD
:104B9000F3F00223B0FBF3F2944202D3044A136110
:104BA00010BDB3F5807FF9D00233F3E740420F0028
:104BB00000000340044B9860DA68D206FCD4024B34
:104BC0009868C0B2704700BF0000034070B5FFF79F
:104BD000CFFF00F5FA74FF20FFF7ECFF0025FF2060
:104BE000FFF7E8FFFF28064605D0FFF7C1FFA942FF
:104BF00008BFA042F3D3304670BDFFFF38B5064C66
:104C00004FF00075E561FFF7E1FF044AA5611378F5
:104C100043F00103137038BD20C009208AC007206B
:104C20002DE9704306460D46FFF7A2FF643080462B
:104C30004FF00009FF20FFF7BDFFFF2808D1FFF765
:104C400097FF494508BF4045F4D30020BDE8708375
:104C5000FE28FAD1102D06D900224FF400713046FB
:104C600004F074FC19E0341D0435FF20FFF7A2FFA7
:104C700004F8040CFF20FFF79DFF04F8030CFF204D
:104C8000FFF798FF04F8020CFF20FFF793FF0434AE
:104C900004F8050C2B1BDE42E7D1FF20FFF78AFF4B
:104CA000FF20FFF787FF0120BDE8708370B506463F
:104CB0000D46FFF78BFFFF28044619D12846FFF762
:104CC00079FFFD2D16D022464FF40071304604F0D6
:104CD0003DFC2046FFF76EFF2046FFF76BFF2046A6
:104CE000FFF768FF00F01F00431F5842584170BD96
:104CF000002070BD012070BD020638B504460D4687
:104D000007D500217720FFF7F7FF012838D804F0F6
:104D10007F041C4B4FF000729A61DA61FFF756FF77
:104D2000FF28014628D12046FFF744FF280EFFF751
:104D300041FFC5F30740FFF73DFFC5F30720FFF72D
:104D400039FFE8B2FFF736FF402C17D0482C14BFCC
:104D500001208720FFF72EFF4C2C02D10846FFF7D9
:104D600029FF0A21FF20FFF725FF030608D5013997
:104D700011F0FF01F6D138BDFF2038BD9520EEE7D8
:104D800038BD00BF20C00920064A07491378496989
:104D9000DBB2490154BF03F0FD0343F0030313707A
:104DA000704700BF8AC0072020C009202DE9F743C3
:104DB000FFF7EAFF564B1A781E4612F0020F01D099
:104DC0001878A1E00120FFF7DDFE0A24FF20013C56
:104DD000FFF7F0FE14F0FF04F8D14E4F4FF00073D0
:104DE000FB6121464020FFF787FF012802D04FF0EA
:104DF000000875E0FFF7BCFE4FF4D57100F57A7539
:104E00004820FFF779FF012841D10DF10408FF2068
:104E1000FFF7D0FE08F804000134042CF7D19DF808
:104E20000630012BE3D19DF80730AA2BDFD12C46A9
:104E30000025FFF79DFEA94208BFA04206D3FFF759
:104E400097FEA94208BFA042D1D207E04FF08041AF
:104E5000E920FFF751FF0028EBD1F0E700217A208D
:104E6000FFF74AFF0028C2D10146FF20FFF7A2FE4C
:104E700008F8010001310429F7D19DF8043013F03E
:104E8000400F14BF4FF00C084FF0040828E02146F3
:104E9000E920FFF731FF02282C4635BF4FF002080A
:104EA0004FF001084FF0E9094FF041090025FFF7E5
:104EB0005FFEA94208BFA0420BD3FFF759FEA942EB
:104EC00008BFA0420CD34FF400715020FFF714FF2D
:104ED00006E000214846FFF70FFF0028E7D1ECE786
:104EE0000D4B83F800804FF00073BB61B8F1000FE9
:104EF00007D03378182003F0FE033370FFF742FE2B
:104F000001E0FFF77BFE3078C0B203B0BDE8F0836C
:104F10008AC0072020C00920F8D5072008B5FFF770
:104F200033FF014B187808BD8AC0072070B51446BE
:104F300006460846FFF728FF002C39D01E4B1B7889
:104F4000DB0737D41D4B4FF00072DA611C4A1D4657
:104F5000127812F0080F08BF4002012C01460CD154
:104F60005120FFF7C9FEE0B94FF400713046FFF75A
:104F700057FEB0FA80F4640913E05220FFF7BCFE3C
:104F800078B94FF400713046FFF74AFE28B1013C72
:104F900014F0FF0406F50076F3D100214C20FFF752
:104FA000ABFE4FF00073201CAB6118BF012070BD39
:104FB000042070BD032070BD8AC0072020C00920D6
:104FC000F8D50720F8B5144606460F46FFF7DCFE75
:104FD000002C44D0254B1A78D20742D41B785B07AB
:104FE00041D4234B4FF00072DA61224A1D461278F9
:104FF00012F0080F08BF7F02012C0CD1394658204F
:10500000FFF77AFE18BBFE213046FFF74FFEB0FADD
:1050100080F464091CE012F0060F03D02146D7206B
:10502000FFF76AFE39465920FFF766FE80B9FC217A
:105030003046FFF73BFE28B1013C14F0FF0406F5B3
:105040000076F4D1FD210020FFF730FE00B90124E5
:105050004FF00073201CAB6118BF0120F8BD042085
:10506000F8BD0320F8BD0220F8BD00BF8AC00720AC
:1050700020C00920F8D507207FB50D46FFF784FE34
:1050800005281AD12B78012B00F0048103D3022BC1
:105090000BD0042001E1824B586910F0806440F08D
:1050A000F980FFF7ABFD2046F7E07D4B5B6983F0AD
:1050B0008063C3F380636B70ECE07A4B1B78DB0793
:1050C00000F1EA800E2800F2DF80DFE800F008122D
:1050D0004F53DDDDDDDDDDDDAAAFB2BBCB00704BB4
:1050E0004FF00072DA61FFF771FDFF3818BF012041
:1050F000CBE000214920FFF7FFFD044608B1012065
:10510000C3E010216846FFF78BFD0028F7D09DF81B
:1051100000309DF808109B09012B9DF8093006D13D
:10512000013303EB012189B2890229606BE09DF80C
:1051300007209DF80500920002EB91119DF80620D2
:105140000131920202F4406211449DF80A2000F0FD
:105150000F0000EBD2105A00023002F00602831852
:10516000DBB289B2093B01FA03F34BE04FF4007361
:105170002B8059E04C4E337803F0040303F0FF0119
:10518000F3B10021CD20FFF7B7FD0028B7D1FF20F4
:10519000FFF710FD10216846FFF742FD0028AED052
:1051A0003021FF20FFF706FD481E10F0FF01F8D167
:1051B0009DF80A3008461A09102393402B6064E0DA
:1051C0004920FFF799FD0446002898D11021684630
:1051D000FFF726FD002892D036789DF80A2006F0C9
:1051E000020606F0FF009DF80B3076B1520002F087
:1051F0007E0202EBD3135A1C9DF80D309B09013B34
:1052000002FA03F32B6020463FE0D90001F01801B9
:10521000C2F3840201EB5311531C01FB03332B60D7
:1052200033E0214B1B782B7000202EE00021492019
:1052300001E000214A20FFF75FFD00287FF45FAF07
:1052400010211AE000217A20FFF756FD00287FF494
:1052500056AF291DFF20FFF7ADFC05F8010B8D426D
:10526000F8D1E1E70021CD20FFF746FD00287FF4CB
:1052700046AFFF20FFF79EFC40212846FFF7D0FCF9
:10528000B0FA80F0400900E00420054B4FF00072B6
:105290009A6102E0002000E0032004B070BD00BF6E
:1052A00020C009208AC00720F8D50720054B1B78AD
:1052B000253BDBB2032B9ABF034A52F823000020A0
:1052C000704700BFFCD50720586002001B4B2DE93A
:1052D000F0411D880646B5F5007F0F46144602D101
:1052E0002A46214613E0B5F5807F09D12A4621469A
:1052F0003846B0472A4604F5807107F5807016E0FD
:10530000B5F5047F05D1510A89024FF40072384681
:105310000DE0B5F5847F0ED1140A61024FF480725E
:105320003846B047611C4FF480724902B8183346C2
:10533000BDE8F0411847BDE8F08100BFFAD507206D
:1053400030B52F4C03462546002958DD07291A7829
:105350002DDDA2605A780839A2609A78A260DA78C6
:10536000A2601A79A2605A79A2609A79A26003F1C8
:105370000802DB79A360A3695B07FCD5AB68037007
:10538000AB684370AB688370AB68C370E368DB06DF
:10539000FCD4AB68083000F8043CAB6800F8033C70
:1053A000AB6800F8023CAB6800F8013C1AE0032946
:1053B0001ADDA2605A780439A2609A78A2601A1D98
:1053C000DB78A360E368DB06FCD4AB68043000F84C
:1053D000043CAB6800F8033CAB6800F8023CAB68E7
:1053E00000F8013C1346AFE70133A2600139E268DF
:1053F000D206FCD4AA68013000F8012CA4E730BD25
:105400000000034007B50B0C8DF805308DF8071030
:105410000B0A04218DF804000DEB01008DF8063015
:10542000FFF78EFF03B05DF804FBFFFFF7B51746EB
:1054300006460E4C40250323E5618DF804300B0C25
:105440008DF805308DF807100B0A04210DEB0100D3
:105450008DF80630FFF774FF00223946304604F01D
:1054600075F8A561A561A56103B0F0BD00C0092074
:105470000E4B4022DA610E4BD7229A601A46D16851
:105480000B4BC906FBD49A681A46FF219960D06875
:10549000C006FCD4906810F0800FF7D0034B402278
:1054A0009A61C0B29A619A61704700BF00C009203A
:1054B00000000340F7B5FFF7DBFF1F4C00232380FC
:1054C0001E4B1F4E40271A889B78F7610321054623
:1054D00001A8ADF804208DF80630FFF731FF9DF8E4
:1054E00005209DF806301F2AB7612146B761B761D4
:1054F0001CD1A3F12502032A18D8124A252B1370B8
:1055000005F0010006D1002814BF4FF480734FF45A
:10551000847305E0002814BF4FF400734FF4047344
:105520000B80FFF7C3FE084B400A18600888B0FAEA
:1055300080F0400903B0F0BDFAD507204E600200AC
:1055400000C00920FCD5072000D60720F8B58B182D
:1055500017460D4A013B12680446934210D84D028B
:10556000FFF786FF00262D1BBE4204EB050209DA79
:1055700021460648FFF7AAFE04F500740136F3E75A
:105580000120F8BD0020F8BD00D607202D540100F1
:10559000F8B58B1817460C4A013B126893420FD896
:1055A00004460026C0EB4125BE4204EB050209DAA1
:1055B00021460648FFF78AFE04F500740136F3E73A
:1055C0000120F8BD0020F8BD00D60720B15601002B
:1055D00008B5072805D8DFE800F006090E121414F4
:1055E0001414042008BDFFF743FF0AE0FFF75EFE36
:1055F000400A086005E04FF400730B8001E00123CE
:105600000B60002008BDFFFF70B590B003466A46EE
:105610006E4600F14005144618685968083303C403
:10562000AB422246F7D1084D4024EC6100219B207B
:10563000FFF7E8FE21463046FFF782FEAC61AC6121
:10564000AC6110B070BD00BF00C0092070B5064647
:10565000074D402400217720EC61FFF7D3FE21465F
:105660003046FFF76DFEAC61AC61AC6170BD00BF50
:1056700000C0092008B5064B198831F01F0104D07D
:10568000FFF714FEB0FBF1F008BD084608BD00BFEF
:10569000FAD50720014B1888704700BFFAD50720BC
:1056A000024B1878003018BF01207047FAD5072048
:1056B0002DE9F7434FF0FF330F46914601938046A3
:1056C000FFF7D6FEFFF7ECFF0646B8B1194C4025B0
:1056D000194BE5611B880320B3F5847F0CBF4FF4A1
:1056E00080714FF400713943FFF78CFE04210DEBFC
:1056F0000100FFF725FEA561A561A5610D4C4023C2
:1057000039468220E361FFF77DFE0122494640468B
:1057100003F01CFF3EB1019B02A8013340F8043D99
:105720000421FFF70DFE4023A361A361A36103B031
:10573000BDE8F08300C00920FAD50720124B37B529
:105740001B88B3F5847F0CBF4FF480714FF4007158
:105750004FF0FF3341EA40210193FFF7A1FF68B109
:105760000A4C40250320E561FFF74CFE04210DEBB8
:105770000100FFF7E5FDA561A561A5610198431C46
:1057800008BF002003B030BDFAD5072000C00920B3
:1057900037B5084B084C1868402504210190E56195
:1057A0000DEB0100FFF7CCFDA561A561A56103B07C
:1057B00030BD00BF5160020000C009201FB501A824
:1057C00003F0E8FD9DF808309DF8092003F01F0361
:1057D00002F00F021B0443EA42519DF806309DF887
:1057E000040003F01F0341EAC3229DF80530C0F313
:1057F000440003F03F0342EA4313BDF80A20184374
:10580000520602F10842104305B05DF804FB30B5C2
:1058100004460D1F131B0344032B04D955F8043F02
:1058200044F8043BF6E79408A3001944A2EB840271
:10583000013B18440A44914204D011F8013B00F89E
:10584000013FF8E730BD0244904202D000F8011B4E
:10585000FAE7704700F10B010023DA0142EA530333
:1058600010F8012B1344884203F0FF03F5D11846CA
:105870007047036810B50446B3B119460A4611F8DB
:10588000010B1F2802D93A28F8D101E0002010BDF1
:10589000591C8A4208D11B78303BD9B2012903D860
:1058A00001321846226010BD4FF0FF3010BD036971
:1058B0002DE9F04101F109020D4663B3416900246D
:1058C0004E1E2E2716F8013F0134202B19D0052B30
:1058D00048D0092C01D117700132A3F1410EBEF15D
:1058E000190F0CD8082C91F80CE08CBF4FF0100C5D
:1058F0004FF0080C1CEA0E0F1CBF2033DBB21370F4
:1059000001320B2CDED1CB7A2B72CB692B600B8B47
:10591000AB80CB8AEB8000241470AE693EB3036980
:105920000BB900241AE0EB69002BFAD04FF6FF7395
:10593000028C9A42F5D0D0F81C80771E38F81400FB
:1059400060B10021FFF74AF80028EAD0EB69013B7B
:105950009C42E6D2013407F8010FEFE700233355EC
:10596000BDE8F081092C4FF0E503C8D1B3E7BDE8ED
:10597000F081F8B5056B00F13407044601232A468F
:1059800039464078FFF7BFF8A0B9636AE269EB1ABD
:105990009342207101D30020F8BDE678012EFAD998
:1059A000E36939461D442A4601236078FFF7ABF8C6
:1059B000013EF3E70120F8BD03790BB1FFF7D9BF32
:1059C0001846704770B50446FFF7F6FF054680BBE2
:1059D0002378032B25D16379012B22D104F13406DE
:1059E00001464FF400723046FFF72DFF4AF655226C
:1059F000A4F832220F4A3146626302F1FF5202F5E7
:105A000000522032C4F8182262696078C4F81C225F
:105A10002269C4F82022226A01322263FFF773F858
:105A20006571002211466078FFF789F8003018BFD1
:105A3000012070BD52526141036B70B58B42054627
:105A40000E4610D0FFF7B8FF044608B101240BE062
:105A50000123324605F134016878FFF738F8002851
:105A6000F4D12E6300E00024204670BD002310B561
:105A700003714FF0FF3303630446FFF7DDFFA0B966
:105A80004AF65523B4F832229A4210D1D4F86A303B
:105A9000084A23F07F4393420AD0D4F8860020F0CE
:105AA0007F40801A18BF012010BD032010BD0220C6
:105AB00010BD00BF464154002DE9FF4100230360A3
:105AC000074608461546FFF7D4FE061EC0F2FA80C8
:105AD000854B53F82640002C00F0F680E068FEF776
