:020000021000EC
:10000000E03F082095010100FB000100E100010034
:10001000090101001901010029010100000000008F
:10002000000000000000000000000000A1B8010076
:10003000390101000000000001B90100590101006F
:10004000E1BE0100E1BE0100E1BE0100E1BE010030
:10005000E1BE0100E1BE0100E1BE0100E1BE010020
:10006000E1BE0100E1BE0100E1BE0100E1BE010010
:10007000E1BE0100E1BE0100E1BE0100E1BE010000
:10008000E1BE0100E1BE0100E1BE0100E1BE0100F0
:10009000E1BE0100E1BE0100E1BE0100E1BE0100E0
:1000A000E1BE0100E1BE0100E1BE0100E1BE0100D0
:1000B000E1BE0100E1BE0100E1BE0100E1BE0100C0
:1000C000E1BE0100E1BE0100E1BE010034730200A7
:1000D00000C00720F4020000F8C20720E804000076
:1000E00004207146084203D0EFF309800BF016BFDD
:1000F000EFF308800BF012BF704708B5014808F015
:100100006DFAFEE7E66C020008B5024808F066FAF0
:10011000FEE700BFF16C020008B5024808F05EFA85
:10012000FEE700BFFC6C020008B5024808F056FA72
:10013000FEE700BF076D020008B5024808F04EFA5E
:10014000FEE700BF146D020008B5024808F046FA49
:10015000FEE700BF226D020008B50BF059FB0BF063
:10016000F1FBBDE808400BF067BB0B4610B5401A29
:100170005C1AA24203D9C45843F8044BF8E710BDF7
:10018000034610B500221C1AA14202D943F8042BE1
:10019000F9E710BD16480BF077FC15480BF077FC1B
:1001A000144C154DAC4201D3144D07E094E8030004
:1001B0000C3454F8042CFFF7D8FFF3E7AC4206D216
:1001C00054F8080B54F8041CFFF7DAFFF6E70DF0BB
:1001D00097FD0BF073FC02F0C5FA03F0D9FA4FF467
:1001E00016400BF0B9FF064808F0F8F9FEE700BF2B
:1001F000E03F0820CC000100D8000100E000010031
:10020000366D02000BF060BB0BF06EBB144B10B5EB
:100210001A68014612B94FF080521A60114C1868E2
:100220002468421894421A6007D20F4CA24204D8A4
:100230000E4A0B488C18046010460D4A1B68126861
:10024000934222BF064B00201A6039B1094A136855
:1002500001331360084B1860084B196010BD00BFD4
:10026000FCC2072004C30720FFBF0720E0C7072008
:1002700008C307200CC30720F8C2072000C30720CB
:100280000DF076BE0DF07CBE0DF07ABE30B50446A2
:100290008BB068460EF028F9224B079A2360089B22
:1002A000214DA36062602149214B52B90A68186848
:1002B00082428ABF02F1604202F17042A2F5E82256
:1002C000626062681B68B2F5803F82BF02F17042D3
:1002D000A2F5E82262600022E2600A68934206D337
:1002E000991AC5F1005303F504230B440BE0114B9D
:1002F0001B68934208D9991AC5F1005303F5F823F6
:100300000B44002B00DDE36020460B4BE2611B68D1
:10031000A3610A4B1B686361094B1B6823610BB027
:1003200030BD00BFE0070000E0C70720FCC2072087
:1003300004C3072008C30720F8C2072000C3072012
:100340000CC30720034A044B1A60044A044B1A608A
:10035000704700BF0080001004C307200040082041
:1003600008C30720014B1860704700BF14C3072063
:10037000014B1860704700BF10C3072008B5024842
:100380000FF05AF8FEE700BF9043020008B502489C
:100390000FF052F8FEE700BFAA43020000207047AA
:1003A00001207047F8B5084B16461A680F461C46E0
:1003B00042B10D46EB1B9E4204DD236815F8010B8C
:1003C0009847F7E73046F8BD14C30720F8B5094B46
:1003D0000F46186816461C4658B10D46EB1B9E4248
:1003E00005DD23680020984705F8010BF6E726EAAB
:1003F000E670F8BD10C30720704700207047FFFF6C
:10040000074B1B689A68824207D05A68824204D020
:10041000DB681B1A5842584170470120704700BFE3
:1004200038C10720002070470020704730B50446CF
:100430008DB0A8B3684609F0D1FA9DF800300025C8
:1004400003F03F0303939DF8013003A803F03F033B
:1004500004939DF802300B9503F01F0305939DF85C
:10046000043003F01F0306939DF8053003F00F03DB
:10047000013B0793BDF80630C3F30B03A3F26C7383
:1004800008939DF8033003F007030993BDF8083083
:10049000C3F30B03013B0A930DF0B4FE84E8210083
:1004A00000200DB030BDFFFF70B50F4D0F4E2C6812
:1004B00014F0010415D128460CF0EEF988B14FF480
:1004C0000E70FFF7DDFE302380F835323A2380F8D6
:1004D000344280F8363280F83742306028460CF0DB
:1004E000E7F9306870BD00BF30C3072034C3072070
:1004F00070B50F4D0F4E2B6813F0010416D128462E
:100500000CF0CAF990B14FF40E70FFF7B9FE012359
:1005100080F83432312380F835323A2380F836328D
:1005200080F83742306028460CF0C2F9306870BD60
:1005300028C307202CC307202DE9F04FADF51B7D04
:100540000F4608F06FFC041E04DD0BF029F920466D
:100550000AF06CFE0DF114094C462A4D4FF0640B65
:100560000FCD0FC42B6804AA2360102100240AA811
:1005700004940BF019F8244A82462449384609F0BD
:100580009DFC26460AAD4FF00008D0451CD06B6993
:10059000A34215D1AA69049B16441BB1B3FBFBF31C
:1005A000B2FBF3F3297B039202932B8C00949B0004
:1005B000019359F821306A681549384609F07EFCE4
:1005C00008F101082435E0E701340A2CDAD1049B54
:1005D00064229E1BB3FBF2F30E49B6FBF3F30E4A03
:1005E0000096384609F06AFC0AF0F4FC102804D999
:1005F00010220A49384609F061FC01200DF51B7DE7
:10060000BDE8F08FC4430200E3430200E843020068
:100610000F440200374402002C44020056440200FA
:1006200010B50C46ADF5007D68460BF0DFFB2046AB
:100630004FF0FF32694609F00BFC01200DF5007DFB
:1006400010BDFFFF30B50C4691B02C49054608F0AF
:10065000F5FA002847D00CAB04930BAB03930AAB1D
:10066000029309AB019308AB009306AA07AB244998
:10067000284608F04BFA072801D000203BE09DF8FF
:100680003930069A0DA862F303038DF83930079AC2
:100690009DF8383062F304038DF83830089ABDF8BD
:1006A0003A3062F30B03ADF83A30099A9DF83630D0
:1006B00062F304038DF836300A9A9DF8353062F300
:1006C00005038DF835300B9A9DF8343062F305033D
:1006D0008DF834300C9A9DF8373062F302038DF8B0
:1006E000373009F0A3F909F03DFA064902462046E1
:1006F00009F0E4FB012011B030BD00BF80440200CE
:100700008444020046650200F7B50D464E49044692
:1007100008F084FB064640B107F0F8FD4FF0FF32C9
:100720004A49284609F094FB8BE04949204608F0E5
:1007300075FB60B307F00EFE46490246284609F0F5
:10074000BDFB07F013FE44490246284609F0B6FBFC
:1007500007F006FE41490246284609F0AFFB304645
:1007600007F0EEFD0446012007F0EAFD06460220F0
:1007700007F0E6FD0746032007F0E2FD0097019031
:10078000334622463649284609F098FB59E0354958
:10079000204608F053FA50B120220121204608F0EB
:1007A000EBFA204608F03CFB07F0F8FE49E02E4942
:1007B000204608F043FA064620B92C49204608F0A6
:1007C0003DFA60B32A49204608F026FA60B9294963
:1007D000204608F021FA28B92046274908F01CFADB
:1007E000044602E0032400E002243146204607F0DC
:1007F0002DFE224A224B002E18BF1A463CB1012C76
:1008000007D01C491A4B022C18BF0B4602E01D4BA7
:1008100000E0194B1C49284609F050FB11E0204626
:1008200008F0FEFA194A1A490090F323012007F054
:100830001BFE204608F0F4FA16490246284609F045
:100840003DFB012003B0F0BDBF440200C5440200DF
:10085000DE440200E5440200FA4402000F450200B3
:100860002E4502005E450200624502006A45020014
:10087000BA440200B444020042570200A5440200F8
:100880009D440200AE44020073450200D8430200BA
:100890008C450200BF45020030B589B004AB00248E
:1008A00000930D4603AB022218490394049408F008
:1008B0003BF9022827D107AB009305AA06AB0499A0
:1008C000039805940694079404F02CFA024638B174
:1008D000049B0F4900932846039B09F0EFFA10E0B0
:1008E000059A069B002A079908BF0122002B08BF22
:1008F0000123B1FBF3F3B1FBF2F22846054909F0FD
:10090000DDFA012000E0204609B030BDE2560200C9
:10091000CD450200EC4502002DE9F0470E46ADF54D
:10092000856D3949054608F013FA384907462846C7
:1009300008F037FA3549284608F053FA284608F0F7
:100940006FFA0122014681A806F036FA044640B14A
:10095000284608F065FA2E490246304609F0AEFAFC
:100960004CE00DF1040A01464FF4007250460DF0C0
:1009700064FB00940BF024FA804689466B464FF4E2
:100980000072514681A806F0B1FA08B9009B23BB5A
:1009900081A806F07AFCCFB10BF012FA4FF47A720C
:1009A00000230CF025FF002305464FF47A724046E1
:1009B00049460CF01DFF281A14BF03460123B4FB5F
:1009C000F3F322461349304609F078FA4FF0FF322C
:1009D0001149304609F03CFA10E01C44002FCDD1FB
:1009E0003D46009B9D42C9D233681AF805105B68EA
:1009F0004FF0FF32304698470135F2E701200DF500
:100A0000856DBDE8F08700BF1A460200E25602007D
:100A10002346020037460200C54B02002DE9F0478D
:100A20000023BEB00C46534905460C9308F0F6F976
:100A300020B9284608F0F4F9064600E04E4E31464B
:100A400015A806F0DBFC054630B1034632464B499B
:100A5000204609F033FA89E032464949204609F038
:100A60002DFA2F460DF1780880230DA915A8CDF891
:100A70004C80149306F006FD002861D19DF83D30AE
:100A8000002B5DD09DF83C100DF13D00CA065BBF08
:100A90000D9B0C9A44229B185BBF0C932D220135B1
:100AA000013711F0010F14BF52232D23BDF83AA0D6
:100AB00011F0020F09900D9814BF4FF0480E4FF03F
:100AC0002D0E11F0040F14BF4FF0530C4FF02D0CEE
:100AD000089011F0200FCAF34510BDF838100790A8
:100AE0004FEAEA20069001F01F000590C1F3431081
:100AF0004FEA612114BF4FF041094FF02D0901F277
:100B0000BC71CDF804C0CDF800E004900391CDF89D
:100B100008901C49204609F0D1F94FF0FF321A49DC
:100B2000204609F081F941464FF0FF32204609F096
:100B30007BF94FF0FF320F49204609F089F991E720
:100B40003A46124900950C9B204609F0B7F90BAACA
:100B50000CA9304606F0C5FC40B90B9B0C499A78AD
:100B60000C9B20465A43520809F0A8F901203EB0D8
:100B7000BDE8F087C54B0200524602005546020010
:100B80007946020094460200C1460200C5460200B2
:100B9000EF46020070B50C46064608F041F90546DE
:100BA000304608F03DF906F05EFD064A064B07495F
:100BB000002808BF13462A46204609F07FF9012085
:100BC00070BD00BFA5480200AF4802000347020005
:100BD00070B50C46064608F023F90546304608F085
:100BE0001FF906F0E3FC064A064B0749002808BF38
:100BF00013462A46204609F061F9012070BD00BF66
:100C0000A5480200AF4802001F4702007FB503ABB2
:100C1000002400930E4602AB02220F490294039473
:100C200007F082FF022814D1029C039D204629462A
:100C300006F0C2FD094B0A49224600280CBF0846AF
:100C400018462B4600900749304609F037F9012035
:100C500000E0204604B070BDE2560200AF4802003A
:100C6000A54802003147020030B5ADF50D7D0C46B8
:100C7000054608F0D5F80A22014603A806F09CF8BC
:100C800040B1284608F0CCF81F490246204609F03A
:100C900015F934E08DF8070002901C4942F21073F8
:100CA0007E22204609F00AF91949204609F006F982
:100CB000236842F210721B680DF107012046984725
:100CC00018B19DF807307E2B03D103A806F0DDFA9A
:100CD00015E002AB01220DF1070103A806F0BEF9F1
:100CE00058B9029B012B08D123684FF0FF325B6893
:100CF0009DF8071020469847DAE70649D5E7012016
:100D00000DF50D7D30BD00BF494702007047020060
:100D1000A8470200C84702002DE9F04FADF5417D1C
:100D2000002304AC236003930D46009403AB02221E
:100D3000414907F0F9FE022806D04FF0FF323F4943
:100D4000284609F085F872E0216817A806F056FBDE
:100D500010B122683A4906E0039917A806F04EFB45
:100D600028B1039A3749284609F0A8F85FE04FF404
:100D700080720DEB020105A807F098FE4FF4807217
:100D800080A90AA807F092FE20AE80270FA917A815
:100D90001596169706F076FB002842D19DF845304F
:100DA000002B3ED09DF8443003F0100303F0FF0AFF
:100DB000002BEBD10DF14503039A234905A808F058
:100DC00079F80DF1450322681F490AA808F072F866
:100DD00005A808F025F807460AA808F021F880467B
:100DE00005A8DDF83C9008F01BF883460AA808F037
:100DF00017F8534652460146CDF800A0584603F076
:100E000091FF124A124BCDF8009000280CBF1846F3
:100E100010461049019043463A46284609F04EF8DC
:100E2000B3E70AA807F057FE05A807F054FE012013
:100E30000DF5417DBDE8F08FE2560200EF4702005C
:100E4000344802005948020079480200AF480200C5
:100E5000A54802007F480200F8B50D462449064621
:100E600007F0DCFF0446074618B1FFF741FB0022FC
:100E700008E02049304607F0D1FF044660B1FFF793
:100E800013FB3A46114600F2352006F025FD4FF0DF
:100E9000FF32194B194922E01949304607F0BEFFCD
:100EA000044658B1FFF724FB012200F2352105F07A
:100EB00045FF4FF0FF32134B134910E01349304602
:100EC00007F0ACFF044680B1FFF7EEFA012200F212
:100ED000352105F033FF0E4B0E494FF0FF3200284D
:100EE00018BF1946284608F0B3FF2046F8BD00BFDA
:100EF0000649020010490200A84802009E4802006C
:100F00001D490200C5480200B548020026490200FA
:100F1000EA480200DC48020008B508464FF0FF32FC
:100F2000084908F095FF07F0F1F94FF4FA600AF06C
:100F30007DF94FF08043AA221A7200221A70012014
:100F400008BD00BF3249020010B501200C4607F071
:100F5000A1FD40B100231A46194609F079FC4FF073
:100F6000FF32054902E005494FF0FF32204608F004
:100F70006FFF012010BD00BF434902005949020024
:100F800038B5064C236833B91C20FFF779F90546BC
:100F900008F092FB2560206838BD00BF20C3072001
:100FA0002DE9F04F5F4C91B023680E4633B92C20E9
:100FB000FFF766F9054608F0ADFE25602768FFF7E4
:100FC00073FA00240CAA0DA900F235200D9406F046
:100FD00088FA48B90C9A0D9C95699378023D5C4358
:100FE0005D4364086D0800E025464F4B1A6898463B
:100FF0007AB90C20FFF744F98146FFF7C1FF90232F
:1010000089F804300023C9F80000C9F80830C8F88E
:101010000090D8F8000003F073FE81460CF0A2FBAC
:101020000A900CF085F9014648460CF0CBF83F4990
:101030000CF0D2F90CF096FB81460DA80AF034FDB5
:1010400004F0B4FD68B308F007FE04F099FD4FF01A
:10105000000A0346D346D0469A450B930BD0504620
:1010600004F0F2FD804538BFD3460B9B38BF804665
:101070000AF1010AF0E708F007FE642303FB08F316
:101080002B4ACDF80880B3FBF2F3C3F1640300935D
:10109000CDF804B02B4622462649304608F00EFF14
:1010A00005E02B4622462449304608F007FF234C32
:1010B00023681BB90120FFF7E3F82060206803F0E4
:1010C000E4FD044608F04EFDFB8C0A9A0993BB8CA4
:1010D0001B4908939DF83430019003F03F030793B8
:1010E0009DF83530009403F03F0306939DF83630A9
:1010F000304603F01F030593BDF83A30C3F30B03EA
:1011000004939DF8383003F01F0303939DF83930A2
:1011100003F00F0302934B4608F0D0FE012011B0FC
:10112000BDE8F08F24C3072018C30720000020412A
:10113000A086010092490200C64902001CC3072094
:10114000D44902002DE9F04F0D46C7B055498146FC
:1011500007F08BFD54498246484607F086FD534907
:101160008346484607F081FD00270DF1100805AEC3
:10117000044602970397C8F800703760BAF1000F71
:1011800045D0009603AB02AA4949484607F0BEFC89
:10119000012807DC28464FF0FF32464908F058FE88
:1011A00038467CE00DF118084FF480742246394629
:1011B00040460CF042FF336813B90123336003E06B
:1011C000B3F5807F88BF3460FFF7DAFE33689DF89F
:1011D0000C209DF808100093434608F035FF364A6E
:1011E000364B3749002818BF1346029A284608F0A4
:1011F00065FE002433689C424ED2039A18F80430EE
:1012000022443049284608F059FE0134F2E7BBF188
:10121000000F2CD0CDF8008003AB02AA2A49484623
:1012200007F074FC032807D028464FF0FF32274907
:1012300008F00EFE504632E0FFF7A2FE98F80030AC
:101240009DF80C209DF8081008F013FF48B1039B8F
:101250001F490093D8F80020029B284608F02EFE74
:101260001AE0029A1B49284608F028FE14E0A8B1AB
:1012700002230293029BFE2B10DCFFF781FE9DF8F8
:10128000081008F001FF20B1029A1349284608F01F
:1012900015FE029B0233ECE7012000E0204647B038
:1012A000BDE8F08F015802003D4A0200434A0200A7
:1012B0004C4A02005B4A0200A5480200AF48020007
:1012C0007C4A0200A04A0200B04A0200C04A020062
:1012D000E74A0200014B02001E4B020070B5ADF55B
:1012E0000A7D05460C4607F008FC0B2802DD0C229F
:1012F00022493CE0284607F093FD0122014601A85F
:1013000005F05AFD064668BB01A805F0BEFF284659
:1013100007F086FD1A490246049B204608F0CEFDE0
:10132000236820469B6898470A2009F07FFF4FF00A
:10133000100383F31188BFF36F8FBFF34F8F2846DD
:1013400007F06EFD02460F4B0068516803C39068BA
:101350000D4A186043F80C2C4FF08043AA221A72F1
:101360001E7007E0284607F05BFD0246074920464D
:1013700008F0A4FD01200DF50A7D70BD584B020058
:101380007F4B0200484002400DD0ADDEC64B02004C
:101390002DE9F041404CA4B023680646DB070D461A
:1013A0000CD420460BF078FA40B14FF480600CF07A
:1013B000DFFD3A4B186020460BF07AFA3849304688
:1013C00007F053FC0746044600B38022002104A81E
:1013D0000CF033FE00230293039303AB009304AAA3
:1013E00002AB3049304607F091FB2C49029B039A2F
:1013F000096804A813B903F031FD01E003F050FDC2
:10140000294B2A49002818BF194638E02849304698
:1014100007F02BFC074600283AD004AB304603AA5D
:101420002449039404948DF8084007F06FFB039E51
:10143000049B3344B3F5806F02DCDFF860800CE07E
:101440004FF480621C4920E0D8F800309DF8082055
:101450009A559DF8083001361C44039B049AF31AF0
:10146000934210DAB6F5806F0DDA2B684FF4FA620A
:101470001B6802A9284698470028E5D10F4928464D
:1014800008F01CFD04E022460D49284608F016FD30
:10149000384624B0BDE8F0813CC3072038C307209C
:1014A000F14B0200F84B0200DF4B0200DB4B020065
:1014B000084C02000F4C0200194C02003D4C020087
:1014C0004D4C020038B50D4607F0ACFC0446C0B2E6
:1014D00002F082FB054A064B0649002818BF134656
:1014E0002246284608F0EAFC012038BDA548020043
:1014F0005E4C0200654C020030B50C46054687B0D4
:101500000A4908F0DBFCA1882388049121896288BC
:101510000391E18828460291E17A0191A17A009134
:10152000034908F0CBFC07B030BD00BF7C4C020083
:10153000B24C02002DE9F0418CB003AB00260093C1
:101540000D46904602AB022238490296039607F0F8
:10155000EBFAB04266DD02980CF0E1FAC7B20398EC
:1015600018B10EF06BFAC4B200E00446002104A8E2
:1015700003F0D2F930B14FF0FF322D49284608F080
:1015800067FCF3E7022318F100010093039A234656
:1015900018BF0121384602F063FC064638B94FF007
:1015A000FF322449284608F053FC01263AE0B8F1FE
:1015B000000F37D04FF47A7104A803F0B5F960B387
:1015C0009DF81030BB4228D19DF817300C2B04D168
:1015D0003A4606A92846FFF78FFFBCB916492846A8
:1015E00008F06CFC9DF817309C420ADA04AB19191C
:1015F0002B684FF0FF325B68097A28469847013420
:10160000F0E70E49284608F059FC0BE04FF0FF3296
:101610000B49284608F01CFC04E0029A09492846B8
:1016200008F04CFC30460CB0BDE8F081E2560200F8
:10163000D04C0200F24C02001A4D0200F45302009A
:101640002E4D02004B4D02001FB501A80C4602F0C2
:10165000E5FD02F0CDFA01A902462046FFF74CFF56
:10166000012004B010BDFFFF30B58BB00AAA4FF4C3
:101670007A730C4642F8243D174907F047FA0025D3
:10168000019902A803F048F9D8B19DF80820134940
:10169000204608F013FC00259DF80F309D420ADA21
:1016A00002AB591923684FF0FF325B68097A204674
:1016B00098470135F0E70A49204608F0FFFB01256D
:1016C000DEE72DB94FF0FF320649204608F0C0FB97
:1016D00001200BB030BD00BF164C0200714D02005E
:1016E000C44B0200884D020037B50C4602F0FAFBED
:1016F00005461649204608F0E1FB15492A462046D2
:1017000008F0DCFB1149204608F0D8FBD5B111499F
:10171000204608F0D3FB0D49204608F0CFFB0025FA
:10172000E8B202F0C9FB013540B181784378027814
:1017300000912046084908F0C1FBF1E70349204623
:1017400008F0BCFB012003B030BD00BF994D020082
:10175000B44D0200CE4D0200E94D02002DE9F347E1
:101760003C4C074626688946002E62D12420FEF7AD
:1017700087FD0423054680E848008660C660202176
:1017800030460DF0C3FEAE68E8604FEA8608072ECB
:101790000ED81020FEF774FD8246102200210CF0B6
:1017A0004CFCEB68013643F808A008F10408EEE7AA
:1017B000002608236B604FF00108274B274A284971
:1017C0002846009685F82080256006F011FB254B01
:1017D000254A26492068009606F00AFB244B254A34
:1017E00025492068009606F003FB244B244A25492E
:1017F0002068009606F0FCFA234B244A244920680E
:10180000009606F0F5FA234B234A24492068CDF8C8
:10181000008006F0EDFA224B224A2049206800960B
:1018200006F0E6FA0096204B204A2149206806F08F
:10183000DFFA2049384607F0F1FA18B11E49384658
:1018400007F0A6FB4A463946206802B0BDE8F047DB
:1018500006F0AEBB44C30720044E02003E4E020019
:10186000091B0100454E0200994E0200DD180100DF
:10187000A24E0200C54E020069160100C84E0200C9
:10188000D4540200C5140100F24E02000E4F0200B3
:10189000E9160100154F02007C4F020035150100CA
:1018A000564F02007B4F0200804F02009B4F020008
:1018B00049160100C54B0200A14F020038B5064C85
:1018C000236833B95820FEF7DBFC054608F066F8BC
:1018D0002560206838BD00BF40C307202DE9F04FC8
:1018E0000446ADF2DC5D802288460DA800210CF094
:1018F000A4FB802200212DA80CF09FFB06AE002344
:1019000033600DAA00962DAB7549204607F0FEF80E
:10191000032801D00020DFE001220DA9EDA805F089
:101920004BFA05460028F5D1FFF7C8FF336880223F
:1019300080F853304DA9044608A88DF81750079534
:1019400007F0B4F82DAB009333680DAA6549404603
:1019500008F0B4FAA94607AE33464FF400726DA9F9
:10196000EDA805F0C3FA002840F0AF803368002BE3
:1019700000F0AB806F1C32685B49204608F09EFA8D
:10198000236820469B6898477D1E0DF5DA7B4FF053
:10199000000A6DAB3268C3EB0B039A4223680CD983
:1019A000CDF80CB05B684FF0FF321BF8011B2046EE
:1019B0009847039B1B789A44EBE79B68204698471F
:1019C00008A807F02DFA834608A807F099F84FF405
:1019D0007A7302465946204608F048FA202201212F
:1019E0000DEB020007F0C8F908A807F01BFA8245C2
:1019F00020D008A807F016FA524603463B49404655
:101A000008F05CFA3A49204608F058FA2368204664
:101A10009B68984723684FF47A721B680DF1170191
:101A2000204698470028F5D1022F07F101034CD832
:101A30001F46A0E733682DAA2E49009320464B4647
:101A400008F03CFA236820469B68984708A807F0EE
:101A5000E7F9824608A807F053F8514602464FF4CA
:101A60007A73204608F002FA234908A807F0D4F850
:101A7000D0B908A807F0D4F920490246404608F03A
:101A80001DFA1B49204608F019FA236820469B6876
:101A9000984723684FF47A721B680DF117012046AE
:101AA00098470028F5D1BFE7154908A807F070FA54
:101AB0003368144999444A46F09B404608F0FEF9C1
:101AC000002D3FF448AFBD1E45E7EDA805F0DDFB56
:101AD00008A807F000F801200DF2DC5DBDE8F08FEA
:101AE000A64F0200B54F0200CC4F0200DE4F0200AD
:101AF000C44B0200055002001B5002001E500200A1
:101B0000C54B0200565002002DE9F047074686B04B
:101B100006AA002442F80C4D0E463D4906F0F6FF99
:101B200020220121384607F027F9039B002B65D0BE
:101B3000384606F0E2FF002860D0FFF7BFFE0546FA
:101B40000DF1180808F80D4D2B6805221B68414659
:101B50002846984704460028F6D1039B384685F866
:101B6000533007F05DF9274601464FF0FF32284613
:101B700008F06EF92B6828469B689847254B0DF1B5
:101B80001809186849F8044D04902B684FF47A72CC
:101B90001B68414628469847D0B103220DF1150134
:101BA00048460CF02FFA9DF80BA0042204A94846E1
:101BB0008DF817A00CF00CFA50B1336801225B6865
:101BC00051463046013798470028DED10134DCE722
:101BD0001822B7FBF2F302FB137202B101333A464B
:101BE0000D49304608F06AF974B16123009322462A
:101BF0000A4B0B49304608F061F905E04FF0FF321F
:101C00000849304608F024F9012006B0BDE8F08705
:101C1000164C02005A4C0200625002008950020029
:101C2000C55002007E51020001207047012070471C
:101C30000120704710B5002204460C21012008F055
:101C4000E5FD6063003018BF012010BD10B50446EB
:101C5000054B40F8323B07F08DFD04F1310007F0F1
:101C600089FD204610BD00BF0052020010B5044699
:101C7000FFF7ECFF2046FEF705FB204610BDFFFFF7
:101C80000149313007F08EBD0000F040014932308B
:101C900007F088BD0000F04010B50C46002120463A
:101CA0000BF038FDA8B90C4920460BF051FD80B966
:101CB00020460AF085FF0022084B0BF0FFF80022B7
:101CC000074B0AF0D1FF0BF029FA06490BF07CFA1A
:101CD00010BD002010BD00BF0000C84200005940E8
:101CE000000004400000F04010B50446FFF7D4FFA8
:101CF000014604F13200BDE8104007F053BD10B5B5
:101D00000446FFF7C9FF014604F13100BDE8104069
:101D100007F048BD10B50C46002120460BF0FAFC38
:101D2000B0B90C4920460BF013FD88B920460AF0E3
:101D300047FF0022084B0BF0C1F80022074B0AF0C6
:101D400093FF0BF0EBF9014605480BF03BFA10BD91
:101D5000002010BD0000C8420000594000000440AF
:101D60000000F04010B50446FFF7D4FF014604F12F
:101D70003200BDE8104007F015BD10B50446FFF76E
:101D8000C9FF014604F13100BDE8104007F00ABD6B
:101D90001FB5044600234FF0FF3201A9406B08F045
:101DA0005DFE012819D12046FFF76AFF642009F083
:101DB0003DFA02992046FFF7E0FF642009F036FA69
:101DC0002046FFF75DFF642009F030FA02992046B3
:101DD000FFF7D3FF642009F029FA012004B010BDF9
:101DE0001FB5406B00238DF80430029130B11A46C4
:101DF00001A908F02DFD003018BF012005B05DF8E5
:101E000004FBFFFF024A136801331360704700BFF1
:101E100054C307207FB5144606460D461022002104
:101E200068460CF00AF94FF000032068616865F31A
:101E300003038DF8023002AB03C300226946012080
:101E4000019607F017FB04B070BDFFFF73B5144D8A
:101E50002E68FEB93820FEF713FA044603234FF428
:101E600080521049009606F0FBFD20460E4B3222B0
:101E700040F8313B012107F03BFC32223146A018EB
:101E800007F036FC20466663FFF7FAFE2046FFF7B0
:101E9000FDFE2C60286802B0BDE8704006F0B2BDBF
:101EA00050C307204C5202000052020037B50F4BBE
:101EB000054601930E4B642100930A231A46012024
:101EC00007F0BCF9044620B107F032FB012007F00F
:101ED00023FB05F11C0002F07DFD064A00211A20BB
:101EE00007F09EFB204603B030BD00BFB7230100C2
:101EF0009B230100051E01002DE9F74F9B4602A818
:101F000000E90600BDF90090DDF834800E9D002345
:101F10001FFA89FA88F800302B700AF164030C9ECE
:101F20009BB20024632B3460BDF90270CBF80040F3
:101F300007D8C9F100000BF0FBF90423CBF800002F
:101F400003E0B9F1000F02D1012388F800300AF153
:101F5000FF3ABAF1630F07D848460BF0E9F90223BC
:101F6000CBF8000088F800301FFA87F808F1640306
:101F70009BB2632B05D878420BF0DAF9202330604E
:101F800002E017B9346010232B7008F1FF38B8F164
:101F9000630F05D838460BF0CBF9402330602B7027
:101FA00003B0BDE8F08F07B5002302AA037602F85C
:101FB000083D012123208DF807308DF806308DF87B
:101FC00005308DF804308DF803308DF802308DF82F
:101FD0000130FFF71FFF03B05DF804FBFFFFFFFFB9
:101FE000F7B50546144612B90023036316E0084608
:101FF0000BF09AF90AF0E4FD0022894B0AF034FE56
:10200000064620460F460AF0B9FD02460B4630460A
:1020100039460AF053FF0BF081F828632C6B814995
:1020200020460BF0D9F90BF0C3FB7F4968632046CB
:102030000BF0D2F90AF0C4FD00227C4B0AF014FE2A
:1020400000227B4B0AF010FE0022794B0AF00CFEB6
:102050006FA3D3E900230AF031FF764B00220AF088
:102060002DFFC5E90A010BF059F80646E86B0BF0A5
:102070009FFBC7B2A86B0BF09BFB1030002355F8F9
:102080002050002120468DF807308DF806300BF0E7
:1020900041FBC0B9684920460BF05AFBA8B90021A2
:1020A00020460BF037FB88B120460AF089FD5AA381
:1020B000D3E900230AF002FF0022604B0AF020FC63
:1020C0000AF0E4FF10E0002400E05B4C20460AF038
:1020D00077FD51A3D3E900230AF0F0FE0022574B0D
:1020E0000AF010FC0AF0FAFFC0F30D008DF80000B2
:1020F000040A002130460BF00DFBC0B950493046B0
:102100000BF026FBA8B9002130460BF003FB88B189
:1021100030460AF055FD40A3D3E900230AF0CEFE75
:102120000022464B0AF0ECFB0AF0B0FF10E000265C
:1021300000E0434E30460AF043FD37A3D3E90023C5
:102140000AF0BCFE00223D4B0AF0DCFB0AF0C6FFA1
:10215000C0F30C06642F44EA86104FEA96038DF80C
:102160000100384628BF64208DF802300AF016FDC1
:10217000324B00220AF0C6FB0AF0B0FFC30003F4A2
:102180007E7343EA9623C0F34114002128468DF85C
:1021900003300BF0BFFAC0B9274928460BF0D8FA34
:1021A000A8B9002128460BF0B5FA88B128460AF0F4
:1021B00007FD19A3D3E900230AF080FE00221F4B7C
:1021C0000AF09EFB0AF062FF10E0002500E01A4DC5
:1021D00028460AF0F5FC10A3D3E900230AF06EFEAE
:1021E0000022164B0AF08EFB0AF078FFC0F30D00B8
:1021F00044EA800480098DF805006A460621C12062
:102200008DF80440FFF706FE03B0F0BDAFF3008089
:102210000000000020A403417B14AE47E17A843F14
:1022200000408F40000070420000B0410000234099
:1022300000004E4000001C400000C8420000E03F8B
:1022400000008C420C2901F1100301D800220CE09F
:10225000132902D84FF07A5207E01D2902D84FF017
:102260007E5202E06429F1D8014A40F823207047E9
:102270000000404038B50C460546002120460BF0D2
:102280005DFA30B1034920460BF04EFA08B1AC6359
:10229000EC6338BD0000C842F8B50D460646002183
:1022A00028460BF04BFA30B3134928460BF03CFAA2
:1022B00008B3F76807F00F03022B19D10F4928461E
:1022C0000BF028FA044698B90D4928460BF040FA5D
:1022D00080B9FB06F56305D428464FF07C510AF01F
:1022E00073FF054629463068FFF709FD0120F8BD58
:1022F0000020F8BD2046F8BD0000C8420000504153
:1023000000004842436A70B5174DCB1A5A430E4637
:1023100029680446FFF764FE2B6813B10023666248
:102320002B60A06B0BF044FA103054F82060256B42
:10233000314628460BF0EEF928B14FF07C51E06BA6
:102340000AF042FF09E0314628460BF001FA40B19D
:102350004FF07C51E06B0AF035FF01462046FFF755
:102360009BFF012070BD00BF54C3072038B5054C4A
:10237000256825B90120FDF783FF057020602068DE
:1023800038BD00BF48C3072010B50446FFF7EEFF75
:102390002146BDE8104002F062BC08B5012007F0FC
:1023A0005BF838B10320FFF7EFFFBDE808400120DC
:1023B00007F0B2B808BD08B50320FFF7E5FF08BD78
:1023C00010B50446FFF7D2FF2146BDE810400022B9
:1023D00002F040BC2DE9F04788B0002305AD04466B
:1023E00005936B60AB60002900F0AC800DF1130326
:1023F00002930DF11203019306AB009306C907ABDC
:10240000FFF77AFD07980BF0D3F90A22C0B2B0FBB0
:10241000F2F302FB13019DF812304D4E042B0CBF5A
:10242000134600231944336801F0FF09B3B90820AB
:10243000FDF726FF474F80463B683BB91C20FDF760
:102440001FFF824607F038F9C7F800A03B68C6F8BE
:102450000080C8F80030402388F8043030684946CE
:1024600002F082FB9DF812709DF8138004F10C06B7
:1024700047EA08080C2229463046CDF814800BF0B4
:10248000A7FD002860D0DDF81C90606949460AF07D
:1024900099FE002182460BF05BF948B900215046B5
:1024A0000BF038F920B9E36888EA03031A0723D050
:1024B000022F07D0042F17D0012F1DD12068FFF75E
:1024C000DFFB19E020464946FFF7D4FE9DF81330A4
:1024D0000798DB0603D44FF07C510AF075FE0146E5
:1024E0002068FFF70CFC07E049462046FFF7C2FED4
:1024F00007992068FFF774FC9DF81330202B15D046
:10250000402B0BD0102B18D10420FFF759FF0220CD
:10251000FFF756FF2068FFF7B9FB0EE00420FFF736
:1025200033FF06992068FFF7DFFB06E00220FFF784
:102530002BFF06992068FFF715FC95E8070086E851
:10254000070001E0084600E0012008B0BDE8F08780
:102550004CC3072020C307207FB504460E46002544
:1025600000226946012006F031FF28B3019B022BAF
:102570001BD0112BF4D19DF8023003F00F03022B76
:10258000EED19DF80830211D180648BF63F07F0387
:10259000A3809DF809301A0648BF63F07F03E380EB
:1025A000A3686FF35F03A36002E0A580E580211DAF
:1025B0002046FFF70FFFD3E742F20F72A568237A98
:1025C000C5F35E01914294BF0022012262F3000331
:1025D0002372DB0705D4A3680E4466F35F03A36090
:1025E00018E015F0010515D142F210722B4662F386
:1025F0005F03A36003F0210343F001030120261DC4
:1026000065602372FFF7C0FE6560A5603146204615
:10261000FFF7E0FE012004B070BDFFFF01480CF0A1
:102620000BBF00BF5752020038B504460D4609F0F3
:1026300041FD074BB0FBF3F00223B0FBF3F2AA42DB
:1026400004D9B3F5807F01D00233F6E7236138BDAA
:1026500040420F007FB500F235260C46012231467C
:1026600004F06CFB054648BB039002AA03A9304660
:1026700004F037FF00BB0298039A837802FB03F152
:1026800082691348023A5A435208B2F5004F38BFE4
:102690000120104B4FEA510124BF03464FF48060E4
:1026A000B1FBF0F1B2FBF0F20091019321460A4830
:1026B0000CF050FE012008E0084B00E0084B2A46D1
:1026C000214608480CF046FE002004B070BD00BF53
:1026D00095520200925202009F5202009B52020049
:1026E00098520200CD52020038B5074C23684BB90E
:1026F0000820FDF7C5FD0546FEF742FC4023286093
:102700002B712560206838BD4CC3072038B5084CB4
:1027100023685BB90C20FDF7B3FD0546FEF730FCDE
:1027200090232B7100232860AB602560206838BDA2
:1027300018C3072010B5044C23681BB90120FDF70E
:102740009FFD2060206810BD1CC3072010B5044CFD
:1027500023681BB90120FDF793FD2060206810BDA0
:1027600058C30720AD49AE4A4023F0B58B614FF006
:10277000007393614FF480338B61AA4BADF5057DF7
:102780001868072520F0F00018601868022440F04F
:1027900050001860186820F440501860086840F035
:1027A00040000860186820F47C201860186840F425
:1027B00028201860186820F470001860186840F429
:1027C00020001860186820F040401860186840F039
:1027D00000401860586820F03C005860586840F08D
:1027E00028005860586820F003005860086840F4DA
:1027F00080300860586820F440505860086820F421
:1028000080000860D96821F44031D960116841F036
:1028100080711160596821F440215960596841F470
:10282000802159609868804901409960116841F49D
:10283000897141F001011160996821F4701199606A
:10284000996821F070419960116821F44641116046
:10285000D96821F03001D960D96841F03001D960E0
:10286000D96821F47011D960136843F000731360C4
:10287000136823F08063136006F0ECFB01210A204B
:1028800009F038FA01210A2009F04CFA67480121C1
:1028900005604460FFF7C8FE07F06EF901211520BE
:1028A00009F028FA0121152009F03CFA60480121BD
:1028B00005604460FFF7B8FEFEF762FB642106F096
:1028C000C7FE10B95B480CF0B7FD09F04FFA01F0F4
:1028D000FDFF10B958480CF0AFFD4FF4FA6006F058
:1028E0006EFBFFF79BFE09F0E5FB0AF01DFD534967
:1028F0000AF026FE0AF064F902460B4650480CF036
:1029000029FD09F0CBF8052804AC14D1002363603D
:102910004C4B1B682360FFF781FE4B4B4B48D96C37
:102920001A6D5B6D00940CF015FDFFF777FE41F218
:10293000883006F044FBFDF7B7FD4549FFF78AFEF6
:10294000054668BB43480CF005FD03F0A7F9FDF709
:10295000ABFD29462A4600F2352004F0BDFF3E4B70
:102960003E4A00280CBF104618460CF065FDFDF7E6
:102970009BFD3749FFF76EFE90B939480CF05CFDBE
:1029800003F00EF9014637480CF0E4FC03F0F8F8C8
:10299000054603F005F900FB05F133480CF0DAFCBD
:1029A000324E334F336813F0010516D1304609F02B
:1029B00073FF90B14FF40E70FDF762FC012380F8B5
:1029C0003432312380F835323A2380F8363280F8B9
:1029D00037523860304609F06BFF26493868264D7B
:1029E000FFF738FE18211148FFF71EFEFFF716FE0D
:1029F0002B684BB90820FDF743FC0646FEF7C0FAEA
:102A00003823306033712E60286802F00EF80546D6
:102A1000B0BB1A480CF010FD33E000BF00C0092025
:102A200020C0092000C00240F0FCFCFF0000034071
:102A300000800840115302004253020000247449F0
:102A40006753020044400240004002407F530200AE
:102A5000F7530200FF530200055302000053020027
:102A60003C5402005B5402006A54020028C3072051
:102A70002CC30720D448020060C3072085540200FD
:102A80000125FFF743FE02F011F9064618B9724816
:102A90000CF0D2FC3546FFF727FE02F049F8064657
:102AA00018B96E480CF0C8FC35466D4E33681BB93A
:102AB0000120FDF7E5FB3060306802F007F8FFF712
:102AC00039FE02F0E0F8FFF751FC02F06AF8FFF778
:102AD0003DFE02F0DDF8FFF749FC002102F064F84A
:102AE0008DB9FFF79BFDFFF7FFFD2D2102F008F8E0
:102AF000FFF7FAFD2D2102F00FF8FFF737FCFF2159
:102B000002F052F80CE0FFF7EFFD0546FFF7FEFD7F
:102B100002F0F6F80AF04CFEC1B2284602F024F8A2
:102B20001022002120460BF088FA00230F222146B4
:102B30004C4802F071F980B920460AF0F0FFC5B2A6
:102B4000284601F049F8484A484B2946002818BF52
:102B50001346444A46480CF0FDFBFFF7EBFD02F03C
:102B600094F8054600200DF0F5FE28440CF06CFCAE
:102B70004FF40072002120460BF05FFA204609F066
:102B800035F921463B480CF0E5FBFFF747FD802275
:102B9000002120460BF051FA204602F0DDFF22789A
:102BA000FF2A04D0214634480CF0D4FB29E0FFF77B
:102BB000CDFD02F06FF809281DD130480CF03CFC27
:102BC00021462F480CF04CFD21462E480CF0C2FB4C
:102BD0002D480CF031FC002303A92C4803930CF082
:102BE0003FFD9DF80C30592B03D1204602F092FF97
:102BF00007E0274803E027480CF01EFC26480CF0AD
:102C00001BFC4FF208031D684FF20C031C684FF2C7
:102C100010031E684FF470431A684FF20403AD0AA4
:102C20001968A40A1D480CF095FB2A4621461C4849
:102C30000CF090FB31461B480CF08CFBFFF7EEFCD0
:102C4000012005F099FB18480CF0F6FBFFF7E6FCB5
:102C50000DF5057DF0BD00BFA0540200BA5402007E
:102C60005CC30720D35402000B5302005E4C0200E9
:102C7000D9540200466502000D5502002955020094
:102C80004B550200505502006B550200AE55020034
:102C9000B2550200CA550200F85502002A56020039
:102CA0005656020083560200A056020010B5044C8E
:102CB00023681BB90120FDF7E3FA2060206810BDEE
:102CC0005CC307200120704738B504460F4B002530
:102CD0000360636DE06DAB4205D950F82500FDF748
:102CE000D1FA0135F5E708B1FDF7CEFA0025A36B5F
:102CF000206CAB4205D950F82500FDF7C3FA013529
:102D0000F5E708B1FDF7C0FA204638BDC05602000D
:102D100010B50446FFF7D8FF2046FDF7B3FA20466A
:102D200010BD2DE9F04104460E46C06889000CF044
:102D3000EDFBA568E060AF004FF00008AE420DD992
:102D40000C20FDF79DFAE368C0F80080C0F804800D
:102D500080F808800135D8510437EFE76660BDE898
:102D6000F081FFFFF7B5044600250B464FF4805273
:102D70000095254905F074FE244B04262360666304
:102D8000A563E5632564022104F13400FFF7C9FF60
:102D900026656565A565E565284660210CF0B6FBEE
:102DA000A56DE065AE00172D0CD81020FDF768FA70
:102DB0000746102200210BF040F9E36D01359F51C9
:102DC0000436F0E718236365012384F87030104E51
:102DD0000023A4F87430A4F87630A36700220023FF
:102DE0000027C4E92023C4E9226708F0E9FF4FF473
:102DF0007A7200230AF0FCFC80197941C4E92001B1
:102E0000204603B0F0BD00BFD8560200C0560200F5
:102E1000C0D401002DE9F0410F7A14464D680E68C8
:102E20008FB1082A23D1284605F067FE00281CDD53
:102E30004FF0FF321349304606F0F6FF01212846D5
:102E400005F05AFF08E00A2A19D00D2A12D02146AF
:102E5000284606F072F897B1336821463046BDE83F
:102E6000F0415B684FF0FF3218470724F4E70A2A65
:102E700002D1F1E7BDE8F0810D2AEDD0E7E7BDE82A
:102E8000F08100BFE1560200F8B504461420154653
:102E90000F46FDF7F5F98021064605F0FEFFA36B0E
:102EA000E26B9A4206D3616B591803D204F13400E5
:102EB000FFF737FFE36B226C591C52F82330E163B4
:102EC0001F605E601D72F8BD2DE9FF47CF6B06469F
:102ED0000D4601AC3FB94FF47A7008F0A7F901979D
:102EE0006760A76047E00B6C0DF110081B6893E862
:102EF000070084E80700002308F80D3D08F05EF89D
:102F000081460027EB6B9F4263D22B6C4FEA870A06
:102F100053F827301868037C002B34D00368002254
:102F20001B684146984770B3EB6B9F422DD22B6CC8
:102F300053F80A3093E8070084E807009DF803205F
:102F400021462846FFF766FF08F03AFF4FF47A72F1
:102F500000230AF04DFCD5E9222380185941C5E928
:102F60002001029805F0C9FD0746029805F0C8FD4A
:102F7000013887420CDB94E8070086E807003046FA
:102F800004B0BDE8F0870137BCE705F14403D1E7A1
:102F9000D5E92223134324D008F012FF4FF47A72AC
:102FA00000230AF025FCD5E92023994208BF90426E
:102FB00017D308F005FF4FF47A7200230AF018FCCB
:102FC000D5E92223801859410023C5E92001019346
:102FD000D1E707F0F3FF8145C3D1022008F026F9BD
:102FE000BFE79DF803300A2B88D1C4E7F0B505464A
:102FF00085B020480CF0AEF9294601A8FFF764FF20
:10300000019C1CB91C480CF017FA30E0029E3046B7
:1030100005F073FD00282ADD08F0D2FE0746F8B15E
:10302000B5F8743005F150000133A5F8743022462C
:10303000314604F0BDFF114B00251868009023684D
:103040001DF805105B684FF0FF32204601359847A8
:10305000042DF4D108F0B4FEC11B09480CF07AF934
:10306000304605F04FFD236820469B6898470120B5
:1030700005B0F0BDE4560200C54B0200B456020094
:10308000EA56020038B5064C236833B92C20FDF708
:10309000F7F8054606F03EFE2560206838BD00BF03
:1030A00024C3072010B50446FFF7ECFF0368214650
:1030B000BDE810405B684FF0FF32184713B500239E
:1030C00002AC04F8013DFFF7DDFF03684FF0FF326B
:1030D0001B68214698479DF8070002B010BDFFFF0E
:1030E0002DE9F04100F150048AB000250646009514
:1030F00020465F4B5F4A604904F07AFE0095204607
:103100005E4B5F4A5F4904F073FE009520465E4BBC
:103110005E4A5F4904F06CFE009520465D4B5E4AB6
:103120005E4904F065FE009520465D4B5D4A5E49B0
:1031300004F05EFE009520465C4B5D4A5D4904F05C
:1031400057FE009520465C4B5C4A5D4904F050FEFA
:10315000009520465B4B5C4A5C4904F049FE0095B3
:1031600020465B4B5B4A5C4904F042FE00952046DA
:103170005A4B5B4A5B4904F03BFE009520465A4B94
:103180005A4A5B4904F034FE00952046594B5A4A8E
:103190005A4904F02DFE00952046594B594A5A4988
:1031A00004F026FE00952046584B594A594904F030
:1031B0001FFE00952046584B584A594904F018FE06
:1031C00000952046574B584A584904F011FE009587
:1031D0002046574B574A584904F00AFE00952046AE
:1031E000564B574A574904F003FE00952046564B6C
:1031F000564A574904F0FCFD00952046554B564A67
:10320000564904F0F5FD0095554B564A564920465F
:1032100004F0EEFDFFF736FF4FF4807320224FF4E9
:103220001641054606F056FD804601272F744F488B
:10323000FDF79EF84E48FDF795F83A462946304688
:10324000FFF722FE082203A905A805F02FFC05A818
:10325000484905F09DFE2A4605A9204604F0A8FE2F
:1032600005A805F038FC40460AB0BDE8F08100BF73
:10327000005702004257020039050100375702008B
:1032800047570200210601004F5702005D57020018
:10329000A10F010064570200A55702004506010076
:1032A000AA57020006580200190901000A58020034
:1032B00098580200990801004C58020097580200E3
:1032C000190D01009B580200C95802001D0A010097
:1032D000CC580200F1580200950B0100F75802008B
:1032E000245902000D0C010027590200C56F02008D
:1032F000690C01004C5902006F590200D10B01000A
:1033000072590200455A020045110100495A020053
:103310008C5A0200590E0100945A0200A75A02006A
:10332000190F0100AE5A0200AD5B0200090701004F
:10333000B15B0200D95B0200490F0100DF5B0200B4
:103340005E5302005D170100095C0200FD5C020093
:1033500091130100C65C020017490200DD12010052
:10336000025D02004E5D02007D340100BD300100AF
:10337000A5300100A14F0200F7B54FF4EC70FCF747
:103380007FFF2A4E04463768FFB93820FCF778FFE4
:10339000054603234FF480522549009705F060FB52
:1033A0002846244B322240F8313B012106F0A0F997
:1033B00032223946A81806F09BF96F632846FEF7BB
:1033C0005FFC2846FEF762FC356023463268002524
:1033D00043F8042B1A21656004F11C005D60E56070
:1033E00025616561257601F0CDFA00220023C4E94C
:1033F0000A23294600234FF4CA7204F14000656293
:1034000023636563A363E3630AF017FE294620463E
:103410000135FEF717FF652DF8D1074B20461C60DC
:10342000FEF744FD012003B0F0BD00BF50C30720EC
:103430004C5202000052020064C307200120704772
:1034400008B50020FEF7A9FF024B1868BDE8084048
:10345000FEF7A9BD64C30720024B01466422186829
:10346000FEF750BF64C30720024B0A211868FFF71C
:1034700073B800BF64C307207047FFFF37B5002350
:103480000093019301AA6B462C4905F03FFB019B79
:10349000013B042B4FD8DFE803F00313273B450023
:1034A000274C00212068FEF7E5FE23681122DA6030
:1034B0001868FEF7E5FB23681868FEF7E7FB3AE0BB
:1034C0001F4C122325680098EB6009F031FF01467C
:1034D0002846FEF7CFFE009809F02AFF2368014630
:1034E0001868FEF70CFC26E0154C1423256800989C
:1034F000EB6009F01DFF01462846FEF7BBFE009871
:1035000009F016FF236801461868FEF769FC12E00F
:10351000009809F00DFF0A4B01461B681868FEF77A
:1035200021FC08E0009809F003FF054B01461B68E9
:103530001868FEF7D9FB012003B030BD745D0200AE
:1035400064C307207047FFF717BFFFF777BF10B5B9
:103550000446FCF797FE204610BDFFFF70B50B4EEA
:1035600005010B4B741953F82010201D07F032FE93
:10357000E368A0689847A36870590133A3600023EB
:103580001A46BDE87040194607F062B968C30720C3
:103590002C5E020008B50020FFF7E0FFFBE708B54E
:1035A0000120FFF7DBFFFBE708B50220FFF7D6FF9E
:1035B000FBE708B50320FFF7D1FFFBE7F7B50746A8
:1035C0000D462D4A00240D2312682C49009405F065
:1035D00047FA2B4B87F831503B602A4D2A4B032288
:1035E000EB602A4B2146EB61294B0120EB62294B12
:1035F000EB6307F00BF9032228602146012007F056
:1036000005F9032228612146012007F0FFF8224B2B
:1036100028621E680523C6F38F06009332462346B0
:103620001E4901941E4807F083FB0623009332468F
:1036300023461C4901941C4807F07AFB072300939A
:103640000194234632461949194807F071FB97F84F
:10365000313073B103222146012007F0D7F8082347
:10366000286332460093019423461249124807F01A
:103670005FFB384603B0F0BD7C5D0200905D020048
:10368000445E020068C30720413401005934010040
:103690006934010079340100705D0200975D020019
:1036A000953501009B5D02009F350100A05D020081
:1036B000A9350100A65D0200B335010038B51748F1
:1036C0000C46415C00230131C9B2914202D0015540
:1036D000184638BD124D0355200128581A46194680
:1036E00007F0BCF90546B0B90E4B53F8244020460C
:1036F0000BF0A2FE20460CF0A1F92B460246214613
:10370000094801F0CDFB094A094B9A644FF0804308
:10371000AA221A721D70012038BD00BFA8C307205D
:1037200068C30720805D0200AD5D0200EFBEADDE24
:1037300000400240044608B5012007F077FD94F8E8
:10374000313023B1012203212046FFF7B7FF0A22BF
:1037500002212046FFF7B2FF0028EDD00A22012106
:103760002046FFF7ABFF0028E6D00A2200212046C2
:10377000FFF7A4FFE0E7704708B501F0DDF801208E
:1037800008BD10B50446FCF77DFD204610BDFFFFC7
:1037900037B59020FCF774FD04460321FFF7E2FAE9
:1037A000204605F02FF93420FCF76AFD0546002479
:1037B0004FF400720E490094042305F051F90D4BAB
:1037C00028462B6005F01EF93420FCF759FD05460C
:1037D0000121FFF7F3FE284605F014F9FEF736FB4A
:1037E0002046214605F01CF94FF0FF3003B030BDF4
:1037F0005E530200805E020010B54FF6FF74242372
:1038000003FB0101884209D043782BB1038C134498
:10381000A34228BF234603842430F3E710BDFFFFF3
:1038200037B5002302A840F8043D0C4B04215B6827
:1038300098470B4B019A1C680546141B1A6004211B
:1038400022460848FFF7D8FF224602210648FFF724
:10385000D3FF281C18BF012003B030BDACC3072024
:103860007CC40720C0C3072099C4072008B50B4BB0
:10387000197803788B420A4B0BBF1A889A88013259
:10388000013214BF9A801A80064B8170DB682021B8
:103890009847003018BF012008BD00BF05C00720B1
:1038A00051C40720ACC307200A4B02781B789A4208
:1038B000094B0BBFDA881A89013201320CBFDA805A
:1038C0001A810379C3F3C202073262F3C50303719D
:1038D000FFF7CCBF05C0072051C4072010B507492A
:1038E000002311F823409A00844202D10348104477
:1038F00010BD0133042BF4D1002010BD6BC4072090
:1039000070B1C3780133DBB2FF2BC37008D1054817
:103910000023C118CA7804335208102BCA70F8D19A
:10392000704700BF6BC40720242202FB010103463D
:10393000024630B5914206D01446243212F8235C78
:10394000002DF7D10FE00446002599420BD01A79DB
:10395000C2F3C2001A8C42EA0042AA4284BF1C464B
:1039600015462433F1E7204630BDFFFF38B5054644
:10397000C90001F10804FFF753FF1C4B2A781B789C
:103980009A4204D102211A48FFF7CEFF0CE004212D
:103990001848FFF7C9FFEB7833B990F823300424B7
:1039A00043F0800380F82330002380F8203080F833
:1039B000213002462B4690F8231080F8224021F057
:1039C0007F01C4F306240C4380F8234005F1200155
:1039D00053F8044B8B4242F8044BF9D1064A037961
:1039E000127862F3C503037138BD00BF05C007201C
:1039F00099C40720C0C3072004C0072008B5FFF7FB
:103A00006DFF0346D8B9FFF769FF0346B8B90D4A01
:103A1000D378D179D07A8B4296BF1946131D1346BD
:103A2000814294BF0846084BD17B084A814238BF87
:103A30001346074900221A60CA7A0132CA72184630
:103A400008BD00BF6BC4072073C4072077C40720DC
:103A500051C407202DE9F84F05460C464FF02409C4
:103A600009FB0219DFF868A1DFF868B14E1C4FF0BE
:103A700000084C4500F09A8094F823301A0624D5AB
:103A8000B5B12A7861788A4205D16F7816F8010CB1
:103A9000874200F08D80E87850B16878884207D17D
:103AA00016F8011C914203D1A979A27991427FD0E5
:103AB00094F82220218C03F07F0342EA03239942E9
:103AC00071DB2046FFF7D2FE72E06278002A6AD0EE
:103AD0006DB3297901F0C001C02917D116F8010C86
:103AE0006978884202D12878904261D0E778A87836
:103AF00087420CD191420AD116F8010C29788842EC
:103B000005D1A079A979884201D151E079B1A8788D
:103B1000E17888420BD16978914208D116F8010CFE
:103B20002978884203D1A079A979884246D094F8AF
:103B30002210208C03F07F0341EA0323984232DBFA
:103B4000237984F82080C3F3C201CFB284F82180A6
:103B50001FB12046FFF7A8FE25E003F0C003C02BED
:103B600019D016F8010C9AF80030984213D1E37876
:103B70009A4210D07BB16379032262F30713637119
:103B8000E1702046FFF790FE23799BF8002062F356
:103B9000C503237100E001276078FFF79FFE08B19D
:103BA000C0F8008027B92434243662E7BDE8F88FD6
:103BB0002422002120460AF040FAF4E7237984F811
:103BC00020806FF3C50384F821802371EBE700BFE9
:103BD00005C0072004C00720431EDBB2FD2B9DBF9C
:103BE000024B187001200020704700BF05C007205D
:103BF000014B1878704700BF05C0072007289CBFFD
:103C0000014B1870704700BF04C007202DE9F7432F
:103C1000044691461E469DF828500F46002966D05E
:103C2000364B93F80080414563D00F2E61D80028B1
:103C300061D0202200210AF000FAFF2F237914BF5F
:103C400009F00302002262F38713032262F30203E6
:103C50002B4A6770127884F8008062F3C503294A02
:103C60002371137884F802800133DBB21370A371DF
:103C70000BAB019315B94FF001081BE004F10809E3
:103C8000019AE0791346526853F8081B00EB0208CA
:103C90005FFA88F8013DB8F1180F0193EDB207D82B
:103CA00048440AF0A4F984F80780002DE8D1E2E73F
:103CB0004FF00008DFF850900123384689F80030B3
:103CC000FFF70CFE0546FFF71BFE002389F80030C6
:103CD000637925B966F307136371E57005E0AA7887
:103CE00062F3071363716B78E370404603E00846A4
:103CF00001E00020FFE703B0BDE8F08305C0072026
:103D000004C0072050C407205DC40720124B0122C5
:103D100070B51A7004461E4608B9002518E0FFF772
:103D2000A5FD05460028F8D0237903F0C003402BF9
:103D300006D0C02B0AD1E37853B162789A4207D0FB
:103D4000617920460909FFF711FE01E0802BF7D0C9
:103D500000233370284670BD5DC4072082B02DE972
:103D6000F0439146421ED2B28DB0FD2A05460E4662
:103D700015939DF8688001D9002057E0002BFBD0F7
:103D8000179F002FF8D0199B002BF5D0189B002B04
:103D9000F2D0169B002BEFD04822002126480AF0D3
:103DA0004CF99022002125480AF047F91022002101
:103DB00023480AF042F9234B00241C605C609C609D
:103DC000214B1C605C609C60204B1D70204B214D82
:103DD0001E7015AE0FCE0FC53368182221461E483F
:103DE0002B600AF02AF9494617221B480BF06CFE9B
:103DF00021462046B8470028BED0B8F1000F02D1B6
:103E0000FFF70EFD12E006230293144B22460193A6
:103E100001230093FF2104A8FFF7F8FE0028ABD090
:103E200004A8FFF773FF0028A6D0E9E70DB0BDE8AE
:103E3000F04302B0704700BF99C40720C0C30720F9
:103E40006BC407205FC4072051C4072005C00720AA
:103E50005EC40720ACC3072080C40720985E020020
:103E600030B5182B8DB016D8B2FA82F41D1C18BFCD
:103E700001256409AC420ED00293019200950A46D6
:103E80009DF84030014604A8FFF7C0FE18B104A811
:103E9000FFF73CFF00E000200DB030BD13B55379B3
:103EA00014781B09009302460B4620460321FFF7B6
:103EB000D7FF02B010BDFFFF00231A4630B5084CF3
:103EC00014F82350990035B1904202D104480844B7
:103ED00030BD0132D2B20133042BF1D1002030BD0C
:103EE0006BC4072000231846044A12F8231009B1B6
:103EF0000130C0B20133042BF7D170476BC40720E7
:103F00002DE9F04188B02022002168460AF095F89A
:103F1000A14B1B7803F0FF04002B40F039819F4F29
:103F200020213B6968469847002800F084809C4D1A
:103F30006B8801336B80FFF7D5FF9DF80420A872D2
:103F400002F00703032B04D0964A137843F00103D1
:103F500009E0954B1D789DF80230AB4205D1914A9E
:103F6000137843F002031370E4E0C2F3C2029DF839
:103F700000E09DF806008D49D6B204EB440313F827
:103F800001C0F4450BD10B4493F801C0844506D120
:103F9000997801248E1B18BF01269A7018E001340D
:103FA000042CEAD182490B689A70804A587002F159
:103FB0000900834283F800E040F0C9800A609DF860
:103FC00000009DF80230834240F0C4800024264661
:103FD0009DF80200FFF712FD9DF8022002709DF887
:103FE0000220427000228270FFF78AFC04B116B3EF
:103FF0009DF80030AB4200F09C809DF80160FF2EE0
:104000001BD13B6820216846984720B9654A137840
:1040100043F0040313709DF8053003F00F02511CA8
:1040200061F303038DF80530C3F303139A4202DAF8
:104030006846FFF71BFC00247CE0B5422BD164B935
:104040009DF807304BB13B6820216846984720B95E
:10405000544A137843F0040313709DF8043003F0BE
:10406000C003402B12D19DF807306A4613B91821BE
:10407000504808E00C214A48FFF710FF002858D1AB
:1040800000216A460846FFF709FF52E09DF8033019
:10409000002B4ED1F4E7484B1B78002BCBD09DF87A
:1040A000054004F00F074FEA14184745C3DA0137FB
:1040B00067F303043046FFF711FC8DF805409DF8C7
:1040C0000340A54221D19DF8041001F0C001402910
:1040D00006D0A1F180035A425A41144610B90CE0AF
:1040E000012260B1C029437805D19E4203D000333C
:1040F00018BF012304E0002302E0C0290ED10346CB
:10410000134303F0010420B908E094B908B941460B
:104110000CE043788DF80330857802E000258DF8B7
:1041200003506846FFF7A2FB1CB129466846FFF71B
:104130001DFC6C46FFF774FB204604221F49FFF765
:1041400089FC02221E492046FFF784FC20E003334D
:104150000B6034E785423FF439AFFFF74FFC04466C
:10416000FFF7CEFB23783BB19DF80530A27803F032
:104170000F0393423FF72AAF9DF8003023709DF85C
:10418000023063709DF80530C3F30303A3701DE78D
:1041900008B0BDE8F08100BF5DC40720ACC30720B4
:1041A00051C4072098C4072005C007205FC407201A
:1041B00000C0072080C407205EC40720C0C30720BA
:1041C00099C4072000231846094AD118497809B133
:1041D0000130C0B22433902BF7D1064B5A780AB184
:1041E0000130C0B293F825300BB10130C0B2704736
:1041F000C0C3072099C4072008B5FFF76FFB064B23
:1042000028B18278187802FB0000C00008BD187839
:104210001823584308BD00BF04C0072003490B689A
:1042200003604B6843608B688360704751C407200C
:1042300070B53E4C4FF48035E5613D4CA0602046A2
:10424000C5683B4CED06FBD4A0680D46C0B20BB967
:1042500023465FE02346002A63D0072A0E782DDD2F
:104260009E604E78083A9E608E789E60CE789E6002
:104270000E799E604E799E608E799E6001F10806EF
:10428000C979996099694907FCD5A1682970A16825
:104290006970A168A970A168E970D968C906FCD4E1
:1042A000A168083505F8041CA16805F8031CA1687D
:1042B00005F8021CA16805F8011C1AE0032A1ADDA2
:1042C0009E604E78043A9E608E789E600E1DC9787E
:1042D0009960D968C906FCD4A168043505F8041CA6
:1042E000A16805F8031CA16805F8021CA16805F87F
:1042F000011C3146AFE701319E60013ADE68F606E7
:10430000FCD4A668013505F8016CA4E7E668F6065A
:10431000FCD4A6686E1AB24203DD15F8016B9E60EC
:10432000F4E7024B4FF480329A6170BD00C009205F
:104330000080084007B5002302A901F8013D0123D0
:104340001A4600F01F00FFF773FF9DF8070003B047
:104350005DF804FB13B502AC04F8011D00F01F006A
:1043600000230122214640F02000FFF761FF02B048
:1043700010BD08B51720FFF7DDFFC0F3001008BD22
:1043800070210720FFF7E6BF0A4600230146A02060
:10439000FFF74EBF08B50020FFF7CCFFBDE808408F
:1043A00000F0FE010020FFF7D5BFFFFF024B4FF0EA
:1043B0008072DA61704700BF20C0092008B5002074
:1043C000FFF7B8FF40F00101C9B20020FFF7C2FFBC
:1043D000024B4FF080729A6108BD00BF20C00920D7
:1043E00020210720FFF7B6BF00231A461946E12017
:1043F000FFF71EBF37B504460D46FFF7F5FF204611
:104400002946FFF7C1FF0D4B4FF080721C469A61A1
:104410000022ADF80620BDF8063001339BB2ADF89E
:10442000063033B94FF08073E361FFF7DDFF03B06F
:1044300030BDFFF79EFF0028EDD0F3E720C0092034
:1044400008B51720FFF776FF00F0010080F00100AB
:1044500008BD40210720FFF77DBF08B50A460123AC
:1044600001466120FFF7E4FEC0F3420008BD0023CF
:104470001A461946E220FFF7DBBE70B5064600205B
:104480000D461446FFF756FF16B100F0BF0002E0DC
:1044900040F04000C0B215B100F0DF0101E040F093
:1044A000200114B101F0EF0101E041F01001002002
:1044B000BDE87040FFF74EBF10B504460020FFF77F
:1044C00039FF14B900F0F7010DE0012C04D100F020
:1044D000FB0141F0080106E0022C14BF40F0080186
:1044E00040F00C01C9B20020BDE81040FFF732BF18
:1044F00008B50020FFF71EFFBDE8084040F00201AC
:10450000C9B20020FFF726BF08B50020FFF712FF51
:10451000BDE8084000F0FD010020FFF71BBF40F69A
:10452000DD13984206D840F66213B0F5166F38BF17
:10453000184600E01846A0F51661C9B20520FFF73D
:1045400009BF10B504460620FFF7F4FEFA2C00F070
:10455000D70102D141F0200104E0B4F5FA6F08BFA1
:1045600041F008010620BDE81040FFF7F3BE10B58A
:1045700004460620FFF7DEFE032C28BF032420F0AC
:10458000060040EA4401C9B20620BDE81040FFF72A
:10459000E1BEF9284FF0FA0305D9B0F57A6F88BF6C
:1045A0004FF47A6000E01846B0FBF3F00F2900F1F9
:1045B000FF30C0B228BF0F2141EA0011C9B2042068
:1045C000FFF7C8BE1130C0B2162804D8202928BF72
:1045D0002021FFF7BFBE7047032804D0042814BF72
:1045E0000321022100E001210320FFF7B3BE0A46A8
:1045F000002301463020FFF71BBE0A460023014678
:104600002A20FFF715BEFFFF73B50E461546044678
:10461000FFF72DFFFFF7E8FE2B4B4FF08072DA61BA
:10462000FFF772FF002211460120FFF726FFFFF778
:10463000A7FE0220FFF740FF3046FFF770FF284635
:10464000FFF77FFF0320FFF792FF03210220FFF710
:1046500081FE00210120FFF77DFE03214FF4FA7057
:10466000FFF797FF21460020FFF7ACFF0021122043
:10467000FFF770FE00211320FFF76CFE00211420CD
:10468000FFF768FE00211520FFF764FE00211620C9
:10469000FFF760FE0D4B18681B79009005208DF820
:1046A0000430FFF799FF68460521FFF7A0FF0521B9
:1046B0006846FFF7A2FFFFF71BFF4FF4FA6004F014
:1046C00069FC02B070BD00BF20C009209F5E0200DF
:1046D00070B5174E326822B92021032006F096F8F3
:1046E0003060144D2A6822B92021012006F08EF88E
:1046F0002860114C216821B90322012006F086F8B8
:1047000020604FF4FA6240F6C3112020FFF77CFFCF
:10471000FFF754FE1620094A012104F081FF30689A
:1047200028B1286818B12068003018BF012070BD7A
:10473000E8C40720E4C40720ECC40720E9470100CF
:1047400070B50379014603F0C003C02B0CBF0E4BBC
:104750000E4B88B01D68002306461A46284606F010
:1047600077F8044660B9034602466946284606F0D3
:1047700075F9234622463146284606F069F8044674
:10478000204608B070BD00BFE4C40720E8C407207D
:1047900038B504460D46FFF72BFA237883420AD03A
:1047A000E37843B90AF078FEBD2300F0030000FB74
:1047B000033004F0EFFBFFF7F9FDFFF7EBFDA9B2C3
:1047C0002046FFF717FEFFF70BFEFFF7F7FD06F099
:1047D00049FF022804D1034B0021186806F00CF9A8
:1047E000012038BDECC4072007B5002302A941F819
:1047F000043D084B186806F0FFF8019B3BB1064BDF
:104800004FF080521A60BFF34F8FBFF36F8F03B02A
:104810005DF804FBECC4072004ED00E038B5044665
:104820000D46FFF70DFE48B1A9B22046FFF715FE71
:10483000FFF706FE08B9FFF70CFE012038BD2DE991
:10484000704305460E46144606F00CFF022807D1B9
:10485000224600233146284606F000F9C4B21DE086
:1048600007F0AEFA4FF47A72002308F0C1FF10EBA4
:10487000040841F1000900231A463146284606F093
:10488000EDF8C4B254B907F09BFA4FF47A720023E2
:1048900008F0AEFF894508BF8045ECD22046BDE850
:1048A0007083042938B5054603D1041C18BF0124C0
:1048B00000E0002407F084FA2CB14FF47A72002350
:1048C00008F096FF2860204638BDFFFF00B50C4B6E
:1048D0008DB009930B4B0C4A0B930C4B0A930CAB0A
:1048E00043F8102D002204920FCB8DE80F00084BE7
:1048F000084A01216A20FFF731FA0DB05DF804FB88
:10490000D14601001D480100A34801009147010064
:1049100041470100A45E0200024B0A4601461868A6
:10492000FFF78DBFE8C40720024B0A46014618680E
:10493000FFF785BFE4C4072008B506F093FE0F4BD0
:1049400002285B6913D15A020DD5FFF73BFC002802
:104950000B484FF0000314BF01224FF0FF321946FD
:10496000006806F07BF8BDE80840FFF7C9BA5B02B3
:10497000F9D5FFF727FC0028F5D108BD00C00920B4
:10498000ECC40720F0B5864687B0114F4C1101F0FA
:104990001F0501AE457004700FCF0FC670463B680F
:1049A0000321336006AB03EB840353F8143C6D0022
:1049B000CEF80430E30003F1804303F530331A6886
:1049C00001FA05F522EA05051D6007B0F0BD00BF3C
:1049D000AC5E020030B543780578054C5B0054F8B6
:1049E0003520032101FA03F3134344F8353030BD79
:1049F00040C0024013460A460179006805F039BB01
:104A00001FB5002204AB047923F8042D0222009282
:104A100000680A46214605F017FB9DF80C009DF83A
:104A20000D3043EA002004B010BD10B50446192231
:104A30002A21FFF7DFFF0D222179206805F008FB0E
:104A4000A0F12A035842584110BDFFFF044A1388C1
:104A50001F2B9FBF581C1080024A42F8231070473A
:104A6000F4C40720F8C40720154AF0B51388164689
:104A7000012B21D9134A00201546013B984206DA42
:104A8000516814680130091B42F8041BF6E7002145
:104A90000C466A684FF0010E02EB52008AB2934254
:104AA00008DD55F822700131B8423CBF0EFA02F21F
:104AB0001443F3E7044B1C6000233380F0BD00BFB8
:104AC000F4C40720F8C40720F0C4072008B501216A
:104AD000022007F00FF9084B01209A6A22F0070222
:104AE0009A629A6A42F006029A62044AD36843F0D4
:104AF0003003D36008BD00BF0080004000C002400A
:104B000008B5044B417101F07F015A5C0321FFF7A6
:104B100071FF08BDC05E020008B5044B817101F051
:104B20007F015A5C0221FFF765FF08BDC05E0200ED
:104B300038B504460179006805F0A6FA054688B143
:104B4000002206212046FFF755FF002207212046BC
:104B5000FFF750FF2E212046FFF7D2FF2E212046DF
:104B6000FFF7DAFF284638BD642370B5B1FBF3F4D4
:104B700004FB1311CCB20A21B4FBF1F501FB154182
:104B80003031C9B20646FFF7C7FF092C88BF05F1CF
:104B900030013046BDE8704094BF2021C9B2FFF714
:104BA000AFBF01207047FFFF38B50D46044606F041
:104BB0008BFE05F00F032370114B15F0010F4FF022
:104BC000010214BFDA619A61227812F0020F4FF0ED
:104BD000020214BFDA619A61227812F0040F4FF0DA
:104BE000100214BFDA619A61227812F0080F4FF4B4
:104BF000807214BFDA619A61BDE8384006F074BE75
:104C000020C0092038B50D46044606F05DFE691E39
:104C1000012303FA01F1237820461943C9B2217018
:104C2000FFF7C2FFBDE8384006F05EBE38B50D465E
:104C3000044606F049FE691E012303FA01F12378B8
:104C4000204623EA01012170FFF7AEFFBDE838409E
:104C500006F04ABE0AB1FFF7D5BFFFF7E7BF38B588
:104C60000D46044606F030FE691E012303FA01F1E9
:104C7000237820465940C9B22170FFF795FFBDE85F
:104C8000384006F031BE01207047022004F01CBA03
:104C900001207047044B5B69180B00F00C00C3F354
:104CA00041231843704700BF20C0092010B50446B7
:104CB00081220121FFF79EFE01222179206805F063
:104CC000C7F910F0600F14BF0120002010BD38B5E7
:104CD00000210446FFF794FE812205B201212046FF
:104CE000FFF788FE102095FBF0F008F021FB4FF055
:104CF000765108F071FBA16808F066FA38BDFFFF35
:104D000008B5FFF7E4FF054908F066FB044908F021
:104D100017FC4FF0844108F057FA08BD000010411D
:104D20000000A0402DE9F04FADF2546D0C469046C6
:104D30000146012282A8994602F03EF8002867D178
:104D400021460A220DF22C4002F036F8044620B12A
:104D500082A802F09AFA20465AE06D4606460746B7
:104D60002860019007F02CF84FF47A72002308F0C5
:104D70003FFD2B4683464FF4007202A982A802F041
:104D8000B5F88246E0B92A68D2B107F019F84FF4B5
:104D90007A72002308F02CFDB0EB0B00074407F0FB
:104DA0000FF84FF47A72002308F022FD01AB83461E
:104DB0002A6802A90DF22C4002F050F98246B0B1E7
:104DC000B8F1000F01D0C8F80070B9F1000F01D0A0
:104DD000C9F80060DDF8783603B11C6082A802F0E3
:104DE00054FA0DF22C4002F050FA504610E00199AE
:104DF0002A689142E4D106F0E3FF00234FF47A726F
:104E000008F0F6FC2B68B0EB0B0006441C44A9E745
:104E10000DF2546DBDE8F08FF0B5ADF50B7D0E468B
:104E2000174601461D460122002301A8009301F008
:104E3000C3FF044670B91DB1294601A802F037FA34
:104E40006B463A46314601A802F050F8044601A8E4
:104E500002F01BFA20460DF50B7DF0BDF0B5ADF567
:104E60000B7D0E46174601461D460A22002301A867
:104E7000009301F0A1FF044670B91DB1294601A8B5
:104E800002F015FA6B463A46314601A802F0E6F800
:104E9000044601A802F0F9F920460DF50B7DF0BD9E
:104EA000F0B5ADF50B7D0E46174601461D461222A4
:104EB000002301A8009301F07FFF044680B90DB1E3
:104EC000294600E0049901A802F0F1F96B463A4640
:104ED000314601A802F0C2F8044601A802F0D5F953
:104EE00020460DF50B7DF0BD7F2810B516D931B1E8
:104EF000FF2812D80A4B803833F8100010BD084A3A
:104F000032F811408BB2844203D001318029F7D1AD
:104F10000B4603F18000C0B210BD002010BD00BFE1
:104F2000405F02000649002331F8132032B182426B
:104F300001D00133F8E7034A32F81300704700BF8D
:104F4000406002002062020010B501200C4605F00E
:104F500003FD2060003018BF012010BD0120704704
:104F600010B5044606F07EFB02280AD1002319463C
:104F70004FF0FF32204605F071FD431E5842584164
:104F800010BD012010BD10B5044606F06BFB0228D1
:104F900007D100232046BDE810401A46194605F007
:104FA00057BC10BD10B5044604F056FE24B1012CC8
:104FB00006D100F081F901E000F002FD044600E0B6
:104FC000042404F061FE204610BD28B1012801D060
:104FD0000420704700F028BA7047F8B507460C4621
:104FE00015461E4604F038FE3FB1012F0CD1324663
:104FF0002946204600F020FA04E0324629462046A1
:1050000000F02AFD044600E0042404F03DFE2046A2
:10501000F8BDF8B507460C4615461E4604F01CFEC2
:105020003FB1012F0CD132462946204600F050FAFC
:1050300004E032462946204600F030FD044600E0F8
:10504000042404F021FE2046F8BD70B506460C4647
:10505000154604F001FE36B1012E0AD1294620463C
:1050600000F090FA03E02946204600F037FD0446A0
:1050700000E0042404F008FE204670BD08B506F0E8
:105080009FFE4FF47A72002308F0B2FB08BDFFFFC9
:1050900010B5044607F00EF8074BB0FBF3F00223FF
:1050A000B0FBF3F2944202D3044A136110BDB3F58E
:1050B000807FF9D00233F3E740420F000000034045
:1050C000044B9860DA68D206FCD4024B9868C0B2F0
:1050D000704700BF0000034070B5FFF7CFFF00F539
:1050E000FA74FF20FFF7ECFF0025FF20FFF7E8FF31
:1050F000FF28064605D0FFF7C1FFA94208BFA0421E
:10510000F3D3304670BDFFFF38B5064C4FF0007545
:10511000E561FFF7E1FF044AA561137843F001035D
:10512000137038BD20C0092006C007202DE9704348
:1051300006460D46FFF7A2FF643080464FF0000997
:10514000FF20FFF7BDFFFF2808D1FFF797FF494574
:1051500008BF4045F4D30020BDE87083FE28FAD193
:10516000102D06D900224FF40071304604F012FDD4
:1051700019E0341D0435FF20FFF7A2FF04F8040CEA
:10518000FF20FFF79DFF04F8030CFF20FFF798FFB7
:1051900004F8020CFF20FFF793FF043404F8050C19
:1051A0002B1BDE42E7D1FF20FFF78AFFFF20FFF72E
:1051B00087FF0120BDE8708370B506460D46FFF7F6
:1051C0008BFFFF28044619D12846FFF779FFFD2DF4
:1051D00016D022464FF40071304604F0DBFC204626
:1051E000FFF76EFF2046FFF76BFF2046FFF768FFD3
:1051F00000F01F00431F5842584170BD002070BD91
:10520000012070BD020638B504460D4607D50021C1
:105210007720FFF7F7FF012838D804F07F041C4BF4
:105220004FF000729A61DA61FFF756FFFF280146DE
:1052300028D12046FFF744FF280EFFF741FFC5F3B2
:105240000740FFF73DFFC5F30720FFF739FFE8B23E
:10525000FFF736FF402C17D0482C14BF01208720C1
:10526000FFF72EFF4C2C02D10846FFF729FF0A2139
:10527000FF20FFF725FF030608D5013911F0FF01D4
:10528000F6D138BDFF2038BD9520EEE738BD00BF10
:1052900020C00920064A074913784969DBB2490151
:1052A00054BF03F0FD0343F003031370704700BFC6
:1052B00006C0072020C009202DE9F743FFF7EAFFC9
:1052C000564B1A781E4612F0020F01D01878A1E052
:1052D0000120FFF7DDFE0A24FF20013CFFF7F0FE6E
:1052E00014F0FF04F8D14E4F4FF00073FB612146DC
:1052F0004020FFF787FF012802D04FF0000875E03B
:10530000FFF7BCFE4FF4D57100F57A754820FFF722
:1053100079FF012841D10DF10408FF20FFF7D0FEED
:1053200008F804000134042CF7D19DF80630012B55
:10533000E3D19DF80730AA2BDFD12C460025FFF7DB
:105340009DFEA94208BFA04206D3FFF797FEA942DF
:1053500008BFA042D1D207E04FF08041E920FFF71B
:1053600051FF0028EBD1F0E700217A20FFF74AFF38
:105370000028C2D10146FF20FFF7A2FE08F8010075
:1053800001310429F7D19DF8043013F0400F14BF08
:105390004FF00C084FF0040828E02146E920FFF701
:1053A00031FF02282C4635BF4FF002084FF00108AC
:1053B0004FF0E9094FF041090025FFF75FFEA942D0
:1053C00008BFA0420BD3FFF759FEA94208BFA04275
:1053D0000CD34FF400715020FFF714FF06E00021BA
:1053E0004846FFF70FFF0028E7D1ECE70D4B83F8A5
:1053F00000804FF00073BB61B8F1000F07D0337825
:10540000182003F0FE033370FFF742FE01E0FFF7C0
:105410007BFE3078C0B203B0BDE8F08306C0072041
:1054200020C0092078C5072008B5FFF733FF014BDE
:10543000187808BD06C0072070B514460646084611
:10544000FFF728FF002C39D01E4B1B78DB0737D421
:105450001D4B4FF00072DA611C4A1D46127812F0A3
:10546000080F08BF4002012C01460CD15120FFF764
:10547000C9FEE0B94FF400713046FFF757FEB0FAAD
:1054800080F4640913E05220FFF7BCFE78B94FF4B2
:1054900000713046FFF74AFE28B1013C14F0FF04CA
:1054A00006F50076F3D100214C20FFF7ABFE4FF05C
:1054B0000073201CAB6118BF012070BD042070BDBB
:1054C000032070BD06C0072020C0092078C5072032
:1054D000F8B5144606460F46FFF7DCFE002C44D014
:1054E000254B1A78D20742D41B785B0741D4234B53
:1054F0004FF00072DA61224A1D46127812F0080F4E
:1055000008BF7F02012C0CD139465820FFF77AFEE4
:1055100018BBFE213046FFF74FFEB0FA80F4640955
:105520001CE012F0060F03D02146D720FFF76AFED9
:1055300039465920FFF766FE80B9FC213046FFF757
:105540003BFE28B1013C14F0FF0406F50076F4D1CF
:10555000FD210020FFF730FE00B901244FF0007359
:10556000201CAB6118BF0120F8BD0420F8BD03204A
:10557000F8BD0220F8BD00BF06C0072020C00920EA
:1055800078C507207FB50D46FFF784FE05281AD1A0
:105590002B78012B00F0048103D3022B0BD00420C5
:1055A00001E1824B586910F0806440F0F980FFF708
:1055B000ABFD2046F7E07D4B5B6983F08063C3F36E
:1055C00080636B70ECE07A4B1B78DB0700F1EA80BC
:1055D0000E2800F2DF80DFE800F008124F53DDDD17
:1055E000DDDDDDDDAAAFB2BBCB00704B4FF000724A
:1055F000DA61FFF771FDFF3818BF0120CBE0002111
:105600004920FFF7FFFD044608B10120C3E0102147
:105610006846FFF78BFD0028F7D09DF800309DF815
:1056200008109B09012B9DF8093006D1013303EBCB
:10563000012189B2890229606BE09DF807209DF85D
:105640000500920002EB91119DF8062001319202B3
:1056500002F4406211449DF80A2000F00F0000EBB4
:10566000D2105A00023002F006028318DBB289B26F
:10567000093B01FA03F34BE04FF400732B8059E030
:105680004C4E337803F0040303F0FF01F3B1002123
:10569000CD20FFF7B7FD0028B7D1FF20FFF710FDA1
:1056A00010216846FFF742FD0028AED03021FF20D0
:1056B000FFF706FD481E10F0FF01F8D19DF80A30F3
:1056C00008461A09102393402B6064E04920FFF735
:1056D00099FD0446002898D110216846FFF726FD61
:1056E000002892D036789DF80A2006F0020606F0CF
:1056F000FF009DF80B3076B1520002F07E0202EB03
:10570000D3135A1C9DF80D309B09013B02FA03F399
:105710002B6020463FE0D90001F01801C2F384025B
:1057200001EB5311531C01FB03332B6033E0214B7E
:105730001B782B7000202EE00021492001E0002181
:105740004A20FFF75FFD00287FF45FAF10211AE0C9
:1057500000217A20FFF756FD00287FF456AF291D5F
:10576000FF20FFF7ADFC05F8010B8D42F8D1E1E712
:105770000021CD20FFF746FD00287FF446AFFF2033
:10578000FFF79EFC40212846FFF7D0FCB0FA80F0DE
:10579000400900E00420054B4FF000729A6102E0DE
:1057A000002000E0032004B070BD00BF20C009202D
:1057B00006C0072078C50720054B1B78253BDBB2C8
:1057C000032B9ABF034A52F823000020704700BF02
:1057D0007CC50720086402001B4B2DE9F0411D88A1
:1057E0000646B5F5007F0F46144602D12A462146EB
:1057F00013E0B5F5807F09D12A4621463846B047E7
:105800002A4604F5807107F5807016E0B5F5047F2F
:1058100005D1510A89024FF4007238460DE0B5F502
:10582000847F0ED1140A61024FF480723846B0476B
:10583000611C4FF480724902B8183346BDE8F0414C
:105840001847BDE8F08100BF7AC5072030B52F4C5E
:1058500003462546002958DD07291A782DDDA26068
:105860005A780839A2609A78A260DA78A2601A7928
:10587000A2605A79A2609A79A26003F10802DB79EA
:10588000A360A3695B07FCD5AB680370AB6843708A
:10589000AB688370AB68C370E368DB06FCD4AB68AD
:1058A000083000F8043CAB6800F8033CAB6800F833
:1058B000023CAB6800F8013C1AE003291ADDA26043
:1058C0005A780439A2609A78A2601A1DDB78A36026
:1058D000E368DB06FCD4AB68043000F8043CAB683A
:1058E00000F8033CAB6800F8023CAB6800F8013CF0
:1058F0001346AFE70133A2600139E268D206FCD457
:10590000AA68013000F8012CA4E730BD0000034074
:1059100007B50B0C8DF805308DF807100B0A042124
:105920008DF804000DEB01008DF80630FFF78EFFB7
:1059300003B05DF804FBFFFFF7B5174606460E4CB3
:1059400040250323E5618DF804300B0C8DF80530FC
:105950008DF807100B0A04210DEB01008DF80630BD
:10596000FFF774FF00223946304604F013F9A561B1
:10597000A561A56103B0F0BD00C009200E4B402217
:10598000DA610E4BD7229A601A46D1680B4BC906D2
:10599000FBD49A681A46FF219960D068C006FCD4EF
:1059A000906810F0800FF7D0034B40229A61C0B28C
:1059B0009A619A61704700BF00C00920000003404F
:1059C000F7B5FFF7DBFF1F4C002323801E4B1F4E54
:1059D00040271A889B78F7610321054601A8ADF896
:1059E00004208DF80630FFF731FF9DF805209DF863
:1059F00006301F2AB7612146B761B7611CD1A3F1F8
:105A00002502032A18D8124A252B137005F001002D
:105A100006D1002814BF4FF480734FF4847305E05F
:105A2000002814BF4FF400734FF404730B80FFF78A
:105A3000C3FE084B400A18600888B0FA80F040099D
:105A400003B0F0BD7AC507200064020000C0092041
:105A50007CC5072080C50720F8B58B1817460D4A6E
:105A6000013B12680446934210D84D02FFF786FFAF
:105A700000262D1BBE4204EB050209DA214606482A
:105A8000FFF7AAFE04F500740136F3E70120F8BD24
:105A90000020F8BD80C5072039590100F8B58B18E2
:105AA00017460C4A013B126893420FD80446002661
:105AB000C0EB4125BE4204EB050209DA2146064847
:105AC000FFF78AFE04F500740136F3E70120F8BD04
:105AD0000020F8BD80C50720BD5B010008B5072880
