:020000021000EC
:10000000E03F082095010100FB000100E100010034
:10001000090101001901010029010100000000008F
:1000200000000000000000000000000031BE0100E0
:10003000390101000000000091BE010059010100DA
:1000400071C4010071C4010071C4010071C40100D8
:1000500071C4010071C4010071C4010071C40100C8
:1000600071C4010071C4010071C4010071C40100B8
:1000700071C4010071C4010071C4010071C40100A8
:1000800071C4010071C4010071C4010071C4010098
:1000900071C4010071C4010071C4010071C4010088
:1000A00071C4010071C4010071C4010071C4010078
:1000B00071C4010071C4010071C4010071C4010068
:1000C00071C4010071C4010071C40100809A020072
:1000D00000C00720FC02000000C30720501E0000E3
:1000E00004207146084203D0EFF309800CF0DEB91A
:1000F000EFF308800CF0DAB9704708B5014808F052
:10010000B1FDFEE70292020008B5024808F0AAFD20
:10011000FEE700BF0D92020008B5024808F0A2FDFC
:10012000FEE700BF1892020008B5024808F09AFDE9
:10013000FEE700BF2392020008B5024808F092FDD6
:10014000FEE700BF3092020008B5024808F08AFDC1
:10015000FEE700BF3E92020008B50BF01FFE0BF059
:10016000B9FEBDE808400BF02DBE0B4610B5401A95
:100170005C1AA24203D9C45843F8044BF8E710BDF7
:10018000034610B500221C1AA14202D943F8042BE1
:10019000F9E710BD16480BF03FFF15480BF03FFF85
:1001A000144C154DAC4201D3144D07E094E8030004
:1001B0000C3454F8042CFFF7D8FFF3E7AC4206D216
:1001C00054F8080B54F8041CFFF7DAFFF6E710F0B8
:1001D000D3F80BF03BFF01F0DBFD03F009FE4FF419
:1001E00016400CF081FA064808F03CFDFEE700BF1F
:1001F000E03F0820CC000100D8000100E000010031
:10020000529202000BF028BE0BF036BE144B10B514
:100210001A68014612B94FF080521A60114C1868E2
:100220002468421894421A6007D20F4CA24204D8A4
:100230000E4A0B488C18046010460D4A1B68126861
:10024000934222BF064B00201A6039B1094A136855
:1002500001331360084B1860084B196010BD00BFD4
:1002600004C307200CC30720FFBF072050E107206D
:1002700010C3072014C3072000C3072008C30720AA
:1002800010F0B2B910F0B8B910F0B6B930B50446F4
:100290008BB0684610F064FC224B079A2360089BE1
:1002A000214DA36062602149214B52B90A68186848
:1002B00082428ABF02F1604202F17042A2F5E82256
:1002C000626062681B68B2F5803F82BF02F17042D3
:1002D000A2F5E82262600022E2600A68934206D337
:1002E000991AC5F1005303F504230B440BE0114B9D
:1002F0001B68934208D9991AC5F1005303F5F823F6
:100300000B44002B00DDE36020460B4BE2611B68D1
:10031000A3610A4B1B686361094B1B6823610BB027
:1003200030BD00BF5021000050E1072004C307206A
:100330000CC3072010C3072000C3072008C30720F1
:1003400014C3072000207047034A044B1A60044A74
:10035000044B1A60704700BF008000100CC30720D8
:100360000040082010C30720014B1860704700BFF1
:1003700020C30720014B1860704700BF18C3072037
:1003800008B5024811F0A2FBFEE700BFC8680200F2
:1003900008B5024811F09AFBFEE700BFE2680200D0
:1003A0000020704701207047F8B5084B16461A68C0
:1003B0000F461C4642B10D46EB1B9E4204DD2368EE
:1003C00015F8010B9847F7E73046F8BD20C3072022
:1003D000F8B5094B0F46186816461C4658B10D462D
:1003E000EB1B9E4205DD23680020984705F8010BB2
:1003F000F6E726EAE670F8BD18C30720704700202C
:100400007047FFFF074B1B689A68824207D05A6803
:10041000824204D0DB681B1A5842584170470120C1
:10042000704700BF40C10720002070470020704780
:1004300030B504468DB0A8B3684609F075FD9DF847
:100440000030002503F03F0303939DF8013003A81B
:1004500003F03F0304939DF802300B9503F01F0354
:1004600005939DF8043003F01F0306939DF80530B3
:1004700003F00F03013B0793BDF80630C3F30B03F2
:10048000A3F26C7308939DF8033003F007030993FC
:10049000BDF80830C3F30B03013B0A9310F0EEF9EB
:1004A00084E8210000200DB030BDFFFF70B50F4D76
:1004B0000F4E2C6814F0010415D128460CF0B4FC42
:1004C00088B14FF40E70FFF7DBFE302380F8353231
:1004D0003A2380F8344280F8363280F83742306070
:1004E00028460CF0ADFC306870BD00BF3CC307204F
:1004F00040C3072070B50F4D0F4E2B6813F0010459
:1005000016D128460CF090FC90B14FF40E70FFF716
:10051000B7FE012380F83432312380F835323A2394
:1005200080F8363280F83742306028460CF088FC7C
:10053000306870BD34C3072038C307202DE9F04F61
:10054000ADF51B7D0F4608F0B1FF041E04DD0BF076
:10055000EDFB20460BF030F90DF114094C462A4D05
:100560004FF0640B0FCD0FC42B6804AA2360102139
:1005700000240AA804940BF0DDFA244A8246244998
:10058000384609F061FF26460AAD4FF00008D04515
:100590001CD06B69A34215D1AA69049B16441BB1F8
:1005A000B3FBFBF3B2FBF3F3297B039202932B8C97
:1005B00000949B00019359F821306A681549384628
:1005C00009F042FF08F101082435E0E701340A2C64
:1005D000DAD1049B64229E1BB3FBF2F30E49B6FBF7
:1005E000F3F30E4A0096384609F02EFF0AF0B8FFE2
:1005F000102804D910220A49384609F025FF0120A5
:100600000DF51B7DBDE8F08FFC6802001B69020040
:1006100020690200476902006F69020064690200F4
:100620008E69020010B50C46ADF5007D68460BF0F2
:10063000A5FE20464FF0FF32694609F0CFFE0120AB
:100640000DF5007D10BDFFFF30B50C4691B02C4973
:10065000054608F037FE002847D00CAB04930BABDF
:1006600003930AAB029309AB019308AB009306AA6C
:1006700007AB2449284608F08DFD072801D000204B
:100680003BE09DF83930069A0DA862F303038DF81C
:100690003930079A9DF8383062F304038DF838300A
:1006A000089ABDF83A3062F30B03ADF83A30099A74
:1006B0009DF8363062F304038DF836300A9A9DF8BF
:1006C000353062F305038DF835300B9A9DF83430E0
:1006D00062F305038DF834300C9A9DF8373062F3DD
:1006E00002038DF8373009F047FC09F0E1FC0649B8
:1006F0000246204609F0A8FE012011B030BD00BF1F
:10070000B8690200BC690200628A0200F7B50D46B2
:100710004E49044608F0C6FE064640B108F03AF9D4
:100720004FF0FF324A49284609F058FE8BE049490C
:10073000204608F0B7FE60B308F050F9464902467B
:10074000284609F081FE08F055F94449024628463A
:1007500009F07AFE08F048F941490246284609F0B6
:1007600073FE304608F030F90446012008F02CF9F9
:100770000646022008F028F90746032008F024F96D
:1007800000970190334622463649284609F05CFE20
:1007900059E03549204608F095FD50B1202201214D
:1007A000204608F02DFE204608F07EFE08F03AFABA
:1007B00049E02E49204608F085FD064620B92C491F
:1007C000204608F07FFD60B32A49204608F068FD06
:1007D00060B92949204608F063FD28B92046274919
:1007E00008F05EFD044602E0032400E002243146E6
:1007F000204608F06FF9224A224B002E18BF1A46F5
:100800003CB1012C07D01C491A4B022C18BF0B46D7
:1008100002E01D4B00E0194B1C49284609F014FE6C
:1008200011E0204608F040FE194A1A490090F323CF
:10083000012008F05DF9204608F036FE1649024610
:10084000284609F001FE012003B0F0BDF76902005F
:10085000FD690200166A02001D6A0200326A020087
:10086000476A0200666A0200966A02009A6A0200FB
:10087000A26A0200F2690200EC690200E67B020053
:10088000DD690200D5690200E6690200AB6A020078
:1008900010690200C46A0200F76A020030B589B02C
:1008A00004AB002400930D4603AB022218490394C5
:1008B000049408F07DFC022827D107AB009305AA19
:1008C00006AB0499039805940694079404F06EFD12
:1008D000024638B1049B0F4900932846039B09F058
:1008E000B3FD10E0059A069B002A079908BF012274
:1008F000002B08BF0123B1FBF3F3B1FBF2F2284652
:10090000054909F0A1FD012000E0204609B030BDF5
:10091000867B0200056B0200246B02002DE9F04784
:100920000E46ADF5856D3949054608F055FD384947
:100930000746284608F079FD3549284608F095FD18
:10094000284608F0B1FD0122014681A806F078FD95
:10095000044640B1284608F0A7FD2E49024630461D
:1009600009F072FD4CE00DF1040A01464FF40072EB
:1009700050460FF09EFE00940BF0EAFC804689463C
:100980006B464FF40072514681A806F0F3FD08B99A
:10099000009B23BB81A806F0BCFFCFB10BF0D8FCB5
:1009A0004FF47A7200230FF04FFA002305464FF4FC
:1009B0007A72404649460FF047FA281A14BF034698
:1009C0000123B4FBF3F322461349304609F03CFD02
:1009D0004FF0FF321149304609F000FD10E01C4491
:1009E000002FCDD13D46009B9D42C9D233681AF8F5
:1009F00005105B684FF0FF32304698470135F2E74B
:100A000001200DF5856DBDE8F08700BF526B020037
:100A1000867B02005B6B02006F6B0200FD700200C0
:100A20002DE9F0470023BEB00C46534905460C9310
:100A300008F038FD20B9284608F036FD064600E0EB
:100A40004E4E314615A807F01DF8054630B1034655
:100A500032464B49204609F0F7FC89E032464949C5
:100A6000204609F0F1FC2F460DF1780880230DA9EE
:100A700015A8CDF84C80149307F048F8002861D1F0
:100A80009DF83D30002B5DD09DF83C100DF13D00F0
:100A9000CA065BBF0D9B0C9A44229B185BBF0C934C
:100AA0002D220135013711F0010F14BF52232D23E0
:100AB000BDF83AA011F0020F09900D9814BF4FF045
:100AC000480E4FF02D0E11F0040F14BF4FF0530CD1
:100AD0004FF02D0C089011F0200FCAF34510BDF80F
:100AE000381007904FEAEA20069001F01F000590A9
:100AF000C1F343104FEA612114BF4FF041094FF099
:100B00002D0901F2BC71CDF804C0CDF800E00490CD
:100B10000391CDF808901C49204609F095FC4FF050
:100B2000FF321A49204609F045FC41464FF0FF329A
:100B3000204609F03FFC4FF0FF320F49204609F0F4
:100B40004DFC91E73A46124900950C9B204609F06E
:100B50007BFC0BAA0CA9304607F007F840B90B9BA9
:100B60000C499A780C9B20465A43520809F06CFCB9
:100B700001203EB0BDE8F087FD7002008A6B0200E4
:100B80008D6B0200B16B0200CC6B0200F96B0200AE
:100B9000FD6B0200276C020070B50C46064608F09B
:100BA00083FC0546304608F07FFC07F0A0F8064AB3
:100BB000064B0749002808BF13462A46204609F07D
:100BC00043FC012070BD00BFDD6D0200E76D020037
:100BD0003B6C020070B50C46064608F065FC054605
:100BE000304608F061FC07F025F8064A064B074935
:100BF000002808BF13462A46204609F025FC01209C
:100C000070BD00BFDD6D0200E76D0200576C020091
:100C10007FB503AB002400930E4602AB02220F49BE
:100C20000294039408F0C4FA022814D1029C039D94
:100C30002046294607F004F9094B0A4922460028B4
:100C40000CBF084618462B4600900749304609F06D
:100C5000FBFB012000E0204604B070BD867B020053
:100C6000E76D0200DD6D0200696C020030B5ADF584
:100C70000D7D0C46054608F017FC0A22014603A824
:100C800006F0DEFB40B1284608F00EFC1F49024684
:100C9000204609F0D9FB34E08DF8070002901C498A
:100CA00042F210737E22204609F0CEFB19492046FD
:100CB00009F0CAFB236842F210721B680DF10701AC
:100CC0002046984718B19DF807307E2B03D103A822
:100CD00006F01FFE15E002AB01220DF1070103A88B
:100CE00006F000FD58B9029B012B08D123684FF094
:100CF000FF325B689DF8071020469847DAE70649FF
:100D0000D5E701200DF50D7D30BD00BF816C0200DF
:100D1000A86C0200E06C0200006D02002DE9F04FAB
:100D2000ADF5417D002304AC236003930D46009490
:100D300003AB0222414908F03BFA022806D04FF0EB
:100D4000FF323F49284609F049FB72E0216817A8A5
:100D500006F098FE10B122683A4906E0039917A8F8
:100D600006F090FE28B1039A3749284609F06CFB3B
:100D70005FE04FF480720DEB020105A808F0DAF98C
:100D80004FF4807280A90AA808F0D4F920AE802719
:100D90000FA917A81596169706F0B8FE002842D19D
:100DA0009DF84530002B3ED09DF8443003F01003F1
:100DB00003F0FF0A002BEBD10DF14503039A234901
:100DC00005A808F0BBFB0DF1450322681F490AA8DE
:100DD00008F0B4FB05A808F067FB07460AA808F06E
:100DE00063FB804605A8DDF83C9008F05DFB834678
:100DF0000AA808F059FB534652460146CDF800A018
:100E0000584604F0D3FA124A124BCDF8009000284D
:100E10000CBF184610461049019043463A462846F2
:100E200009F012FBB3E70AA808F099F905A808F041
:100E300096F901200DF5417DBDE8F08F867B02001B
:100E4000276D02006C6D0200916D0200B16D020011
:100E5000E76D0200DD6D0200B76D0200F8B50D46CA
:100E60002449064608F01EFB0446074618B1FFF762
:100E700041FB002208E02049304608F013FB0446FD
:100E800060B1FFF713FB3A46114600F2352007F038
:100E900067F84FF0FF32194B194922E019493046E3
:100EA00008F000FB044658B1FFF724FB012200F2D2
:100EB000352106F087FA4FF0FF32134B134910E04B
:100EC0001349304608F0EEFA044680B1FFF7EEFA17
:100ED000012200F2352106F075FA0E4B0E494FF053
:100EE000FF32002818BF1946284609F077FA204635
:100EF000F8BD00BF3E6E0200486E0200E06D0200C9
:100F0000D66D0200556E0200FD6D0200ED6D02000F
:100F10005E6E0200226E0200146E020008B50846E2
:100F20004FF0FF32084909F059FA07F033FD4FF44A
:100F3000FA600AF041FC4FF08043AA221A720022A4
:100F40001A70012008BD00BF6A6E020010B50120B2
:100F50000C4608F0E3F840B100231A46194609F0A0
:100F60003DFF4FF0FF32054902E005494FF0FF32E7
:100F7000204609F033FA012010BD00BF7B6E02004D
:100F8000916E020038B5064C236833B91C20FFF778
:100F900077F9054608F0D0FE2560206838BD00BF0F
:100FA0002CC307202DE9F04F5F4C91B023680E460B
:100FB00033B92C20FFF764F9054609F051F9256093
:100FC0002768FFF773FA00240CAA0DA900F2352058
:100FD0000D9406F0CAFD48B90C9A0D9C956993785A
:100FE000023D5C435D4364086D0800E025464F4BBD
:100FF0001A6898467AB90C20FFF742F98146FFF744
:10100000C1FF902389F804300023C9F80000C9F813
:101010000830C8F80090D8F8000004F0B5F981460F
:101020000EF0CCFE0A900EF0AFFC014648460EF0E2
:10103000F5FB3F490EF0FCFC0EF0C0FE81460DA80A
:101040000AF0FAFF05F0F6F868B309F0ABF805F01E
:10105000DBF84FF0000A0346D346D0469A450B937F
:101060000BD0504605F034F9804538BFD3460B9B72
:1010700038BF80460AF1010AF0E709F0ABF86423B3
:1010800003FB08F32B4ACDF80880B3FBF2F3C3F15E
:1010900064030093CDF804B02B462246264930461F
:1010A00009F0D2F905E02B4622462449304609F0E2
:1010B000CBF9234C23681BB90120FFF7E1F820602E
:1010C000206804F025F9044608F0F2FFFB8C0A9A28
:1010D0000993BB8C1B4908939DF83430019003F0B1
:1010E0003F0307939DF83530009403F03F030693C8
:1010F0009DF83630304603F01F030593BDF83A30B3
:10110000C3F30B0304939DF8383003F01F030393DC
:101110009DF8393003F00F0302934B4609F094F920
:10112000012011B0BDE8F08F30C3072024C3072091
:1011300000002041A0860100CA6E0200FE6E02007F
:1011400028C307200C6F02002DE9F04F0D46C7B0F1
:101150005549814608F0CDF854498246484608F082
:10116000C8F853498346484608F0C3F800270DF1F4
:10117000100805AE044602970397C8F80070376060
:10118000BAF1000F45D0009603AB02AA4949484680
:1011900008F000F8012807DC28464FF0FF324649E6
:1011A00009F01CF938467CE00DF118084FF4807402
:1011B0002246394640460FF07CFA336813B90123C2
:1011C000336003E0B3F5807F88BF3460FFF7DAFE59
:1011D00033689DF80C209DF808100093434609F0F1
:1011E000F9F9364A364B3749002818BF1346029A98
:1011F000284609F029F9002433689C424ED2039A0C
:1012000018F8043022443049284609F01DF9013409
:10121000F2E7BBF1000F2CD0CDF8008003AB02AA9F
:101220002A49484607F0B6FF032807D028464FF062
:10123000FF32274909F0D2F8504632E0FFF7A2FE0C
:1012400098F800309DF80C209DF8081009F0D7F9A7
:1012500048B1039B1F490093D8F80020029B284601
:1012600009F0F2F81AE0029A1B49284609F0ECF856
:1012700014E0A8B102230293029BFE2B10DCFFF7BF
:1012800081FE9DF8081009F0C5F920B1029A1349B2
:10129000284609F0D9F8029B0233ECE7012000E070
:1012A000204647B0BDE8F08FA57C0200756F0200B4
:1012B0007B6F0200846F0200936F0200DD6D0200FD
:1012C000E76D0200B46F0200D86F0200E86F020001
:1012D000F86F02001F7002003970020056700200A1
:1012E00070B5ADF50A7D05460C4607F04AFF0B28A0
:1012F00002DD0C2222493CE0284608F0D5F8012204
:10130000014601A806F09CF8064668BB01A806F055
:1013100000FB284608F0C8F81A490246049B2046FC
:1013200009F092F8236820469B6898470A200AF043
:1013300043FA4FF0100383F31188BFF36F8FBFF3AD
:101340004F8F284608F0B0F802460F4B00685168EE
:1013500003C390680D4A186043F80C2C4FF080438B
:10136000AA221A721E7007E0284608F09DF802466D
:101370000749204609F068F801200DF50A7D70BD87
:1013800090700200B7700200484002400DD0ADDE00
:10139000FE7002002DE9F041404CA4B023680646DF
:1013A000DB070D460CD420460BF03EFD40B14FF458
:1013B00080600FF019F93A4B186020460BF040FDA1
:1013C0003849304607F095FF0746044600B38022AF
:1013D000002104A80FF06DF900230293039303ABDF
:1013E000009304AA02AB3049304607F0D3FE2C49E3
:1013F000029B039A096804A813B904F073F801E08A
:1014000004F092F8294B2A49002818BF194638E001
:101410002849304607F06DFF074600283AD004AB54
:10142000304603AA2449039404948DF8084007F039
:10143000B1FE039E049B3344B3F5806F02DCDFF8FA
:1014400060800CE04FF480621C4920E0D8F8003046
:101450009DF808209A559DF8083001361C44039BDE
:10146000049AF31A934210DAB6F5806F0DDA2B68FE
:101470004FF4FA621B6802A9284698470028E5D174
:101480000F49284608F0E0FF04E022460D492846AF
:1014900008F0DAFF384624B0BDE8F08148C30720E1
:1014A00044C3072029710200307102001771020045
:1014B0001371020040710200477102005171020075
:1014C000757102008571020038B50D4607F0EEFF18
:1014D0000446C0B202F0AEFE054A064B064900289B
:1014E00018BF13462246284608F0AEFF012038BD3B
:1014F000DD6D0200967102009D71020030B50C4650
:10150000054687B00A4908F09FFFA1882388049107
:10151000218962880391E18828460291E17A01914C
:10152000A17A0091034908F08FFF07B030BD00BFDA
:10153000B4710200EA7102002DE9F0418CB003ABF6
:10154000002600930D46904602AB022238490296CF
:10155000039607F02DFEB04266DD02980EF00BFEFA
:10156000C7B2039818B110F0B3FDC4B200E004464E
:10157000002104A803F0FEFC30B14FF0FF322D49EA
:10158000284608F02BFFF3E7022318F1000100932F
:10159000039A234618BF0121384602F08FFF064602
:1015A00038B94FF0FF322449284608F017FF0126CA
:1015B0003AE0B8F1000F37D04FF47A7104A803F085
:1015C000E1FC60B39DF81030BB4228D19DF8173084
:1015D0000C2B04D13A4606A92846FFF78FFFBCB969
:1015E0001649284608F030FF9DF817309C420ADA69
:1015F00004AB19192B684FF0FF325B68097A284653
:1016000098470134F0E70E49284608F01DFF0BE02B
:101610004FF0FF320B49284608F0E0FE04E0029A42
:101620000949284608F010FF30460CB0BDE8F081AB
:10163000867B0200087202002A72020052720200C7
:101640007F78020066720200837202001FB501A853
:101650000C4603F011F902F0F9FD01A902462046FB
:10166000FFF74CFF012004B010BDFFFF30B58BB079
:101670000AAA4FF47A730C4642F8243D174907F042
:1016800089FD0025019902A803F074FCD8B19DF8EA
:1016900008201349204608F0D7FE00259DF80F309A
:1016A0009D420ADA02AB591923684FF0FF325B689A
:1016B000097A204698470135F0E70A49204608F0A4
:1016C000C3FE0125DEE72DB94FF0FF320649204663
:1016D00008F084FE01200BB030BD00BF4E71020047
:1016E000A9720200FC700200C072020037B50C46FD
:1016F00002F026FF05461649204608F0A5FE1549CA
:101700002A46204608F0A0FE1149204608F09CFE1B
:10171000D5B11149204608F097FE0D49204608F042
:1017200093FE0025E8B202F0F5FE013540B1817864
:101730004378027800912046084908F085FEF1E7D9
:101740000349204608F080FE012003B030BD00BFF1
:10175000D1720200EC7202000673020021730200D3
:101760002DE9F3473C4C074626688946002E62D196
:101770002420FEF785FD0423054680E848008660A6
:10178000C6602021304610F00BFAAE68E8604FEAE0
:101790008608072E0ED81020FEF772FD8246102212
:1017A00000210EF086FFEB68013643F808A008F12F
:1017B0000408EEE7002608236B604FF00108274B72
:1017C000274A28492846009685F82080256006F09B
:1017D00053FE254B254A26492068009606F04CFE0C
:1017E000244B254A25492068009606F045FE244BE7
:1017F000244A25492068009606F03EFE234B244AE1
:1018000024492068009606F037FE234B234A2449DA
:101810002068CDF8008006F02FFE224B224A204996
:101820002068009606F028FE0096204B204A2149A9
:10183000206806F021FE2049384607F033FE18B133
:101840001E49384607F0E8FE4A463946206802B08D
:10185000BDE8F04706F0F0BE50C307203C7302001D
:10186000767302000D1B01007D730200D17302002C
:10187000E1180100DA730200FD7302006D16010029
:10188000007402005F790200C91401002A7402008A
:1018900046740200ED1601004D740200B47402009B
:1018A000391501008E740200B3740200B87402008E
:1018B000D37402004D160100FD700200D9740200BD
:1018C00038B5064C236833B95820FEF7D9FC0546D5
:1018D00008F00AFB2560206838BD00BF4CC3072014
:1018E0002DE9F04F0446ADF2DC5D802288460DA85C
:1018F00000210EF0DEFE802200212DA80EF0D9FE80
:1019000006AE002333600DAA00962DAB7549204624
:1019100007F040FC032801D00020DFE001220DA9E0
:10192000EDA805F08DFD05460028F5D1FFF7C8FFAD
:101930003368802280F853304DA9044608A88DF8FA
:101940001750079507F0F6FB2DAB009333680DAAEF
:101950006549404608F078FDA94607AE33464FF486
:1019600000726DA9EDA805F005FE002840F0AF80DB
:101970003368002B00F0AB806F1C32685B49204657
:1019800008F062FD236820469B6898477D1E0DF590
:10199000DA7B4FF0000A6DAB3268C3EB0B039A425F
:1019A00023680CD9CDF80CB05B684FF0FF321BF800
:1019B000011B20469847039B1B789A44EBE79B68E2
:1019C0002046984708A807F06FFD834608A807F04F
:1019D000DBFB4FF47A7302465946204608F00CFDB3
:1019E000202201210DEB020007F00AFD08A807F0F4
:1019F0005DFD824520D008A807F058FD52460346F9
:101A00003B49404608F020FD3A49204608F01CFDBD
:101A1000236820469B68984723684FF47A721B68B6
:101A20000DF11701204698470028F5D1022F07F144
:101A300001034CD81F46A0E733682DAA2E49009316
:101A400020464B4608F000FD236820469B689847D7
:101A500008A807F029FD824608A807F095FB514623
:101A600002464FF47A73204608F0C6FC234908A8C2
:101A700007F016FCD0B908A807F016FD2049024669
:101A8000404608F0E1FC1B49204608F0DDFC2368D5
:101A900020469B68984723684FF47A721B680DF1C3
:101AA0001701204698470028F5D1BFE7154908A837
:101AB00007F0B2FD3368144999444A46F09B40460A
:101AC00008F0C2FC002D3FF448AFBD1E45E7EDA86D
:101AD00005F01FFF08A807F042FB01200DF2DC5DB6
:101AE000BDE8F08FDE740200ED74020004750200A0
:101AF00016750200FC7002003D750200537502006D
:101B000056750200FD7002008E7502002DE9F04747
:101B1000074686B006AA002442F80C4D0E463D4901
:101B200007F038FB20220121384607F069FC039BAF
:101B3000002B65D0384607F024FB002860D0FFF763
:101B4000BFFE05460DF1180808F80D4D2B6805225B
:101B50001B6841462846984704460028F6D1039B57
:101B6000384685F8533007F09FFC274601464FF072
:101B7000FF32284608F032FC2B6828469B689847BD
:101B8000254B0DF11809186849F8044D04902B688D
:101B90004FF47A721B68414628469847D0B1032219
:101BA0000DF1150148460EF069FD9DF80BA00422C9
:101BB00004A948468DF817A00EF046FD50B13368D1
:101BC00001225B6851463046013798470028DED134
:101BD0000134DCE71822B7FBF2F302FB137202B107
:101BE00001333A460D49304608F02EFC74B16123AA
:101BF000009322460A4B0B49304608F025FC05E0CD
:101C00004FF0FF320849304608F0E8FB012006B0EB
:101C1000BDE8F0874E710200927102009A750200D1
:101C2000C1750200FD750200B676020001480FF092
:101C30004DBF00BFE276020038B504460D460AF0FB
:101C400001FD074BB0FBF3F00223B0FBF3F2AA4215
:101C500004D9B3F5807F01D00233F6E7236138BDA4
:101C600040420F007FB500F235260C460122314676
:101C700005F0A8FB054648BB039002AA03A930461D
:101C800005F073FF00BB0298039A837802FB03F10F
:101C900082691348023A5A435208B2F5004F38BFDE
:101CA0000120104B4FEA510124BF03464FF48060DE
:101CB000B1FBF0F1B2FBF0F20091019321460A482A
:101CC0000FF092FE012008E0084B00E0084B2A4686
:101CD000214608480FF088FE002004B070BD00BF08
:101CE000207702001D7702002A7702002677020083
:101CF000237702005877020038B5074C23684BB9A8
:101D00000820FEF7BDFA0546FFF73CF9402328609E
:101D10002B712560206838BD5CC3072038B5054CA1
:101D2000256825B90120FEF7ABFA05702060206810
:101D300038BD00BF58C3072038B5084C23685BB9CD
:101D40000C20FEF79DFA0546FFF71CF990232B7136
:101D500000232860AB602560206838BD24C30720BD
:101D600010B5044C23681BB90120FEF789FA2060E6
:101D7000206810BD28C3072010B5044C23681BB988
:101D80000120FEF77DFA2060206810BD54C30720B3
:101D9000AD49AE4A4023F0B58B614FF000739361BB
:101DA0004FF480338B61AA4BADF5057D186807258C
:101DB00020F0F00018601868022440F0500018600D
:101DC000186820F440501860086840F0400008602F
:101DD000186820F47C201860186840F428201860E7
:101DE000186820F470001860186840F4200018602B
:101DF000186820F040401860186840F000401860F3
:101E0000586820F03C005860586840F0280058603E
:101E1000586820F003005860086840F4803008607B
:101E2000586820F440505860086820F4800008602A
:101E3000D96821F44031D960116841F08071116096
:101E4000596821F440215960596841F48021596052
:101E50009868804901409960116841F4897141F0A6
:101E600001011160996821F470119960996821F05D
:101E700070419960116821F446411160D96821F0E0
:101E80003001D960D96841F03001D960D96821F4B6
:101E90007011D960136843F000731360136823F066
:101EA0008063136007F016FC01210A200AF0EAF9AA
:101EB00001210A200AF0FEF967480121056044600B
:101EC000FFF7BAFE08F0FEF8012115200AF0DAF952
:101ED000012115200AF0EEF96048012105604460F7
:101EE000FFF7AAFEFFF74EF8642107F0F1FE10B9E4
:101EF0005B480FF0EBFD0AF001FA03F015F810B99A
:101F000058480FF0E3FD4FF4FA6007F09CFBFFF731
:101F10008DFE0AF097FB0DF033FD53490DF03CFEAA
:101F20000DF0DCF802460B4650480FF05DFD0AF05C
:101F30007DF8052804AC14D1002363604C4B1B686A
:101F40002360FFF773FE4B4B4B48D96C1A6D5B6DEA
:101F500000940FF049FDFFF769FE41F2883007F069
:101F600072FBFEF7A3FA4549FFF77CFE054668BB06
:101F700043480FF039FD04F0D5F9FEF797FA2946EA
:101F80002A4600F2352005F0EBFF3E4B3E4A002882
:101F90000CBF104618460FF099FDFEF787FA374937
:101FA000FFF760FE90B939480FF090FD04F03CF95E
:101FB000014637480FF018FD04F026F9054604F0F5
:101FC00033F900FB05F133480FF00EFD324E334F6D
:101FD000336813F0010516D130460AF025FF90B1A1
:101FE0004FF40E70FEF74CF9012380F834323123A0
:101FF00080F835323A2380F8363280F8375238602C
:1020000030460AF01DFF26493868264DFFF72AFEA4
:1020100018211148FFF710FEFFF708FE2B684BB997
:102020000820FEF72DF90646FEF7ACFF3823306096
:1020300033712E60286803F069F80546B0BB1A4872
:102040000FF044FD33E000BF00C0092020C009208C
:1020500000C00240F0FCFCFF00000340008008408C
:102060009C770200CD77020000247449F2770200C9
:1020700044400240004002400A7802008278020098
:102080008A780200907702008B770200C7780200FE
:10209000E6780200F578020034C3072038C3072031
:1020A0000C6E020064C30720107902000125FFF7BF
:1020B00043FE03F03FF9064618B972480FF006FDDB
:1020C0003546FFF719FE03F0A3F8064618B96E4827
:1020D0000FF0FCFC35466D4E33681BB90120FEF74E
:1020E000CFF83060306803F061F8FFF739FE03F095
:1020F0000DF9FFF713FE03F0C4F8FFF73DFE03F000
:102100000AF9FFF70BFE002103F0BEF88DB9FFF7C7
:102110008DFDFFF7F1FD2D2103F062F8FFF7ECFDD7
:102120002D2103F069F8FFF7F9FDFF2103F0ACF86A
:102130000CE0FFF7E1FD0546FFF7FEFD03F024F993
:102140000DF062FEC1B2284603F07EF81022002195
:1021500020460EF0AEFA00230F2221464C4803F031
:102160009FF980B920460EF006F8C5B2284602F065
:1021700061F8484A484B2946002818BF1346444A8C
:1021800046480FF031FCFFF7EBFD03F0C1F80546C0
:10219000002010F027FF28440FF0A0FC4FF400723D
:1021A000002120460EF085FA20460AF0E7F8214685
:1021B0003B480FF019FCFFF739FD80220021204633
:1021C0000EF077FA204604F00BF82278FF2A04D0AC
:1021D000214634480FF008FC29E0FFF7CDFD03F05D
:1021E0009DF809281DD130480FF070FC21462F487A
:1021F0000FF080FD21462E480FF0F6FB2D480FF022
:1022000065FC002303A92C4803930FF073FD9DF890
:102210000C30592B03D1204603F0C0FF07E02748BC
:1022200003E027480FF052FC26480FF04FFC4FF216
:1022300008031D684FF20C031C684FF210031E6860
:102240004FF470431A684FF20403AD0A1968A40AE8
:102250001D480FF0C9FB2A4621461C480FF0C4FB5D
:1022600031461B480FF0C0FBFFF7E0FC012006F0F1
:10227000C7FB18480FF02AFCFFF7D8FC0DF5057DC9
:10228000F0BD00BF2B7902004579020060C3072032
:102290005E7902009677020096710200647902006E
:1022A000628A020098790200B4790200D6790200AD
:1022B000DB790200F6790200397A02003D7A0200E9
:1022C000557A0200837A0200B57A0200E17A0200B0
:1022D0000E7B02002B7B020001207047012070471B
:1022E0000120704710B5044C23681BB90120FDF78D
:1022F000C7FF2060206810BD60C307200120704721
:1023000038B504460F4B00250360636DE06DAB42AA
:1023100005D950F82500FDF7B5FF0135F5E708B1FF
:10232000FDF7B2FF0025A36B206CAB4205D950F836
:102330002500FDF7A7FF0135F5E708B1FDF7A4FF7C
:10234000204638BD647B020010B50446FFF7D8FF75
:102350002046FDF797FF204610BD2DE9F0410446C9
:102360000E46C06889000FF01BFCA568E060AF0056
:102370004FF00008AE420DD90C20FDF781FFE36855
:10238000C0F80080C0F8048080F808800135D8517A
:102390000437EFE76660BDE8F081FFFFF7B504465C
:1023A00000250B464FF480520095254906F09CFE0F
:1023B000244B042623606663A563E563256402213C
:1023C00004F13400FFF7C9FF26656565A565E5657D
:1023D000284660210FF0E4FBA56DE065AE00172DE7
:1023E0000CD81020FDF74CFF0746102200210EF0FC
:1023F00060F9E36D01359F510436F0E718236365FA
:10240000012384F87030104E0023A4F87430A4F82F
:102410007630A367002200230027C4E92023C4E903
:10242000226709F095FF4FF47A7200230DF00CFD3E
:1024300080197941C4E92001204603B0F0BD00BFF6
:102440007C7B0200647B0200C0D401002DE9F041D6
:102450000F7A14464D680E688FB1082A23D128469A
:1024600006F08FFE00281CDD4FF0FF321349304686
:1024700007F0A0FF0121284606F082FF08E00A2AA3
:1024800019D00D2A12D02146284607F09AF897B1A4
:10249000336821463046BDE8F0415B684FF0FF32BB
:1024A00018470724F4E70A2A02D1F1E7BDE8F081D2
:1024B0000D2AEDD0E7E7BDE8F08100BF857B020083
:1024C000F8B50446142015460F46FDF7D9FE8021C5
:1024D000064607F026F8A36BE26B9A4206D3616BBF
:1024E000591803D204F13400FFF737FFE36B226C75
:1024F000591C52F82330E1631F605E601D72F8BD05
:102500002DE9FF47CF6B06460D4601AC3FB94FF4AE
:102510007A7009F051F901976760A76047E00B6C8A
:102520000DF110081B6893E8070084E807000023FA
:1025300008F80D3D09F008F881460027EB6B9F4233
:1025400063D22B6C4FEA870A53F827301868037C54
:10255000002B34D0036800221B684146984770B3B3
:10256000EB6B9F422DD22B6C53F80A3093E8070097
:1025700084E807009DF8032021462846FFF766FF00
:1025800009F0E6FE4FF47A7200230DF05DFCD5E908
:10259000222380185941C5E92001029806F0F1FD77
:1025A0000746029806F0F0FD013887420CDB94E8FC
:1025B000070086E80700304604B0BDE8F087013721
:1025C000BCE705F14403D1E7D5E92223134324D026
:1025D00009F0BEFE4FF47A7200230DF035FCD5E908
:1025E0002023994208BF904217D309F0B1FE4FF45F
:1025F0007A7200230DF028FCD5E922238018594176
:102600000023C5E920010193D1E708F09DFF814532
:10261000C3D1022009F0D0F8BFE79DF803300A2BA0
:1026200088D1C4E7F0B5054685B020480FF0DCF945
:10263000294601A8FFF764FF019C1CB91C480FF054
:1026400045FA30E0029E304606F09BFD00282ADD68
:1026500009F07EFE0746F8B1B5F8743005F1500078
:102660000133A5F874302246314605F0E5FF114BE1
:1026700000251868009023681DF805105B684FF06E
:10268000FF32204601359847042DF4D109F060FE51
:10269000C11B09480FF0A8F9304606F077FD236802
:1026A00020469B689847012005B0F0BD887B02005A
:1026B000FD700200587B02008E7B020038B5064C8C
:1026C000236833B92C20FDF7DBFD054607F0C8FD74
:1026D0002560206838BD00BF30C3072010B5044610
:1026E000FFF7ECFF03682146BDE810405B684FF040
:1026F000FF32184713B5002302AC04F8013DFFF781
:10270000DDFF03684FF0FF321B68214698479DF8B4
:10271000070002B010BDFFFF2DE9F04100F15004A9
:102720008AB000250646009520465B4B5B4A5C4913
:1027300005F0A2FE009520465A4B5B4A5B4905F026
:102740009BFE009520465A4B5A4A5B4905F094FE81
:1027500000952046594B5A4A5A4905F08DFE00957E
:102760002046594B594A5A4905F086FE00952046A5
:10277000584B594A594905F07FFE00952046584B61
:10278000584A594905F078FE00952046574B584A5B
:10279000584905F071FE00952046574B574A584955
:1027A00005F06AFE00952046564B574A574905F0FA
:1027B00063FE00952046564B564A574905F05CFE8D
:1027C00000952046554B564A564905F055FE009552
:1027D0002046554B554A564905F04EFE0095204679
:1027E000544B554A554905F047FE00952046544B39
:1027F000544A554905F040FE00952046534B544A33
:10280000544905F039FE00952046534B534A54492C
:1028100005F032FE00952046524B534A534905F0CD
:102820002BFE00952046524B524A534905F024FE98
:102830000095524B524A5349204605F01DFEFFF7C2
:102840003DFF4FF4807320224FF41641054607F0F8
:10285000E7FC804601272F744B48FDF78BFD4B4862
:10286000FDF782FD3A4629463046FFF729FE082249
:1028700003A905A806F05EFC05A8454906F0CCFEB4
:102880002A4605A9204605F0D7FE05A806F067FCF4
:1028900040460AB0BDE8F081A47B0200E67B02005E
:1028A0003D050100DB7B0200EB7B020025060100F9
:1028B000F37B0200017C0200A50F0100087C0200EE
:1028C000497C0200490601004E7C0200AA7C0200FD
:1028D0001D090100AE7C02003C7D02009D08010044
:1028E000F07C02003B7D02001D0D01003F7D0200D7
:1028F0006D7D0200210A0100707D0200957D0200BD
:10290000990B01009B7D0200C87D0200110C0100A3
:10291000CB7D0200099702006D0C0100F07D0200E2
:10292000137E0200D50B0100167E0200E97E020034
:1029300049110100ED7E0200307F02005D0E0100B2
:10294000387F02004B7F02001D0F0100527F020002
:10295000518002000D070100558002007D800200B9
:102960004D0F010083800200E9770200611701002A
:10297000AD800200A1810200951301006A8102006E
:102980004F6E0200E1120100F5260100DD26010074
:10299000D974020008B500F09CFE012008BD01209A
:1029A000704708B500F0E2F9BDE8084000F06CBEE1
:1029B000704708B500F0D8FB00F026FD00F084FD5C
:1029C000BDE8084000F0D4BE70477047FFF7E2BF93
:1029D000FFF7E5BF10B50446FDF754FC204610BDD7
:1029E00070B50B4E05010B4B741953F82010201DC8
:1029F00008F0B6FEE368A0689847A36870590133F1
:102A0000A36000231A46BDE87040194608F0E6B9F5
:102A100068C307207882020008B50020FFF7E0FFB6
:102A2000FBE708B50120FFF7DBFFFBE708B5022055
:102A3000FFF7D6FFFBE708B50320FFF7D1FFFBE761
:102A4000F7B507460D462D4A00240D2312682C4980
:102A5000009406F049FB2B4B87F831503B602A4D20
:102A60002A4B0322EB602A4B2146EB61294B0120C4
:102A7000EB62294BEB6308F08FF9032228602146B3
:102A8000012008F089F9032228612146012008F07D
:102A900083F9224B28621E680523C6F38F06009334
:102AA000324623461E4901941E4808F007FC0623BF
:102AB0000093324623461C4901941C4808F0FEFB53
:102AC000072300930194234632461949194808F018
:102AD000F5FB97F8313073B103222146012008F04D
:102AE0005BF9082328633246009301942346124978
:102AF000124808F0E3FB384603B0F0BDC88102007D
:102B0000DC8102009082020068C30720A329010033
:102B1000B1290100B3290100C9290100C4810200C3
:102B2000E3810200192A0100E7810200232A010043
:102B3000EC8102002D2A0100F2810200372A0100F7
:102B400038B517480C46415C00230131C9B29142A7
:102B500002D00155184638BD124D035520012858A2
:102B60001A46194608F040FA0546B0B90E4B53F81C
:102B7000244020460EF0AAFF20460FF0A9FA2B466B
:102B800002462146094802F0CFFC094A094B9A64E3
:102B90004FF08043AA221A721D70012038BD00BF79
:102BA000A8C3072068C30720CC810200F981020076
:102BB000EFBEADDE00400240044608B5012008F03B
:102BC000FBFD94F8313023B1012203212046FFF7A9
:102BD000B7FF0A2202212046FFF7B2FF0028EDD0FE
:102BE0000A2201212046FFF7ABFF0028E6D00A2287
:102BF00000212046FFF7A4FFE0E7FFFF10B50446E1
:102C0000054B0360583340F8043F00F0E2FD2046D6
:102C100000F0DEFD204610BD14830200A0F1040088
:102C2000ECE700BF7FB50C46064615460021102292
:102C300068460DF03EFD4FF00003224664F30303A7
:102C4000294602A88DF8023001960DF00CFD0022F5
:102C50006946012006F04EFF04B070BDFFFFFFFF84
:102C600037B504680546002120460DF07FF870B1A5
:102C700020460CF033FA2EA3D3E900230CF0ACFB72
:102C800000222D4B0CF0CAF80CF02CFD0DE0204674
:102C90000CF024FA26A3D3E900230CF09DFB0022BC
:102CA000254B0CF0BDF80CF045FD030A6C688DF85F
:102CB00000008DF80130030C000E8DF80300002198
:102CC00020468DF802300DF051F870B120460CF01E
:102CD00005FA17A3D3E900230CF07EFB0022164B64
:102CE0000CF09CF80CF0FEFC0DE020460CF0F6F920
:102CF0000FA3D3E900230CF06FFB00220E4B0CF066
:102D00008FF80CF017FD030A8DF804008DF80530DC
:102D1000030C000E8DF807006A460821D6208DF8B6
:102D20000630FFF77FFF03B030BD00BFAFF3008078
:102D30008DEDB5A0F7C6B03E0000E03F07B500231B
:102D4000019300930A2220236421012006F0B6FD9E
:102D500006F02EFF012003B05DF804EB06F01CBF67
:102D6000014802F06EB900BFF8DC072038B5012039
:102D700006F0B2FE80B1094C256825B90120FDF7A7
:102D80007FFA057020602068032102F0ABFABDE8ED
:102D90003840012006F000BF38BD00BF58C30720EF
:102DA0002DE9F04F924687B09B464FA3D3E900230D
:102DB0000CF0E8F900224E4B0CF00EFB4AA3D3E9CD
:102DC000002306460F46DDE910010CF0DBF9002276
:102DD000474B0CF001FB44A3D3E90023804689460E
:102DE000DDE912010CF0CEF90022414B0CF0F4FAAF
:102DF0003DA3D3E9002304460D46504659460CF046
:102E0000C1F900223A4B0CF0E7FA02460B46204685
:102E100029460CF003F802460B46CDE904230AF0DC
:102E20006FF8CDE90001404649460AF021F8044612
:102E30000D46304639460AF01BF882468B4640461E
:102E400049460AF05DF880468946304639460AF020
:102E500057F8DDE90423CDE90201104619460AF0CE
:102E600007F84246CDE904014B46504659460CF05E
:102E700089F9DDE9022306460F46204629460CF073
:102E800081F9DDE904230CF07DF902460B4630465A
:102E900039460BF0C3FF06460F46DDE90001224626
:102EA0002B460CF06FF932463B460AF0C9F8002277
:102EB0000F4B0CF067F90CA3D3E900230CF08CFA4C
:102EC0000022002304460D460CF0D8FB38B1204602
:102ED00029460022074B0BF0A3FF04460D4620466F
:102EE000294607B0BDE8F08F304CA60A46250940B8
:102EF00000806640008076402DE9F7430F46DDE90B
:102F00000A01904699460CF035FC49460546404674
:102F10000CF030FC0446DDE90C010CF02BFC002326
:102F20000646002120469DF838808DF807308DF840
:102F300006300CF01BFFC0B95D4920460CF034FF91
:102F4000A8B9002120460CF011FF88B120460CF0F2
:102F5000C5F855A3D3E900230CF03EFA0022554BE7
:102F60000BF05CFF0CF0BEFB10E0002400E0504CC6
:102F700020460CF0B3F84CA3D3E900230CF02CFA54
:102F800000224C4B0BF04CFF0CF0D4FBC0F30B00B9
:102F90008DF80000040A002128460CF0E7FEC0B9B5
:102FA000434928460CF000FFA8B9002128460CF040
:102FB000DDFE88B128460CF091F83BA3D3E900234D
:102FC0000CF00AFA00223B4B0BF028FF0CF08AFBB6
:102FD00010E0002500E0364D28460CF07FF832A3C3
:102FE000D3E900230CF0F8F90022324B0BF018FF64
:102FF0000CF0A0FBC0F30B0044EA001400098DF8AC
:103000000200002130468DF801400CF0AFFE70B197
:1030100030460CF063F824A3D3E900230CF0DCF96C
:103020000022244B0BF0FAFE0CF05CFB0DE0304666
:103030000CF054F81CA3D3E900230CF0CDF90022C6
:103040001C4B0BF0EDFE0CF075FBC0F30B0540467E
:103050008DF803500CF030F80022164B0BF0E0FE18
:103060000CF068FB044638460CF026F80022114BA1
:103070000BF0D6FE0CF05EFB6301000103F4FF537E
:1030800000F01000184340EA15208DF80400C4F346
:10309000C4046A460621C3208DF80540FFF7C2FD2F
:1030A00003B0BDE8F08300BF9A9999999999B93F07
:1030B0000000B4430000E03F07B50CF013FB002311
:1030C00000B28DF807308DF806308DF805308DF898
:1030D00004308DF803308DF802306FF0B30398425E
:1030E000B8BF1846B428A8BFB420002808DA0BF0EF
:1030F000E3FF00220E4B0BF091FE0CF0F3FA07E019
:103100000BF0DAFF00220A4B0BF08AFE0CF012FBE8
:10311000C0F308008DF80000000A8DF801006A462F
:1031200002210420FFF77EFD03B05DF804FB00BF21
:103130000000E03F07B5012102AA002302F8081DA4
:1031400025208DF807308DF806308DF805308DF884
:1031500004308DF803308DF802308DF80130FFF720
:1031600061FD03B05DF804FBF0B5394C85B0102269
:10317000002168460DF09DFA25460022694601208F
:1031800006F064FC00285BD0019BD42B1BD0D52B10
:10319000F3D1304A002313702F4AFF2111702F4AB8
:1031A00013702F4B9DF808201A7023682BB94FF429
:1031B000806108200CF0E4FF20602A4B00221A6096
:1031C0002A68294B3AE00298002802DA0BF074FFD3
:1031D00001E00BF061FF1CA3D3E900230BF0D2FF49
:1031E0000CF0C8FA06460398002802DA0BF064FFD8
:1031F00001E00BF051FF14A3D3E900230BF0C2FF51
:103200000CF0B8FA18490B68002BB6D0144A17789E
:10321000002FB2D0DFF844E018609EF800205E6016
:103220000132D2B297428EF8002002D908330B60E7
:10323000A3E7094B00221A7022680A4B1A609CE728
:10324000012005B0F0BD00BF8DEDB5A0F7C6B03EC2
:10325000C0C30720B0C3072000C0072000DD07203F
:10326000D8DB0720DCDB0720E0DB0720184B30B57C
:103270001978184B89B01878174B1B7801335BB25B
:103280000493164BD3E90023CDE90223144BD3E971
:103290000023CDE90023134BD3E90023FFF72CFED5
:1032A000114BD3E90001FFF707FF104BD3E90045AD
:1032B0000F4BD3E900010CF05DFA29460690204639
:1032C0000CF058FA079006A8FFF7CAFC09B030BD09
:1032D000B0C3072010DD072000C00720F0DC072066
:1032E000E0DC072008DD0720B8C3072018DD072031
:1032F000D0DB0720FFFFFFFF2DE9F74F92469B46EB
:1033000039A3D3E900230BF03DFF00223C4B0CF026
:1033100063F806460F4609F0F3FD33A3D3E9002313
:1033200004460D46DDE90C010BF02CFF0022344B66
:103330000CF052F88046894609F0E2FDCDE9000123
:103340003046394609F094FD06460F464046494648
:1033500009F08EFDDDE90E23804689465046594628
:103360000BF05CFD20A3D3E900230BF00BFF002240
:10337000234B0CF031F809F07BFD82468B46424628
:103380004B46304639460BF0FDFE52465B460BF08D
:10339000F9FEDDE9002306460F46204629460BF0DC
:1033A000F1FE02460B46304639460BF039FD09F076
:1033B000EFFD0022124B0BF0E5FE0BA3D3E9002337
:1033C0000CF00AF800220F4B0BF0DCFE08A3D3E947
:1033D00000230BF0D7FE08A3D3E900230BF0D2FEA5
:1033E00003B0BDE8F08F00BF304CA60A4625094067
:1033F000068195438B6CF23F4C378941602599409B
:103400000080664000004E4008B5084800F06BFAA6
:10341000074B01281870074803D1BDE8084001F0A8
:1034200018BEBDE8084001F01ABE00BFE8DB072067
:10343000C8C30720F8DC072007B5114B1878002314
:103440008DF807308DF806308DF805308DF8043092
:103450008DF803308DF802308DF801300BF02CFE22
:10346000084B00220BF0DCFC0CF064F902AA02F815
:10347000080D0121C420FFF7D5FB03B05DF804FB64
:10348000C8C307200000E03F1FB5044640680BF0AA
:1034900025FECDE9020120680BF020FECDE90001F8
:1034A000064B0749D3E90023D1E90001FFF724FFC8
:1034B000044BC3E9000104B010BD00BFD0DB0720FE
:1034C00018DD0720F0DC0720F8B5104C236893B90D
:1034D0000820FCF7D5FE0E4D06462B6833B91C209C
:1034E000FCF7CEFE074606F027FC2F602B6826600F
:1034F000336040233371074BD3E900010CF01AF914
:10350000C1B22068BDE8F84001F09EBE5CC3072050
:103510002CC30720F0DC0720F8B51649164BD1E97B
:103520000001D3E900230BF079FC0022134B06467F
:103530000F460CF0B7F8124C10B9C4E9006707E069
:103540000022104B304639460BF068FCC4E90001FC
:1035500030CC00220C4B204629460CF085F840B1B7
:10356000084B0022204629460BF05AFC044BC3E9C5
:103570000001F8BDE0DC072008DD07200080664080
:10358000B8C3072000807640008066C01FB504469F
:10359000A0B140680BF0A2FDCDE9020120680BF05C
:1035A0009DFDCDE90001064B0649D3E90023D1E991
:1035B0000001FFF7F5FB044BC3E9000104B010BDA7
:1035C000D0DB072018DD0720E0DC072073B50F4CA7
:1035D00023683BB91A460DF107010D4801F082FF3F
:1035E000012323600B4C207870B10B4D0B4E002350
:1035F0002A683146064801F097FF0023C01A33704D
:103600002B60237018BF012002B070BDC4C3072017
:10361000A882020020DD0720CCC30720D0C30720EA
:103620001249134B10B5D1E9000100220CF01CF82F
:10363000104BC0B11048114A012401781C7092F956
:10364000003001398B420E4907D10E4B1C70FF230D
:103650001370002303700B6010BD0868013308303D
:103660001370086010BD187010BD00BFF0DC07209B
:103670000000104010DD0720D8DB072000C0072025
:10368000DCDB0720B0C3072008B5FFF753FDFFF7C9
:10369000D3FEBDE80840FFF799BFFFFF38B5064CE1
:1036A000236833B92C20FCF7EBFD054606F060FEDD
:1036B0002560206838BD00BFACC3072010B5FFF7F8
:1036C000EDFFBDE8104001235E224FF4E13106F02A
:1036D0002FBE08B5FFF732FBFFF7F0FFBDE808404B
:1036E000FFF73EBB38B51C4D0024FFF7D7FF03683A
:1036F00000221B681849984758B32978174800F0EA
:103700006BF9102804F1010408D02028EDD11348EA
:1037100000F0BAF8124BC3E900011AE00F4800F0BC
:103720009EF8104BC3E900010C4800F093F80E4BD3
:10373000C3E900010D4B1D684DB12846FFF726FF78
:10374000FFF7EAFE2846FFF79FFEFFF769FFFFF746
:103750008DFD204638BD00BFE8DC0720E8DB0720F0
:1037600008DD0720D0DB072018DD0720DCDB072081
:10377000FFF7B8BF10B50446FFF740FA2046FCF744
:1037800081FD204610BDA0F10400F3E738B50B4CD5
:103790000B4D204600F0AAF820460A4C2A460A495A
:1037A000FCF7D0FD0121204601F01AFC2A462046F4
:1037B000BDE838400549FCF7C5BD00BFE8DB072080
:1037C0001CC30720F8DC0720FD2B0100BD500100C1
:1037D00070477047FFFFFFFF70B510460E460BF0B5
:1037E0006BFC04460D4630460BF066FC22462B4629
:1037F00009F026FC14A3D3E9002301F10045294672
:103800000BF0C0FC0022002304460D460BF02CFFF9
:1038100038B12046294600220D4B0BF001FB04462F
:103820000D4600220A4B204629460BF03BFF38B1DB
:10383000204629460022064B0BF0F0FA04460D46BE
:103840002046294670BD00BFF8C1631ADCA54C4074
:103850000080764000F19801D1E90001704700F145
:103860009001D1E90001704700F1A001D1E9000108
:10387000704700F1A801D1E90001704790F8B0004D
:10388000704790F8B100704700F1B801D1E900012C
:103890007047A0F10400FFF7F7BF00F1C001D1E9C4
:1038A0000001704700F1C801D1E90001704700F143
:1038B000D001D1E90001704700F1D801D1E9000140
:1038C000704790F8E000704790F8E100704790F87A
:1038D000E200704790F8E300704790F8E40070470A
:1038E00090F8E500704790F8F200704730B5224A32
:1038F000002402F1080160320025426000220160CC
:10390000A0F87C20A0F87E20A0F88020A0F88220DB
:1039100080F8842080F88520A0F88620A0F88820F0
:10392000A0F88A20A0F88C20C0E92445C0E92645EB
:10393000C0E92845C0E92A4580F8B02080F8B120C8
:10394000C0E92E45C0E93045C0E93245C0E93445FB
:10395000C0E9364580F8E02080F8E12080F8E220D8
:1039600080F8E32080F8E42080F8E520A0F8F0203B
:1039700080F8F22030BD00BF0C83020090F8843044
:10398000194490F88530C9B280F88410194480F841
:103990008510704713B500EB41010631002331F863
:1039A000020F01AC504018550133042BF7D1019898
:1039B00002B010BD00EB41014FF0000010B50C7AD1
:1039C00052B2897A544064F307004A4062F30F20F0
:1039D00000B210BDFFFFFFFF2DE9F74FB0F97C20CB
:1039E00004460B461AB9552951D1012350E0012A4A
:1039F00008D1AA294BD1002380F8843080F8853083
:103A0000022345E0022A02D1A4F8801016E0032A1E
:103A100017D1B0F98020102A01D13A2906E0202AD6
:103A200001D1062902E0302A31D10C292FD11946C3
:103A300020460022A4F88230A4F87E20FFF79EFFE3
:103A400011E0042A13D1B0F97E20551C0432A0F8ED
:103A50007E5024F81210FFF791FFB0F97E20B0F9E4
:103A600082309A4216DBB4F87C30013310E0052A2C
:103A700005D190F88420914209D1062308E0062A56
:103A800005D190F88520914201D1072300E0002361
:103A9000A4F87C30B4F97C300026072B40F08681F6
:103AA000B4F98030A4F87C60102B40F01B81B4F98D
:103AB000765031465FFA85F842462046FFF76AFFA6
:103AC00000F03F03C0F3033284F8E530C0F3851300
:103AD000072A84F8E430C0F3044388BF0133400D63
:103AE00084F8E23000F00F03000984F8E13084F834
:103AF000E32084F8E000424604212046FFF74AFF15
:103B00000BF0DAFAACA3D3E900230BF065FC4246D4
:103B1000C4E9240108212046FFF73CFF0BF0CCFA52
:103B2000A5A3D3E900230BF057FC4246C4E92601C4
:103B30000C212046FFF72EFF0BF0BEFAA24B00220D
:103B40000BF04AFC4246C4E928011C212046FFF73D
:103B500021FF0BF0B1FA9D4B00220BF03DFC4246D9
:103B600082468B4620462021FFF714FF0BF0A4FA73
:103B70000022964B0BF030FC524606460F465B4641
:103B8000504659460BF0FEFA3246CDE900013B465D
:103B9000304639460BF0F6FA02460B46DDE90001E5
:103BA0000BF03EF909F04EFA5246C4E92A015B4691
:103BB0003046394609F044FA0022854B0BF0E2FA10
:103BC0007FA3D3E900230BF007FC00220023064665
:103BD0000F460BF049FD10B9C4E9306707E0002239
:103BE0007C4B304639460BF01BF9C4E930014246A4
:103BF00024212046FFF7CEFE0BF05EFA01F10047CC
:103C0000724B002239460BF0E7FB4246C4E9320111
:103C10002A212046FFF7CEFE0BF04EFA6B4B002216
:103C20000BF0DAFB4246C4E936012C212046FFF7AF
:103C3000C1FE0BF041FA654B00220BF0CDFB424672
:103C400006460F4620462E21FFF7B4FE0BF034FA4D
:103C500000225E4B0BF0C0FB3246804689463B4655
:103C6000304639460BF08EFA424606460F464B4622
:103C7000404649460BF086FA02460B463046394626
:103C80000BF0CEF809F0DEF9B4F868306DB284F8C4
:103C9000B13094F86C30C4E934016B405BB2022B54
:103CA000B4F9702002D0032B18BF002384F8B03081
:103CB00094F8B0302BB15540A90744BF042384F8D1
:103CC000B030002238212046FFF774FEB4F8F030FF
:103CD00080B201331A1A5342534184F8F230A4F8E7
:103CE000F00060E0202B4ED1B4F91000C5B2E9001D
:103CF0004AB280EA151022F00F0300F00F0002F024
:103D0000080242EAC512184380EA0203DBB21A46EF
:103D100031462046FFF74EFE05461A460221204650
:103D2000FFF748FEB4F988300226AB42B4F986307A
:103D3000B8BFA4F88850AB42B4F98C30C8BFA4F81F
:103D400086508342B4F98A30B8BFA4F88C00B4F925
:103D500088208342B4F98630C8BFA4F88A001A4488
:103D6000B4F98C10B4F98A3092FBF6F2194491FB45
:103D7000F6F1AA1A411A12B209B2201DFFF72CFD62
:103D8000C4E92E010FE0302B0DD13246042120462C
:103D9000FFF700FE3246C4F8E80008212046FFF78E
:103DA000F9FDC4F8EC0094F8800000E0304603B060
:103DB000BDE8F08FAFF3008000000000D012634137
:103DC000182D4454FB21094000408F400000594009
:103DD0000080664000807640704708B501F0DAF850
:103DE000012008BD10B50446FCF74CFA204610BD72
:103DF00037B59020FCF744FA04460321FEF7CEFACB
:103E0000204605F043F93420FCF73AFA0546002431
:103E10004FF400720D490094042305F065F90C4B32
:103E200028462B6005F032F93420FCF729FA0546C4
:103E30002146FEF705FE284605F028F920462146D2
:103E400005F032F94FF0FF3003B030BDE9770200E2
:103E50009C83020010B54FF6FF74242303FB01017D
:103E6000884209D043782BB1038C1344A34228BF66
:103E7000234603842430F3E710BDFFFF37B500234A
:103E800002A840F8043D0C4B04215B6898470B4B9B
:103E9000019A1C680546141B1A6004212246084832
:103EA000FFF7D8FF224602210648FFF7D3FF281C60
:103EB00018BF012003B030BD24DD0720F4DD07204A
:103EC00038DD072011DE072008B50B4B1978037881
:103ED0008B420A4B0BBF1A889A880132013214BFF9
:103EE0009A801A80064B8170DB6820219847003049
:103EF00018BF012008BD00BF09C00720C9DD072089
:103F000024DD07200A4B02781B789A42094B0BBF2D
:103F1000DA881A89013201320CBFDA801A810379FA
:103F2000C3F3C202073262F3C5030371FFF7CCBFCC
:103F300009C00720C9DD072010B50749002311F883
:103F400023409A00844202D10348104410BD01333B
:103F5000042BF4D1002010BDE3DD072070B1C3783D
:103F60000133DBB2FF2BC37008D105480023C11811
:103F7000CA7804335208102BCA70F8D1704700BFBA
:103F8000E3DD0720242202FB01010346024630B58F
:103F9000914206D01446243212F8235C002DF7D14A
:103FA0000FE00446002599420BD01A79C2F3C200F3
:103FB0001A8C42EA0042AA4284BF1C4615462433AA
:103FC000F1E7204630BDFFFF38B50546C90001F1D5
:103FD0000804FFF753FF1C4B2A781B789A4204D140
:103FE00002211A48FFF7CEFF0CE004211848FFF722
:103FF000C9FFEB7833B990F82330042443F08003F1
:1040000080F82330002380F8203080F821300246E9
:104010002B4690F8231080F8224021F07F01C4F352
:1040200006240C4380F8234005F1200153F8044B8B
:104030008B4242F8044BF9D1064A0379127862F3B5
:10404000C503037138BD00BF09C0072011DE07207A
:1040500038DD072008C0072008B5FFF76DFF0346CD
:10406000D8B9FFF769FF0346B8B90D4AD378D179BB
:10407000D07A8B4296BF1946131D1346814294BFD6
:104080000846084BD17B084A814238BF134607498E
:1040900000221A60CA7A0132CA72184608BD00BFEF
:1040A000E3DD0720EBDD0720EFDD0720C9DD07207A
:1040B0002DE9F84F05460C464FF0240909FB02197B
:1040C000DFF868A1DFF868B14E1C4FF000084C45DE
:1040D00000F09A8094F823301A0624D5B5B12A78D6
:1040E00061788A4205D16F7816F8010C874200F09A
:1040F0008D80E87850B16878884207D116F8011CA5
:10410000914203D1A979A27991427FD094F82220DB
:10411000218C03F07F0342EA0323994271DB20469E
:10412000FFF7D2FE72E06278002A6AD06DB3297977
:1041300001F0C001C02917D116F8010C6978884236
:1041400002D12878904261D0E778A87887420CD1D4
:1041500091420AD116F8010C2978884205D1A0793C
:10416000A979884201D151E079B1A878E1788842F3
:104170000BD16978914208D116F8010C2978884250
:1041800003D1A079A979884246D094F82210208CD6
:1041900003F07F0341EA0323984232DB237984F85A
:1041A0002080C3F3C201CFB284F821801FB1204622
:1041B000FFF7A8FE25E003F0C003C02B19D016F8C6
:1041C000010C9AF80030984213D1E3789A4210D04B
:1041D0007BB16379032262F307136371E1702046B8
:1041E000FFF790FE23799BF8002062F3C50323714B
:1041F00000E001276078FFF79FFE08B1C0F800805B
:1042000027B92434243662E7BDE8F88F2422002140
:1042100020460CF04EFAF4E7237984F820806FF3FF
:10422000C50384F821802371EBE700BF09C0072094
:1042300008C00720431EDBB2FD2B9DBF024B187048
:1042400001200020704700BF09C00720014B1878EB
:10425000704700BF09C0072007289CBF014B18709A
:10426000704700BF08C007202DE9F7430446914678
:104270001E469DF828500F46002966D0364B93F80D
:104280000080414563D00F2E61D8002861D02022E4
:1042900000210CF00EFAFF2F237914BF09F003025E
:1042A000002262F38713032262F302032B4A677032
:1042B000127884F8008062F3C503294A23711378C9
:1042C00084F802800133DBB21370A3710BAB01934E
:1042D00015B94FF001081BE004F10809019AE079D3
:1042E0001346526853F8081B00EB02085FFA88F87F
:1042F000013DB8F1180F0193EDB207D848440CF016
:10430000B2F984F80780002DE8D1E2E74FF0000809
:10431000DFF850900123384689F80030FFF70CFE93
:104320000546FFF71BFE002389F80030637925B9A5
:1043300066F307136371E57005E0AA7862F307136B
:1043400063716B78E370404603E0084601E00020AB
:10435000FFE703B0BDE8F08309C0072008C00720CD
:10436000C8DD0720D5DD0720124B012270B51A7079
:1043700004461E4608B9002518E0FFF7A5FD0546CE
:104380000028F8D0237903F0C003402B06D0C02BBF
:104390000AD1E37853B162789A4207D06179204616
:1043A0000909FFF711FE01E0802BF7D000233370DD
:1043B000284670BDD5DD072082B02DE9F043914637
:1043C000421ED2B28DB0FD2A05460E4615939DF8C9
:1043D000688001D9002057E0002BFBD0179F002FE9
:1043E000F8D0199B002BF5D0189B002BF2D0169B10
:1043F000002BEFD04822002126480CF05AF99022D9
:10440000002125480CF055F91022002123480CF01A
:1044100050F9234B00241C605C609C60214B1C60A5
:104420005C609C60204B1D70204B214D1E7015AEB2
:104430000FCE0FC53368182221461E482B600CF0A2
:1044400038F9494617221B480DF088FE21462046C0
:10445000B8470028BED0B8F1000F02D1FFF70EFD1B
:1044600012E006230293144B22460193012300938A
:10447000FF2104A8FFF7F8FE0028ABD004A8FFF73F
:1044800073FF0028A6D0E9E70DB0BDE8F04302B005
:10449000704700BF11DE072038DD0720E3DD07206D
:1044A000D7DD0720C9DD072009C00720D6DD07209A
:1044B00024DD0720F8DD0720B483020030B5182B77
:1044C0008DB016D8B2FA82F41D1C18BF01256409FC
:1044D000AC420ED00293019200950A469DF84030FE
:1044E000014604A8FFF7C0FE18B104A8FFF73CFF7F
:1044F00000E000200DB030BD13B5537914781B09CE
:10450000009302460B4620460321FFF7D7FF02B077
:1045100010BDFFFF00231A4630B5084C14F8235095
:10452000990035B1904202D10448084430BD0132AF
:10453000D2B20133042BF1D1002030BDE3DD0720DE
:1045400000231846044A12F8231009B10130C0B202
:104550000133042BF7D17047E3DD07202DE9F0414B
:1045600088B02022002168460CF0A3F8A14B1B78EC
:1045700003F0FF04002B40F039819F4F20213B695D
:1045800068469847002800F084809C4D6B88013372
:104590006B80FFF7D5FF9DF80420A87202F0070397
:1045A000032B04D0964A137843F0010309E0954B9E
:1045B0001D789DF80230AB4205D1914A137843F043
:1045C00002031370E4E0C2F3C2029DF800E09DF81C
:1045D00006008D49D6B204EB440313F801C0F4453C
:1045E0000BD10B4493F801C0844506D1997801247E
:1045F0008E1B18BF01269A7018E00134042CEAD1F2
:1046000082490B689A70804A587002F1090083420F
:1046100083F800E040F0C9800A609DF800009DF832
:104620000230834240F0C480002426469DF80200F8
:10463000FFF712FD9DF8022002709DF802204270E3
:1046400000228270FFF78AFC04B116B39DF8003097
:10465000AB4200F09C809DF80160FF2E1BD13B68AF
:1046600020216846984720B9654A137843F004032F
:1046700013709DF8053003F00F02511C61F3030322
:104680008DF80530C3F303139A4202DA6846FFF748
:104690001BFC00247CE0B5422BD164B99DF80730A7
:1046A0004BB13B6820216846984720B9544A13789B
:1046B00043F0040313709DF8043003F0C003402B53
:1046C00012D19DF807306A4613B91821504808E006
:1046D0000C214A48FFF710FF002858D100216A46F4
:1046E0000846FFF709FF52E09DF80330002B4ED13A
:1046F000F4E7484B1B78002BCBD09DF8054004F025
:104700000F074FEA14184745C3DA013767F303046C
:104710003046FFF711FC8DF805409DF80340A54297
:1047200021D19DF8041001F0C001402906D0A1F16B
:1047300080035A425A41144610B90CE0012260B17C
:10474000C029437805D19E4203D0003318BF01230E
:1047500004E0002302E0C0290ED10346134303F016
:10476000010420B908E094B908B941460CE0437847
:104770008DF80330857802E000258DF803506846F7
:10478000FFF7A2FB1CB129466846FFF71DFC6C46EB
:10479000FFF774FB204604221F49FFF789FC022221
:1047A0001E492046FFF784FC20E003330B6034E70A
:1047B00085423FF439AFFFF74FFC0446FFF7CEFBCD
:1047C00023783BB19DF80530A27803F00F039342A4
:1047D0003FF72AAF9DF8003023709DF802306370D8
:1047E0009DF80530C3F30303A3701DE708B0BDE8CF
:1047F000F08100BFD5DD072024DD0720C9DD0720BB
:1048000010DE072009C00720D7DD072004C00720DD
:10481000F8DD0720D6DD072038DD072011DE072070
:1048200000231846094AD118497809B10130C0B2AD
:104830002433902BF7D1064B5A780AB10130C0B21D
:1048400093F825300BB10130C0B2704738DD072036
:1048500011DE072008B5FFF76FFB064B28B1827801
:10486000187802FB0000C00008BD187818235843D0
:1048700008BD00BF08C0072003490B6803604B68F0
:1048800043608B6883607047C9DD072070B53E4C7C
:104890004FF48035E5613D4CA0602046C5683B4C37
:1048A000ED06FBD4A0680D46C0B20BB923465FE00D
:1048B0002346002A63D0072A0E782DDD9E604E78AD
:1048C000083A9E608E789E60CE789E600E799E60DB
:1048D0004E799E608E799E6001F10806C9799960D3
:1048E00099694907FCD5A1682970A1686970A16818
:1048F000A970A168E970D968C906FCD4A168083517
:1049000005F8041CA16805F8031CA16805F8021C41
:10491000A16805F8011C1AE0032A1ADD9E604E7892
:10492000043A9E608E789E600E1DC9789960D968A1
:10493000C906FCD4A168043505F8041CA16805F873
:10494000031CA16805F8021CA16805F8011C31468A
:10495000AFE701319E60013ADE68F606FCD4A66836
:10496000013505F8016CA4E7E668F606FCD4A668F4
:104970006E1AB24203DD15F8016B9E60F4E7024B3C
:104980004FF480329A6170BD00C009200080084059
:1049900007B5002302A901F8013D01231A4600F0E2
:1049A0001F00FFF773FF9DF8070003B05DF804FBDD
:1049B00013B502AC04F8011D00F01F000023012212
:1049C000214640F02000FFF761FF02B010BD08B59E
:1049D0001720FFF7DDFFC0F3001008BD702107208E
:1049E000FFF7E6BF0A4600230146A020FFF74EBFAF
:1049F00008B50020FFF7CCFFBDE8084000F0FE013D
:104A00000020FFF7D5BFFFFF024B4FF08072DA6145
:104A1000704700BF20C0092008B50020FFF7B8FF8D
:104A200040F00101C9B20020FFF7C2FF024B4FF076
:104A300080729A6108BD00BF20C009202021072094
:104A4000FFF7B6BF00231A461946E120FFF71EBF45
:104A500037B504460D46FFF7F5FF20462946FFF718
:104A6000C1FF0D4B4FF080721C469A610022ADF8D9
:104A70000620BDF8063001339BB2ADF8063033B9DD
:104A80004FF08073E361FFF7DDFF03B030BDFFF748
:104A90009EFF0028EDD0F3E720C0092008B51720BD
:104AA000FFF776FF00F0010080F0010008BD402113
:104AB0000720FFF77DBF08B50A46012301466120A4
:104AC000FFF7E4FEC0F3420008BD00231A46194672
:104AD000E220FFF7DBBE70B5064600200D46144607
:104AE000FFF756FF16B100F0BF0002E040F04000B3
:104AF000C0B215B100F0DF0101E040F0200114B1B7
:104B000001F0EF0101E041F010010020BDE870402C
:104B1000FFF74EBF10B504460020FFF739FF14B968
:104B200000F0F7010DE0012C04D100F0FB0141F091
:104B3000080106E0022C14BF40F0080140F00C010F
:104B4000C9B20020BDE81040FFF732BF08B5002011
:104B5000FFF71EFFBDE8084040F00201C9B2002087
:104B6000FFF726BF08B50020FFF712FFBDE8084099
:104B700000F0FD010020FFF71BBF40F6DD13984257
:104B800006D840F66213B0F5166F38BF184600E03D
:104B90001846A0F51661C9B20520FFF709BF10B588
:104BA00004460620FFF7F4FEFA2C00F0D70102D1EC
:104BB00041F0200104E0B4F5FA6F08BF41F00801AC
:104BC0000620BDE81040FFF7F3BE10B504460620EE
:104BD000FFF7DEFE032C28BF032420F0060040EA86
:104BE0004401C9B20620BDE81040FFF7E1BEF92834
:104BF0004FF0FA0305D9B0F57A6F88BF4FF47A60A9
:104C000000E01846B0FBF3F00F2900F1FF30C0B20E
:104C100028BF0F2141EA0011C9B20420FFF7C8BE26
:104C20001130C0B2162804D8202928BF2021FFF750
:104C3000BFBE7047032804D0042814BF03210221FB
:104C400000E001210320FFF7B3BE0A46002301461E
:104C50003020FFF71BBE0A46002301462A20FFF73B
:104C600015BEFFFF73B50E4615460446FFF72DFF30
:104C7000FFF7E8FE2B4B4FF08072DA61FFF772FF0F
:104C8000002211460120FFF726FFFFF7A7FE0220B2
:104C9000FFF740FF3046FFF770FF2846FFF77FFF22
:104CA0000320FFF792FF03210220FFF781FE00217E
:104CB0000120FFF77DFE03214FF4FA70FFF797FF05
:104CC00021460020FFF7ACFF00211220FFF770FE05
:104CD00000211320FFF76CFE00211420FFF768FE6F
:104CE00000211520FFF764FE00211620FFF760FE6B
:104CF0000D4B18681B79009005208DF80430FFF7E4
:104D000099FF68460521FFF7A0FF05216846FFF7D8
:104D1000A2FFFFF71BFF4FF4FA6004F07FFC02B024
:104D200070BD00BF20C00920BB83020070B5174EC4
:104D3000326822B92021032006F02EF83060144D8D
:104D40002A6822B92021012006F026F82860114C9B
:104D5000216821B90322012006F01EF820604FF4DB
:104D6000FA6240F6C3112020FFF77CFFFFF754FEE4
:104D70001620094A012104F093FF306828B1286801
:104D800018B12068003018BF012070BD60DE072018
:104D90005CDE072064DE0720454E010070B5037914
:104DA000014603F0C003C02B0CBF0E4B0E4B88B066
:104DB0001D68002306461A46284606F00FF80446EA
:104DC00060B9034602466946284606F00DF92346B7
:104DD00022463146284606F001F80446204608B02F
:104DE00070BD00BF5CDE072060DE072038B50446DA
:104DF0000D46FFF72BFA237883420AD0E37843B9B4
:104E00000CF094FEBD2300F0030000FB033004F01F
:104E100005FCFFF7F9FDFFF7EBFDA9B22046FFF710
:104E200017FEFFF70BFEFFF7F7FD06F0E1FE022885
:104E300004D1034B0021186806F0A4F8012038BD06
:104E400064DE072007B5002302A941F8043D084BA2
:104E5000186806F097F8019B3BB1064B4FF0805263
:104E60001A60BFF34F8FBFF36F8F03B05DF804FB81
:104E700064DE072004ED00E038B504460D46FFF778
:104E80000DFE48B1A9B22046FFF715FEFFF706FE5A
:104E900008B9FFF70CFE012038BD2DE97043054627
:104EA0000E46144606F0A4FE022807D1224600232F
:104EB0003146284606F098F8C4B21DE007F048FADB
:104EC0004FF47A7200230AF0BFFF10EB040841F19F
:104ED000000900231A463146284606F085F8C4B278
:104EE00054B907F035FA4FF47A7200230AF0ACFF98
:104EF000894508BF8045ECD22046BDE8708304296F
:104F000038B5054603D1041C18BF012400E0002475
:104F100007F01EFA2CB14FF47A7200230AF094FFC6
:104F20002860204638BDFFFF00B50C4B8DB00993BB
:104F30000B4B0C4A0B930C4B0A930CAB43F8102D04
:104F4000002204920FCB8DE80F00084B084A012184
:104F50006A20FFF731FA0DB05DF804FB2D4D01001A
:104F6000794E0100FF4E0100ED4D01009D4D010005
:104F7000C0830200024B0A4601461868FFF78DBF46
:104F800060DE0720024B0A4601461868FFF785BF1E
:104F90005CDE072008B506F02BFE0F4B02285B698C
:104FA00013D15A020DD5FFF73BFC00280B484FF0F8
:104FB000000314BF01224FF0FF321946006806F0CB
:104FC00013F8BDE80840FFF7C9BA5B02F9D5FFF74F
:104FD00027FC0028F5D108BD00C0092064DE0720A9
:104FE000F0B5864687B0114F4C1101F01F0501AE98
:104FF000457004700FCF0FC670463B6803213360C5
:1050000006AB03EB840353F8143C6D00CEF8043078
:10501000E30003F1804303F530331A6801FA05F524
:1050200022EA05051D6007B0F0BD00BFC88302007D
:10503000416840780A680123834022EA03030B6039
:105040007047416840780A680123834013430B602E
:1050500070474178426801238B40936170474178E3
:10506000426801238B40D3617047FFFF30B543781E
:105070000578064C5B0054F83520032101FA03F350
:1050800022EA030344F8353030BD00BF40C002407F
:1050900010B5094A04780123407821B152F8241050
:1050A00083400B4304E052F82410834021EA0303B9
:1050B00042F8243010BD00BF68C0024010B504465D
:1050C000FFF7B6FF00212046FFF7E2FF2046FFF77B
:1050D000CDFF204610BD13460A460179006805F051
:1050E0008EBA1FB5002204AB047923F8042D0222E6
:1050F000009200680A46214605F06CFA9DF80C0003
:105100009DF80D3043EA002004B010BD10B50446F0
:1051100019222A21FFF7DFFF0D222179206805F0EF
:105120005DFAA0F12A035842584110BD044A138881
:105130001F2B9FBF581C1080024A42F82310704753
:105140006CDE072070DE0720154AF0B5138816467E
:10515000012B21D9134A00201546013B984206DA5B
:10516000516814680130091B42F8041BF6E700215E
:105170000C466A684FF0010E02EB52008AB293426D
:1051800008DD55F822700131B8423CBF0EFA02F238
:105190001443F3E7044B1C6000233380F0BD00BFD1
:1051A0006CDE072070DE072068DE072008B50121CD
:1051B000022007F067F8084B01209A6A22F00702E4
:1051C0009A629A6A42F006029A62044AD36843F0ED
:1051D0003003D36008BD00BF0080004000C0024023
:1051E00008B5044B417101F07F015A5C0321FFF7C0
:1051F00072FF08BDDC83020008B5044B817101F029
:105200007F015A5C0221FFF766FF08BDDC830200C4
:1052100038B504460179006805F0FCF9054688B107
:10522000002206212046FFF756FF002207212046D4
:10523000FFF751FF2E212046FFF7D2FF2E212046F7
:10524000FFF7DAFF284638BD642370B5B1FBF3F4ED
:1052500004FB1311CCB20A21B4FBF1F501FB15419B
:105260003031C9B20646FFF7C7FF092C88BF05F1E8
:1052700030013046BDE8704094BF2021C9B2FFF72D
:10528000AFBF01207047FFFF38B50D46044606F05A
:10529000E3FD05F00F032370114B15F0010F4FF0E4
:1052A000010214BFDA619A61227812F0020F4FF006
:1052B000020214BFDA619A61227812F0040F4FF0F3
:1052C000100214BFDA619A61227812F0080F4FF4CD
:1052D000807214BFDA619A61BDE8384006F0CCBD37
:1052E00020C0092038B50D46044606F0B5FD691EFC
:1052F000012303FA01F1237820465940C9B22170F5
:10530000FFF7C2FFBDE8384006F0B6BD0120704788
:10531000022004F019BA01207047FFFF044B5B69BB
:10532000180B00F00C00C3F341231843704700BF73
:1053300020C0092010B5044681220121FFF7CBFED1
:1053400001222179206805F049F910F0600F14BF9F
:105350000120002010BD38B500210446FFF7C1FE32
:10536000812205B201212046FFF7B5FE102095FBF2
:10537000F0F00AF009FB4FF076510AF059FBA168F2
:105380000AF04EFA38BDFFFF08B5FFF7E4FF054904
:105390000AF04EFB04490AF0FFFB4FF084410AF08B
:1053A0003FFA08BD000010410000A0402DE9F04F79
:1053B000ADF2546D0C4690460146012282A89946F2
:1053C00002F03EF8002867D121460A220DF22C4057
:1053D00002F036F8044620B182A802F09AFA20467C
:1053E0005AE06D46064607462860019006F0B0FF79
:1053F0004FF47A7200230AF027FD2B4683464FF4C0
:10540000007202A982A802F0B5F88246E0B92A68C3
:10541000D2B106F09DFF4FF47A7200230AF014FD1A
:10542000B0EB0B00074406F093FF4FF47A720023B1
:105430000AF00AFD01AB83462A6802A90DF22C404E
:1054400002F050F98246B0B1B8F1000F01D0C8F8AF
:105450000070B9F1000F01D0C9F80060DDF87836AE
:1054600003B11C6082A802F054FA0DF22C4002F045
:1054700050FA504610E001992A689142E4D106F0B2
:1054800067FF00234FF47A720AF0DEFC2B68B0EB62
:105490000B0006441C44A9E70DF2546DBDE8F08FE3
:1054A000F0B5ADF50B7D0E46174601461D460122AF
:1054B000002301A8009301F0C3FF044670B91DB199
:1054C000294601A802F037FA6B463A46314601A850
:1054D00002F050F8044601A802F01BFA20460DF530
:1054E0000B7DF0BDF0B5ADF50B7D0E4617460146C0
:1054F0001D460A22002301A8009301F0A1FF0446E3
:1055000070B91DB1294601A802F015FA6B463A465A
:10551000314601A802F0E6F8044601A802F0F9F9C4
:1055200020460DF50B7DF0BDF0B5ADF50B7D0E46BB
:10553000174601461D461222002301A8009301F0E0
:105540007FFF044680B90DB1294600E0049901A807
:1055500002F0F1F96B463A46314601A802F0C2F872
:10556000044601A802F0D5F920460DF50B7DF0BDEB
:105570007F2810B516D931B1FF2812D80A4B8038D0
:1055800033F8100010BD084A32F811408BB2844243
:1055900003D001318029F7D10B4603F18000C0B25E
:1055A00010BD002010BD00BF5C840200064900232E
:1055B00031F8132032B1824201D00133F8E7034AB7
:1055C00032F81300704700BF5C8502003C87020080
:1055D00010B501200C4605F085FC2060003018BF96
:1055E000012010BD0120704710B5044606F000FBF5
:1055F00002280AD1002319464FF0FF32204605F059
:10560000F3FC431E5842584110BD012010BD10B597
:10561000044606F0EDFA022807D100232046BDE833
:1056200010401A46194605F0D9BB10BD10B5044606
:1056300004F0B8FD24B1012C06D100F081F901E09D
:1056400000F002FD044600E0042404F0C3FD2046FF
:1056500010BD28B1012801D00420704700F028BAFD
:105660007047F8B507460C4615461E4604F09AFDED
:105670003FB1012F0CD132462946204600F020FAD6
:1056800004E032462946204600F02AFD044600E0A8
:10569000042404F09FFD2046F8BDF8B507460C46EB
:1056A00015461E4604F07EFD3FB1012F0CD1324657
:1056B0002946204600F050FA04E0324629462046AA
:1056C00000F030FD044600E0042404F083FD204691
:1056D000F8BD70B506460C46154604F063FD36B1BC
:1056E000012E0AD12946204600F090FA03E029460F
:1056F000204600F037FD044600E0042404F06AFD73
:10570000204670BD08B506F023FE4FF47A720023E0
:105710000AF09AFB08BDFFFF10B5044606F092FFA1
:10572000074BB0FBF3F00223B0FBF3F2944202D339
:10573000044A136110BDB3F5807FF9D00233F3E75B
:1057400040420F0000000340044B9860DA68D20624
:10575000FCD4024B9868C0B2704700BF0000034001
:1057600070B5FFF7CFFF00F5FA74FF20FFF7ECFFED
:105770000025FF20FFF7E8FFFF28064605D0FFF7CA
:10578000C1FFA94208BFA042F3D3304670BDFFFF5E
:1057900038B5064C4FF00075E561FFF7E1FF044AAC
:1057A000A561137843F00103137038BD20C00920B0
:1057B0000AC007202DE9704306460D46FFF7A2FFF9
:1057C000643080464FF00009FF20FFF7BDFFFF283F
:1057D00008D1FFF797FF494508BF4045F4D30020A3
:1057E000BDE87083FE28FAD1102D06D900224FF4AF
:1057F0000071304604F074FC19E0341D0435FF20BC
:10580000FFF7A2FF04F8040CFF20FFF79DFF04F848
:10581000030CFF20FFF798FF04F8020CFF20FFF7AE
:1058200093FF043404F8050C2B1BDE42E7D1FF2064
:10583000FFF78AFFFF20FFF787FF0120BDE8708395
:1058400070B506460D46FFF78BFFFF28044619D1B9
:105850002846FFF779FFFD2D16D022464FF4007140
:10586000304604F03DFC2046FFF76EFF2046FFF770
:105870006BFF2046FFF768FF00F01F00431F5842F0
:10588000584170BD002070BD012070BD020638B5C2
:1058900004460D4607D500217720FFF7F7FF0128C2
:1058A00038D804F07F041C4B4FF000729A61DA6123
:1058B000FFF756FFFF28014628D12046FFF744FF97
:1058C000280EFFF741FFC5F30740FFF73DFFC5F383
:1058D0000720FFF739FFE8B2FFF736FF402C17D05B
:1058E000482C14BF01208720FFF72EFF4C2C02D13B
:1058F0000846FFF729FF0A21FF20FFF725FF0306CF
:1059000008D5013911F0FF01F6D138BDFF2038BDAF
:105910009520EEE738BD00BF20C00920064A0749A0
:1059200013784969DBB2490154BF03F0FD0343F02A
:1059300003031370704700BF0AC0072020C009206E
:105940002DE9F743FFF7EAFF564B1A781E4612F08F
:10595000020F01D01878A1E00120FFF7DDFE0A2434
:10596000FF20013CFFF7F0FE14F0FF04F8D14E4F8A
:105970004FF00073FB6121464020FFF787FF0128AD
:1059800002D04FF0000875E0FFF7BCFE4FF4D57170
:1059900000F57A754820FFF779FF012841D10DF114
:1059A0000408FF20FFF7D0FE08F804000134042C9F
:1059B000F7D19DF80630012BE3D19DF80730AA2BD3
:1059C000DFD12C460025FFF79DFEA94208BFA0426B
:1059D00006D3FFF797FEA94208BFA042D1D207E045
:1059E0004FF08041E920FFF751FF0028EBD1F0E7AD
:1059F00000217A20FFF74AFF0028C2D10146FF208C
:105A0000FFF7A2FE08F8010001310429F7D19DF843
:105A1000043013F0400F14BF4FF00C084FF004088F
:105A200028E02146E920FFF731FF02282C4635BF48
:105A30004FF002084FF001084FF0E9094FF041091B
:105A40000025FFF75FFEA94208BFA0420BD3FFF776
:105A500059FEA94208BFA0420CD34FF40071502058
:105A6000FFF714FF06E000214846FFF70FFF00286C
:105A7000E7D1ECE70D4B83F800804FF00073BB617A
:105A8000B8F1000F07D03378182003F0FE0333700D
:105A9000FFF742FE01E0FFF77BFE3078C0B203B0B3
:105AA000BDE8F0830AC0072020C00920F0DE0720EF
:105AB00008B5FFF733FF014B187808BD0AC007206F
:105AC00070B5144606460846FFF728FF002C39D06B
:105AD0001E4B1B78DB0737D41D4B4FF00072DA6189
