:020000021000EC
:10000000E03F082095010100FB000100E100010034
:10001000090101001901010029010100000000008F
:1000200000000000000000000000000051D30100AB
:100030003901010000000000B1D3010059010100A5
:1000400085D9010085D9010085D9010085D9010034
:1000500085D9010085D9010085D9010085D9010024
:1000600085D9010085D9010085D9010085D9010014
:1000700085D9010085D9010085D9010085D9010004
:1000800085D9010085D9010085D9010085D90100F4
:1000900085D9010085D9010085D9010085D90100E4
:1000A00085D9010085D9010085D9010085D90100D4
:1000B00085D9010085D9010085D9010085D90100C4
:1000C00085D9010085D9010085D9010028A0020049
:1000D00000C007200403000004C30720A42F000071
:1000E00004207146084203D0EFF309800DF070BC84
:1000F000EFF308800DF06CBC704708B5014808F0BC
:10010000E9FCFEE7D699020008B5024808F0E2FCD7
:10011000FEE700BFE199020008B5024808F0DAFCEA
:10012000FEE700BFEC99020008B5024808F0D2FCD7
:10013000FEE700BFF799020008B5024808F0CAFCC4
:10014000FEE700BF049A020008B5024808F0C2FCAE
:10015000FEE700BF129A020008B50DF0AFF80DF0EF
:1001600049F9BDE808400DF0BDB80B4610B5401A7E
:100170005C1AA24203D9C45843F8044BF8E710BDF7
:10018000034610B500221C1AA14202D943F8042BE1
:10019000F9E710BD16480DF0BCF915480DF0BCF993
:1001A000144C154DAC4201D3144D07E094E8030004
:1001B0000C3454F8042CFFF7D8FFF3E7AC4206D216
:1001C00054F8080B54F8041CFFF7DAFFF6E70FF0B9
:1001D0007BFA0DF0BDF901F0DBFD03F0A5FC4FF457
:1001E00016400DF013FD064808F074FCFEE700BF52
:1001F000E03F0820CC000100D8000100E000010031
:10020000269A02000DF0B8B80DF0C6B8144B10B520
:100210001A68014612B94FF080521A60114C1868E2
:100220002468421894421A6007D20F4CA24204D8A4
:100230000E4A0B488C18046010460D4A1B68126861
:10024000934222BF064B00201A6039B1094A136855
:1002500001331360084B1860084B196010BD00BFD4
:1002600008C3072010C30720FFBF0720A8F20720FC
:1002700014C3072018C3072004C307200CC307209A
:100280000FF05ABB0FF060BB0FF05EBB30B50446F9
:100290008BB068460FF00CFE224B079A2360089B38
:1002A000214DA36062602149214B52B90A68186848
:1002B00082428ABF02F1604202F17042A2F5E82256
:1002C000626062681B68B2F5803F82BF02F17042D3
:1002D000A2F5E82262600022E2600A68934206D337
:1002E000991AC5F1005303F504230B440BE0114B9D
:1002F0001B68934208D9991AC5F1005303F5F823F6
:100300000B44002B00DDE36020460B4BE2611B68D1
:10031000A3610A4B1B686361094B1B6823610BB027
:1003200030BD00BFA8320000A8F2072008C3072094
:1003300010C3072014C3072004C307200CC30720E1
:1003400018C3072000207047034A044B1A60044A70
:10035000044B1A60704700BF0080001010C30720D4
:100360000040082014C30720014B1860704700BFED
:1003700024C30720014B1860704700BF1CC307202F
:1003800008B5024810F03CFDFEE700BF585D0200D2
:1003900008B5024810F034FDFEE700BF725D0200B0
:1003A0000020704701207047F8B5084B16461A68C0
:1003B0000F461C4642B10D46EB1B9E4204DD2368EE
:1003C00015F8010B9847F7E73046F8BD24C307201E
:1003D000F8B5094B0F46186816461C4658B10D462D
:1003E000EB1B9E4205DD23680020984705F8010BB2
:1003F000F6E726EAE670F8BD1CC307207047002028
:100400007047FFFF074B1B689A68824207D05A6803
:10041000824204D0DB681B1A5842584170470120C1
:10042000704700BF48C10720002070470020704778
:1004300030B504468DB0A8B3684609F0F1FC9DF8CC
:100440000030002503F03F0303939DF8013003A81B
:1004500003F03F0304939DF802300B9503F01F0354
:1004600005939DF8043003F01F0306939DF80530B3
:1004700003F00F03013B0793BDF80630C3F30B03F2
:10048000A3F26C7308939DF8033003F007030993FC
:10049000BDF80830C3F30B03013B0A930FF096FB42
:1004A00084E8210000200DB030BDFFFF70B50F4D76
:1004B0000F4E2C6814F0010415D128460DF046FFAC
:1004C00088B14FF40E70FFF7DBFE302380F8353231
:1004D0003A2380F8344280F8363280F83742306070
:1004E00028460DF03FFF306870BD00BF40C30720B5
:1004F00044C3072070B50F4D0F4E2B6813F0010455
:1005000016D128460DF022FF90B14FF40E70FFF780
:10051000B7FE012380F83432312380F835323A2394
:1005200080F8363280F83742306028460DF01AFFE6
:10053000306870BD38C307203CC307202DE9F04F59
:10054000ADF51B7D0F4608F0F9FE041E04DD0CF02E
:100550007FFE20460CF04EFB0DF114094C462A4D4F
:100560004FF0640B0FCD0FC42B6804AA2360102139
:1005700000240AA804940CF023FD244A824624494E
:10058000384609F0CDFE26460AAD4FF00008D045AA
:100590001CD06B69A34215D1AA69049B16441BB1F8
:1005A000B3FBFBF3B2FBF3F3297B039202932B8C97
:1005B00000949B00019359F821306A681549384628
:1005C00009F0AEFE08F101082435E0E701340A2CF9
:1005D000DAD1049B64229E1BB3FBF2F30E49B6FBF7
:1005E000F3F30E4A0096384609F09AFE0CF0AAF989
:1005F000102804D910220A49384609F091FE01203A
:100600000DF51B7DBDE8F08F8C5D02004788020070
:10061000AB5D0200D25D0200FA5D0200EF5D0200F8
:10062000195E020010B50C46ADF5007D68460DF070
:100630002FF920464FF0FF32694609F03BFE0120BA
:100640000DF5007D10BDFFFF30B50C4691B02C4973
:10065000054608F07FFD002847D00CAB04930BAB98
:1006600003930AAB029309AB019308AB009306AA6C
:1006700007AB2449284608F0D5FC072801D0002004
:100680003BE09DF83930069A0DA862F303038DF81C
:100690003930079A9DF8383062F304038DF838300A
:1006A000089ABDF83A3062F30B03ADF83A30099A74
:1006B0009DF8363062F304038DF836300A9A9DF8BF
:1006C000353062F305038DF835300B9A9DF83430E0
:1006D00062F305038DF834300C9A9DF8373062F3DD
:1006E00002038DF8373009F0C3FB09F05DFC0649C1
:1006F0000246204609F014FE012011B030BD00BFB3
:10070000435E0200475E0200957F0200F7B50D468A
:100710004E49044608F00EFE064640B108F052F875
:100720004FF0FF324A49284609F0C4FD8BE04949A1
:10073000204608F0FFFD60B308F068F8464902461D
:10074000284609F0EDFD08F06DF8444902462846B8
:1007500009F0E6FD08F060F841490246284609F034
:10076000DFFD304608F048F80446012008F044F860
:100770000646022008F040F80746032008F03CF83F
:1007800000970190334622463649284609F0C8FDB5
:1007900059E03549204608F0DDFC50B12022012106
:1007A000204608F075FD204608F0C6FD08F072F9F5
:1007B00049E02E49204608F0CDFC064620B92C49D8
:1007C000204608F0C7FC60B32A49204608F0B0FC78
:1007D00060B92949204608F0ABFC28B920462749D2
:1007E00008F0A6FC044602E0032400E0022431469F
:1007F000204608F0A7F8224A224B002E18BF1A46BE
:100800003CB1012C07D01C491A4B022C18BF0B46D7
:1008100002E01D4B00E0194B1C49284609F080FD01
:1008200011E0204608F088FD194A1A490090F32388
:10083000012008F095F8204608F07EFD1649024692
:10084000284609F06DFD012003B0F0BD825E020074
:10085000885E0200A15E0200A85E0200BD5E02008A
:10086000D25E0200F15E0200215F0200255F0200FD
:100870002D5F02007D5E0200775E02007C71020047
:10088000685E0200605E0200715E0200365F020078
:10089000A05D02004F5F0200825F020030B589B0A8
:1008A00004AB002400930D4603AB022218490394C5
:1008B000049408F0C5FB022827D107AB009305AAD2
:1008C00006AB0499039805940694079404F074FC0D
:1008D000024638B1049B0F4900932846039B09F058
:1008E0001FFD10E0059A069B002A079908BF012208
:1008F000002B08BF0123B1FBF3F3B1FBF2F2284652
:10090000054909F00DFD012000E0204609B030BD89
:1009100012700200905F0200AF5F02002DE9F04705
:100920000E46ADF5856D3949054608F09DFC384900
:100930000746284608F0C1FC3549284608F0DDFC8A
:10094000284608F0F9FC0122014681A806F090FC37
:10095000044640B1284608F0EFFC2E4902463046D6
:1009600009F0DEFC4CE00DF1040A01464FF4007280
:1009700050460FF046F800940CF074FF804689460C
:100980006B464FF40072514681A806F00BFD08B982
:10099000009B23BB81A806F0D4FECFB10CF062FF10
:1009A0004FF47A7200230EF007FC002305464FF443
:1009B0007A72404649460EF0FFFB281A14BF0346E0
:1009C0000123B4FBF3F322461349304609F0A8FC97
:1009D0004FF0FF321149304609F06CFC10E01C4426
:1009E000002FCDD13D46009B9D42C9D233681AF8F5
:1009F00005105B684FF0FF32304698470135F2E74B
:100A000001200DF5856DBDE8F08700BFDD5F0200B8
:100A100012700200E65F0200FA5F020088650200C1
:100A20002DE9F0470023BEB00C46534905460C9310
:100A300008F080FC20B9284608F07EFC064600E05D
:100A40004E4E314615A806F035FF054630B1034637
:100A500032464B49204609F063FC89E03246494959
:100A6000204609F05DFC2F460DF1780880230DA982
:100A700015A8CDF84C80149306F060FF002861D1D2
:100A80009DF83D30002B5DD09DF83C100DF13D00F0
:100A9000CA065BBF0D9B0C9A44229B185BBF0C934C
:100AA0002D220135013711F0010F14BF52232D23E0
:100AB000BDF83AA011F0020F09900D9814BF4FF045
:100AC000480E4FF02D0E11F0040F14BF4FF0530CD1
:100AD0004FF02D0C089011F0200FCAF34510BDF80F
:100AE000381007904FEAEA20069001F01F000590A9
:100AF000C1F343104FEA612114BF4FF041094FF099
:100B00002D0901F2BC71CDF804C0CDF800E00490CD
:100B10000391CDF808901C49204609F001FC4FF0E4
:100B2000FF321A49204609F0B1FB41464FF0FF322F
:100B3000204609F0ABFB4FF0FF320F49204609F089
:100B4000B9FB91E73A46124900950C9B204609F003
:100B5000E7FB0BAA0CA9304606F01FFF40B90B9B20
:100B60000C499A780C9B20465A43520809F0D8FB4E
:100B700001203EB0BDE8F0878865020015600200E4
:100B8000186002003C6002005760020084600200AE
:100B900088600200B260020070B50C46064608F09C
:100BA000CBFB0546304608F0C7FB06F0B8FF064A07
:100BB000064B0749002808BF13462A46204609F07D
:100BC000AFFB012070BD00BF6862020072620200CC
:100BD000C660020070B50C46064608F0ADFB05463F
:100BE000304608F0A9FB06F03DFF064A064B0749D0
:100BF000002808BF13462A46204609F091FB012031
:100C000070BD00BF6862020072620200E260020012
:100C10007FB503AB002400930E4602AB02220F49BE
:100C20000294039408F00CFA022814D1029C039D4C
:100C30002046294607F01CF8094B0A49224600289D
:100C40000CBF084618462B4600900749304609F06D
:100C500067FB012000E0204604B070BD1270020066
:100C60007262020068620200F460020030B5ADF505
:100C70000D7D0C46054608F05FFB0A22014603A8DD
:100C800006F0F6FA40B1284608F056FB1F49024626
:100C9000204609F045FB34E08DF8070002901C491E
:100CA00042F210737E22204609F03AFB1949204691
:100CB00009F036FB236842F210721B680DF1070140
:100CC0002046984718B19DF807307E2B03D103A822
:100CD00006F037FD15E002AB01220DF1070103A874
:100CE00006F018FC58B9029B012B08D123684FF07D
:100CF000FF325B689DF8071020469847DAE70649FF
:100D0000D5E701200DF50D7D30BD00BF0C6102005F
:100D1000336102006B6102008B6102002DE9F04F2C
:100D2000ADF5417D002304AC236003930D46009490
:100D300003AB0222414908F083F9022806D04FF0A4
:100D4000FF323F49284609F0B5FA72E0216817A83A
:100D500006F0B0FD10B122683A4906E0039917A8E1
:100D600006F0A8FD28B1039A3749284609F0D8FAB9
:100D70005FE04FF480720DEB020105A808F022F944
:100D80004FF4807280A90AA808F01CF920AE8027D1
:100D90000FA917A81596169706F0D0FD002842D186
:100DA0009DF84530002B3ED09DF8443003F01003F1
:100DB00003F0FF0A002BEBD10DF14503039A234901
:100DC00005A808F003FB0DF1450322681F490AA896
:100DD00008F0FCFA05A808F0AFFA07460AA808F0E0
:100DE000ABFA804605A8DDF83C9008F0A5FA8346EA
:100DF0000AA808F0A1FA534652460146CDF800A0D1
:100E0000584604F0D9F9124A124BCDF80090002848
:100E10000CBF184610461049019043463A462846F2
:100E200009F07EFAB3E70AA808F0E1F805A808F08F
:100E3000DEF801200DF5417DBDE8F08F1270020053
:100E4000B2610200F76102001C6202003C62020013
:100E5000726202006862020042620200F8B50D464A
:100E60002449064608F066FA0446074618B1FFF71B
:100E700041FB002208E02049304608F05BFA0446B6
:100E800060B1FFF713FB3A46114600F2352006F039
:100E90007FFF4FF0FF32194B194922E019493046C4
:100EA00008F048FA044658B1FFF724FB012200F28B
:100EB000352106F09FF94FF0FF32134B134910E034
:100EC0001349304608F036FA044680B1FFF7EEFACF
:100ED000012200F2352106F08DF90E4B0E494FF03C
:100EE000FF32002818BF1946284609F0E3F92046CA
:100EF000F8BD00BFC9620200D36202006B6202004B
:100F000061620200E0620200886202007862020010
:100F1000E9620200AD6202009F62020008B5084665
:100F20004FF0FF32084909F0C5F907F04BFC4FF4C8
:100F3000FA600BF05FFE4FF08043AA221A72002283
:100F40001A70012008BD00BFF562020010B5012033
:100F50000C4608F02BF840B100231A4619460AF057
:100F60002DFF4FF0FF32054902E005494FF0FF32F7
:100F7000204609F09FF9012010BD00BF0663020062
:100F80001C63020038B5064C236833B91C20FFF7F8
:100F900077F9054608F04CFE2560206838BD00BF93
:100FA00030C307202DE9F04F5F4C91B023680E4607
:100FB00033B92C20FFF764F9054609F0DDF8256008
:100FC0002768FFF773FA00240CAA0DA900F2352058
:100FD0000D9406F0E2FC48B90C9A0D9C9569937843
:100FE000023D5C435D4364086D0800E025464F4BBD
:100FF0001A6898467AB90C20FFF742F98146FFF744
:10100000C1FF902389F804300023C9F80000C9F813
:101010000830C8F80090D8F8000004F0BBF881460A
:101020000EF084F80A900DF0DDFE014648460DF002
:1010300023FE3F490DF02AFF0EF078F881460DA8F7
:101040000CF07CFA05F00EF868B309F027F804F00C
:10105000F3FF4FF0000A0346D346D0469A450B9360
:101060000BD0504605F04CF8804538BFD3460B9B5B
:1010700038BF80460AF1010AF0E709F037F8642327
:1010800003FB08F32B4ACDF80880B3FBF2F3C3F15E
:1010900064030093CDF804B02B462246264930461F
:1010A00009F03EF905E02B4622462449304609F076
:1010B00037F9234C23681BB90120FFF7E1F82060C2
:1010C000206804F020F8044608F06EFFFB8C0A9AB2
:1010D0000993BB8C1B4908939DF83430019003F0B1
:1010E0003F0307939DF83530009403F03F030693C8
:1010F0009DF83630304603F01F030593BDF83A30B3
:10110000C3F30B0304939DF8383003F01F030393DC
:101110009DF8393003F00F0302934B4609F000F9B4
:10112000012011B0BDE8F08F34C3072028C3072089
:1011300000002041A086010055630200896302007F
:101140002CC30720976302002DE9F04F0D46C7B06E
:101150005549814608F015F854498246484608F03A
:1011600010F853498346484608F00BF800270DF164
:10117000100805AE044602970397C8F80070376060
:10118000BAF1000F45D0009603AB02AA4949484680
:1011900007F048FF012807DC28464FF0FF32464998
:1011A00009F088F838467CE00DF118084FF4807497
:1011B0002246394640460EF024FC336813B9012319
:1011C000336003E0B3F5807F88BF3460FFF7DAFE59
:1011D00033689DF80C209DF808100093434609F0F1
:1011E00075F9364A364B3749002818BF1346029A1C
:1011F000284609F095F8002433689C424ED2039AA1
:1012000018F8043022443049284609F089F801349E
:10121000F2E7BBF1000F2CD0CDF8008003AB02AA9F
:101220002A49484607F0FEFE032807D028464FF01B
:10123000FF32274909F03EF8504632E0FFF7A2FEA0
:1012400098F800309DF80C209DF8081009F053F92B
:1012500048B1039B1F490093D8F80020029B284601
:1012600009F05EF81AE0029A1B49284609F058F87E
:1012700014E0A8B102230293029BFE2B10DCFFF7BF
:1012800081FE9DF8081009F041F920B1029A134936
:10129000284609F045F8029B0233ECE7012000E004
:1012A000204647B0BDE8F08F3B72020000640200A8
:1012B000066402000F6402001E64020068620200FD
:1012C000726202003F640200636402007364020001
:1012D00083640200AA640200C4640200E1640200A4
:1012E00070B5ADF50A7D05460C4607F092FE0B2859
:1012F00002DD0C2222493CE0284608F01DF80122BC
:10130000014601A805F0B4FF064668BB01A806F037
:1013100018FA284608F010F81A490246049B20469D
:1013200008F0FEFF236820469B6898470A200BF0D0
:1013300061FC4FF0100383F31188BFF36F8FBFF38D
:101340004F8F284607F0F8FF02460F4B00685168A0
:1013500003C390680D4A186043F80C2C4FF080438B
:10136000AA221A721E7007E0284607F0E5FF02461F
:101370000749204608F0D4FF01200DF50A7D70BD15
:101380001B65020042650200484002400DD0ADDE00
:10139000896502002DE9F041404CA4B0236806465F
:1013A000DB070D460CD420460CF0D0FF40B14FF4C3
:1013B00080600EF0C1FA3A4B186020460CF0D2FF64
:1013C0003849304607F0DDFE0746044600B3802268
:1013D000002104A80EF015FB00230293039303AB36
:1013E000009304AA02AB3049304607F01BFE2C499B
:1013F000029B039A096804A813B903F079FF01E07E
:1014000003F098FF294B2A49002818BF194638E0F5
:101410002849304607F0B5FE074600283AD004AB0D
:10142000304603AA2449039404948DF8084007F039
:10143000F9FD039E049B3344B3F5806F02DCDFF8B3
:1014400060800CE04FF480621C4920E0D8F8003046
:101450009DF808209A559DF8083001361C44039BDE
:10146000049AF31A934210DAB6F5806F0DDA2B68FE
:101470004FF4FA621B6802A9284698470028E5D174
:101480000F49284608F04CFF04E022460D49284643
:1014900008F046FF384624B0BDE8F0814CC3072071
:1014A00048C30720B4650200BB650200A2650200C4
:1014B0009E650200CB650200D2650200DC65020079
:1014C000006602001066020038B50D4607F036FFD0
:1014D0000446C0B202F04AFD054A064B0649002800
:1014E00018BF13462246284608F01AFF012038BDCF
:1014F00068620200216602002866020030B50C46D0
:10150000054687B00A4908F00BFFA188238804919B
:10151000218962880391E18828460291E17A01914C
:10152000A17A0091034908F0FBFE07B030BD00BF6F
:101530003F660200756602002DE9F0418CB003ABF6
:10154000002600930D46904602AB022238490296CF
:10155000039607F075FDB04266DD02980DF0C3FFFB
:10156000C7B2039818B10FF04DFFC4B200E00446B3
:10157000002104A803F0CCFB30B14FF0FF322D491D
:10158000284608F097FEF3E7022318F100010093C4
:10159000039A234618BF0121384602F02BFE064667
:1015A00038B94FF0FF322449284608F083FE01265F
:1015B0003AE0B8F1000F37D04FF47A7104A803F085
:1015C000AFFB60B39DF81030BB4228D19DF81730B7
:1015D0000C2B04D13A4606A92846FFF78FFFBCB969
:1015E0001649284608F09CFE9DF817309C420ADAFE
:1015F00004AB19192B684FF0FF325B68097A284653
:1016000098470134F0E70E49284608F089FE0BE0C0
:101610004FF0FF320B49284608F04CFE04E0029AD6
:101620000949284608F07CFE30460CB0BDE8F08140
:101630001270020093660200B5660200DD660200C9
:101640000A6D0200F16602000E6702001FB501A8D4
:101650000C4602F0ADFF02F095FC01A902462046BF
:10166000FFF74CFF012004B010BDFFFF30B58BB079
:101670000AAA4FF47A730C4642F8243D174907F042
:10168000D1FC0025019902A803F042FBD8B19DF8D6
:1016900008201349204608F043FE00259DF80F302E
:1016A0009D420ADA02AB591923684FF0FF325B689A
:1016B000097A204698470135F0E70A49204608F0A4
:1016C0002FFE0125DEE72DB94FF0FF3206492046F7
:1016D00008F0F0FD01200BB030BD00BFD96502005D
:1016E00034670200876502004B67020037B50C467D
:1016F00002F0C2FD05461649204608F011FE1549C4
:101700002A46204608F00CFE1149204608F008FE43
:10171000D5B11149204608F003FE0D49204608F0D6
:10172000FFFD0025E8B202F091FD013540B181785E
:101730004378027800912046084908F0F1FDF1E76E
:101740000349204608F0ECFD012003B030BD00BF86
:101750005C6702007767020091670200AC670200D5
:101760002DE9F3473C4C074626688946002E62D196
:101770002420FEF785FD0423054680E848008660A6
:10178000C660202130460FF0A5FBAE68E8604FEA46
:101790008608072E0ED81020FEF772FD8246102212
:1017A00000210EF02EF9EB68013643F808A008F18D
:1017B0000408EEE7002608236B604FF00108274B72
:1017C000274A28492846009685F82080256006F09B
:1017D0006BFD254B254A26492068009606F064FDDE
:1017E000244B254A25492068009606F05DFD244BD0
:1017F000244A25492068009606F056FD234B244ACA
:1018000024492068009606F04FFD234B234A2449C3
:101810002068CDF8008006F047FD224B224A20497F
:101820002068009606F040FD0096204B204A214992
:10183000206806F039FD2049384607F07BFD18B1D5
:101840001E49384607F030FE4A463946206802B045
:10185000BDE8F04706F008BE54C30720C767020082
:10186000016802000D1B0100086802005C680200AC
:10187000E118010065680200886802006D16010029
:101880008B680200EA6D0200C9140100B56802000D
:10189000D1680200ED160100D86802003F6902001D
:1018A00039150100196902003E690200436902000E
:1018B0005E6902004D16010088650200646902003D
:1018C00038B5064C236833B95820FEF7D9FC0546D5
:1018D00008F086FA2560206838BD00BF50C3072095
:1018E0002DE9F04F0446ADF2DC5D802288460DA85C
:1018F00000210EF086F8802200212DA80EF081F83C
:1019000006AE002333600DAA00962DAB7549204624
:1019100007F088FB032801D00020DFE001220DA999
:10192000EDA805F0A5FC05460028F5D1FFF7C8FF96
:101930003368802280F853304DA9044608A88DF8FA
:101940001750079507F03EFB2DAB009333680DAAA7
:101950006549404608F0E4FCA94607AE33464FF41B
:1019600000726DA9EDA805F01DFD002840F0AF80C4
:101970003368002B00F0AB806F1C32685B49204657
:1019800008F0CEFC236820469B6898477D1E0DF525
:10199000DA7B4FF0000A6DAB3268C3EB0B039A425F
:1019A00023680CD9CDF80CB05B684FF0FF321BF800
:1019B000011B20469847039B1B789A44EBE79B68E2
:1019C0002046984708A807F0B7FC834608A807F008
:1019D00023FB4FF47A7302465946204608F078FC00
:1019E000202201210DEB020007F052FC08A807F0AD
:1019F000A5FC824520D008A807F0A0FC524603466B
:101A00003B49404608F08CFC3A49204608F088FCE7
:101A1000236820469B68984723684FF47A721B68B6
:101A20000DF11701204698470028F5D1022F07F144
:101A300001034CD81F46A0E733682DAA2E49009316
:101A400020464B4608F06CFC236820469B6898476C
:101A500008A807F071FC824608A807F0DDFA514695
:101A600002464FF47A73204608F032FC234908A856
:101A700007F05EFBD0B908A807F05EFC20490246DB
:101A8000404608F04DFC1B49204608F049FC2368FD
:101A900020469B68984723684FF47A721B680DF1C3
:101AA0001701204698470028F5D1BFE7154908A837
:101AB00007F0FAFC3368144999444A46F09B4046C3
:101AC00008F02EFC002D3FF448AFBD1E45E7EDA801
:101AD00005F037FE08A807F08AFA01200DF2DC5D58
:101AE000BDE8F08F69690200786902008F69020021
:101AF000A169020087650200C8690200DE69020070
:101B0000E169020088650200196A02002DE9F047C8
:101B1000074686B006AA002442F80C4D0E463D4901
:101B200007F080FA20220121384607F0B1FB039B21
:101B3000002B65D0384607F06CFA002860D0FFF71C
:101B4000BFFE05460DF1180808F80D4D2B6805225B
:101B50001B6841462846984704460028F6D1039B57
:101B6000384685F8533007F0E7FB274601464FF02B
:101B7000FF32284608F09EFB2B6828469B68984752
:101B8000254B0DF11809186849F8044D04902B688D
:101B90004FF47A721B68414628469847D0B1032219
:101BA0000DF1150148460DF011FF9DF80BA0042220
:101BB00004A948468DF817A00DF0EEFE50B1336829
:101BC00001225B6851463046013798470028DED134
:101BD0000134DCE71822B7FBF2F302FB137202B107
:101BE00001333A460D49304608F09AFB74B161233F
:101BF000009322460A4B0B49304608F091FB05E062
:101C00004FF0FF320849304608F054FB012006B07F
:101C1000BDE8F087D96502001D660200256A020052
:101C20004C6A0200886A0200416B020001480FF012
:101C3000E7B800BF6D6B020038B504460D460BF0E7
:101C400093FF074BB0FBF3F00223B0FBF3F2AA4281
:101C500004D9B3F5807F01D00233F6E7236138BDA4
:101C600040420F007FB500F235260C460122314676
:101C700005F0C0FA054648BB039002AA03A9304606
:101C800005F08BFE00BB0298039A837802FB03F1F8
:101C900082691348023A5A435208B2F5004F38BFDE
:101CA0000120104B4FEA510124BF03464FF48060DE
:101CB000B1FBF0F1B2FBF0F20091019321460A482A
:101CC0000FF02CF8012008E0084B00E0084B2A46F2
:101CD000214608480FF022F8002004B070BD00BF74
:101CE000AB6B0200A86B0200B56B0200B16B020087
:101CF000AE6B0200E36B020038B5074C23684BB9AA
:101D00000820FEF7BDFA0546FFF73CF9402328609E
:101D10002B712560206838BD60C3072038B5054C9D
:101D2000256825B90120FEF7ABFA05702060206810
:101D300038BD00BF5CC3072038B5084C23685BB9C9
:101D40000C20FEF79DFA0546FFF71CF990232B7136
:101D500000232860AB602560206838BD28C30720B9
:101D600010B5044C23681BB90120FEF789FA2060E6
:101D7000206810BD2CC3072010B5044C23681BB984
:101D80000120FEF77DFA2060206810BD58C30720AF
:101D9000AD49AE4A4023F0B58B614FF000739361BB
:101DA0004FF480338B61AA4BADF5057D186807258C
:101DB00020F0F00018601868022440F0500018600D
:101DC000186820F440501860086840F0400008602F
:101DD000186820F47C201860186840F428201860E7
:101DE000186820F470001860186840F4200018602B
:101DF000186820F040401860186840F000401860F3
:101E0000586820F03C005860586840F0280058603E
:101E1000586820F003005860086840F4803008607B
:101E2000586820F440505860086820F4800008602A
:101E3000D96821F44031D960116841F08071116096
:101E4000596821F440215960596841F48021596052
:101E50009868804901409960116841F4897141F0A6
:101E600001011160996821F470119960996821F05D
:101E700070419960116821F446411160D96821F0E0
:101E80003001D960D96841F03001D960D96821F4B6
:101E90007011D960136843F000731360136823F066
:101EA0008063136007F05EFB01210A200BF06EFCDB
:101EB00001210A200BF082FC674801210560446083
:101EC000FFF7BAFE08F07AF8012115200BF05EFC4E
:101ED000012115200BF072FC60480121056044606F
:101EE000FFF7AAFEFFF74EF8642107F06DFE10B968
:101EF0005B480EF085FF0BF085FC02F0E3FE10B9A5
:101F000058480EF07DFF4FF4FA6007F0E4FAFFF74F
:101F10008DFE0BF029FE0CF061FF53490DF06AF8BD
:101F20000CF0A8FB02460B4650480EF0F7FE0BF0F3
:101F3000FFFA052804AC14D1002363604C4B1B68E6
:101F40002360FFF773FE4B4B4B48D96C1A6D5B6DEA
:101F500000940EF0E3FEFFF769FE41F2883007F0CF
:101F6000BAFAFEF7A3FA4549FFF77CFE054668BBBF
:101F700043480EF0D3FE04F0EDF8FEF797FA294639
:101F80002A4600F2352005F003FF3E4B3E4A00286A
:101F90000CBF104618460EF033FFFEF787FA37499C
:101FA000FFF760FE90B939480EF02AFF04F054F8AC
:101FB000014637480EF0B2FE04F03EF8054604F044
:101FC0004BF800FB05F133480EF0A8FE324E334FBC
:101FD000336813F0010516D130460CF0B7F990B113
:101FE0004FF40E70FEF74CF9012380F834323123A0
:101FF00080F835323A2380F8363280F8375238602C
:1020000030460CF0AFF926493868264DFFF72AFE16
:1020100018211148FFF710FEFFF708FE2B684BB997
:102020000820FEF72DF90646FEF7ACFF3823306096
:1020300033712E60286802F037FF0546B0BB1A489E
:102040000EF0DEFE33E000BF00C0092020C00920F2
:1020500000C00240F0FCFCFF00000340008008408C
:10206000276C0200586C0200002474497D6C020049
:102070004440024000400240956C02000D6D020099
:10208000156D02001B6C0200166C0200526D0200FE
:10209000716D0200806D020038C307203CC3072029
:1020A0009762020068C307209B6D02000125FFF7BD
:1020B00043FE03F045F8064618B972480EF0A0FE3C
:1020C0003546FFF719FE02F071FF064618B96E4853
:1020D0000EF096FE35466D4E33681BB90120FEF7B3
:1020E000CFF83060306802F02FFFFFF739FE03F0C1
:1020F00008F8FFF713FE02F092FFFFF73DFE03F032
:1021000005F8FFF70BFE002102F08CFF8DB9FFF7F9
:102110008DFDFFF7F1FD2D2102F030FFFFF7ECFD03
:102120002D2102F037FFFFF7F9FDFF2102F07AFFC2
:102130000CE0FFF7E1FD0546FFF7FEFD03F02AF88E
:102140000DF01AF8C1B2284602F04CFF102200210F
:1021500020460DF056FC00230F2221464C4803F088
:10216000A5F880B920460DF0BEF9C5B2284601F0A9
:10217000FDFE484A484B2946002818BF1346444AEA
:1021800046480EF0CBFDFFF7EBFD02F0BCFF054625
:10219000002010F0C3F828440EF03AFE4FF400720D
:1021A000002120460DF02DFC20460BF071FB21464E
:1021B0003B480EF0B3FDFFF739FD80220021204699
:1021C0000DF01FFC204603F023FF2278FF2A04D0E5
:1021D000214634480EF0A2FD29E0FFF7CDFD02F0C4
:1021E00097FF09281DD130480EF00AFE21462F48DE
:1021F0000EF01AFF21462E480EF090FD2D480EF0ED
:10220000FFFD002303A92C4803930EF00DFF9DF85A
:102210000C30592B03D1204603F0D8FE07E02748A5
:1022200003E027480EF0ECFD26480EF0E9FD4FF2E2
:1022300008031D684FF20C031C684FF210031E6860
:102240004FF470431A684FF20403AD0A1968A40AE8
:102250001D480EF063FD2A4621461C480EF05EFD27
:1022600031461B480EF05AFDFFF7E0FC012006F056
:10227000DFFA18480EF0C4FDFFF7D8FC0DF5057D18
:10228000F0BD00BFB66D0200D06D020064C3072030
:10229000E96D0200216C020021660200EF6D020070
:1022A000957F0200236E02003F6E0200616E020005
:1022B000666E0200816E0200C46E0200C86E0200EB
:1022C000E06E02000E6F0200406F02006C6F0200B1
:1022D000996F0200B66F020001207047012070471D
:1022E0000120704710B5044C23681BB90120FDF78D
:1022F000C7FF2060206810BD64C30720012070471D
:1023000038B504460F4B00250360636DE06DAB42AA
:1023100005D950F82500FDF7B5FF0135F5E708B1FF
:10232000FDF7B2FF0025A36B206CAB4205D950F836
:102330002500FDF7A7FF0135F5E708B1FDF7A4FF7C
:10234000204638BDF06F020010B50446FFF7D8FFF5
:102350002046FDF797FF204610BD2DE9F0410446C9
:102360000E46C06889000EF0B5FDA568E060AF00BC
:102370004FF00008AE420DD90C20FDF781FFE36855
:10238000C0F80080C0F8048080F808800135D8517A
:102390000437EFE76660BDE8F081FFFFF7B504465C
:1023A00000250B464FF480520095254906F0E4FDC8
:1023B000244B042623606663A563E563256402213C
:1023C00004F13400FFF7C9FF26656565A565E5657D
:1023D000284660210EF07EFDA56DE065AE00172D4C
:1023E0000CD81020FDF74CFF0746102200210DF0FD
:1023F00008FBE36D01359F510436F0E71823636550
:10240000012384F87030104E0023A4F87430A4F82F
:102410007630A367002200230027C4E92023C4E903
:1024200022670BF01FFA4FF47A7200230CF0C4FEFF
:1024300080197941C4E92001204603B0F0BD00BFF6
:1024400008700200F06F0200C0D401002DE9F041D5
:102450000F7A14464D680E688FB1082A23D128469A
:1024600006F0D7FD00281CDD4FF0FF32134930463F
:1024700007F00CFF0121284606F0CAFE08E00A2AF0
:1024800019D00D2A12D02146284606F0E2FF97B156
:10249000336821463046BDE8F0415B684FF0FF32BB
:1024A00018470724F4E70A2A02D1F1E7BDE8F081D2
:1024B0000D2AEDD0E7E7BDE8F08100BF1170020002
:1024C000F8B50446142015460F46FDF7D9FE8021C5
:1024D000064606F06EFFA36BE26B9A4206D3616B71
:1024E000591803D204F13400FFF737FFE36B226C75
:1024F000591C52F82330E1631F605E601D72F8BD05
:102500002DE9FF47CF6B06460D4601AC3FB94FF4AE
:102510007A700AF06FFB01976760A76047E00B6C69
:102520000DF110081B6893E8070084E807000023FA
:1025300008F80D3D0AF0FAF981460027EB6B9F423F
:1025400063D22B6C4FEA870A53F827301868037C54
:10255000002B34D0036800221B684146984770B3B3
:10256000EB6B9F422DD22B6C53F80A3093E8070097
:1025700084E807009DF8032021462846FFF766FF00
:102580000BF070F94FF47A7200230CF015FED5E9C8
:10259000222380185941C5E92001029806F039FD2F
:1025A0000746029806F038FD013887420CDB94E8B4
:1025B000070086E80700304604B0BDE8F087013721
:1025C000BCE705F14403D1E7D5E92223134324D026
:1025D0000BF048F94FF47A7200230CF0EDFDD5E9C9
:1025E0002023994208BF904217D30BF03BF94FF4D8
:1025F0007A7200230CF0E0FDD5E9222380185941BE
:102600000023C5E920010193D1E70AF08FF9814544
:10261000C3D102200AF0EEFABFE79DF803300A2B7F
:1026200088D1C4E7F0B5054685B020480EF076FBAA
:10263000294601A8FFF764FF019C1CB91C480EF055
:10264000DFFB30E0029E304606F0E3FC00282ADD86
:102650000BF008F90746F8B1B5F8743005F15000F1
:102660000133A5F874302246314605F0FDFE114BCA
:1026700000251868009023681DF805105B684FF06E
:10268000FF32204601359847042DF4D10BF0EAF8CB
:10269000C11B09480EF042FB304606F0BFFC236820
:1026A00020469B689847012005B0F0BD14700200D9
:1026B00088650200E46F02001A70020038B5064C0B
:1026C000236833B92C20FDF7DBFD054607F054FDE8
:1026D0002560206838BD00BF34C3072010B504460C
:1026E000FFF7ECFF03682146BDE810405B684FF040
:1026F000FF32184713B5002302AC04F8013DFFF781
:10270000DDFF03684FF0FF321B68214698479DF8B4
:10271000070002B010BDFFFF2DE9F04100F15004A9
:102720008AB00025064600952046694B694A6A49E9
:1027300005F0BAFD00952046684B694A694905F0E5
:10274000B3FD00952046684B684A694905F0ACFD29
:1027500000952046674B684A684905F0A5FD00953D
:102760002046674B674A684905F09EFD0095204664
:10277000664B674A674905F097FD00952046664B12
:10278000664A674905F090FD00952046654B664A0C
:10279000664905F089FD00952046654B654A664906
:1027A00005F082FD00952046644B654A654905F0B9
:1027B0007BFD00952046644B644A654905F074FD35
:1027C00000952046634B644A644905F06DFD009511
:1027D0002046634B634A644905F066FD0095204638
:1027E000624B634A634905F05FFD00952046624BEA
:1027F000624A634905F058FD00952046614B624AE4
:10280000624905F051FD00952046614B614A6249DD
:1028100005F04AFD00952046604B614A614905F08C
:1028200043FD00952046604B604A614905F03CFD40
:10283000009520465F4B604A604905F035FD0095E4
:1028400020465F4B5F4A604905F02EFD009520460B
:102850005E4B5F4A5F4905F027FD009520465E4BC1
:102860005E4A5F4905F020FD00955E4B5E4A5F4978
:10287000204605F019FDFFF721FF4FF48073202259
:102880004FF41641054607F057FC804601272F7488
:102890005748FDF76FFD5748FDF766FD3A46294654
:1028A0003046FFF70DFE082203A905A806F08AFBB3
:1028B00005A8514906F0F8FD2A4605A9204605F06D
:1028C000D3FD05A806F093FB40460AB0BDE8F081B1
:1028D0003070020064700200012B01006B70020076
:1028E000B37002008D2A0100B7700200E970020087
:1028F000C12A0100ED70020034710200252A010096
:102900003A7102007C7102003D0501007171020004
:102910008171020025060100897102009771020091
:10292000A50F01009E710200DF710200490601003F
:10293000E4710200407202001D09010044720200AD
:10294000D27202009D08010086720200D17202005C
:102950001D0D0100D572020003730200210A01005F
:10296000067302002B730200990B01003173020001
:102970005E730200110C010061730200B59C02003D
:102980006D0C010086730200A9730200D50B0100D3
:10299000AC7302007F7402004911010083740200CD
:1029A000C67402005D0E0100CE740200E1740200E4
:1029B0001D0F0100E8740200E77502000D07010019
:1029C000EB750200137602004D0F0100197602002C
:1029D000746C020061170100437602003777020031
:1029E0009513010000770200DA620200E112010093
:1029F000F5260100DD2601006469020010B55C20A7
:102A0000FDF73EFC044600F0CBFA034B20461C6069
:102A100000F0ECFA012010BD70C3072001207047C0
:102A20007047FFFF10B5044686B01022002102A8AF
:102A30000CF0E7FF05AB019304AB009302AA03ABD4
:102A40000F49204606F0EEFA0E4B1B78ABB10E4B49
:102A500002991B681A7C61F303021A7403995A7C69
:102A600061F307125A740499DA7C61F30302DA7491
:102A700005991A7D61F307121A75012006B010BD81
:102A80005C7702006CC3072070C3072007B50023E2
:102A900002AA42F8043D074906F0C4FA064B1B7827
:102AA0001BB1064B019A1B689A84012003B05DF8A4
:102AB00004FB00BF6C7702006CC3072070C30720C3
:102AC00007B5002302AA42F8043D0A4906F0AAFA13
:102AD000094B1B7853B1094B019A186890F84430A0
:102AE00062F3030380F8443000F0BAFD012003B024
:102AF0005DF804FB737702006CC3072070C30720E6
:102B000007B5002302AA42F8043D064906F08AFAF6
:102B1000019A054B02B1012201201A7003B05DF841
:102B200004FB00BF737702006CC3072010B5204C74
:102B3000206800F097FC206800F0CBFC206800F0D3
:102B400007FC206800F072FA206800F075FAFFF7C1
:102B500013F9042102F0E8FA20B120680121443081
:102B600000F0D7F9FFF708F9032102F0DDFA40B1D0
:102B7000206800F01AFB80F00101C9B2206800F063
:102B800011FBFFF7F9F8022102F0CEFA20B1094A51
:102B9000137883F001031370FFF7EEF8012102F0C0
:102BA000C3FA20B1044A137883F00103137010BDF7
:102BB00070C3072000C007206DC3072038B5164C2E
:102BC0000A21206800F07CFD054620B1FFF7A6F839
:102BD0000122114603E0FFF7A1F82A46012102F085
:102BE00077FA20680C4D443000F091F950B1286814
:102BF00090F84E3043F0C00380F84E30BDE83840C6
:102C000000F08EBE2B68012193F84E2061F38712ED
:102C100083F84E2038BD00BF70C3072008B5FFF70A
:102C20007DF8BDE80840042102F057BA7047FFF76D
:102C3000E5BEFFF7F3BE10B50446FDF723FB2046C3
:102C400010BDFFFF70B50B4E05010B4B741953F807
:102C50002010201D09F08EFFE368A0689847A36844
:102C600070590133A36000231A46BDE8704019462D
:102C700009F0A4B874C307205478020008B50020F6
:102C8000FFF7E0FFFBE708B50120FFF7DBFFFBE7FD
:102C900008B50220FFF7D6FFFBE708B50320FFF7D2
:102CA000D1FFFBE72DE9F34107460C46484A0025D2
:102CB0000D2312684749009506F05EF9464B87F8E8
:102CC00031403B60454C464B0322E360454B29466F
:102CD000E361454B0120E362444BDFF84881E36345
:102CE00009F01AF8032220602946012009F014F89F
:102CF000032229462061012009F00EF82062206895
:102D000008F0FBFC18F80060206808F0F1FC384A75
:102D10000146304608F06EF8206908F0EEFC18F81D
:102D20000060206908F0E4FC324A0146304608F0B1
:102D300061F8206A08F0E1FC18F80060206A08F0E9
:102D4000D7FC2D4A0146304608F054F82B4B2C494D
:102D50001E680523C6F38F06009332462B46019565
:102D6000284809F07BFC0623009332462B4626496F
:102D70000195264809F072FC0723009301952B4624
:102D800032462349234809F069FC97F83130D3B122
:102D900003222946012008F0BFFF206308F0ADFCA4
:102DA00018F80080206B08F0A3FC1B4A014640463F
:102DB00008F020F80823009301952B463246174966
:102DC000174809F04BFC384602B0BDE8F08100BF5F
:102DD0007C770200907702006C78020074C30720B1
:102DE0002D2B0100212A0100BD2B01001D2C01000B
:102DF000977702009F770200A877020058770200B9
:102E0000B27702007D2C0100B6770200872C01000A
:102E1000BB770200912C0100C1770200CC77020041
:102E20009B2C010050C0072038B517480C46415C68
:102E300000230131C9B2914202D00155184638BD74
:102E4000124D0355200128581A46194609F0DCF99D
:102E50000546B0B90E4B53F8244020460DF0D0FF84
:102E600020460EF0CFFA2B4602462146094802F0D2
:102E700061FA094A094B9A644FF08043AA221A72F8
:102E80001D70012038BD00BFB4C3072074C30720E4
:102E900080770200D3770200EFBEADDE0040024033
:102EA000044608B5012009F0A5FE94F8313023B19D
:102EB000012203212046FFF7B7FF0A220221204604
:102EC000FFF7B2FF0028EDD00A2201212046FFF7CC
:102ED000ABFF0028E6D00A2200212046FFF7A4FF1E
:102EE000E0E7002202720260426070470378027AD3
:102EF00003F00F0102F00F02914206D013F00F030E
:102F000018BF012303720120704700207047007A28
:102F10007047017270470D218171012100220172F9
:102F20000C2102714271C271C160026070478079E8
:102F30007047C0797047817102727047C1717047E4
:102F4000007A7047037A82790BB113B203E0C36849
:102F500013445B421BB20380C379022B02D14FF6AC
:102F6000BA7102E0012B02D14621418001E003B990
:102F7000438043710271704710B50446002181837C
:102F8000C18301604160142208300CF03AFD2046F4
:102F900010BDB0F91C0070478183704770477047BF
:102FA00010B50446FFF7B7FF04F1100000F00AFD6A
:102FB00004F12400FFF7E0FF04F14400FFF791FF64
:102FC00000230122642184F8503084F85A3084F8B8
:102FD0005B3084F84D3084F85120616584F85820C6
:102FE00084F85930A4F84E30204610BD13B504467D
:102FF0000B4B90F8510001930A4B0F22616D009327
:103000000A2306F0C9FB06F049FD94F8510006F0CA
:1030100039FD054801F0E3FE012002B010BD00BFFC
:103020009D2F01009F2F0100B8C30720002380F8C7
:10303000503080F85B30704790F84E3003F0040356
:103040006FF3820380F84E3090F84F306FF3000337
:1030500080F84F30704770B50446836A90F82800B6
:10306000C3F35E02B2F57A7F34BF0025012565F314
:10307000000084F82800C00705D4A36A0A4462F35C
:103080005F03A36216E013F0010313D14FF47A72C9
:10309000636262F35F03A36203F0D10343F00103B1
:1030A00084F8283094F84E30012043F0010384F86E
:1030B0004E3000E00020A369257EC3F35E02B2F526
:1030C0007A7F34BF0026012666F300052576ED07DA
:1030D00005D4A3690A4462F35F03A3612BE013F0F4
:1030E000010328D10120024660F307122274024630
:1030F00060F307126274024660F30712A27402467C
:1031000060F30712E274024660F3071263612275EE
:10311000024660F3071262754FF47A7262F35F033E
:10312000A36103F0D1030343237694F84E3043F0B8
:10313000020384F84E30E36B94F83C20C3F35E0541
:10314000B5F57A7F34BF0026012666F3000284F8C5
:103150003C20D20705D4E36B294461F35F03E363AA
:1031600070BD13F001011CD1142204F12C000CF0ED
:1031700048FC94F838304FF47A7243F0010384F835
:103180003830E36B012062F35F03E363DBB243F0AB
:10319000010384F83C3094F84F3043F0010384F885
:1031A0004F3070BD80F85810704790F85800704745
:1031B0002DE9F04F85B004AB03E906009DF80B3014
:1031C000044600939DF80E309DF8089001939DF8F9
:1031D00009A09DF80A809DF80C509DF80D70FFF72E
:1031E000A8FE06462046FFF7ABFE8346484801F09E
:1031F00004FE019B002B40F08480012E03D057D3A6
:10320000022E26D07DE0BBF1000F0DD0BAF1000FE9
:1032100001D1002F75D03E4801F0E9FD002F3FD0CD
:10322000B9F1000F29D161E0B8F1000F69D0384839
:1032300001F0DDFD009B002B58D00DB9294615E0AB
:103240002FB939462046FFF779FE324652E0324622
:103250002CE0BBF1000F19D0B9F1000F01D1002F04
:103260004FD02B4801F0C3FD27B939462046FFF760
:1032700065FE46E0BAF1000F34D025B92946204654
:10328000FFF75CFE22E00122002137E0009B002BCB
:1032900037D01F4801F0ABFDB8F1000F22D027B99D
:1032A00039462046FFF74AFE23E00122594625E031
:1032B000BBF1000F0FD027B3154801F098FDBAF10C
:1032C000000F0FD0B9F1000F10D00DB92A4611E050
:1032D0000122019912E0A5B10D4801F088FDB8F175
:1032E000000F01D10121C1E7009B0BB90221BDE70D
:1032F00017B901220D2101E05A4659462046FFF731
:103300001AFE204605B0BDE8F04FFFF712BE00BF21
:10331000B8C307201FB504461022002168460CF0F0
:1033200070FB012384F84D30022204F14400002197
:103330008DF8083001928DF80230FFF7EAFD002287
:10334000694694F8510006F04BFB04B010BDFFFF36
:103350007FB506461022002168460CF052FB96F815
:103360004E40A0090BF074F900223D4B0BF024F8FD
:103370000BF00EFC800100F0C00504F001000BF022
:1033800067F90022364B0BF017F80BF001FC00F048
:1033900001000543C4F340000BF05AF90022304B02
:1033A0000BF00AF80BF0F4FB400000F002000543BC
:1033B000C4F380000BF04CF90022294B0AF0FCFF0B
:1033C0000BF0E6FB800000F004000543C4F3C000EE
:1033D0000BF03EF90022224B0AF0EEFF0BF0D8FB77
:1033E000C00000F008000543C4F300100BF030F9F2
:1033F00000221B4B0AF0E0FF0BF0CAFB000100F0BB
:1034000010000543C4F340100BF022F90022144BC6
:103410000AF0D2FF0BF0BCFB400100F02000284373
:103420008DF8080096F84F0000F001000BF010F93D
:1034300000220B4B0AF0C0FF0BF0AAFBC22300F0E6
:1034400001008DF80900019300220323694696F8D4
:1034500051008DF8023006F0C3FA04B070BD00BF11
:103460000000E03F38B5054690F8510006F0AAFA92
:10347000044650B1FEF752FC032101F02EFE95F8F0
:103480005100BDE8384006F0FDBAFEF747FC224681
:10349000BDE83840032101F01BBEF8B501F00F066E
:1034A0000025012416F0010705D00135FEF736FC92
:1034B000EDB2012202E0FEF731FC3A46214601342A
:1034C000E4B201F005FE052C4FEA5606EAD1284683
:1034D000F8BD38B590F85030054603F00F030F2BB8
:1034E00019D0012495F85030DB0703D4FEF716FC01
:1034F000012202E0FEF712FC0022214601F0E8FD65
:10350000013495F85030E4B25B10052C85F850304A
:10351000E8D1002038BD0021FFF7BFFF012038BDF2
:1035200038B515460C46FEF7E7FB294601F032FD9B
:10353000FEF7E2FB2146BDE8384001F01FBDFFFF6A
:103540007FB504461022002168460CF05AFA204646
:10355000FFF7EFFC3030C6B22046FFF7E8FC0A2543
:10356000B0FBF5F0C5B22046FFF7EAFC08B13035F4
:1035700000E0343500238DF80F308DF80E308DF8D3
:103580000D308DF80C308DF80B308DF80A30B4F911
:103590000030EDB26433BCBF4FF69C732380B4F9A6
:1035A0000030642BC4BF64232380B4F900000028DA
:1035B00008DA0BF04DF80022284B0AF0FBFE0BF066
:1035C000BFFA07E00BF044F80022244B0AF0F4FEA7
:1035D0000BF0DEFAB4F90230C0B26433BCBF4FF670
:1035E0009C736380B4F902308DF80800642BC4BF6B
:1035F00064236380B4F90200002808DA0BF028F88D
:103600000022164B0AF0D6FE0BF09AFA07E00BF0F8
:103610001FF80022114B0AF0CFFE0BF0B9FAC0B22E
:103620008DF80900324629462046FFF779FF11231D
:1036300001939DF8033002226FF3C7138DF8033016
:103640009DF80230694662F3030394F851000022AA
:103650008DF8023006F0C4F904B070BD0000E03F00
:1036600038B500F1440504462846FFF73FFC28B36F
:103670002846FFF74CFC94F84E30A8B1022262F3C2
:10368000871384F84E30012220460D21FFF753FCAA
:1036900020460021FFF752FC2046FFF753FC20464E
:1036A000BDE83840FFF74CBF012262F3871384F86E
:1036B0004E302046BDE83840FFF72CBE38BDFFFF36
:1036C0002DE9FF47044689461022002168460CF088
:1036D00098F94FF00008002600270022694694F868
:1036E000510006F029F9002800F00F8194F85B30B2
:1036F000013384F85B30019B232B23D01AD8032B92
:103700004ED0042B00F08780012B40F0F3809DF811
:10371000082094F84430204662F30303120962F350
:10372000071384F84430A36C6FF35F03A364FFF7BF
:1037300097FFDFE0252B1DD00FD3262B25D0C32BE1
:103740007FD0D7E094F8503043F0080384F850302D
:1037500094F84E3043F0100309E094F8503043F0F1
:10376000010384F8503094F84E3043F0040384F899
:103770004E30BFE094F8503043F0020384F85030EC
:1037800094F84E3043F02003F1E794F8503043F0C2
:10379000040384F8503094F84E3043F00803E6E711
:1037A0009DF80820237C62F30303120962F30713D8
:1037B00023749DF80920637C62F30303120962F30A
:1037C000071363749DF80A20A37C62F303031209B4
:1037D00062F30713A3749DF80B20E37C62F30303E9
:1037E000120962F30713E3749DF80C20237D62F342
:1037F0000303120962F3071323759DF80D20637DFF
:1038000062F30303120962F307136375A3696FF38D
:103810005F03A3616EE09DF809209DF80830120255
:1038200002F4807213430AB163F0FF032046A384BD
:10383000A36A30F8241F6FF35F03A362FFF7ACFBAA
:1038400058E09DF809509DF808002B0203F47063BE
:1038500018430AF0EDFE30A3D3E900230AF05EFF1F
:103860000BF0B6F9E0629DF80A0004F1440A000189
:1038700040EA15100AF0DCFE27A3D3E900230AF082
:103880004DFF0BF0A5F99DF80C5020632B029DF81D
:103890000B0003F4706318430AF0CAFE1EA3D3E9B9
:1038A00000230AF03BFF0BF093F99DF80D1094F8FC
:1038B0003830C900C9B22A1141EA5515E16B62F3EB
:1038C000000384F83830EAB26FF35F0103F00103BC
:1038D000606384F83920E16384F8593084F85A2011
:1038E0000DB1012103E02046FFF714FD29465046A3
:1038F000FFF70FFB4FF00003CDF80080CDE9026722
:10390000CDF804808DF80230E7E649462046FFF7FF
:10391000A2FB04B0BDE8F0879A9999999999B93FAB
:1039200037B504462430FFF734FB0A2801DD0121B6
:1039300003E00A30B4BF022100212046FFF7FEFA5F
:1039400001220D212046FFF7F6FA04F11001684626
:1039500000F041F894F8583023B19DE80600204665
:10396000FFF726FC94F8593063B10B4B1B784BB131
:10397000002120460122FFF7DEFA002104F1440075
:10398000FFF7C7FA2046FFF7DDFA204603B0BDE88F
:103990003040FFF7D5BD00BF00C0072010B5064C72
:1039A0004021204601F0EAF92046BDE81040034AD4
:1039B0000349FCF7C7BC00BFB8C3072020C30720DA
:1039C000594E01000022C0F80D2002604260826062
:1039D00002730261704700230360C0F803300123C3
:1039E00083710B7870B503F00F0404F10F0606F035
:1039F0000F06042E4A7906D9C2F303150F3505F0D8
:103A00000F05042D03D8002585710125457102F1AC
:103A10000F0505F00F05042D0ED90D79C5F303151B
:103A20000F3505F00F05032D0AD8C2F303150F3526
:103A300005F00F05042D03D80125057000258571BB
:103A4000C3F303130F3303F00F03042B4B7807D991
:103A500003F10F0505F00F05032D05D8042E03D83B
:103A60000125457000258571C3F303130F3303F05F
:103A70000F03032B8B7805D903F10F0505F00F0514
:103A8000032D03D80125857000258571C3F3031329
:103A90000F3303F00F03032BCB7805D903F10F0588
:103AA00005F00F05032D03D801250571002585714B
:103AB000C3F303130F3303F00F03032B05D90B7963
:103AC0000F3303F00F03032B03D80123C37000232C
:103AD000837143798BB1032C01DD3F2A06D84378EB
:103AE00013B9012545708371032C01DD3F2A04D8E9
:103AF000037813B901220270837145788278C47803
:103B0000837906788D734E730C74CA73CB7470BD51
:103B1000704708B501F00CF9012008BD10B5044646
:103B2000FCF7B0FB204610BD37B59020FCF7A8FB92
:103B300004460321FEF732FC204605F0EFF934205D
:103B4000FCF79EFB054600244FF400720D490094DB
:103B5000042305F011FA0C4B28462B6005F0DEF922
:103B60003420FCF78DFB05462146FFF79BF82846DD
:103B700005F0D4F92046214605F0DEF94FF0FF307C
:103B800003B030BD746C0200A878020010B54FF687
:103B9000FF74242303FB0101884209D043782BB131
:103BA000038C1344A34228BF234603842430F3E745
:103BB00010BDFFFF37B5002302A840F8043D0C4BB1
:103BC00004215B6898470B4B019A1C680546141B3F
:103BD0001A60042122460848FFF7D8FF2246022136
:103BE0000648FFF7D3FF281C18BF012003B030BDE3
:103BF000C0C3072090C40720D4C30720ADC407204A
:103C000008B50B4B197803788B420A4B0BBF1A8807
:103C10009A880132013214BF9A801A80064B817053
:103C2000DB6820219847003018BF012008BD00BF85
:103C300009C0072065C40720C0C307200A4B0278CB
:103C40001B789A42094B0BBFDA881A89013201327C
:103C50000CBFDA801A810379C3F3C202073262F320
:103C6000C5030371FFF7CCBF09C0072065C4072057
:103C700010B50749002311F823409A00844202D16D
:103C80000348104410BD0133042BF4D1002010BDB3
:103C90007FC4072070B1C3780133DBB2FF2BC37040
:103CA00008D105480023C118CA7804335208102BE4
:103CB000CA70F8D1704700BF7FC40720242202FBDE
:103CC00001010346024630B5914206D01446243223
:103CD00012F8235C002DF7D10FE00446002599422D
:103CE0000BD01A79C2F3C2001A8C42EA0042AA42EF
:103CF00084BF1C4615462433F1E7204630BDFFFF44
:103D000038B50546C90001F10804FFF753FF1C4B05
:103D10002A781B789A4204D102211A48FFF7CEFF75
:103D20000CE004211848FFF7C9FFEB7833B990F88D
:103D30002330042443F0800380F82330002380F8EC
:103D4000203080F8213002462B4690F8231080F86E
:103D5000224021F07F01C4F306240C4380F8234065
:103D600005F1200153F8044B8B4242F8044BF9D182
:103D7000064A0379127862F3C503037138BD00BFA8
:103D800009C00720ADC40720D4C3072008C00720FE
:103D900008B5FFF76DFF0346D8B9FFF769FF034683
:103DA000B8B90D4AD378D179D07A8B4296BF1946EB
:103DB000131D1346814294BF0846084BD17B084A25
:103DC000814238BF1346074900221A60CA7A01327D
:103DD000CA72184608BD00BF7FC4072087C40720E9
:103DE0008BC4072065C407202DE9F84F05460C4613
:103DF0004FF0240909FB0219DFF868A1DFF868B168
:103E00004E1C4FF000084C4500F09A8094F8233087
:103E10001A0624D5B5B12A7861788A4205D16F781F
:103E200016F8010C874200F08D80E87850B1687870
:103E3000884207D116F8011C914203D1A979A279D1
:103E400091427FD094F82220218C03F07F0342EA34
:103E50000323994271DB2046FFF7D2FE72E06278BD
:103E6000002A6AD06DB3297901F0C001C02917D1A9
:103E700016F8010C6978884202D12878904261D006
:103E8000E778A87887420CD191420AD116F8010C44
:103E90002978884205D1A079A979884201D151E0D9
:103EA00079B1A878E17888420BD16978914208D13C
:103EB00016F8010C2978884203D1A079A9798842A3
:103EC00046D094F82210208C03F07F0341EA0323AC
:103ED000984232DB237984F82080C3F3C201CFB249
:103EE00084F821801FB12046FFF7A8FE25E003F0EB
:103EF000C003C02B19D016F8010C9AF80030984274
:103F000013D1E3789A4210D07BB16379032262F334
:103F100007136371E1702046FFF790FE23799BF849
:103F2000002062F3C503237100E001276078FFF7EA
:103F30009FFE08B1C0F8008027B92434243662E718
:103F4000BDE8F88F2422002120460BF05AFDF4E74B
:103F5000237984F820806FF3C50384F821802371CE
:103F6000EBE700BF09C0072008C00720431EDBB2F3
:103F7000FD2B9DBF024B187001200020704700BF31
:103F800009C00720014B1878704700BF09C00720FF
:103F900007289CBF014B1870704700BF08C007205E
:103FA0002DE9F743044691461E469DF828500F46DA
:103FB000002966D0364B93F80080414563D00F2E20
:103FC00061D8002861D0202200210BF01AFDFF2FBC
:103FD000237914BF09F00302002262F3871303223E
:103FE00062F302032B4A6770127884F8008062F350
:103FF000C503294A2371137884F802800133DBB2A8
:104000001370A3710BAB019315B94FF001081BE0BE
:1040100004F10809019AE0791346526853F8081B25
:1040200000EB02085FFA88F8013DB8F1180F019320
:10403000EDB207D848440BF0BEFC84F80780002D91
:10404000E8D1E2E74FF00008DFF85090012338464E
:1040500089F80030FFF70CFE0546FFF71BFE002332
:1040600089F80030637925B966F307136371E57049
:1040700005E0AA7862F3071363716B78E37040463A
:1040800003E0084601E00020FFE703B0BDE8F0834D
:1040900009C0072008C0072064C4072071C4072096
:1040A000124B012270B51A7004461E4608B900254D
:1040B00018E0FFF7A5FD05460028F8D0237903F0A6
:1040C000C003402B06D0C02B0AD1E37853B16278ED
:1040D0009A4207D0617920460909FFF711FE01E0F5
:1040E000802BF7D000233370284670BD71C40720A1
:1040F00082B02DE9F0439146421ED2B28DB0FD2A26
:1041000005460E4615939DF8688001D9002057E0BA
:10411000002BFBD0179F002FF8D0199B002BF5D058
:10412000189B002BF2D0169B002BEFD048220021C9
:1041300026480BF066FC9022002125480BF061FC1C
:104140001022002123480BF05CFC234B00241C6050
:104150005C609C60214B1C605C609C60204B1D700F
:10416000204B214D1E7015AE0FCE0FC5336818229F
:1041700021461E482B600BF044FC494617221B4881
:104180000DF086F921462046B8470028BED0B8F188
:10419000000F02D1FFF70EFD12E006230293144B2D
:1041A0002246019301230093FF2104A8FFF7F8FEA4
:1041B0000028ABD004A8FFF773FF0028A6D0E9E7DA
:1041C0000DB0BDE8F04302B0704700BFADC407209A
:1041D000D4C307207FC4072073C4072065C4072009
:1041E00009C0072072C40720C0C3072094C4072059
:1041F000C078020030B5182B8DB016D8B2FA82F410
:104200001D1C18BF01256409AC420ED00293019217
:1042100000950A469DF84030014604A8FFF7C0FE0D
:1042200018B104A8FFF73CFF00E000200DB030BD3E
:1042300013B5537914781B09009302460B462046A8
:104240000321FFF7D7FF02B010BDFFFF00231A467E
:1042500030B5084C14F82350990035B1904202D182
:104260000448084430BD0132D2B20133042BF1D1ED
:10427000002030BD7FC4072000231846044A12F8EE
:10428000231009B10130C0B20133042BF7D17047BC
:104290007FC407202DE9F04188B020220021684624
:1042A0000BF0AFFBA14B1B7803F0FF04002B40F099
:1042B00039819F4F20213B6968469847002800F0CC
:1042C00084809C4D6B8801336B80FFF7D5FF9DF890
:1042D0000420A87202F00703032B04D0964A137837
:1042E00043F0010309E0954B1D789DF80230AB4285
:1042F00005D1914A137843F002031370E4E0C2F34E
:10430000C2029DF800E09DF806008D49D6B204EB8C
:10431000440313F801C0F4450BD10B4493F801C0DA
:10432000844506D1997801248E1B18BF01269A7006
:1043300018E00134042CEAD182490B689A70804A53
:10434000587002F10900834283F800E040F0C98010
:104350000A609DF800009DF80230834240F0C4805E
:10436000002426469DF80200FFF712FD9DF802206A
:1043700002709DF80220427000228270FFF78AFCD2
:1043800004B116B39DF80030AB4200F09C809DF85C
:104390000160FF2E1BD13B6820216846984720B959
:1043A000654A137843F0040313709DF8053003F059
:1043B0000F02511C61F303038DF80530C3F303139F
:1043C0009A4202DA6846FFF71BFC00247CE0B54203
:1043D0002BD164B99DF807304BB13B68202168466A
:1043E000984720B9544A137843F0040313709DF89A
:1043F000043003F0C003402B12D19DF807306A4609
:1044000013B91821504808E00C214A48FFF710FF63
:10441000002858D100216A460846FFF709FF52E0FC
:104420009DF80330002B4ED1F4E7484B1B78002B4E
:10443000CBD09DF8054004F00F074FEA141847450C
:10444000C3DA013767F303043046FFF711FC8DF838
:1044500005409DF80340A54221D19DF8041001F0CC
:10446000C001402906D0A1F180035A425A411446A6
:1044700010B90CE0012260B1C029437805D19E42F9
:1044800003D0003318BF012304E0002302E0C02959
:104490000ED10346134303F0010420B908E094B998
:1044A00008B941460CE043788DF80330857802E086
:1044B00000258DF803506846FFF7A2FB1CB1294682
:1044C0006846FFF71DFC6C46FFF774FB204604228C
:1044D0001F49FFF789FC02221E492046FFF784FC92
:1044E00020E003330B6034E785423FF439AFFFF738
:1044F0004FFC0446FFF7CEFB23783BB19DF8053017
:10450000A27803F00F0393423FF72AAF9DF80030E3
:1045100023709DF8023063709DF80530C3F30303E8
:10452000A3701DE708B0BDE8F08100BF71C407208B
:10453000C0C3072065C40720ACC4072009C00720FA
:1045400073C4072004C0072094C4072072C4072046
:10455000D4C30720ADC4072000231846094AD11848
:10456000497809B10130C0B22433902BF7D1064B02
:104570005A780AB10130C0B293F825300BB101303E
:10458000C0B27047D4C30720ADC4072008B5FFF7F9
:104590006FFB064B28B18278187802FB0000C00040
:1045A00008BD18781823584308BD00BF08C007206D
:1045B00003490B6803604B6843608B6883607047F6
:1045C00065C4072070B53E4C4FF48035E5613D4C25
:1045D000A0602046C5683B4CED06FBD4A0680D46A4
:1045E000C0B20BB923465FE02346002A63D0072AF6
:1045F0000E782DDD9E604E78083A9E608E789E6023
:10460000CE789E600E799E604E799E608E799E6017
:1046100001F10806C979996099694907FCD5A16833
:104620002970A1686970A168A970A168E970D9684A
:10463000C906FCD4A168083505F8041CA16805F872
:10464000031CA16805F8021CA16805F8011C1AE00A
:10465000032A1ADD9E604E78043A9E608E789E6032
:104660000E1DC9789960D968C906FCD4A1680435C3
:1046700005F8041CA16805F8031CA16805F8021CD4
:10468000A16805F8011C3146AFE701319E60013A8F
:10469000DE68F606FCD4A668013505F8016CA4E7CF
:1046A000E668F606FCD4A6686E1AB24203DD15F879
:1046B000016B9E60F4E7024B4FF480329A6170BD4B
:1046C00000C009200080084007B5002302A901F8B6
:1046D000013D01231A4600F01F00FFF773FF9DF80C
:1046E000070003B05DF804FB13B502AC04F8011D2C
:1046F00000F01F0000230122214640F02000FFF7B8
:1047000061FF02B010BD08B51720FFF7DDFFC0F351
:10471000001008BD70210720FFF7E6BF0A460023FE
:104720000146A020FFF74EBF08B50020FFF7CCFFE1
:10473000BDE8084000F0FE010020FFF7D5BFFFFFF5
:10474000024B4FF08072DA61704700BF20C0092031
:1047500008B50020FFF7B8FF40F00101C9B2002002
:10476000FFF7C2FF024B4FF080729A6108BD00BF95
:1047700020C0092020210720FFF7B6BF00231A46DA
:104780001946E120FFF71EBF37B504460D46FFF777
:10479000F5FF20462946FFF7C1FF0D4B4FF0807211
:1047A0001C469A610022ADF80620BDF806300133A0
:1047B0009BB2ADF8063033B94FF08073E361FFF779
:1047C000DDFF03B030BDFFF79EFF0028EDD0F3E71B
:1047D00020C0092008B51720FFF776FF00F0010080
:1047E00080F0010008BD40210720FFF77DBF08B51C
:1047F0000A46012301466120FFF7E4FEC0F34200B0
:1048000008BD00231A461946E220FFF7DBBE70B54B
:10481000064600200D461446FFF756FF16B100F07D
:10482000BF0002E040F04000C0B215B100F0DF016F
:1048300001E040F0200114B101F0EF0101E041F08E
:1048400010010020BDE87040FFF74EBF10B50446D0
:104850000020FFF739FF14B900F0F7010DE0012C3B
:1048600004D100F0FB0141F0080106E0022C14BF66
:1048700040F0080140F00C01C9B20020BDE8104032
:10488000FFF732BF08B50020FFF71EFFBDE8084064
:1048900040F00201C9B20020FFF726BF08B5002092
:1048A000FFF712FFBDE8084000F0FD010020FFF710
:1048B0001BBF40F6DD13984206D840F66213B0F5F0
:1048C000166F38BF184600E01846A0F51661C9B249
:1048D0000520FFF709BF10B504460620FFF7F4FED8
:1048E000FA2C00F0D70102D141F0200104E0B4F528
:1048F000FA6F08BF41F008010620BDE81040FFF73D
:10490000F3BE10B504460620FFF7DEFE032C28BFD9
:10491000032420F0060040EA4401C9B20620BDE8A5
:104920001040FFF7E1BEF9284FF0FA0305D9B0F5C2
:104930007A6F88BF4FF47A6000E01846B0FBF3F05E
:104940000F2900F1FF30C0B228BF0F2141EA00114A
:10495000C9B20420FFF7C8BE1130C0B2162804D86F
:10496000202928BF2021FFF7BFBE7047032804D0AD
:10497000042814BF0321022100E001210320FFF7D6
:10498000B3BE0A46002301463020FFF71BBE0A468D
:10499000002301462A20FFF715BEFFFF73B50E4620
:1049A00015460446FFF72DFFFFF7E8FE2B4B4FF0AF
:1049B0008072DA61FFF772FF002211460120FFF7D3
:1049C00026FFFFF7A7FE0220FFF740FF3046FFF764
:1049D00070FF2846FFF77FFF0320FFF792FF0321B8
:1049E0000220FFF781FE00210120FFF77DFE032159
:1049F0004FF4FA70FFF797FF21460020FFF7ACFF56
:104A000000211220FFF770FE00211320FFF76CFE3B
:104A100000211420FFF768FE00211520FFF764FE37
:104A200000211620FFF760FE0D4B18681B790090DF
:104A300005208DF80430FFF799FF68460521FFF740
:104A4000A0FF05216846FFF7A2FFFFF71BFF4FF409
:104A5000FA6004F02BFD02B070BD00BF20C0092039
:104A6000C77802002DE9F0412B4C226822B92021A1
:104A7000032007F051F92060284D2A6822B920212F
:104A8000012007F049F92860254E316821B9032239
:104A9000012007F041F93060306806F02EFE214F0A
:104AA00017F80080306806F023FE1F4A0146404692
:104AB00006F0A0F9206806F020FE3E5C206806F0B3
:104AC00017FE1A4A0146304606F094F9286806F0A7
:104AD00014FE3E5C286806F00BFE154A014630467F
:104AE00006F088F94FF4FA6240F6C3112020FFF770
:104AF00055FFFFF72DFE16200E4A012105F04CF858
:104B0000206838B1054B186820B1054B1868003093
:104B100018BF0120BDE8F081FCC40720F8C40720BD
:104B200000C5072050C00720CC780200D8780200CA
:104B3000E1780200E14B010070B50379014603F012
:104B4000C003C02B0CBF0E4B0E4B88B01D6800235A
:104B500006461A46284607F031F9044660B903466E
:104B600002466946284607F04FFB23462246314657
:104B7000284607F023F90446204608B070BD00BF60
:104B8000F8C40720FCC4072038B504460D46FFF7DB
:104B9000F9F9237883420AD0E37843B90CF060F93D
:104BA000BD2300F0030000FB033004F07FFCFFF79F
:104BB000C7FDFFF7B9FDA9B22046FFF7E5FDFFF7F6
:104BC000D9FDFFF7C5FD08F05FFA022804D1034BB9
:104BD0000021186807F0A6FA012038BD00C507209B
:104BE00007B5002302A941F8043D084B186807F0F7
:104BF00099FA019B3BB1064B4FF080521A60BFF30C
:104C00004F8FBFF36F8F03B05DF804FB00C5072023
:104C100004ED00E038B504460D46FFF7DBFD48B172
:104C2000A9B22046FFF7E3FDFFF7D4FD08B9FFF76F
:104C3000DAFD012038BD2DE9704305460E461446C5
:104C400008F022FA022807D12246002331462846DE
:104C500007F0DAFAC4B21DE008F004FE4FF47A72ED
:104C600000230AF0A9FA10EB040841F1000900231F
:104C70001A463146284607F0C7FAC4B254B908F0BC
:104C8000F1FD4FF47A7200230AF096FA894508BFC5
:104C90008045ECD22046BDE87083042938B505462E
:104CA00003D1041C18BF012400E0002408F0DAFD41
:104CB0002CB14FF47A7200230AF07EFA2860204665
:104CC00038BDFFFF00B50C4B8DB009930B4B0C4A60
:104CD0000B930C4B0A930CAB43F8102D002204925B
:104CE0000FCB8DE80F00084B084A01216A20FFF71F
:104CF000FFF90DB05DF804FB654A0100154C010099
:104D00009B4C0100894B0100394B0100EB780200FC
:104D1000024B0A4601461868FFF78DBFFCC4072006
:104D2000024B0A4601461868FFF785BFF8C4072002
:104D300008B508F0A9F90F4B02285B6913D15A0294
:104D40000DD5FFF709FC00280B484FF0000314BFF6
:104D500001224FF0FF321946006807F055FABDE80E
:104D60000840FFF797BA5B02F9D5FFF7F5FB00287B
:104D7000F5D108BD00C0092000C50720F0B5864662
:104D800087B0114F4C1101F01F0501AE4570047042
:104D90000FCF0FC670463B680321336006AB03EBB1
:104DA000840353F8143C6D00CEF80430E30003F1A3
:104DB000804303F530331A6801FA05F522EA050548
:104DC0001D6007B0F0BD00BFF07802004168407878
:104DD0000A680123834022EA03030B60704741689D
:104DE00040780A680123834013430B607047417881
:104DF000426801238B4093617047417842680123E8
:104E00008B40D3617047FFFF30B543780578064C7F
:104E10005B0054F83520032101FA03F322EA03036F
:104E200044F8353030BD00BF40C0024010B5094ADB
:104E300004780123407821B152F8241083400B43B9
:104E400004E052F82410834021EA030342F824309E
:104E500010BD00BF68C0024010B50446FFF7B6FFA2
:104E600000212046FFF7E2FF2046FFF7CDFF204656
:104E700010BD13460A460179006805F03CBB1FB51A
:104E8000002204AB047923F8042D0222009200686A
:104E90000A46214605F01AFB9DF80C009DF80D30DE
:104EA00043EA002004B010BD10B5044619222A219F
:104EB000FFF7DFFF0D222179206805F00BFBA0F141
:104EC0002A035842584110BD044A13881F2B9FBF24
:104ED000581C1080024A42F82310704708C507206A
:104EE0000CC50720154AF0B513881646012B21D9A9
:104EF000134A00201546013B984206DA51681468AF
:104F00000130091B42F8041BF6E700210C466A68D1
:104F10004FF0010E02EB52008AB2934208DD55F8C1
:104F200022700131B8423CBF0EFA02F21443F3E79B
:104F3000044B1C6000233380F0BD00BF08C5072070
:104F40000CC5072004C5072008B50121022008F080
:104F50001DFC084B01209A6A22F007029A629A6AA5
:104F600042F006029A62044AD36843F03003D360E9
:104F700008BD00BF0080004000C0024008B5044BDF
:104F8000417101F07F015A5C0321FFF772FF08BDF8
:104F90000479020008B5044B817101F07F015A5C6D
:104FA0000221FFF766FF08BD0479020038B5044608
:104FB0000179006805F0AAFA054688B100220621A9
:104FC0002046FFF756FF002207212046FFF751FF3A
:104FD0002E212046FFF7D2FF2E212046FFF7DAFFD1
:104FE000284638BD642370B5B1FBF3F404FB1311FC
:104FF000CCB20A21B4FBF1F501FB15413031C9B245
:105000000646FFF7C7FF092C88BF05F1300130467F
:10501000BDE8704094BF2021C9B2FFF7AFBF0120A7
:105020007047FFFF38B50D46044608F0A5F905F0B6
:105030000F032370114B15F0010F4FF0010214BF45
:10504000DA619A61227812F0020F4FF0020214BF67
:10505000DA619A61227812F0040F4FF0100214BF47
:10506000DA619A61227812F0080F4FF4807214BF4F
:10507000DA619A61BDE8384008F08EB920C0092095
:1050800038B50D46044608F077F9691E012303FA86
:1050900001F1237820461943C9B22170FFF7C2FFFE
:1050A000BDE8384008F078B938B50D46044608F038
:1050B00063F9691E012303FA01F12378204623EAEC
:1050C00001012170FFF7AEFFBDE8384008F064B978
:1050D0000AB1FFF7D5BFFFF7E7BF38B50D46044665
:1050E00008F04AF9691E012303FA01F123782046EA
:1050F0005940C9B22170FFF795FFBDE8384008F06C
:105100004BB901207047022004F08CBA012070478F
:10511000044B5B69180B00F00C00C3F341231843E8
:10512000704700BF20C009200139032908B505D800
:10513000FFF7EEFF084100F0010008BD002008BDA8
:1051400010B5044681220121FFF793FE0122217947
:10515000206805F0BFF910F0600F14BF0120002097
:1051600010BD38B500210446FFF789FE812205B243
:1051700001212046FFF77DFE102095FBF0F009F09D
:1051800031FE4FF0765109F081FEA16809F076FDFD
:1051900038BDFFFF08B5FFF7E4FF054909F076FECB
:1051A000044909F027FF4FF0844109F067FD08BD6D
:1051B000000010410000A0402DE9F04FADF2546D09
:1051C0000C4690460146012282A8994602F050F80A
:1051D000002867D121460A220DF22C4002F048F83F
:1051E000044620B182A802F0ACFA20465AE06D468F
:1051F000064607462860019008F034FB4FF47A72A7
:10520000002309F0D9FF2B4683464FF4007202A910
:1052100082A802F0C7F88246E0B92A68D2B108F045
:1052200021FB4FF47A72002309F0C6FFB0EB0B00AC
:10523000074408F017FB4FF47A72002309F0BCFF13
:1052400001AB83462A6802A90DF22C4002F062F9F4
:105250008246B0B1B8F1000F01D0C8F80070B9F1C2
:10526000000F01D0C9F80060DDF8783603B11C608A
:1052700082A802F066FA0DF22C4002F062FA504663
:1052800010E001992A689142E4D108F0EBFA00237A
:105290004FF47A7209F090FF2B68B0EB0B000644D4
:1052A0001C44A9E70DF2546DBDE8F08FF0B5ADF5E3
:1052B0000B7D0E46174601461D460122002301A81C
:1052C000009301F0D5FF044670B91DB1294601A82D
:1052D00002F049FA6B463A46314601A802F062F8FC
:1052E000044601A802F02DFA20460DF50B7DF0BD15
:1052F000F0B5ADF50B7D0E46174601461D460A2258
:10530000002301A8009301F0B3FF044670B91DB15A
:10531000294601A802F027FA6B463A46314601A811
:1053200002F0F8F8044601A802F00BFA20460DF549
:105330000B7DF0BDF0B5ADF50B7D0E461746014671
:105340001D461222002301A8009301F091FF04469C
:1053500080B90DB1294600E0049901A802F003FAD2
:105360006B463A46314601A802F0D4F8044601A83B
:1053700002F0E7F920460DF50B7DF0BD7F2810B552
:1053800016D931B1FF2812D80A4B803833F81000F3
:1053900010BD084A32F811408BB2844203D001316B
:1053A0008029F7D10B4603F18000C0B210BD002068
:1053B00010BD00BF847902000649002331F8132094
:1053C00032B1824201D00133F8E7034A32F81300C8
:1053D000704700BF847A0200647C020070B501202F
:1053E0000D4606F0DFFD2860044606F086F9074BFF
:1053F0001E5C286806F07CF9054A0146304605F037
:10540000F9FC201C18BF012070BD00BF50C0072050
:10541000447E02000120704710B5044607F034FEB8
:1054200002280AD1002319464FF0FF32204606F029
:10543000EBFE431E5842584110BD012010BD10B56F
:10544000044607F021FE022807D100232046BDE8CC
:1054500010401A46194606F0B1BC10BD10B50446FE
:1054600004F01CFE24B1012C06D100F081F901E00A
:1054700000F002FD044600E0042404F037FE20465C
:1054800010BD28B1012801D00420704700F028BACF
:105490007047F8B507460C4615461E4604F0FEFD5B
:1054A0003FB1012F0CD132462946204600F020FAA8
:1054B00004E032462946204600F02AFD044600E07A
:1054C000042404F013FE2046F8BDF8B507460C4648
:1054D00015461E4604F0E2FD3FB1012F0CD13246C5
:1054E0002946204600F050FA04E03246294620467C
:1054F00000F030FD044600E0042404F0F7FD2046EF
:10550000F8BD70B506460C46154604F0C7FD36B129
:10551000012E0AD12946204600F090FA03E02946E0
:10552000204600F037FD044600E0042404F0DEFDD0
:10553000204670BD08B508F095F94FF47A72002343
:1055400009F03AFE08BDFFFF10B5044608F00CFB59
:10555000074BB0FBF3F00223B0FBF3F2944202D30B
:10556000044A136110BDB3F5807FF9D00233F3E72D
:1055700040420F0000000340044B9860DA68D206F6
:10558000FCD4024B9868C0B2704700BF00000340D3
:1055900070B5FFF7CFFF00F5FA74FF20FFF7ECFFBF
:1055A0000025FF20FFF7E8FFFF28064605D0FFF79C
:1055B000C1FFA94208BFA042F3D3304670BDFFFF30
:1055C00038B5064C4FF00075E561FFF7E1FF044A7E
:1055D000A561137843F00103137038BD20C0092082
:1055E0000AC007202DE9704306460D46FFF7A2FFCB
:1055F000643080464FF00009FF20FFF7BDFFFF2811
:1056000008D1FFF797FF494508BF4045F4D3002074
:10561000BDE87083FE28FAD1102D06D900224FF480
:105620000071304604F0D8FC19E0341D0435FF2029
:10563000FFF7A2FF04F8040CFF20FFF79DFF04F81A
:10564000030CFF20FFF798FF04F8020CFF20FFF780
:1056500093FF043404F8050C2B1BDE42E7D1FF2036
:10566000FFF78AFFFF20FFF787FF0120BDE8708367
:1056700070B506460D46FFF78BFFFF28044619D18B
:105680002846FFF779FFFD2D16D022464FF4007112
:10569000304604F0A1FC2046FFF76EFF2046FFF7DE
:1056A0006BFF2046FFF768FF00F01F00431F5842C2
:1056B000584170BD002070BD012070BD020638B594
:1056C00004460D4607D500217720FFF7F7FF012894
:1056D00038D804F07F041C4B4FF000729A61DA61F5
:1056E000FFF756FFFF28014628D12046FFF744FF69
:1056F000280EFFF741FFC5F30740FFF73DFFC5F355
:105700000720FFF739FFE8B2FFF736FF402C17D02C
:10571000482C14BF01208720FFF72EFF4C2C02D10C
:105720000846FFF729FF0A21FF20FFF725FF0306A0
:1057300008D5013911F0FF01F6D138BDFF2038BD81
:105740009520EEE738BD00BF20C00920064A074972
:1057500013784969DBB2490154BF03F0FD0343F0FC
:1057600003031370704700BF0AC0072020C0092040
:105770002DE9F743FFF7EAFF564B1A781E4612F061
:10578000020F01D01878A1E00120FFF7DDFE0A2406
:10579000FF20013CFFF7F0FE14F0FF04F8D14E4F5C
:1057A0004FF00073FB6121464020FFF787FF01287F
:1057B00002D04FF0000875E0FFF7BCFE4FF4D57142
:1057C00000F57A754820FFF779FF012841D10DF1E6
:1057D0000408FF20FFF7D0FE08F804000134042C71
:1057E000F7D19DF80630012BE3D19DF80730AA2BA5
:1057F000DFD12C460025FFF79DFEA94208BFA0423D
:1058000006D3FFF797FEA94208BFA042D1D207E016
:105810004FF08041E920FFF751FF0028EBD1F0E77E
:1058200000217A20FFF74AFF0028C2D10146FF205D
:10583000FFF7A2FE08F8010001310429F7D19DF815
:10584000043013F0400F14BF4FF00C084FF0040861
:1058500028E02146E920FFF731FF02282C4635BF1A
:105860004FF002084FF001084FF0E9094FF04109ED
:105870000025FFF75FFEA94208BFA0420BD3FFF748
:1058800059FEA94208BFA0420CD34FF4007150202A
:10589000FFF714FF06E000214846FFF70FFF00283E
:1058A000E7D1ECE70D4B83F800804FF00073BB614C
:1058B000B8F1000F07D03378182003F0FE033370DF
:1058C000FFF742FE01E0FFF77BFE3078C0B203B085
:1058D000BDE8F0830AC0072020C009208CC507203E
:1058E00008B5FFF733FF014B187808BD0AC0072041
:1058F00070B5144606460846FFF728FF002C39D03D
:105900001E4B1B78DB0737D41D4B4FF00072DA615A
:105910001C4A1D46127812F0080F08BF4002012CE5
:1059200001460CD15120FFF7C9FEE0B94FF40071D8
:105930003046FFF757FEB0FA80F4640913E05220B6
:10594000FFF7BCFE78B94FF400713046FFF74AFE0E
:1059500028B1013C14F0FF0406F50076F3D10021D4
:105960004C20FFF7ABFE4FF00073201CAB6118BF5B
:10597000012070BD042070BD032070BD0AC0072047
:1059800020C009208CC50720F8B5144606460F46EE
:10599000FFF7DCFE002C44D0254B1A78D20742D406
:1059A0001B785B0741D4234B4FF00072DA61224A27
:1059B0001D46127812F0080F08BF7F02012C0CD18F
:1059C00039465820FFF77AFE18BBFE213046FFF714
:1059D0004FFEB0FA80F464091CE012F0060F03D009
:1059E0002146D720FFF76AFE39465920FFF766FEA9
:1059F00080B9FC213046FFF73BFE28B1013C14F092
:105A0000FF0406F50076F4D1FD210020FFF730FEFB
:105A100000B901244FF00073201CAB6118BF0120B6
:105A2000F8BD0420F8BD0320F8BD0220F8BD00BF7A
:105A30000AC0072020C009208CC507207FB50D466D
:105A4000FFF784FE05281AD12B78012B00F0048182
:105A500003D3022B0BD0042001E1824B586910F0D4
:105A6000806440F0F980FFF7ABFD2046F7E07D4B06
:105A70005B6983F08063C3F380636B70ECE07A4B07
:105A80001B78DB0700F1EA800E2800F2DF80DFE8F8
:105A900000F008124F53DDDDDDDDDDDDAAAFB2BB66
:105AA000CB00704B4FF00072DA61FFF771FDFF38E9
:105AB00018BF0120CBE000214920FFF7FFFD04467D
:105AC00008B10120C3E010216846FFF78BFD0028D4
:105AD000F7D09DF800309DF808109B09012B9DF828
